:100000000C946B000C94F30A0C94DC0A0C9488009A
:100010000C9488000C947C0C0C9488000C94880040
:100020000C9488000C941B110C9488000C94040E02
:100030000C9488000C9488000C9488000C94880020
:100040000C9488000C9488000C9488000C94880010
:100050000C94880007634236B79BD8A71A396856B4
:1000600018AEBAAB558C1D3CB7CC5763BD6DEDFDDA
:10007000753EF6177231BF000000803F0800000097
:10008000BE922449123EABAAAA2ABECDCCCC4C3E8D
:1000900000000080BEABAAAAAA3E00000000BF007C
:1000A0000000803F0000000000084178D3BB438778
:1000B000D1133D190E3CC3BD4282AD2B3E68EC828C
:1000C00076BED98FE1A93E4C80EFFFBE01C4FF7F11
:1000D0003F000000000011241FBECFE5D4E0DEBFCA
:1000E000CDBF10E0A0E6B0E0E2E1F4E302C005908D
:1000F0000D92AC36B107D9F711E0ACE6B0E001C023
:100100001D92A931B107E1F70E9454130C94071A0C
:100110000C9400001BBC8ABD19BC68BD0895809179
:10012000F2009091F300009751F48091AE0090910D
:10013000AF0007979093AF008093AE000895809131
:10014000F2009091F3008130910551F48091AE005E
:100150009091AF0001969093AF008093AE00089508
:100160008091F2009091F3008230910551F48091DA
:10017000AE009091AF0007969093AF008093AE00D1
:1001800008958091F2009091F3008330910549F435
:100190008091AE009091AF0001979093AF00809353
:1001A000AE00089510929F0010929E001092A10040
:1001B0001092A0001092A3001092A2000895CF9375
:1001C000DF93EC01209190003091910040919000DC
:1001D0005091910012161306C4F441505040A7EB01
:1001E000B0E0FA01EE0FFF1FEA0FFB1F6081718183
:1001F000C901880F991F8A0F9B1FFC0171836083BF
:10020000415050402150304061F7D093B800C09326
:10021000B700DF91CF9108950E94C00A83E290E079
:1002200063E270E00E948A008FEF9FEFA1E18150AE
:100230009040A040E1F700C0000008950E94C00A6D
:1002400083E290E063E270E00E948A008FEF9FE714
:10025000ADE081509040A040E1F700C0000081E097
:1002600090E00E94F20B08950E94C00A83E290E0A1
:1002700063E270E00E948A008FEF9FE7ADE081505B
:100280009040A040E1F700C0000080E090E00E94B4
:10029000F20B08950E94C00A83E290E063E270E0EE
:1002A0000E948A008FEF9FE7ADE081509040A04010
:1002B000E1F700C0000082E090E00E94F20B089598
:1002C00084B3876084BB85B3887F85BB089584B37E
:1002D0008FEF84BB85B385BB81B3826381BB0895F7
:1002E0001ABA1BBA08951EBC8FEF8DBD91E09CBD5C
:1002F0001BBC8ABD19BC88BD17BC86BD81EA8FBDF9
:100300008DE08EBD08958F9A82E083BF8BEE82BF11
:1003100081E089BF089516B880E287B980E888B97E
:1003200086E886B9089587B38F6087BB88B3807FDE
:1003300088BB81B3806381BB82B3806382BB089535
:100340001AB81BB886E880BD8FE289B910BC88E96D
:100350008AB908958A98929A08958B98939A0895E5
:10036000A39AAB98089585B7886085BF8BB78068DE
:100370008BBF089585B7826085BF8BB780648BBFC4
:10038000089584B3876F84BB85B3807885BB089557
:100390000E9493010E94B0010E94A0010E94AA0144
:1003A0000E94AD010E9470010E9467010E946001DD
:1003B0000895F8940E94C8010E9473010E948B0165
:1003C0000E94BA010E94B3010E94830178940895AB
:1003D0008770806287B9369A349BFECF85B1349A94
:1003E000089583B3886085BB089583B3877F85BBF9
:1003F00008950E94F1018FEF9FE3A2E081509040A9
:10040000A040E1F700C000000E94F50108952F927E
:100410003F924F925F926F927F928F929F92AF9294
:10042000BF92CF92DF92EF92FF920F931F93CF93E1
:10043000DF93CDB7DEB728970FB6F894DEBF0FBEB7
:10044000CDBF8091F2009091F300009739F40091B4
:10045000B7001091B800095F1F4F29C08091F200CA
:100460009091F3008130910539F40091B70010911B
:10047000B800015010401BC08091F2009091F30031
:100480008230910539F40091B7001091B8000750FF
:1004900010400DC08091F2009091F30083309105DF
:1004A00031F40091B7001091B8000F5F1F4FC801E1
:1004B0000E94DF001093AF000093AE002091B700C0
:1004C0003091B8003E832D834091B9005091BA001D
:1004D0005C834B838091BB009091BC009A8389839D
:1004E0008091B9009091BA008336910509F4E0C17A
:1004F000662477246394222433240F2EF7EB4F2EA7
:10050000F0E05F2EF02D83E00E94E80180937700F9
:1005100084E00E94E8018093760085E00E94E80173
:100520008093750090E020917700821B9109909351
:100530000F0180930E0160910E0170910F01C09028
:100540006700D0906800E0906900F0906A00A09188
:100550000E01B0910F01B887AF8300917800109120
:1005600079008090630090906400A0906500B09046
:100570006600882777FD8095982F0E948C17A70129
:1005800096010E9418186B017C016F817885601BB1
:10059000710B882777FD8095982F0E948C17A501F5
:1005A00094010E9418189B01AC01C701B6010E947A
:1005B0008D160E945917DC01CB0120910E0130915C
:1005C0000F0130937900209378000091620010E0D1
:1005D000209161006C01C20ED11C081B190B0E3258
:1005E000110514F00DE210E0BEE2CB16D1042CF0A0
:1005F0000F2EFDE2CF2EDD24F02D0E94C00AC60191
:1006000099230CF4C101B80111230CF4B1010E942B
:100610008A0080917600893208F43BC1809177008E
:10062000893208F436C180917500893208F431C1ED
:100630000E948F000E94970A0E94F901E981FA81C5
:10064000E336F10509F434C1CF012B813C81821BD3
:10065000930B8130910509F043C089014D815E8182
:10066000041B150B0130110519F40E940C010DC07B
:100670000730110519F40E9434010DC05FEF093FE6
:10068000150719F40E941E0106C08FEF0F3F1807CF
:1006900011F40E944A0193012F5F3F4FF301EE0FC7
:1006A000FF1FE40DF51DA081B181BE83AD83C9019B
:1006B000880F991F840D951DFC010190F081E02D9C
:1006C000FC83EB83C3010296880F991F840D951D4F
:1006D000DC010D90BC91A02DBA83A9833901D9C04A
:1006E0008730910509F044C00B811C81ED81FE81AA
:1006F0000E1B1F0B0730110519F40E940C010DC0D1
:10070000FFEF0F3F1F0719F40E9434010CC00130A6
:10071000110519F40E941E0106C02FEF093F1207B0
:1007200011F40E944A0193012F5F3F4FF301EE0F36
:10073000FF1FE40DF51D408151815E834D83C9018A
:10074000880F991F840D951DDC010D90BC91A02D83
:10075000BC83AB83C3010296880F991F840D951D3E
:10076000FC010190F081E02DFA83E983390191C009
:10077000FFEF893F9F0709F044C00B811C812D8149
:100780003E81021B130B3FEF093F130719F40E9430
:100790000C010DC00130110519F40E9434010CC088
:1007A0004FEF0F3F140719F40E941E0105C00730D8
:1007B000110511F40E944A0193012F5F3F4FF3018D
:1007C000EE0FFF1FE40DF51D808191819E838D83C7
:1007D000C901880F991F840D951DDC010D90BC91F6
:1007E000A02DBC83AB83C3010296880F991F840D93
:1007F000951DFC010190F081E02DFA83E983390118
:1008000048C0FFEF8F3F9F0709F043C00B811C8159
:100810002D813E81021B130B3FEF0F3F130719F48D
:100820000E940C010DC04FEF093F140719F40E94FC
:1008300034010BC00730110519F40E941E0105C0D8
:100840000130110511F40E944A0193012F5F3F4FBF
:10085000F301EE0FFF1FE40DF51D808191819E8352
:100860008D83C901880F991F840D951DDC010D90A2
:10087000BC91A02DBC83AB83C3010296880F991F46
:10088000840D951DFC010190F081E02DFA83E98330
:1008900039010E94C40AC301880F991F840D951D58
:1008A000DC018D919C9111978336910509F02BCE37
:1008B0008091960090919700019690939700809375
:1008C000960083E090E00E949B0A2FEF3FE34BE00D
:1008D000215030404040E1F700C0000080E88CB972
:1008E00081E090E090939F0080939E0028960FB641
:1008F000F894DEBF0FBECDBFDF91CF911F910F9156
:10090000FF90EF90DF90CF90BF90AF909F908F902F
:100910007F906F905F904F903F902F90089581E06F
:1009200090E00E94F20B08956F927F928F929F92B7
:10093000AF92BF92CF92DF92EF92FF920F931F93ED
:10094000CF93DF93662477249FC083E00E94E80161
:100950008093770084E00E94E8018093760085E030
:100960000E94E8018093750090E020917700821B3F
:10097000910990930F0180930E0160910E01709187
:100980000F01C0906700D0906800E0906900F0907F
:100990006A00C0910E01D0910F0100917800109172
:1009A00079008090630090906400A0906500B09002
:1009B0006600882777FD8095982F0E948C17A701E5
:1009C00096010E9418186B017C01BE01601B710B1F
:1009D000882777FD8095982F0E948C17A501940198
:1009E0000E9418189B01AC01C701B6010E948D1628
:1009F0000E94591780910E0190910F0190937900F8
:100A0000809378000091620010E080916100EB011A
:100A1000C80FD11D061B170B0E32110514F00DE285
:100A200010E0CE32D10514F0CDE2D0E00E94C00A31
:100A3000CE01DD230CF4C301B80111230CF4B30182
:100A40000E948A00809176008932F0F080917700D0
:100A50008932D0F0809175008932B0F00E948F0009
:100A60000E94970A0E94F9018091AE009091AF0018
:100A70008D30910539F40E941E0184E690E00E94B9
:100A8000550B02C00E940C018091AE009091AF0006
:100A90008D30910509F059CFDF91CF911F910F91C2
:100AA000FF90EF90DF90CF90BF90AF909F908F908E
:100AB0007F906F9008953F924F925F926F927F92D6
:100AC0008F929F92AF92BF92CF92DF92EF92FF925E
:100AD0000F931F93CF93DF93662477245524539469
:100AE00033243A944424D4C083E00E94E8018093E4
:100AF000770084E00E94E8018093760085E00E9400
:100B0000E8018093750090E020917700821B9109A5
:100B100090930F0180930E0160910E0170910F016F
:100B2000C0906700D0906800E0906900F0906A0083
:100B3000C0910E01D0910F010091780010917900C1
:100B40008090630090906400A0906500B090660073
:100B5000882777FD8095982F0E948C17A701960112
:100B60000E9418186B017C01BE01601B710B882765
:100B700077FD8095982F0E948C17A50194010E9403
:100B800018189B01AC01C701B6010E948D160E9486
:100B9000591780910E0190910F01909379008093E5
:100BA00078000091620010E080916100EB01C80FB5
:100BB000D11D061B170B0E32110514F00DE210E0CB
:100BC000CE32D10514F0CDE2D0E00E94C00ACE01B1
:100BD000DD230CF4C301B80111230CF4B3010E940E
:100BE0008A0080917600893208F452C080917700A3
:100BF000893208F44DC080917500893208F448C0EC
:100C00000E948F000E94970A0E94F9018091AE0015
:100C10009091AF002091AE003091AF00452D883209
:100C2000910509F0442D442339F4852D2C303105EC
:100C300009F0842D882319F00E941E0129C080919B
:100C4000AE009091AF008D30910501F583E090E00A
:100C50000E949B0A709297006092960070928700A3
:100C600060928600709299006092980080919A003C
:100C700090919B00019690939B0080939A003092F4
:100C80009200709297006092960002C00E940C0140
:100C90008091AE009091AF008D30910509F024CF86
:100CA000DF91CF911F910F91FF90EF90DF90CF9048
:100CB000BF90AF909F908F907F906F905F904F907C
:100CC0003F9008955F926F927F928F929F92AF9222
:100CD000BF92CF92DF92EF92FF920F931F93CF9329
:100CE000DF936624772455245A94B4C083E00E948D
:100CF000E8018093770084E00E94E8018093760009
:100D000085E00E94E8018093750090E020917700D3
:100D1000821B910990930F0180930E0160910E0147
:100D200070910F01C0906700D0906800E09069005A
:100D3000F0906A00C0910E01D0910F0100917800EF
:100D4000109179008090630090906400A0906500FD
:100D5000B0906600882777FD8095982F0E948C17A9
:100D6000A70196010E9418186B017C01BE01601B4F
:100D7000710B882777FD8095982F0E948C17A5010D
:100D800094010E9418189B01AC01C701B6010E9492
:100D90008D160E94591780910E0190910F0190932A
:100DA0007900809378000091620010E080916100EA
:100DB000EB01C80FD11D061B170B0E32110514F0E5
:100DC0000DE210E0CE32D10514F0CDE2D0E00E9469
:100DD000C00ACE01DD230CF4C301B80111230CF4C9
:100DE000B3010E948A0080917600893298F1809147
:100DF0007700893278F180917500893258F10E942C
:100E00008F000E94970A0E94F9018091AE00909194
:100E1000AF008B31910519F00E940C011BC083E0DB
:100E200090E00E949B0A7092870060928600709208
:100E300099006092980080919A0090919B00019691
:100E400090939B0080939A0050929200709297002A
:100E5000609296008091AE009091AF008B31910529
:100E600009F044CFDF91CF911F910F91FF90EF9048
:100E7000DF90CF90BF90AF909F908F907F906F90BA
:100E80005F9008952F923F924F925F926F927F9260
:100E90008F929F92AF92BF92CF92DF92EF92FF928A
:100EA0000F931F93CF93DF933C018DE0681671047D
:100EB00041F48091980090919900009709F01EC12B
:100EC0000DC097E06916710409F018C1809198006F
:100ED000909199008233910509F010C186E990E064
:100EE0000E94550B81E090E09093970080939600CC
:100EF00012C183E00E94E8018093770084E00E94A1
:100F0000E8018093760085E00E94E80180937500F7
:100F100090E020917700821B910990930F018093BC
:100F20000E0160910E0170910F01C0906700D0908A
:100F30006800E0906900F0906A00C0910E01D091C5
:100F40000F010091780010917900809063009090DB
:100F50006400A0906500B0906600882777FD8095BA
:100F6000982F0E948C17A70196010E9418186B01F8
:100F70007C01BE01601B710B882777FD8095982F3F
:100F80000E948C17A50194010E9418189B01AC01C6
:100F9000C701B6010E948D160E945917DC01CB01D2
:100FA00020910E0130910F01309379002093780049
:100FB0000091620010E020916100EC01C20FD11D90
:100FC000081B190B0E32110514F00DE210E0CE32A1
:100FD000D10514F0CDE2D0E00E94C00ACE01DD239D
:100FE0000CF4C201B80111230CF4B2010E948A0072
:100FF00080917600893208F486C08091770089322A
:1010000008F481C080917500893208F47CC00E9488
:101010008F000E94970A0E94F9018091AE00909182
:10102000AF0086159705B9F48091AE009091AF009E
:101030008D30910581F08091AE009091AF008730A6
:10104000910549F082ED90E00E94550B3092970097
:101050002092960058C08091AE009091AF00861506
:101060009705F9F48091AE009091AF00873091051B
:10107000C1F48091980090919900009791F4C1017A
:101080000E949B0AE2E3F0E0F0939900E09398005D
:1010900050928700409286005092970040929600AE
:1010A00032C08091AE009091AF008615970519F57A
:1010B0008091AE009091AF008D309105E1F4809168
:1010C00098009091990082339105A9F482E090E014
:1010D0000E949B0AF0E8FCB9EEE9F0E03182208240
:1010E00082E090E0909397008093960030921401F4
:1010F0002092130108C00E940C0105C0442455240D
:101100002224332423948091AE009091AF00861561
:10111000970509F0EECEDF91CF911F910F91FF90CF
:10112000EF90DF90CF90BF90AF909F908F907F9087
:101130006F905F904F903F902F9008952F923F9225
:101140004F925F926F927F928F929F92AF92BF92D7
:10115000CF92DF92EF92FF920F931F93CF93DF9383
:101160003C018BE16816710441F4809198009091E4
:101170009900009709F01DC10DC095E16916710431
:1011800009F017C1809198009091990082339105E0
:1011900009F00FC186E990E00E94550B81E090E0D4
:1011A000909397008093960011C183E00E94E8011C
:1011B0008093770084E00E94E8018093760085E0C8
:1011C0000E94E8018093750090E020917700821BD7
:1011D000910990930F0180930E0160910E0170911F
:1011E0000F01C0906700D0906800E0906900F09017
:1011F0006A00C0910E01D0910F010091780010910A
:1012000079008090630090906400A0906500B09099
:101210006600882777FD8095982F0E948C17A7017C
:1012200096010E9418186B017C01BE01601B710BB6
:10123000882777FD8095982F0E948C17A50194012F
:101240000E9418189B01AC01C701B6010E948D16BF
:101250000E945917DC01CB0120910E0130910F0142
:1012600030937900209378000091620010E0209183
:101270006100EC01C20FD11D081B190B0E321105C4
:1012800014F00DE210E0CE32D10514F0CDE2D0E042
:101290000E94C00ACE01DD230CF4C201B801112363
:1012A0000CF4B2010E948A0080917600893208F421
:1012B00085C080917700893208F480C080917500E4
:1012C000893208F47BC00E948F000E94970A0E9416
:1012D000F9018091AE009091AF0086159705B9F4A1
:1012E0008091AE009091AF008B31910581F080919B
:1012F000AE009091AF008531910549F082ED90E00C
:101300000E94550B309297002092960057C0809112
:10131000AE009091AF0086159705F9F48091AE006C
:101320009091AF0085319105C1F480919800909122
:101330009900009791F4C1010E949B0A5092970076
:1013400040929600E2E3F0E0F0939900E093980079
:10135000509287004092860031C08091AE009091FB
:10136000AF008615970511F58091AE009091AF0002
:101370008B319105D9F48091980090919900823336
:101380009105A1F4C2010E949B0AF0E8FCB9EEE9C4
:10139000F0E03182208282E090E090939700809389
:1013A0009600309214012092130108C00E940C0193
:1013B00005C0442455242224332423948091AE0074
:1013C0009091AF008615970509F0EFCEDF91CF9190
:1013D0001F910F91FF90EF90DF90CF90BF90AF9053
:1013E0009F908F907F906F905F904F903F902F9045
:1013F00008958F929F92AF92BF92CF92DF92EF9219
:10140000FF920F931F93CF93DF9383E00E94E80135
:101410008093770084E00E94E8018093760085E065
:101420000E94E8018093750090E020917700821B74
:10143000910990930F0180930E0160910E017091BC
:101440000F01C0906700D0906800E0906900F090B4
:101450006A00C0910E01D0910F01009178001091A7
:1014600079008090630090906400A0906500B09037
:101470006600882777FD8095982F0E948C17A7011A
:1014800096010E9418186B017C01BE01601B710B54
:10149000882777FD8095982F0E948C17A5019401CD
:1014A0000E9418189B01AC01C701B6010E948D165D
:1014B0000E94591780910E0190910F01909379002D
:1014C000809378000091620010E080916100EB0150
:1014D000C80FD11D061B170B0E32110514F00DE2BB
:1014E00010E0CE32D10514F0CDE2D0E00E94C00A67
:1014F000CE01DD2314F480E090E0B801112314F450
:1015000060E070E00E948A00DF91CF911F910F91FF
:10151000FF90EF90DF90CF90BF90AF909F908F9013
:10152000089598B3907F8F70982B98BB089580E0B2
:101530000E94910A0895EF92FF920F931F93CF9309
:10154000DF938C010E94970AC0E0D0E0EE24FF24D4
:10155000E39408C0209721F40E941E01E70102C015
:101560000E948F048091F2009091F30008171907F0
:1015700089F7DF91CF911F910F91FF90EF90089520
:1015800086E00E94910A089581E00E94E80180931C
:1015900073008556843078F40E94970A0E94F901FE
:1015A0008FEF9FEFA9E581509040A040E1F700C088
:1015B00000000E94C00A08951F920F920FB60F926A
:1015C00011248F939F9380917E0090917F000196CC
:1015D00090937F0080937E009F918F910F900FBE1C
:1015E0000F901F9018951F920F920FB60F92112413
:1015F0008F939F93AF93BF9380917A0090917B00DC
:10160000A0917C00B0917D000196A11DB11D809339
:101610007A0090937B00A0937C00B0937D00BF91F3
:10162000AF919F918F910F900FBE0F901F901895C3
:10163000BC0180E090E00E948A1722E538EB4EE47E
:1016400051E40E94F116262F372FF82FE92F462F4D
:10165000572F682F792F4093820050938300609317
:10166000840070938500822F932FAF2FBE2FBC0173
:10167000CD010E945E17DC01CB0190938100809325
:10168000800010927F0010927E000E94F909209144
:101690007E0030917F0080918000909181008217C0
:1016A000930798F70E94970A0895CF93DF93EC0170
:1016B0000E94C00ACE010E94180BDF91CF910895BD
:1016C0001F93CF93DF93BC0180E090E00E948A17C4
:1016D0002AE939E94DE451E40E94F116262F372F0B
:1016E000F82FE92F462F572F682F792F409382002C
:1016F000509383006093840070938500822F932F12
:10170000AF2FBE2FBC01CD010E945E17DC01CB01C3
:10171000FC01909381008093800010927A001092D7
:101720007B0010927C0010927D0010927F0010923E
:101730007E00D1E010E0AC0160E070E020917E001E
:1017400030917F0080917A0090917B00A0917C0085
:10175000B0917D00CD2F2E173F0708F4C12FCC2369
:1017600049F42D2F84179507A607B70708F4212FF2
:10177000222321F30E94970ADF91CF911F910895B0
:1017800089E00E94910A089585E00E94910A0895D7
:101790008AE00E94910A089584E00E94910A0895C7
:1017A00082E00E94910A089581E00E94910A0895C2
:1017B00088E00E94910A0895CF93DF93EC010E9484
:1017C000C40BCE010E94600BDF91CF910895CF939F
:1017D000DF93EC010E94C80BCE010E94600BDF91E9
:1017E000CF910895009769F580E590E00E94DC0BA9
:1017F00084E00E94E801809376008C3348F40E94D4
:10180000C40B84E00E94E801809376008C33B8F327
:101810000E94970A8091F2009091F300009739F4AA
:1018200083E090E09093F3008093F200089580911C
:10183000F2009091F30001979093F3008093F200EF
:1018400008958130910511F580E590E00E94E70B45
:1018500084E00E94E801809376008C3348F40E9473
:10186000C80B84E00E94E801809376008C33B8F3C3
:101870000E94970A8091F2009091F3000196837084
:1018800090709093F3008093F20008958230910558
:1018900009F586E990E00E94E70B84E00E94E801E8
:1018A000809376008C3348F40E94C80B84E00E9439
:1018B000E801809376008C33B8F30E94970A8091F8
:1018C000F2009091F3000296837090709093F30071
:1018D0008093F20008951EBC83EE8DBD81EE8CBD19
:1018E0009CE19BBD8FE18ABD99BD88BD97BD86BD3A
:1018F0001FBC85E08EBD08951F920F920FB60F9208
:1019000011248F939F93AF93BF9380916F00909119
:101910007000A0917100B09172000196A11DB11DDF
:1019200080936F0090937000A0937100B093720049
:10193000BF91AF919F918F910F900FBE0F901F900D
:101940001895AE98AF980895AE9AAF9A0895AE984C
:10195000AF9A0895AE9AAF980895AC9AAD9808954D
:10196000AC98AD9A08950E94A10C10926F0010924D
:10197000700010927100109272008FEF9FE3A2E04E
:1019800081509040A040E1F700C0000080916F00BE
:1019900090917000A0917100B09172008093E3006B
:1019A0009093E400A093E500B093E60008950E94B0
:1019B000A40C10926F00109270001092710010929F
:1019C00072008FEF9FE3A2E081509040A040E1F7CA
:1019D00000C0000080916F0090917000A091710094
:1019E000B09172008093DF009093E000A093E1003B
:1019F000B093E20008950E94A70C10926F0010921D
:101A0000700010927100109272008FEF9FE3A2E0BD
:101A100081509040A040E1F700C0000080916F002D
:101A200090917000A0917100B09172008093B1000C
:101A30009093B200A093B300B093B4000895F894CB
:101A40000E946B0C89B7806289BF78940E94B00CA9
:101A500008950E941F0D0E94B30C8FEF9FE3ABE02F
:101A600081509040A040E1F700C000000E94D70CD8
:101A70008FEF9FE3ABE081509040A040E1F700C0C2
:101A800000000E94FB0C8FEF9FE3ABE08150904081
:101A9000A040E1F700C00000F8940E947301789420
:101AA0004091E3005091E4006091E5007091E60000
:101AB0008091DF009091E000A091E100B091E20000
:101AC00084179507A607B707D0F44091E30050911B
:101AD000E4006091E5007091E6008091B100909182
:101AE000B200A091B300B091B40084179507A60787
:101AF000B70728F41092160110921501089540912D
:101B0000DF005091E0006091E1007091E20080916F
:101B1000B1009091B200A091B300B091B4008417CD
:101B20009507A607B70738F481E090E09093160177
:101B300080931501089582E090E0909316018093C0
:101B4000150108958230C9F08233D1F08330D9F085
:101B50008333E1F08430E9F08433F1F08530F9F03B
:101B6000853301F1863009F1863311F1873019F19F
:101B7000873321F180E090E023C087E090E020C02F
:101B800087E090E01DC08EE090E01AC08EE090E00B
:101B900017C085E190E014C085E190E011C08CE1B0
:101BA00090E00EC08CE190E00BC083E290E008C0B2
:101BB00083E290E005C08AE290E002C08AE290E011
:101BC000603111F0623411F401960895683111F01A
:101BD000633411F402960895603211F0643411F404
:101BE00003960895683211F0653411F4049608954F
:101BF000603311F0663411F405960895683311F0DE
:101C0000673409F4069608951F920F920FB60F924B
:101C100011242F933F934F935F936F937F938F93F1
:101C20009F93AF93BF93CF93DF93EF93FF938CB1C9
:101C30008093120180911201882331F481E090E0B9
:101C40009093A1008093A00080911201803431F420
:101C500081E090E09093A3008093A2008091920095
:101C6000882381F580911201807C809311018091FD
:101C70001101803809F0AEC0809112018770809305
:101C8000020180911201887380931001C09190002D
:101C9000D091910080910201609110010E94A20DEB
:101CA000282F392FCC0FDD1FC954DF4F39832883EC
:101CB0008091900090919100019690939100809373
:101CC000900088C080919200813009F083C080919B
:101CD0001201807C8093110180911101803809F0FC
:101CE00079C0809112018770809302018091120166
:101CF00088738093100180910201609110010E940D
:101D0000A20D20919800309199002115310571F5AF
:101D1000982F97509730A8F4E0918E00F0918F00A3
:101D200090E0EE0FFF1FEC55FF4F91838083809171
:101D30008E0090918F00019690938F0080938E007B
:101D400049C0E0918A00F0918B0090E0EE0FFF1FF8
:101D5000E851FF4F9183808380918A0090918B009E
:101D6000019690938B0080938A0034C02091980054
:101D7000309199002233310569F5982F97509730AB
:101D8000A8F4E0918C00F0918D0090E0EE0FFF1F21
:101D9000EA50FF4F9183808380918C0090918D0059
:101DA000019690938D0080938C0014C0E091880080
:101DB000F091890090E0EE0FFF1FED5FFE4F9183E1
:101DC000808380918800909189000196909389008A
:101DD00080938800FF91EF91DF91CF91BF91AF91F8
:101DE0009F918F917F916F915F914F913F912F9133
:101DF0000F900FBE0F901F9018959C01FB01109241
:101E000093008730910508F082C0109295001092DF
:101E1000940083309105E9F18430910538F48130E4
:101E20009105C9F08230910528F50CC085309105E7
:101E300009F44DC085309105D8F18630910509F03F
:101E400099C154C089E08093930081E090E0909321
:101E50009500809394008091940090919500009754
:101E600049F481E18093930081E090E090939500A4
:101E7000809394008091940090919500009749F48C
:101E800089E18093930081E090E0909395008093A6
:101E900094008091940090919500009749F481E21C
:101EA0008093930081E090E090939500809394005C
:101EB0008091940090919500009749F489E2809375
:101EC000930081E090E0909395008093940080913E
:101ED000940090919500009749F481E380939300DA
:101EE00081E090E09093950080939400809194001D
:101EF00090919500009709F03DC189E3809393008C
:101F000081E090E0909395008093940033C110920B
:101F100095001092940067E070E00E94E019833011
:101F2000910509F444C08430910538F4813091055D
:101F3000E1F08230910550F50DC08530910509F42E
:101F400058C08530910508F443C08630910509F0EA
:101F500072C060C08091930088608093930081E09C
:101F600090E09093950080939400809194009091DC
:101F70009500009759F480919300806180939300BD
:101F800081E090E09093950080939400809194007C
:101F900090919500009759F4809193008861809307
:101FA000930081E090E0909395008093940080915D
:101FB000940090919500009759F48091930080626D
:101FC0008093930081E090E090939500809394003B
:101FD0008091940090919500009759F4809193001E
:101FE00088628093930081E090E0909395008093C5
:101FF00094008091940090919500009759F48091FD
:10200000930080638093930081E090E0909395002B
:10201000809394008091940090919500009759F4DA
:102020008091930088638093930081E090E0909387
:102030009500809394001092950010929400C9012D
:1020400067E070E00E94E0196F5F7F4F64307105B8
:1020500009F448C06530710558F46230710501F12A
:102060006330710570F56130710509F07FC00DC0F6
:102070006630710509F458C06630710508F443C034
:102080006730710509F072C060C080919300816073
:102090008093930081E090E090939500809394006A
:1020A0008091940090919500009759F4809193004D
:1020B00082608093930081E090E0909395008093FC
:1020C00094008091940090919500009759F480912C
:1020D000930083608093930081E090E0909395005B
:1020E000809394008091940090919500009759F40A
:1020F0008091930084608093930081E090E09093BE
:1021000095008093940080919400909195000097A1
:1021100059F48091930085608093930081E090E072
:1021200090939500809394008091940090919500F5
:10213000009759F48091930086608093930081E02A
:1021400090E09093950080939400809194009091FA
:102150009500009759F480919300876080939300D5
:1021600081E090E090939500809394001092950008
:1021700010929400309731F480919300806880939E
:10218000930010C0E130F10529F480919300809311
:10219000930008C0E230F10529F480919300806437
:1021A00080939300809193008CB9089585B3887FC4
:1021B000816085BB089585B3887F826085BB089563
:1021C00085B3887F846085BB089585B3887F85BB90
:1021D0000895009771F40E94D6108FEF9FE7A6E153
:1021E00081509040A040E1F700C000000E94E5103F
:1021F00008958130910571F40E94DB108FEF9FE705
:10220000A6E181509040A040E1F700C000000E948C
:10221000E51008958230910569F40E94E0108FEF77
:102220009FE7A6E181509040A040E1F700C0000088
:102230000E94E51008951F920F920FB60F9211247D
:102240008F939F9381E088BF80910D018F5F809372
:102250000D0180910D018D3710F48BEE82BF9091AE
:102260000D0180916E00981709F4979880910D01E7
:102270008D3720F087E982BF84E083BF80910D0114
:10228000823841F480E882BB82E083BF8BEE82BF5C
:1022900010920D019F918F910F900FBE0F901F9084
:1022A000189590E09C01220F331F220F331F820FDD
:1022B000931F69E070E00E94F419862FE9E9F5E1C7
:1022C0003197F1F700C0875E089584E60E945111AE
:1022D00080936E008FEF9FEAA1E081509040A04074
:1022E000E1F700C0000080E00E94511180936E0071
:1022F0008FEF9FEFA8E081509040A040E1F700C031
:10230000000008950F931F93682F70E080E090E025
:102310000E948A172FEE39EC43E95FE30E947B1895
:10232000B62FA72F382F292F60E070E080E89FE3B9
:10233000422F0B2F1A2F232F342FA90198010E940F
:10234000F1162AE939EF4EE255E40E94181820E010
:1023500030E040E251E40E9418180E945917882783
:1023600077FD8095982F0E948C170E945917862F11
:10237000972F23E08132920710F080E293E01F91C3
:102380000F91089587E00E94E80180936C000E94FD
:10239000821190931801809317012FEF3FEB46E0D5
:1023A000215030404040E1F700C0000021E030E023
:1023B0008639910510F020E030E0822F932F0895A8
:1023C0001092B0008091B0008431B0F487EB90E0BF
:1023D00023E630E0E091B000F0E0EE0FFF1FE80FE1
:1023E000F91F318320834091B0004F5F4093B000CC
:1023F0004091B000443170F308950F931F93CF9331
:10240000DF93082F162FEA010E94E011D093F3000A
:10241000C093F200802F612F0E94A20D9093AF0015
:102420008093AE008091AE009091AF0060E070E0CC
:102430000E94FD0EDF91CF911F910F910895E091C1
:102440009000F0919100EE0FFF1FEB54FF4F808141
:1024500091818932910571F480919E0090919F0045
:10246000009741F480E88CB981E090E090939F0060
:1024700080939E00089580919E0090919F008130EE
:10248000910599F48091A0009091A100813091056F
:1024900079F42091A2003091A30081E090E02130F6
:1024A000310541F080E090E0089580E090E00895EB
:1024B00080E090E008958F929F92AF92BF92CF926A
:1024C000DF92EF92FF920F931F93CF93DF9383E0FE
:1024D0000E94E8018093770084E00E94E8018093E5
:1024E000760085E00E94E8018093750090E02091DD
:1024F0007700821B910990930F0180930E016091E8
:102500000E0170910F01C0906700D0906800E090BC
:102510006900F0906A00C0910E01D0910F01009106
:102520007800109179008090630090906400A090F2
:102530006500B0906600882777FD8095982F0E94EF
:102540008C17A70196010E9418186B017C01BE012F
:10255000601B710B882777FD8095982F0E948C1740
:10256000A50194010E9418189B01AC01C701B60196
:102570000E948D160E94591780910E0190910F01B3
:1025800090937900809378000091620010E0809130
:102590006100EB01C80FD11D061B170B0E32110590
:1025A00014F00DE210E0CE32D10514F0CDE2D0E00F
:1025B0000E94C00ACE01DD2314F480E090E0B8014F
:1025C000112314F460E070E00E948A00809176008C
:1025D000893208F45CC080917700893208F457C0D2
:1025E00080917500893208F452C00E948F000E94C9
:1025F000970A0E94F9018091AE009091AF0083325A
:10260000910519F581E090E00E949B0A80E88CB961
:1026100081E090E090939F0080939E000E943B1287
:102620000097E1F30E94D20010929700109296005A
:1026300081E090E090939D0080939C0082E390E085
:10264000909399008093980022C08091AE00909161
:10265000AF0089329105A9F483E090E09093970050
:1026600080939600C1E0D0E0D0939D00C0939C0081
:102670000E949B0AD0939F00C0939E0080E88CB973
:1026800006C010929700109296000E940C01DF91F4
:10269000CF911F910F91FF90EF90DF90CF90BF905F
:1026A000AF909F908F9008952F923F924F925F929C
:1026B0006F927F928F929F92AF92BF92CF92DF9252
:1026C000EF92FF920F931F93CF93DF930E94D90154
:1026D00080E00E94511180936E008FEF9FEFA8E081
:1026E00081509040A040E1F700C000008FEF9FE3D1
:1026F000ABE081509040A040E1F700C0000082E3D1
:1027000067E443E050E00E94FD11EE24FF24E394CF
:1027100099249394C2E0D0E088248A940F2EF3E0A9
:102720002F2EF1E03F2EF02D0F2EF8EEAF2EF0E021
:10273000BF2EF02D0F2EFEE94F2EF0E05F2EF02D74
:102740000F2EF6EF6F2EF0E07F2EF02D0F2EF4EA15
:10275000CF2EF0E0DF2EF02D02E310E080919C0000
:1027600090919D00009709F043C080919600909150
:1027700097000097A1F40E941F120E943B12813023
:10278000910569F40E94D200809292008091960097
:102790009091970001969093970080939600809176
:1027A0009600909197008130910551F40E940702A4
:1027B000D0939700C093960010929D0010929C00B9
:1027C00080919600909197008230910589F40E9443
:1027D0003B128130910561F4F0929D00E0929C00E3
:1027E00010929700109296000E94D2009092920050
:1027F00080919C0090919D008130910509F0BCC0B2
:102800008091960090919700009719F58EE690E0E0
:102810000E94550B0E94970A0E94C21181309105B7
:10282000A1F4F0929700E092960088E290E00E9476
:10283000550B0E94970A8FEF9FE7A4E081509040CC
:10284000A040E1F700C0000004C0D0939700C093FF
:10285000960080919600909197008130910509F043
:1028600053C00E94290D809115019091160182306C
:10287000910581F40E94E0100E9465118FEF9FEF97
:10288000ACE281509040A040E1F700C000000E94FF
:10289000E51036C0809115019091160181309105A7
:1028A000A9F40E94DB108091AE009091AF00B701B7
:1028B0000E94FD0E8FEF9FEFACE281509040A04050
:1028C000E1F700C000000E94E5101AC080911501D8
:1028D000909116010097A1F40E94D6108091AE004D
:1028E0009091AF00BE010E94FD0E8FEF9FEFACE212
:1028F00081509040A040E1F700C000000E94E51028
:10290000D0939700C0939600809196009091970085
:102910008230910511F40E945B1280919600909193
:1029200097008330910509F019CF9092920010938F
:102930009900009398000E943B128130910509F0A4
:102940000DCF0E94D200D0939D00C0939C000E94A6
:102950005B050E94970A90E89CB9D2011196FC92FF
:10296000EE920E943B120097E1F30E94D200F09297
:102970001401E0921301F2CE80919C0090919D0091
:102980008230910509F0CAC080919600909197001D
:10299000009709F040C080919800909199000097AD
:1029A000C9F480918E0090918F00009729F487E000
:1029B00090E00E944207D2CE8091860090918700DD
:1029C000880F991F8C0D9D1DFC01808191810E94B3
:1029D0004207C4CE8091980090919900823391056E
:1029E00009F0BCCE80918C0090918D00009729F465
:1029F0008DE090E00E944207B1CE809186009091D8
:102A00008700880F991F860D971DDC018D919C9181
:102A10000E944207A3CE809196009091970081304A
:102A20009105F1F50E94E0100E9465110E94E510E9
:102A300010929700109296008091980090919900C2
:102A4000009799F480918E0090918F000197909358
:102A50008F0080938E008091860090918700019670
:102A6000909387008093860079CE80919800909112
:102A700099008233910509F071CE80918C0090917C
:102A80008D00019790938D0080938C00809186003B
:102A900090918700019690938700809386005ECE88
:102AA00080919600909197008230910509F056CE62
:102AB0000E943B128130910509F050CE0E94D20055
:102AC0000E94620680919A0090919B0001969093DB
:102AD0009B0080939A001092990010929800109297
:102AE00087001092860010929700109296008091B5
:102AF0009C0090919D00019690939D0080939C0076
:102B00000E94970AB0E8BCB9F201F182E0820E940B
:102B10003B120097E1F30E94D20020CE80919C00EE
:102B200090919D008330910509F0BBC08091960083
:102B300090919700009709F040C080919800909183
:102B400099000097C9F480918A0090918B000097BA
:102B500029F485E190E00E949E0800CE80918600D5
:102B600090918700880F991F8A0D9B1DDC018D9124
:102B70009C910E949E08F2CD8091980090919900BE
:102B80008233910509F0EACD809188009091890007
:102B9000009729F48BE190E00E949E08DFCD8091A0
:102BA000860090918700880F991F820D931DFC016C
:102BB000808191810E949E08D1CD80919600909154
:102BC000970081309105F1F50E94E0100E94651197
:102BD0000E94E51010929700109296008091980044
:102BE00090919900009799F480918A0090918B00C0
:102BF000019790938B0080938A008091860090913A
:102C0000870001969093870080938600A7CD8091DE
:102C10009800909199008233910509F09FCD8091A1
:102C20008800909189000197909389008093880093
:102C30008091860090918700019690938700809301
:102C400086008CCD809196009091970082309105FE
:102C500009F084CD0E943B128130910509F07ECDB0
:102C60000E94D20080919A0090919B0001969093CF
:102C70009B0080939A0010929900109298001092F5
:102C80008700109286001092970010929600809113
:102C90009C0090919D00019690939D0080939C00D4
:102CA0005DCD80919C0090919D008430910561F4F0
:102CB0000E94940480919C0090919D0001969093B5
:102CC0009D0080939C004ACD80919C0090919D0036
:102CD0008530910509F042CD0E94F1018FEF9FEF01
:102CE000A6E881509040A040E1F700C000000E949B
:102CF000F501DF91CF911F910F91FF90EF90DF9041
:102D0000CF90BF90AF909F908F907F906F905F908B
:102D10004F903F902F9008955058BB27AA270ED070
:102D20004DC13ED130F043D120F031F49F3F11F43A
:102D30001EF433C10EF4E095E7FB29C1E92F4FD112
:102D400080F3BA17620773078407950718F071F4C8
:102D50009EF567C10EF4E0950B2EBA2FA02D0B0146
:102D6000B90190010C01CA01A0011124FF27591BD0
:102D700099F0593F50F4503E68F11A16F040A22FD6
:102D8000232F342F4427585FF3CF46953795279547
:102D9000A795F0405395C9F77EF41F16BA0B620B46
:102DA000730B840BBAF09150A1F0FF0FBB1F661F8D
:102DB000771F881FC2F70EC0BA0F621F731F841FD0
:102DC00048F4879577956795B795F7959E3F08F0F6
:102DD000B3CF9395880F08F09927EE0F97958795B5
:102DE00008950CD0EBC0E3D040F0DAD030F021F4FD
:102DF0005F3F19F0CCC0511115C1CFC0F0D098F38E
:102E00009923C9F35523B1F3951B550BBB27AA276B
:102E100062177307840738F09F5F5F4F220F331FDD
:102E2000441FAA1FA9F333D00E2E3AF0E0E830D0A9
:102E300091505040E695001CCAF729D0FE2F27D0AC
:102E4000660F771F881FBB1F261737074807AB077A
:102E5000B0E809F0BB0B802DBF01FF2793585F4FEF
:102E60002AF09E3F510568F092C0DCC05F3FECF352
:102E7000983EDCF3869577956795B795F7959F5FB4
:102E8000C9F7880F911D9695879597F90895E1E008
:102E9000660F771F881FBB1F621773078407BA0767
:102EA00020F0621B730B840BBA0BEE1F88F7E095C2
:102EB000089504D06894B111B5C0089598D088F0F1
:102EC0009F5790F0B92F9927B751A0F0D1F0660F16
:102ED000771F881F991F1AF0BA95C9F712C0B13031
:102EE00081F09FD0B1E008959CC0672F782F88278C
:102EF000B85F39F0B93FCCF3869577956795B39570
:102F0000D9F73EF490958095709561957F4F8F4FDE
:102F10009F4F0895E89409C097FB3EF490958095E3
:102F2000709561957F4F8F4F9F4F9923A9F0F92F8F
:102F300096E9BB279395F695879577956795B7950D
:102F4000F111F8CFFAF4BB0F11F460FF1BC06F5FF3
:102F50007F4F8F4F9F4F16C0882311F096E911C005
:102F6000772321F09EE8872F762F05C0662371F026
:102F700096E8862F70E060E02AF09A95660F771F3A
:102F8000881FDAF7880F9695879597F9089597F92E
:102F90009F6780E870E060E008959FEF80EC0895FF
:102FA00000240A9416161706180609060895002428
:102FB0000A9412161306140605060895092E0394A2
:102FC000000C11F4882352F0BB0F40F4BF2B11F416
:102FD00060FF04C06F5F7F4F8F4F9F4F089557FD75
:102FE0009058440F551F59F05F3F71F04795880F77
:102FF00097FB991F61F09F3F79F08795089512160E
:1030000013061406551FF2CF4695F1DF08C01616B9
:1030100017061806991FF1CF86957105610508946A
:103020000895E894BB2766277727CB0197F9089581
:103030000BD0C4CFB5DF28F0BADF18F0952309F024
:10304000A6CFABCF1124EECFCADFA0F3959FD1F36B
:10305000950F50E0551F629FF001729FBB27F00D46
:10306000B11D639FAA27F00DB11DAA1F649F66279B
:10307000B00DA11D661F829F2227B00DA11D621FEA
:10308000739FB00DA11D621F839FA00D611D221FA4
:10309000749F3327A00D611D231F849F600D211D88
:1030A000822F762F6A2F11249F5750408AF0E1F02B
:1030B00088234AF0EE0FFF1FBB1F661F771F881F74
:1030C00091505040A9F79E3F510570F060CFAACFB4
:1030D0005F3FECF3983EDCF3869577956795B7955F
:1030E000F795E7959F5FC1F7FE2B880F911D969589
:1030F000879597F90895FA01EE0FFF1F3096210585
:10310000310599F16115710561F48038BFE39B07C2
:1031100049F168949038810561F08038BFEF9B07D2
:1031200041F0992342F5FF3FE1053105210511F1F9
:10313000E8940894E795D901AA2329F4AB2FBE2F70
:10314000F85FD0F310C0FF5F70F4A695E0F7F73991
:1031500050F019F0FF3A38F49F779F930CD00F90FE
:1031600007FC905808953EF018CF60E070E080E8CA
:103170009FE308954FE79F775F934F933F932F937C
:103180009ED02F913F914F915F9152DF05C019F46E
:103190000EF0FDCE46CF01CF2ADFC8F39638C0F738
:1031A00007F80F92E8942BE33AEA48EB5FE74EDF2B
:1031B0000F920F920F924DB75EB70F92C0D0E4E519
:1031C000F0E016D04F915F91EF91FF91E595EE1FE2
:1031D000FF1F49F0FE57E0684427EE0F441FFA95A1
:1031E000E1F74195550B32D00F9007FE26C00895A8
:1031F000DF93CF931F930F93FF92EF92DF927B01A8
:103200008C01689405C0DA2EEF011EDFFE01E89400
:10321000A5912591359145915591AEF3EF018EDD44
:10322000FE019701A801DA9479F7DF90EF90FF9003
:103230000F911F91CF91DF9108959B01AC0160E048
:1032400070E080E89FE3CDCDA2CEACC0D0DEE8F345
:103250009923D9F3940F511DBBF39150504094F032
:1032600059F0882332F0660F771F881F9150504025
:10327000C1F79E3F510544F7880F911D969587959C
:1032800097F908955F3FACF0983E9CF0BB27869578
:1032900077956795B79508F4B1609395C1F7BB0F23
:1032A00058F711F460FFE8CF6F5F7F4F8F4F9F4F4C
:1032B000E3CFB8CE0EF076C070CE689468CE97DEBD
:1032C000C8F39923D1F3C6F3DF93CF931F930F93E2
:1032D000FF92C92FDD2788232AF02197660F771FD9
:1032E000881FDAF720E030E040E85FEB9FE38839A1
:1032F00020F0803E30F021968F770FDDECE7F0E094
:1033000003C00BDDE9EAF0E073DF8B01BE01EC01E5
:10331000FB2E6F5771097595771F880B990BFCDD94
:1033200028E132E741E35FE38FDEAF2D9801AE0184
:10333000FF900F911F91CF91DF9100DD3FCEFA01F9
:10334000DC01AA0FBB1F9B01AC01BF5728F4222749
:103350003327442750781FC0B75188F4AB2F00247F
:10336000469537952795011CA395D2F3002069F067
:10337000220F331F441FB395DAF30DD0CDCC61304B
:103380007105A0E88A07B94630F49B01AC016627B5
:10339000772788279078309621F0208331834283E5
:1033A000538308959F3F31F0915020F4879577958E
:1033B0006795B795880F911D9695879597F908950C
:1033C000AA1BBB1B51E107C0AA1FBB1FA617B7074B
:1033D00010F0A61BB70B881F991F5A95A9F7809567
:1033E0009095BC01CD01089597FB092E07260AD0C0
:1033F00077FD04D0E5DF06D000201AF470956195C2
:103400007F4F0895F6F7909581959F4F0895F89412
:02341000FFCFEC
:0C3412000A2D2D0000403F3333333F00F3
:00000001FF
