:100000000C946B000C94430B0C942C0B0C948800F8
:100010000C9488000C94E40C0C9488000C948800D8
:100020000C9488000C9497110C9488000C946C0E1E
:100030000C9488000C9488000C9488000C94880020
:100040000C9488000C9488000C9488000C94880010
:100050000C94880007634236B79BD8A71A396856B4
:1000600018AEBAAB558C1D3CB7CC5763BD6DEDFDDA
:10007000753EF6177231BF000000803F0800000097
:10008000BE922449123EABAAAA2ABECDCCCC4C3E8D
:1000900000000080BEABAAAAAA3E00000000BF007C
:1000A0000000803F0000000000084178D3BB438778
:1000B000D1133D190E3CC3BD4282AD2B3E68EC828C
:1000C00076BED98FE1A93E4C80EFFFBE01C4FF7F11
:1000D0003F000000000011241FBECFE5D4E0DEBFCA
:1000E000CDBF10E0A0E6B0E0EAEDF5E302C0059078
:1000F0000D92AC36B107D9F711E0ACE6B0E001C023
:100100001D92AD31B107E1F70E9417140C94EB1A60
:100110000C9400001BBC8ABD19BC68BD0895809179
:10012000F6009091F700009751F48091B200909101
:10013000B30007979093B3008093B2000895809125
:10014000F6009091F7008130910551F48091B20052
:100150009091B30001969093B3008093B2000895FC
:100160008091F6009091F7008230910551F48091D2
:10017000B2009091B30007969093B3008093B200C1
:1001800008958091F6009091F7008330910549F42D
:100190008091B2009091B30001979093B300809347
:1001A000B20008951092A3001092A2001092A50030
:1001B0001092A4001092A7001092A6000895109229
:1001C000890010928800109287001092860008958E
:1001D000CF93DF93EC0120919400309195004091F2
:1001E00094005091950012161306C4F441505040EB
:1001F000ABEBB0E0FA01EE0FFF1FEA0FFB1F6081CF
:100200007181C901880F991F8A0F9B1FFC0171839F
:100210006083415050402150304061F7D093BC0082
:10022000C093BB00DF91CF9108950E94280B83E219
:1002300090E063E270E00E948A008FEF9FEFA1E1FF
:1002400081509040A040E1F700C0000008950E9456
:10025000280B83E290E063E270E00E948A008FEF57
:100260009FE7ADE081509040A040E1F700C0000062
:1002700081E090E00E94420C08950E94280B83E2E6
:1002800090E063E270E00E948A008FEF9FE7ADE0AC
:1002900081509040A040E1F700C0000080E090E075
:1002A0000E94420C08950E94280B83E290E063E2D2
:1002B00070E00E948A008FEF9FE7ADE08150904090
:1002C000A040E1F700C0000082E090E00E94420CF4
:1002D000089584B3876084BB85B3887F85BB089508
:1002E00084B38FEF84BB85B385BB81B3826381BB4D
:1002F00008951ABA1BBA08951EBC8FEF8DBD91E008
:100300009CBD1BBC8ABD19BC88BD17BC86BD81EADB
:100310008FBD8DE08EBD08958F9A82E083BF8BEEF6
:1003200082BF81E089BF089516B880E287B980E86E
:1003300088B986E886B9089587B38F6087BB88B38C
:10034000807F88BB81B3806381BB82B3806382BBC3
:1003500008951AB81BB886E880BD8FE289B910BC31
:1003600088E98AB908958A98929A08958B98939A01
:100370000895A39AAB98089585B7886085BF8BB719
:1003800080688BBF089585B7826085BF8BB7806416
:100390008BBF089584B3876F84BB85B3807885BB9A
:1003A00008950E949C010E94B9010E94A9010E9427
:1003B000B3010E94B6010E9479010E9470010E945F
:1003C00069010895F8940E94D1010E947C010E9465
:1003D00094010E94C3010E94BC010E948C01789488
:1003E00008958770806287B9369A349BFECF85B1B5
:1003F000349A089583B3886085BB089583B3877F5B
:1004000085BB08950E94FA018FEF9FE3A2E081501F
:100410009040A040E1F700C000000E94FE01089556
:100420002F923F924F925F926F927F928F929F9204
:10043000AF92BF92CF92DF92EF92FF920F931F93F2
:10044000CF93DF93CDB7DEB728970FB6F894DEBF12
:100450000FBECDBF8091F6009091F700009739F460
:100460000091BB001091BC00095F1F4F29C0809113
:10047000F6009091F7008130910539F40091BB00AE
:100480001091BC00015010401BC08091F60090916B
:10049000F7008230910539F40091BB001091BC0047
:1004A000075010400DC08091F6009091F700833006
:1004B000910531F40091BB001091BC000F5F1F4FFC
:1004C000C8010E94E8001093B3000093B20020918D
:1004D000BB003091BC003E832D834091BD00509104
:1004E000BE005C834B838091BF009091C0009A83D3
:1004F00089836624772463940F2EFBEB4F2EF0E064
:100500005F2EF02D22243324C6C183E00E94F10126
:100510008093770084E00E94F1018093760085E06B
:100520000E94F1018093750090E020917700821B7A
:1005300091099093130180931201609112017091BF
:100540001301C0906700D0906800E0906900F090BF
:100550006A00A0911201B0911301B887AF83009196
:100560007800109179008090630090906400A090D2
:100570006500B0906600882777FD8095982F0E94CF
:100580007018A70196010E94FC186B017C016F8115
:100590007885601B710B882777FD8095982F0E94C6
:1005A0007018A50194010E94FC189B01AC01C701C1
:1005B000B6010E9471170E943D18DC01CB01209109
:1005C000120130911301309379002093780000914B
:1005D000620010E0209161006C01C20ED11C081B6A
:1005E000190B0E32110514F00DE210E0BEE2CB162D
:1005F000D1042CF00F2EFDE2CF2EDD24F02D0E9431
:10060000280BC60199230CF4C101B80111230CF485
:10061000B1010E948A0080917600893208F43BC1C2
:1006200080917700893208F436C180917500893253
:1006300008F431C10E948F000E94FF0A0E9402024A
:10064000E981FA81E336F10509F432C1CF012B814A
:100650003C81821B930B8130910509F043C08901D5
:100660004D815E81041B150B0130110519F40E94A8
:1006700015010DC00730110519F40E943D010DC090
:100680005FEF093F150719F40E94270106C08FEF9D
:100690000F3F180711F40E94530193012F5F3F4F42
:1006A000F301EE0FFF1FE40DF51DA081B181BE83A4
:1006B000AD83C901880F991F840D951DFC01019020
:1006C000F081E02DFC83EB83C3010296880F991F14
:1006D000840D951DDC010D90BC91A02DBA83A983DA
:1006E0003901D9C08730910509F044C00B811C81C4
:1006F000ED81FE810E1B1F0B0730110519F40E94BE
:1007000015010DC0FFEF0F3F1F0719F40E943D01B7
:100710000CC00130110519F40E94270106C02FEF0B
:10072000093F120711F40E94530193012F5F3F4FBD
:10073000F301EE0FFF1FE40DF51D408151815E8333
:100740004D83C901880F991F840D951DDC010D9003
:10075000BC91A02DBC83AB83C3010296880F991F67
:10076000840D951DFC010190F081E02DFA83E98351
:10077000390191C0FFEF893F9F0709F044C00B8109
:100780001C812D813E81021B130B3FEF093F130794
:1007900019F40E9415010DC00130110519F40E94D1
:1007A0003D010CC04FEF0F3F140719F40E942701C1
:1007B00005C00730110511F40E94530193012F5F0A
:1007C0003F4FF301EE0FFF1FE40DF51D8081918176
:1007D0009E838D83C901880F991F840D951DDC01AF
:1007E0000D90BC91A02DBC83AB83C3010296880FF2
:1007F000991F840D951DFC010190F081E02DFA8375
:10080000E983390148C0FFEF8F3F9F0709F043C0DC
:100810000B811C812D813E81021B130B3FEF0F3F8B
:10082000130719F40E9415010DC04FEF093F14077B
:1008300019F40E943D010BC00730110519F40E9404
:10084000270105C00130110511F40E9453019301E5
:100850002F5F3F4FF301EE0FFF1FE40DF51D808169
:1008600091819E838D83C901880F991F840D951DE9
:10087000DC010D90BC91A02DBC83AB83C30102961B
:10088000880F991F840D951DFC010190F081E02DCA
:10089000FA83E9833901C301880F991F840D951DDF
:1008A000DC018D919C9111978336910509F02DCE35
:1008B00080919A0090919B00019690939B00809369
:1008C0009A0083E090E00E94030B2FEF3FE34BE0A0
:1008D000215030404040E1F700C0000080E88CB972
:1008E0002FEF3FE342E0215030404040E1F700C0AD
:1008F00000008CB92FEF3FE342E0215030404040F0
:10090000E1F700C000008CB981E090E09093A30073
:100910008093A20028960FB6F894DEBF0FBECDBF1D
:10092000DF91CF911F910F91FF90EF90DF90CF90CB
:10093000BF90AF909F908F907F906F905F904F90FF
:100940003F902F90089581E090E00E94420C08951E
:100950006F927F928F929F92AF92BF92CF92DF92CF
:10096000EF92FF920F931F93CF93DF936624772428
:100970009FC083E00E94F1018093770084E00E9491
:10098000F1018093760085E00E94F101809375006B
:1009900090E020917700821B91099093130180933E
:1009A00012016091120170911301C0906700D09004
:1009B0006800E0906900F0906A00C0911201D09147
:1009C000130100917800109179008090630090905D
:1009D0006400A0906500B0906600882777FD809540
:1009E000982F0E947018A70196010E94FC186B01B5
:1009F0007C01BE01601B710B882777FD8095982FC5
:100A00000E947018A50194010E94FC189B01AC0182
:100A1000C701B6010E9471170E943D188091120112
:100A20009091130190937900809378000091620077
:100A300010E080916100EB01C80FD11D061B170B60
:100A40000E32110514F00DE210E0CE32D10514F093
:100A5000CDE2D0E00E94280BCE01DD230CF4C301CF
:100A6000B80111230CF4B3010E948A008091760032
:100A70008932F0F0809177008932D0F08091750052
:100A80008932B0F00E948F000E94FF0A0E94020289
:100A90008091B2009091B3008D30910539F40E949D
:100AA000270182E890E00E94A50B02C00E94150178
:100AB0008091B2009091B3008D30910509F059CF2B
:100AC000DF91CF911F910F91FF90EF90DF90CF902A
:100AD000BF90AF909F908F907F906F9008953F92BE
:100AE0004F925F926F927F928F929F92AF92BF923E
:100AF000CF92DF92EF92FF920F931F93CF93DF93EA
:100B0000662477245524539433243A944424DDC036
:100B100083E00E94F1018093770084E00E94F1015C
:100B20008093760085E00E94F1018093750090E04B
:100B300020917700821B91099093130180931201F9
:100B40006091120170911301C0906700D09068000D
:100B5000E0906900F0906A00C0911201D0911301F9
:100B6000009178001091790080906300909064006B
:100B7000A0906500B0906600882777FD8095982F3B
:100B80000E947018A70196010E94FC186B017C015D
:100B9000BE01601B710B882777FD8095982F0E94FE
:100BA0007018A50194010E94FC189B01AC01C701BB
:100BB000B6010E9471170E943D1880911201909118
:100BC000130190937900809378000091620010E007
:100BD00080916100EB01C80FD11D061B170B0E326F
:100BE000110514F00DE210E0CE32D10514F0CDE283
:100BF000D0E00E94280BCE01DD230CF4C301B80124
:100C000011230CF4B3010E948A008091760089328E
:100C100008F45BC080917700893208F456C0809157
:100C20007500893208F451C00E948F000E94FF0AAB
:100C30000E9402028091B2009091B3008832910527
:100C400011F40E94DF008091B2009091B3002091D6
:100C5000B2003091B300452D8832910509F0442D42
:100C6000442339F4852D2C30310509F0842D882357
:100C700019F00E94270129C08091B2009091B30021
:100C80008D30910501F583E090E00E94030B709296
:100C90009B0060929A0070928B0060928A00709222
:100CA0009D0060929C0080919E0090919F00019613
:100CB00090939F0080939E003092960070929B00CC
:100CC00060929A0002C00E9415018091B20090913A
:100CD000B3008D30910509F01BCFDF91CF911F91AB
:100CE0000F91FF90EF90DF90CF90BF90AF909F90CB
:100CF0008F907F906F905F904F903F9008955F929C
:100D00006F927F928F929F92AF92BF92CF92DF921B
:100D1000EF92FF920F931F93CF93DF936624772474
:100D200055245A94BDC083E00E94F101809377005E
:100D300084E00E94F1018093760085E00E94F10139
:100D40008093750090E020917700821B9109909329
:100D50001301809312016091120170911301C090F0
:100D60006700D0906800E0906900F0906A00C09140
:100D70001201D091130100917800109179008090B8
:100D8000630090906400A0906500B0906600882792
:100D900077FD8095982F0E947018A70196010E94F8
:100DA000FC186B017C01BE01601B710B882777FD6D
:100DB0008095982F0E947018A50194010E94FC183C
:100DC0009B01AC01C701B6010E9471170E943D183A
:100DD0008091120190911301909379008093780093
:100DE0000091620010E080916100EB01C80FD11DFD
:100DF000061B170B0E32110514F00DE210E0CE3277
:100E0000D10514F0CDE2D0E00E94280BCE01DD2305
:100E10000CF4C301B80111230CF4B3010E948A0041
:100E2000809176008932E0F1809177008932C0F1BB
:100E3000809175008932A0F10E948F000E94FF0A04
:100E40000E9402028091B2009091B300843191051A
:100E500011F40E94DF008091B2009091B3008B31B9
:100E6000910519F00E9415011BC083E090E00E94DB
:100E7000030B70928B0060928A0070929D006092CA
:100E80009C0080919E0090919F00019690939F00FE
:100E900080939E005092960070929B0060929A0000
:100EA0008091B2009091B3008B31910509F03BCF56
:100EB000DF91CF911F910F91FF90EF90DF90CF9036
:100EC000BF90AF909F908F907F906F905F900895AC
:100ED0003F924F925F926F927F928F929F92AF92CA
:100EE000BF92CF92DF92EF92FF920F931F93CF9317
:100EF000DF933C018DE06816710441F480919C0001
:100F000090919D00009709F040C10DC097E06916CF
:100F1000710409F03AC180919C0090919D00823348
:100F2000910509F032C186E990E00E94A50B81E0AD
:100F300090E090939B0080939A0035C183E00E94DB
:100F4000F1018093770084E00E94F10180937600A4
:100F500085E00E94F1018093750090E02091770078
:100F6000821B9109909313018093120160911201E9
:100F700070911301C0906700D0906800E090690004
:100F8000F0906A00C0911201D09113010091780095
:100F9000109179008090630090906400A0906500AB
:100FA000B0906600882777FD8095982F0E94701872
:100FB000A70196010E94FC186B017C01BE01601B19
:100FC000710B882777FD8095982F0E947018A501D6
:100FD00094010E94FC189B01AC01C701B6010E945C
:100FE00071170E943D18DC01CB0120911201309154
:100FF000130130937900209378000091620010E093
:1010000020916100EC01C20FD11D081B190B0E329B
:10101000110514F00DE210E0CE32D10514F0CDE24E
:10102000D0E00E94280BCE01DD230CF4C201B801F0
:1010300011230CF4B2010E948A008091760089325B
:1010400008F4A9C080917700893208F4A4C0809187
:101050007500893208F49FC00E948F000E94FF0A29
:101060000E9402028091B2009091B300861597050C
:10107000C9F48091B2009091B3008D30910591F048
:101080008091B2009091B3008730910559F082EDC4
:1010900090E00E94A50BA1E0B0E0B0939B00A0936C
:1010A0009A0069C08091B2009091B30086159705AF
:1010B00001F58091B2009091B30087309105C9F499
:1010C00080919C0090919D00009799F481E090E0C0
:1010D0000E94030BE2E3F0E0F0939D00E0939C009C
:1010E00050928B0040928A0050929B0040929A004E
:1010F00042C08091B2009091B30086159705C9F562
:101100008091B2009091B3008D30910591F580915E
:101110009C0090919D008233910559F582E090E00A
:101120000E94030B3CB88FEF9FE3A2E081509040F8
:10113000A040E1F700C000003CB88FEF9FE3A2E0C1
:1011400081509040A040E1F700C000003CB8E1E0D1
:10115000F0E0A2EAB0E01196FC93EE9382E090E01A
:1011600090939B0080939A00F0931801E0931701ED
:1011700002C00E9415018091B2009091B3008B30A3
:10118000910549F40E94DF0006C0442455240F2E27
:10119000F0E83F2EF02D8091B2009091B3008615BB
:1011A000970509F0CBCEDF91CF911F910F91FF9062
:1011B000EF90DF90CF90BF90AF909F908F907F90F7
:1011C0006F905F904F903F9008953F924F925F9243
:1011D0006F927F928F929F92AF92BF92CF92DF9247
:1011E000EF92FF920F931F93CF93DF933C018BE11C
:1011F0006816710441F480919C0090919D000097C5
:1012000009F03FC10DC095E16916710409F039C1BB
:1012100080919C0090919D008233910509F031C12D
:1012200086E990E00E94A50B81E090E090939B00FE
:1012300080939A0034C183E00E94F101809377008B
:1012400084E00E94F1018093760085E00E94F10124
:101250008093750090E020917700821B9109909314
:101260001301809312016091120170911301C090DB
:101270006700D0906800E0906900F0906A00C0912B
:101280001201D091130100917800109179008090A3
:10129000630090906400A0906500B090660088277D
:1012A00077FD8095982F0E947018A70196010E94E3
:1012B000FC186B017C01BE01601B710B882777FD58
:1012C0008095982F0E947018A50194010E94FC1827
:1012D0009B01AC01C701B6010E9471170E943D1825
:1012E000DC01CB0120911201309113013093790080
:1012F000209378000091620010E020916100EC01E1
:10130000C20FD11D081B190B0E32110514F00DE28E
:1013100010E0CE32D10514F0CDE2D0E00E94280BCF
:10132000CE01DD230CF4C201B80111230CF4B2018B
:101330000E948A0080917600893208F4A8C08091CA
:101340007700893208F4A3C080917500893208F4CF
:101350009EC00E948F000E94FF0A0E94020280919C
:10136000B2009091B30086159705C9F48091B20040
:101370009091B3008B31910591F08091B2009091E2
:10138000B3008531910559F082ED90E00E94A50BE4
:10139000A1E0B0E0B0939B00A0939A0068C0809158
:1013A000B2009091B3008615970501F58091B200C7
:1013B0009091B30085319105C9F480919C00909182
:1013C0009D00009799F481E090E00E94030B5092F9
:1013D0009B0040929A00E2E3F0E0F0939D00E093DE
:1013E0009C0050928B0040928A0041C08091B200D4
:1013F0009091B30086159705C1F58091B200909148
:10140000B3008B31910589F580919C0090919D00EE
:101410008233910551F5C2010E94030B3CB88FEF56
:101420009FE3A2E081509040A040E1F700C000009F
:101430003CB88FEF9FE3A2E081509040A040E1F7DD
:1014400000C000003CB8E1E0F0E0A2EAB0E0119694
:10145000FC93EE9382E090E090939B0080939A003F
:10146000F0931801E093170102C00E9415018091CA
:10147000B2009091B3008931910549F40E94DF00D8
:1014800006C0442455240F2EF0E83F2EF02D809105
:10149000B2009091B3008615970509F0CCCEDF918C
:1014A000CF911F910F91FF90EF90DF90CF90BF9061
:1014B000AF909F908F907F906F905F904F903F90F4
:1014C00008958F929F92AF92BF92CF92DF92EF9248
:1014D000FF920F931F93CF93DF9383E00E94F1015C
:1014E0008093770084E00E94F1018093760085E08C
:1014F0000E94F1018093750090E020917700821B9B
:1015000091099093130180931201609112017091DF
:101510001301C0906700D0906800E0906900F090DF
:101520006A00C0911201D0911301009178001091CE
:1015300079008090630090906400A0906500B09066
:101540006600882777FD8095982F0E947018A70164
:1015500096010E94FC186B017C01BE01601B710B9F
:10156000882777FD8095982F0E947018A501940117
:101570000E94FC189B01AC01C701B6010E947117C3
:101580000E943D188091120190911301909379006F
:10159000809378000091620010E080916100EB017F
:1015A000C80FD11D061B170B0E32110514F00DE2EA
:1015B00010E0CE32D10514F0CDE2D0E00E94280B2D
:1015C000CE01DD2314F480E090E0B801112314F47F
:1015D00060E070E00E948A00DF91CF911F910F912F
:1015E000FF90EF90DF90CF90BF90AF909F908F9043
:1015F000089598B3907F8F70982B98BB089580E0E2
:101600000E94F90A0895EF92FF920F931F93CF93D0
:10161000DF938C010E94FF0AC0E0D0E0EE24FF249B
:10162000E39408C0209721F40E942701E70102C03B
:101630000E94A3048091F6009091F7000817190703
:1016400089F7DF91CF911F910F91FF90EF9008954F
:1016500086E00E94F90A08951F920F920FB60F922A
:1016600011248F939F9380917E0090917F0001962B
:1016700090937F0080937E009F918F910F900FBE7B
:101680000F901F9018951F920F920FB60F92112472
:101690008F939F93AF93BF9380917A0090917B003B
:1016A000A0917C00B0917D000196A11DB11D809399
:1016B0007A0090937B00A0937C00B0937D00BF9153
:1016C000AF919F918F910F900FBE0F901F90189523
:1016D000BC0180E090E00E946E1822E538EB4EE4F9
:1016E00051E40E94D517262F372FF82FE92F462FC8
:1016F000572F682F792F4093820050938300609377
:10170000840070938500822F932FAF2FBE2FBC01D2
:10171000CD010E944218DC01CB019093810080939F
:10172000800010927F0010927E000E94610A20913A
:101730007E0030917F00809180009091810082171F
:10174000930798F70E94FF0A0895CF93DF93EC0167
:101750000E94280BCE010E94680BDF91CF91089563
:101760001F93CF93DF93BC0180E090E00E946E183E
:101770002AE939E94DE451E40E94D517262F372F85
:10178000F82FE92F462F572F682F792F409382008B
:10179000509383006093840070938500822F932F71
:1017A000AF2FBE2FBC01CD010E944218DC01CB013E
:1017B000FC01909381008093800010927A00109237
:1017C0007B0010927C0010927D0010927F0010929E
:1017D0007E00D1E010E0AC0160E070E020917E007E
:1017E00030917F0080917A0090917B00A0917C00E5
:1017F000B0917D00CD2F2E173F0708F4C12FCC23C9
:1018000049F42D2F84179507A607B70708F4212F51
:10181000222321F30E94FF0ADF91CF911F910895A7
:1018200089E00E94F90A089585E00E94F90A089566
:101830008AE00E94F90A089584E00E94F90A089556
:1018400082E00E94F90A089581E00E94F90A089551
:1018500088E00E94F90A0895CF93DF93EC010E947B
:10186000140CCE010E94B00BDF91CF910895CF935D
:10187000DF93EC010E94180CCE010E94B00BDF91A7
:10188000CF910895009769F580E590E00E942C0CB7
:1018900084E00E94F101809376008C3348F40E942A
:1018A000140C84E00E94F101809376008C33B8F32D
:1018B0000E94FF0A8091F6009091F700009739F49A
:1018C00083E090E09093F7008093F6000895809174
:1018D000F6009091F70001979093F7008093F6003F
:1018E00008958130910511F580E590E00E94370C54
:1018F00084E00E94F101809376008C3348F40E94CA
:10190000180C84E00E94F101809376008C33B8F3C8
:101910000E94FF0A8091F6009091F7000196837073
:1019200090709093F7008093F600089582309105AF
:1019300009F586E990E00E94370C84E00E94F101ED
:10194000809376008C3348F40E94180C84E00E9447
:10195000F101809376008C33B8F30E94FF0A8091E6
:10196000F6009091F7000296837090709093F700C4
:101970008093F600089581E00E94F1018093730046
:101980008556843078F40E94FF0A0E9402028FEF8D
:101990009FEFA9E581509040A040E1F700C0000012
:1019A0000E94280B08951EBC83EE8DBD81EE8CBD78
:1019B0009CE19BBD8FE18ABD99BD88BD97BD86BD69
:1019C0001FBC85E08EBD08951F920F920FB60F9237
:1019D00011248F939F93AF93BF9380916F00909149
:1019E0007000A0917100B09172000196A11DB11D0F
:1019F00080936F0090937000A0937100B093720079
:101A0000BF91AF919F918F910F900FBE0F901F903C
:101A10001895AE98AF980895AE9AAF9A0895AE987B
:101A2000AF9A0895AE9AAF980895AC9AAD9808957C
:101A3000AC98AD9A08950E94090D10926F00109213
:101A4000700010927100109272008FEF9FE3A2E07D
:101A500081509040A040E1F700C0000080916F00ED
:101A600090917000A0917100B09172008093E70096
:101A70009093E800A093E900B093EA0008950E94D3
:101A80000C0D10926F001092700010927100109265
:101A900072008FEF9FE3A2E081509040A040E1F7F9
:101AA00000C0000080916F0090917000A0917100C3
:101AB000B09172008093E3009093E400A093E5005E
:101AC000B093E60008950E940F0D10926F001092DF
:101AD000700010927100109272008FEF9FE3A2E0ED
:101AE00081509040A040E1F700C0000080916F005D
:101AF00090917000A0917100B09172008093B50038
:101B00009093B600A093B700B093B8000895F894EE
:101B10000E94D30C89B7806289BF78940E94180D07
:101B200008950E94870D0E941B0D8FEF9FE3ABE08D
:101B300081509040A040E1F700C000000E943F0D9E
:101B40008FEF9FE3ABE081509040A040E1F700C0F1
:101B500000000E94630D8FEF9FE3ABE08150904047
:101B6000A040E1F700C00000F8940E947C01789446
:101B70004091E7005091E8006091E9007091EA001F
:101B80008091E3009091E400A091E500B091E6001F
:101B900084179507A607B707D0F44091E700509146
:101BA000E8006091E9007091EA008091B5009091A1
:101BB000B600A091B700B091B80084179507A607AA
:101BC000B70728F410921A01109219010895409154
:101BD000E3005091E4006091E5007091E60080918F
:101BE000B5009091B600A091B700B091B8008417ED
:101BF0009507A607B70738F481E090E090931A01A3
:101C000080931901089582E090E090931A018093E7
:101C1000190108958230C9F08233D1F08330D9F0B0
:101C20008333E1F08430E9F08433F1F08530F9F06A
:101C3000853301F1863009F1863311F1873019F1CE
:101C4000873321F180E090E023C087E090E020C05E
:101C500087E090E01DC08EE090E01AC08EE090E03A
:101C600017C085E190E014C085E190E011C08CE1DF
:101C700090E00EC08CE190E00BC083E290E008C0E1
:101C800083E290E005C08AE290E002C08AE290E040
:101C9000603111F0623411F401960895683111F049
:101CA000633411F402960895603211F0643411F433
:101CB00003960895683211F0653411F4049608957E
:101CC000603311F0663411F405960895683311F00D
:101CD000673409F4069608951F920F920FB60F927B
:101CE00011242F933F934F935F936F937F938F9321
:101CF0009F93AF93BF93CF93DF93EF93FF938CB1F9
:101D00008093160180911601882381F480918600CA
:101D100090918700009751F481E090E09093A500A6
:101D20008093A40090938700809386008091160191
:101D3000803481F48091880090918900009751F45B
:101D400081E090E09093A7008093A6009093890093
:101D50008093880080919600882381F580911601F8
:101D6000807C8093150180911501803809F0AEC008
:101D70008091160187708093060180911601887307
:101D800080931401C0919400D09195008091060138
:101D9000609114010E940A0E282F392FCC0FDD1FED
:101DA000C554DF4F3983288380919400909195002A
:101DB0000196909395008093940088C0809196003E
:101DC000813009F083C080911601807C80931501D9
:101DD00080911501803809F079C0809116018770D3
:101DE000809306018091160188738093140180917D
:101DF0000601609114010E940A0E20919C0030910E
:101E00009D002115310571F5982F97509730A8F452
:101E1000E0919200F091930090E0EE0FFF1FE855E3
:101E2000FF4F91838083809192009091930001965F
:101E3000909393008093920049C0E0918E00F091BE
:101E40008F0090E0EE0FFF1FE451FF4F91838083DE
:101E500080918E0090918F00019690938F008093D7
:101E60008E0034C020919C0030919D0022333105BA
:101E700069F5982F97509730A8F4E0919000F09171
:101E8000910090E0EE0FFF1FE650FF4F918380839B
:101E90008091900090919100019690939100809391
:101EA000900014C0E0918C00F0918D0090E0EE0F56
:101EB000FF1FE95FFE4F9183808380918C0090919A
:101EC0008D00019690938D0080938C00FF91EF918F
:101ED000DF91CF91BF91AF919F918F917F916F9142
:101EE0005F914F913F912F910F900FBE0F901F90D8
:101EF00018959C01FB01109297008730910508F01E
:101F000082C0109299001092980083309105E9F1F7
:101F10008430910538F481309105C9F08230910503
:101F200028F50CC08530910509F44DC08530910528
:101F3000D8F18630910509F099C154C089E08093A9
:101F4000970081E090E090939900809398008091B1
:101F5000980090919900009749F481E1809397004F
:101F600081E090E090939900809398008091980090
:101F700090919900009749F489E18093970081E05E
:101F800090E09093990080939800809198009091B0
:101F90009900009749F481E28093970081E090E0F6
:101FA0009093990080939800809198009091990067
:101FB000009749F489E28093970081E090E0909344
:101FC00099008093980080919800909199000097D3
:101FD00049F481E38093970081E090E09093990029
:101FE000809398008091980090919900009709F053
:101FF0003DC189E38093970081E090E09093990040
:102000008093980033C1109299001092980067E075
:1020100070E00E94C41A8330910509F444C08430F2
:10202000910538F481309105E1F08230910550F549
:102030000DC08530910509F458C08530910508F42C
:1020400043C08630910509F072C060C0809197004E
:1020500088608093970081E090E09093990080934E
:1020600098008091980090919900009759F4809180
:10207000970080618093970081E090E090939900B1
:10208000809398008091980090919900009759F45E
:102090008091970088618093970081E090E0909311
:1020A00099008093980080919800909199000097F2
:1020B00059F48091970080628093970081E090E0CE
:1020C0009093990080939800809198009091990046
:1020D000009759F48091970088628093970081E07F
:1020E00090E090939900809398008091980090914F
:1020F0009900009759F4809197008063809397002E
:1021000081E090E0909399008093980080919800EE
:1021100090919900009759F480919700886380937B
:10212000970081E090E0909399008093980010923E
:10213000990010929800C90167E070E00E94C41AEB
:102140006F5F7F4F6430710509F448C065307105D9
:1021500058F46230710501F16330710570F561303A
:10216000710509F07FC00DC06630710509F458C0D3
:102170006630710508F443C06730710509F072C01C
:1021800060C08091970081608093970081E090E02B
:102190009093990080939800809198009091990075
:1021A000009759F48091970082608093970081E0B6
:1021B00090E090939900809398008091980090917E
:1021C0009900009759F4809197008360809397005D
:1021D00081E090E09093990080939800809198001E
:1021E00090919900009759F48091970084608093B2
:1021F000970081E090E090939900809398008091FF
:10220000980090919900009759F48091970085600B
:102210008093970081E090E09093990080939800DC
:102220008091980090919900009759F480919700BF
:1022300086608093970081E090E09093990080936E
:1022400098008091980090919900009759F480919E
:10225000970087608093970081E090E090939900C9
:10226000809398001092990010929800309731F462
:102270008091970080688093970010C0E130F1054D
:1022800029F4809197008093970008C0E230F1050F
:1022900029F4809197008064809397008091970043
:1022A0008CB9089585B3887F816085BB089585B317
:1022B000887F826085BB089585B3887F846085BBF5
:1022C000089585B3887F85BB0895009771F40E94B7
:1022D00052118FEF9FE7A6E181509040A040E1F7B7
:1022E00000C000000E94611108958130910571F4D1
:1022F0000E9457118FEF9FE7A6E181509040A040C8
:10230000E1F700C000000E9461110895823091053C
:1023100069F40E945C118FEF9FE7A6E18150904025
:10232000A040E1F700C000000E94611108951F92D3
:102330000F920FB60F9211248F939F9381E088BF65
:10234000809111018F5F80931101809111018D3770
:1023500010F48BEE82BF9091110180916E0098175E
:1023600009F49798809111018D3720F087E982BF99
:1023700084E083BF80911101823841F480E882BB00
:1023800082E083BF8BEE82BF109211019F918F91EB
:102390000F900FBE0F901F90189590E09C01220F98
:1023A000331F220F331F820F931F69E070E00E94DA
:1023B000D81A862FE9E9F5E13197F1F700C0875E79
:1023C000089584E60E94CD1180936E008FEF9FEAFE
:1023D000A1E081509040A040E1F700C0000080E003
:1023E0000E94CD1180936E008FEF9FEFA8E0815087
:1023F0009040A040E1F700C0000008950F931F93A4
:10240000682F70E080E090E00E946E182FEE39ECAB
:1024100043E95FE30E945F19B62FA72F382F292FBA
:1024200060E070E080E89FE3422F0B2F1A2F232FEC
:10243000342FA90198010E94D5172AE939EF4EE2FD
:1024400055E40E94FC1820E030E040E251E40E9494
:10245000FC180E943D18882777FD8095982F0E94D0
:1024600070180E943D18862F972F23E08132920723
:1024700010F080E293E01F910F91089587E00E9491
:10248000F10180936C000E94FE1190931C018093D7
:102490001B012FEF3FEB46E0215030404040E1F779
:1024A00000C0000021E030E08639910510F020E006
:1024B00030E0822F932F08951092B4008091B400E1
:1024C0008431B0F48BEB90E023E630E0E091B4008F
:1024D000F0E0EE0FFF1FE80FF91F318320834091DA
:1024E000B4004F5F4093B4004091B400443170F3A6
:1024F00008950F931F93CF93DF93082F162FEA01B0
:102500000E945C12D093F700C093F600802F612FD9
:102510000E940A0E9093B3008093B2008091B200A3
:102520009091B30060E070E00E94790FDF91CF914D
:102530001F910F910895E0919400F0919500EE0F96
:10254000FF1FE754FF4F808191818932910571F41B
:102550008091A2009091A300009741F480E88CB98B
:1025600081E090E09093A3008093A2000895809171
:10257000A2009091A3008130910599F48091A4006C
:102580009091A5008130910579F42091A6003091B9
:10259000A70081E090E02130310541F080E090E03B
:1025A000089580E090E0089580E090E008958F9293
:1025B0009F92AF92BF92CF92DF92EF92FF920F93D2
:1025C0001F93CF93DF9383E00E94F1018093770004
:1025D00084E00E94F1018093760085E00E94F10181
:1025E0008093750090E020917700821B9109909371
:1025F0001301809312016091120170911301C09038
:102600006700D0906800E0906900F0906A00C09187
:102610001201D091130100917800109179008090FF
:10262000630090906400A0906500B09066008827D9
:1026300077FD8095982F0E947018A70196010E943F
:10264000FC186B017C01BE01601B710B882777FDB4
:102650008095982F0E947018A50194010E94FC1883
:102660009B01AC01C701B6010E9471170E943D1881
:1026700080911201909113019093790080937800DA
:102680000091620010E080916100EB01C80FD11D44
:10269000061B170B0E32110514F00DE210E0CE32BE
:1026A000D10514F0CDE2D0E00E94280BCE01DD234D
:1026B00014F480E090E0B801112314F460E070E0BD
:1026C0000E948A0080917600893208F4A3C080912C
:1026D0007700893208F49EC080917500893208F431
:1026E00099C00E948F000E94FF0A0E9402028091FE
:1026F000B2009091B30083329105B9F581E090E08A
:102700000E94030B80E88CB92FEF3FE342E0215099
:1027100030404040E1F700C000008CB92FEF3FE3AC
:1027200042E0215030404040E1F700C000008CB949
:1027300081E090E09093A3008093A2000E94B712E2
:102740000097E1F30E94D20010929B0010929A0031
:1027500081E090E09093A1008093A00082E390E05C
:1027600090939D0080939C0036C08091B200909120
:10277000B3008932910549F583E090E090939B0086
:1027800080939A00C1E0D0E0D093A100C093A00054
:102790000E94030BD093A300C093A20080E88CB9E1
:1027A0002FEF3FE342E0215030404040E1F700C0CE
:1027B00000008CB92FEF3FE342E021503040404011
:1027C000E1F700C000008CB906C010929B00109287
:1027D0009A000E9415018091B2009091B300873257
:1027E000910541F480919C0090919D00009711F417
:1027F0000E94DF008091B2009091B3008532910574
:1028000049F480919C0090919D008233910511F4D0
:102810000E94DF00DF91CF911F910F91FF90EF9009
:10282000DF90CF90BF90AF909F908F9008952F92A0
:102830003F924F925F926F927F928F929F92AF9250
:10284000BF92CF92DF92EF92FF920F931F93CF939D
:10285000DF930E94E2018FEF9FE3ABE08150904055
:10286000A040E1F700C0000082E362E441E050E0F4
:102870000E947912EE24FF24E39499249394C2E0F9
:10288000D0E088248A940F2EF7E02F2EF1E03F2E1F
:10289000F02D0F2EFCEEAF2EF0E0BF2EF02D0F2E00
:1028A000F2EA4F2EF0E05F2EF02D0F2EFAEF6F2E92
:1028B000F0E07F2EF02D0F2EF8EACF2EF0E0DF2E85
:1028C000F02D02E310E08091A0009091A10000970C
:1028D00009F045C080919A0090919B000097B1F457
:1028E0000E949B120E94B7128130910579F40E94D8
:1028F000D2000E94DF008092960080919A00909111
:102900009B00019690939B0080939A0080919A007F
:1029100090919B008130910551F40E941002D09358
:102920009B00C0939A001092A1001092A000809189
:102930009A0090919B008230910589F40E94B71211
:102940008130910561F4F092A100E092A000109214
:102950009B0010929A000E94D20090929600809163
:10296000A0009091A1008130910509F0D2C0809122
:102970009A0090919B00009719F58EE690E00E94D6
:10298000A50B0E94FF0A0E943E1281309105A1F41E
:10299000F0929B00E0929A0088E290E00E94A50BE2
:1029A0000E94FF0A8FEF9FE7A4E081509040A04073
:1029B000E1F700C0000004C0D0939B00C0939A00D0
:1029C00080919A0090919B008130910509F053C04D
:1029D0000E94910D8091190190911A018230910508
:1029E00081F40E945C110E94E1118FEF9FEFACE235
:1029F00081509040A040E1F700C000000E946111AA
:102A000036C08091190190911A0181309105A9F485
:102A10000E9457118091B2009091B300B7010E94BB
:102A2000790F8FEF9FEFACE281509040A040E1F72B
:102A300000C000000E9461111AC08091190190919C
:102A40001A010097A1F40E9452118091B200909156
:102A5000B300BE010E94790F8FEF9FEFACE281506F
:102A60009040A040E1F700C000000E946111D093A7
:102A70009B00C0939A0080919A0090919B008230B5
:102A8000910511F40E94D71280919A0090919B00B9
:102A90008330910509F017CF9092960010939D0016
:102AA00000939C000E94B7128130910509F00BCF72
:102AB0000E94D200D093A100C093A0000E946F0595
:102AC0000E94FF0A90E89CB98FEF9FE3A2E081503B
:102AD0009040A040E1F700C0000090E89CB98FEF63
:102AE0009FE3A2E081509040A040E1F700C00000C9
:102AF00090E89CB9D2011196FC92EE920E94B71216
:102B00000097E1F30E94D200F0921801E0921701C1
:102B1000DACE8091A0009091A1008230910509F059
:102B2000E1C080919A0090919B00009709F040C00D
:102B300080919C0090919D000097C9F48091920033
:102B400090919300009729F487E090E00E94680735
:102B5000BACE80918A0090918B00880F991F8C0DBE
:102B60009D1DFC01808191810E946807ACCE8091FF
:102B70009C0090919D008233910509F0A4CE809134
:102B8000900090919100009729F48DE090E00E94D0
:102B9000680799CE80918A0090918B00880F991FC9
:102BA000860D971DDC018D919C910E9468078BCE4C
:102BB00080919A0090919B0081309105F1F50E94DF
:102BC0005C110E94E1110E94611110929B00109211
:102BD0009A0080919C0090919D00009799F48091BB
:102BE00092009091930001979093930080939200AC
:102BF00080918A0090918B00019690938B00809336
:102C00008A0061CE80919C0090919D008233910555
:102C100009F059CE80919000909191000197909386
:102C200091008093900080918A0090918B00019692
:102C300090938B0080938A0046CE80919A00909169
:102C40009B008230910509F03ECE0E94B712813080
:102C5000910509F038CE0E94D2000E947F06809133
:102C60009E0090919F00019690939F0080939E00FC
:102C700010929D0010929C0010928B0010928A007E
:102C800010929B0010929A008091A0009091A10058
:102C900001969093A1008093A0000E94FF0AB0E8E3
:102CA000BCB98FEF9FE3A2E081509040A040E1F7D4
:102CB00000C0000090E89CB98FEF9FE3A2E0815034
:102CC0009040A040E1F700C0000090E89CB9D2011C
:102CD0001196FC92EE920E94B7120097E1F30E94C7
:102CE000D200F1CD8091A0009091A1008330910598
:102CF00009F0BBC080919A0090919B00009709F069
:102D000040C080919C0090919D000097C9F48091F3
:102D10008E0090918F00009729F485E190E00E9449
:102D2000E508D1CD80918A0090918B00880F991F82
:102D30008A0D9B1DFC01808191810E94E508C3CD15
:102D400080919C0090919D008233910509F0BBCD4C
:102D500080918C0090918D00009729F48BE190E098
:102D60000E94E508B0CD80918A0090918B00880F79
:102D7000991F820D931DDC018D919C910E94E508A5
:102D8000A2CD80919A0090919B0081309105F1F540
:102D90000E945C110E94E1110E94611110929B003F
:102DA00010929A0080919C0090919D00009799F458
:102DB00080918E0090918F00019790938F00809367
:102DC0008E0080918A0090918B00019690938B00E9
:102DD00080938A0078CD80919C0090919D008233F1
:102DE000910509F070CD80918C0090918D00019734
:102DF00090938D0080938C0080918A0090918B003D
:102E0000019690938B0080938A005DCD80919A000B
:102E100090919B008230910509F055CD0E94B71228
:102E20008130910509F04FCD0E94D20080919E0023
:102E300090919F00019690939F0080939E00109226
:102E40009D0010929C0010928B0010928A001092AC
:102E50009B0010929A008091A0009091A100019691
:102E60009093A1008093A0002ECD8091A00090911E
:102E7000A1008430910561F40E94A8048091A00013
:102E80009091A10001969093A1008093A0001BCD8A
:102E90008091A0009091A1008530910509F013CD9B
:102EA0000E94FA018FEF9FEFA6E881509040A0406A
:102EB000E1F700C000000E94FE01DF91CF911F9159
:102EC0000F91FF90EF90DF90CF90BF90AF909F90C9
:102ED0008F907F906F905F904F903F902F900895CC
:102EE0005058BB27AA270ED04DC13ED130F043D158
:102EF00020F031F49F3F11F41EF433C10EF4E0953D
:102F0000E7FB29C1E92F4FD180F3BA176207730796
:102F10008407950718F071F49EF567C10EF4E095EB
:102F20000B2EBA2FA02D0B01B90190010C01CA0183
:102F3000A0011124FF27591B99F0593F50F4503E2E
:102F400068F11A16F040A22F232F342F4427585F20
:102F5000F3CF469537952795A795F0405395C9F738
:102F60007EF41F16BA0B620B730B840BBAF09150F0
:102F7000A1F0FF0FBB1F661F771F881FC2F70EC08F
:102F8000BA0F621F731F841F48F487957795679562
:102F9000B795F7959E3F08F0B3CF9395880F08F04B
:102FA0009927EE0F9795879508950CD0EBC0E3D045
:102FB00040F0DAD030F021F45F3F19F0CCC051116D
:102FC00015C1CFC0F0D098F39923C9F35523B1F3BD
:102FD000951B550BBB27AA2762177307840738F088
:102FE0009F5F5F4F220F331F441FAA1FA9F333D0E7
:102FF0000E2E3AF0E0E830D091505040E695001C9B
:10300000CAF729D0FE2F27D0660F771F881FBB1F56
:10301000261737074807AB07B0E809F0BB0B802D30
:10302000BF01FF2793585F4F2AF09E3F510568F07C
:1030300092C0DCC05F3FECF3983EDCF38695779559
:103040006795B795F7959F5FC9F7880F911D96957E
:10305000879597F90895E1E0660F771F881FBB1FDA
:10306000621773078407BA0720F0621B730B840B87
:10307000BA0BEE1F88F7E095089504D06894B1115B
:10308000B5C0089598D088F09F5790F0B92F992730
:10309000B751A0F0D1F0660F771F881F991F1AF063
:1030A000BA95C9F712C0B13081F09FD0B1E0089550
:1030B0009CC0672F782F8827B85F39F0B93FCCF3D1
:1030C000869577956795B395D9F73EF49095809559
:1030D000709561957F4F8F4F9F4F0895E89409C079
:1030E00097FB3EF490958095709561957F4F8F4F3B
:1030F0009F4F9923A9F0F92F96E9BB279395F69551
:10310000879577956795B795F111F8CFFAF4BB0FCE
:1031100011F460FF1BC06F5F7F4F8F4F9F4F16C032
:10312000882311F096E911C0772321F09EE8872FBC
:10313000762F05C0662371F096E8862F70E060E078
:103140002AF09A95660F771F881FDAF7880F9695F1
:10315000879597F9089597F99F6780E870E060E098
:1031600008959FEF80EC089500240A941616170620
:1031700018060906089500240A9412161306140668
:1031800005060895092E0394000C11F4882352F0CB
:10319000BB0F40F4BF2B11F460FF04C06F5F7F4F83
:1031A0008F4F9F4F089557FD9058440F551F59F06A
:1031B0005F3F71F04795880F97FB991F61F09F3F24
:1031C00079F087950895121613061406551FF2CF4D
:1031D0004695F1DF08C0161617061806991FF1CF9D
:1031E00086957105610508940895E894BB276627C4
:1031F0007727CB0197F908950BD0C4CFB5DF28F01E
:10320000BADF18F0952309F0A6CFABCF1124EECF8B
:10321000CADFA0F3959FD1F3950F50E0551F629F31
:10322000F001729FBB27F00DB11D639FAA27F00D1F
:10323000B11DAA1F649F6627B00DA11D661F829F46
:103240002227B00DA11D621F739FB00DA11D621F2B
:10325000839FA00D611D221F749F3327A00D611D48
:10326000231F849F600D211D822F762F6A2F11242A
:103270009F5750408AF0E1F088234AF0EE0FFF1F7D
:10328000BB1F661F771F881F91505040A9F79E3FB4
:10329000510570F060CFAACF5F3FECF3983EDCF3AE
:1032A000869577956795B795F795E7959F5FC1F7F1
:1032B000FE2B880F911D9695879597F90895FA0131
:1032C000EE0FFF1F30962105310599F1611571054B
:1032D00061F48038BFE39B0749F168949038810519
:1032E00061F08038BFEF9B0741F0992342F5FF3F23
:1032F000E1053105210511F1E8940894E795D9011C
:10330000AA2329F4AB2FBE2FF85FD0F310C0FF5FC4
:1033100070F4A695E0F7F73950F019F0FF3A38F459
:103320009F779F930CD00F9007FC905808953EF024
:1033300018CF60E070E080E89FE308954FE79F7743
:103340005F934F933F932F939ED02F913F914F9137
:103350005F9152DF05C019F40EF0FDCE46CF01CFCC
:103360002ADFC8F39638C0F707F80F92E8942BE3EA
:103370003AEA48EB5FE74EDF0F920F920F924DB79C
:103380005EB70F92C0D0E4E5F0E016D04F915F91A8
:10339000EF91FF91E595EE1FFF1F49F0FE57E068A2
:1033A0004427EE0F441FFA95E1F74195550B32D0B3
:1033B0000F9007FE26C00895DF93CF931F930F93BE
:1033C000FF92EF92DF927B018C01689405C0DA2EA8
:1033D000EF011EDFFE01E894A591259135914591FD
:1033E0005591AEF3EF018EDDFE019701A801DA944D
:1033F00079F7DF90EF90FF900F911F91CF91DF91C0
:1034000008959B01AC0160E070E080E89FE3CDCDC2
:10341000A2CEACC0D0DEE8F39923D9F3940F511DAE
:10342000BBF39150504094F059F0882332F0660F6E
:10343000771F881F91505040C1F79E3F510544F7B8
:10344000880F911D9695879597F908955F3FACF089
:10345000983E9CF0BB27869577956795B79508F4BD
:10346000B1609395C1F7BB0F58F711F460FFE8CF37
:103470006F5F7F4F8F4F9F4FE3CFB8CE0EF076C078
:1034800070CE689468CE97DEC8F39923D1F3C6F363
:10349000DF93CF931F930F93FF92C92FDD278823CC
:1034A0002AF02197660F771F881FDAF720E030E0B7
:1034B00040E85FEB9FE3883920F0803E30F02196B2
:1034C0008F770FDDECE7F0E003C00BDDE9EAF0E019
:1034D00073DF8B01BE01EC01FB2E6F5771097595EF
:1034E000771F880B990BFCDD28E132E741E35FE3AE
:1034F0008FDEAF2D9801AE01FF900F911F91CF91FC
:10350000DF9100DD3FCEFA01DC01AA0FBB1F9B015A
:10351000AC01BF5728F422273327442750781FC017
:10352000B75188F4AB2F0024469537952795011C99
:10353000A395D2F3002069F0220F331F441FB395E7
:10354000DAF30DD0CDCC61307105A0E88A07B94619
:1035500030F49B01AC016627772788279078309656
:1035600021F0208331834283538308959F3F31F0BC
:10357000915020F4879577956795B795880F911DA1
:103580009695879597F90895AA1BBB1B51E107C033
:10359000AA1FBB1FA617B70710F0A61BB70B881FE3
:1035A000991F5A95A9F780959095BC01CD01089572
:1035B00097FB092E07260AD077FD04D0E5DF06D059
:1035C00000201AF4709561957F4F0895F6F7909555
:0A35D00081959F4F0895F894FFCFF6
:0C35DA000A2D2D0000403F3333333F002A
:00000001FF
