:100000000C942A000C9447000C9447000C94470071
:100010000C9447000C9447000C9447000C94470044
:100020000C9447000C9447000C9447000C94470034
:100030000C9447000C9447000C9447000C94470024
:100040000C9447000C9447000C9447000C94470014
:100050000C94470011241FBECFE5D4E0DEBFCDBF16
:1000600010E0A0E6B0E0EEE3F9E002C005900D92EA
:10007000AA36B107D9F710E0AAE6B0E001C01D9298
:10008000A238B107E1F70E9448020C949D040C9439
:10009000000083E397E00197F1F7A898A99880E31F
:1000A00085BBAA9AEFEFF3E23197F1F700C00000A9
:1000B000AA98E3E3F7E03197F1F7A898A99885BBF0
:1000C000AA9AEFEFF3E23197F1F700C00000AA9887
:1000D000E3E3F7E03197F1F7A898A99885BBAA9ACE
:1000E0008FEF93E20197F1F700C00000AA98E3E3D5
:1000F000F7E03197F1F7A898A99880E285BBAA9A12
:100100008FEF93E20197F1F700C00000AA980895DD
:1001100095B39F7095BB95B3282F207F922B95BBED
:10012000A898A998AA9AEFEFF3E23197F1F700C0E7
:100130000000AA9895B39F7095BB95B38295807F78
:10014000892B85BBA898A998AA9A8FEF93E201976B
:10015000F1F700C00000AA98089583E397E00197A3
:10016000F1F788E20E94880081E00E94880086E022
:100170000E9488008EE00E94880080E80E9488002B
:10018000089595B39F7095BB95B3282F207F922B30
:1001900095BBA89AA998AA9AEFEFF3E23197F1F7E5
:1001A00000C00000AA9895B39F7095BB95B3829547
:1001B000807F892B85BBA89AA998AA9A8FEF93E292
:1001C0000197F1F700C00000AA98089580E80E9406
:1001D00088000895CF93DF93EC018881882331F064
:1001E00021960E94C10089918823D9F7DF91CF9190
:1001F0000895823079F0833018F48130C9F405C055
:10020000833069F08430A1F40FC0862F81580E949A
:1002100088000895862F81540E9488000895862FB3
:100220008D560E9488000895862F8D520E94880066
:1002300008950F931F93CF93DF938A01E9018823D9
:1002400011F0662319F40E94E60002C00E94F90032
:10025000C530D10571F4C80160E177E20E948904DC
:10026000CB01C09690937200809371000E94C100F0
:1002700003C0C430D105B9F4C80168EE73E00E9430
:100280008904CB0170937400609373006AE070E09E
:100290000E948904C09690938100809380000E9400
:1002A000C10081E001C080E0C330D10511F0813090
:1002B000B1F4C80164E670E00E948904CB01709338
:1002C0007400609373006AE070E00E948904C09635
:1002D00090937D0080937C000E94C10081E0C23039
:1002E000D10511F08130B1F42AE030E0C801B90144
:1002F0000E948904CB017093740060937300B9016C
:100300000E948904C09690937900809378000E949F
:10031000C10081E0C130D10511F0813061F4C80124
:100320006AE070E00E948904C09690937F008093F9
:100330007E000E94C100C630D1051CF085E40E94F9
:10034000C100DF91CF911F910F91089584B3876F02
:1003500084BB85B3807885BB0895A39AAB98089534
:100360001ABA1BBA089587B38F6087BB88B3807FA2
:1003700088BB81B3806381BB82B3806382BB0895F5
:1003800083B3886085BB089583B3877F85BB089559
:100390000E94C0018FEF9FE3ABE081509040A040EE
:1003A000E1F700C000000E94C40108950E94A60168
:1003B0000E94B0010E94B3010E94AD01089598B35C
:1003C000907F8F70982B98BB089586E00E94DF0184
:1003D000089580E00E94DF0108951EBC8FEF8DBD5F
:1003E00091E09CBD1BBC8ABD19BC88BD17BC86BDF5
:1003F00081EA8FBD8DE08EBD089516B880E287B981
:1004000080E888B986E886B908958770806287B9E0
:10041000369A349BFECF85B1349A089581E00E94CC
:10042000050280936A008556843078F40E94C801E2
:100430000E94E9018FEF9FE7A0E781509040A04024
:10044000E1F700C000000E94E5010895CF93DF931B
:10045000D82FC62F842F0E940502482F8093750045
:100460008D2F6C2F50E023E030E00E941901DF91C6
:10047000CF9108951BBC8ABD19BC68BD0895F8943E
:100480000E94D6010E94ED010E94FD01789408951A
:100490000E943F020E9449000E94AD00662477241A
:1004A00083E00E94050280936E0084E00E940502B2
:1004B00080936D0085E00E94050280936C0090E0BF
:1004C00020916E00821B910990937B0080937A00AB
:1004D00060917A0070917B00C0906600D0906700B8
:1004E000E0906800F0906900C0917A00D0917B00A4
:1004F00000916F00109170008090620090906300F6
:10050000A0906400B0906500882777FD8095982FB3
:100510000E949A03A70196010E9426046B017C01A8
:10052000BE01601B710B882777FD8095982F0E9474
:100530009A03A50194010E9426049B01AC01C70106
:10054000B6010E9403030E94670380917A00909194
:100550007B009093700080936F000091610010E029
:1005600080916000EB01C80FD11D061B170B0932EB
:10057000110514F008E210E0C932D10514F0C8E208
:10058000D0E081E061E041E00E9426020E94E501A6
:10059000CE01DD230CF4C301B80111230CF4B30127
:1005A0000E943A020E940E0280916D008F3608F47C
:1005B00077CF80916E008F3608F472CF80916C00F7
:1005C0008F3608F46DCF0E94E50180E060E00E9464
:1005D0003A028FEF9FE7A6E181509040A040E1F7FB
:1005E00000C000000E94E50182E362E30E943A023B
:1005F0008FEF9FE3ABE081509040A040E1F700C057
:1006000000004ECF5058BB27AA270ED0E5C0D6D049
:1006100030F0DBD020F031F49F3F11F41EF4CBC05A
:100620000EF4E095E7FBC1C0E92FE7D080F3BA17DD
:10063000620773078407950718F071F49EF5FFC0F1
:100640000EF4E0950B2EBA2FA02D0B01B9019001ED
:100650000C01CA01A0011124FF27591B99F0593F31
:1006600050F4503E68F11A16F040A22F232F342F79
:100670004427585FF3CF469537952795A795F040C7
:100680005395C9F77EF41F16BA0B620B730B840BDC
:10069000BAF09150A1F0FF0FBB1F661F771F881F94
:1006A000C2F70EC0BA0F621F731F841F48F48795EC
:1006B00077956795B795F7959E3F08F0B3CF9395DB
:1006C000880F08F09927EE0F97958795089504D025
:1006D0006894B111B5C0089598D088F09F5790F0F4
:1006E000B92F9927B751A0F0D1F0660F771F881F57
:1006F000991F1AF0BA95C9F712C0B13081F09FD096
:10070000B1E008959CC0672F782F8827B85F39F033
:10071000B93FCCF3869577956795B395D9F73EF4B5
:1007200090958095709561957F4F8F4F9F4F08955D
:10073000E89409C097FB3EF490958095709561957B
:100740007F4F8F4F9F4F9923A9F0F92F96E9BB2731
:100750009395F695879577956795B795F111F8CFAD
:10076000FAF4BB0F11F460FF1BC06F5F7F4F8F4F18
:100770009F4F16C0882311F096E911C0772321F00E
:100780009EE8872F762F05C0662371F096E8862FA6
:1007900070E060E02AF09A95660F771F881FDAF7FD
:1007A000880F9695879597F9089597F99F6780E840
:1007B00070E060E008959FEF80EC089500240A94B3
:1007C0001616170618060906089500240A9412162C
:1007D0001306140605060895092E0394000C11F45F
:1007E000882352F0BB0F40F4BF2B11F460FF04C00C
:1007F0006F5F7F4F8F4F9F4F089557FD9058440F65
:10080000551F59F05F3F71F04795880F97FB991F6F
:1008100061F09F3F79F0879508951216130614062C
:10082000551FF2CF4695F1DF08C0161617061806B9
:10083000991FF1CF86957105610508940895E89494
:10084000BB2766277727CB0197F908950BD0C4CF34
:10085000B5DF28F0BADF18F0952309F0A6CFABCFAB
:100860001124EECFCADFA0F3959FD1F3950F50E08E
:10087000551F629FF001729FBB27F00DB11D639F52
:10088000AA27F00DB11DAA1F649F6627B00DA11DF8
:10089000661F829F2227B00DA11D621F739FB00D9E
:1008A000A11D621F839FA00D611D221F749F33270E
:1008B000A00D611D231F849F600D211D822F762FA7
:1008C0006A2F11249F5750408AF0E1F088234AF0A4
:1008D000EE0FFF1FBB1F661F771F881F91505040F0
:1008E000A9F79E3F510570F060CFAACF5F3FECF3B0
:1008F000983EDCF3869577956795B795F795E795DC
:100900009F5FC1F7FE2B880F911D9695879597F9EC
:100910000895AA1BBB1B51E107C0AA1FBB1FA61746
:10092000B70710F0A61BB70B881F991F5A95A9F798
:0E09300080959095BC01CD010895F894FFCFFD
:0A093E0023236666263FB81E853DA0
:00000001FF
