:100000000C946B000C941A010C9403010C9488005E
:100010000C9488000C943C020C9488000C9488008A
:100020000C9488000C9488000C9488000C94880030
:100030000C9488000C9488000C9488000C94880020
:100040000C9488000C9488000C9488000C94880010
:100050000C94880007634236B79BD8A71A396856B4
:1000600018AEBAAB558C1D3CB7CC5763BD6DEDFDDA
:10007000753EF6177231BF000000803F0800000097
:10008000BE922449123EABAAAA2ABECDCCCC4C3E8D
:1000900000000080BEABAAAAAA3E00000000BF007C
:1000A0000000803F0000000000084178D3BB438778
:1000B000D1133D190E3CC3BD4282AD2B3E68EC828C
:1000C00076BED98FE1A93E4C80EFFFBE01C4FF7F11
:1000D0003F000000000011241FBECFE5D4E0DEBFCA
:1000E000CDBF10E0A0E6B0E0E4E2F0E102C0059090
:1000F0000D92AA36B107D9F710E0AAE6B0E001C028
:100100001D92A739B107E1F70E94DF030C94100894
:100110000C94000084B3876084BB85B3887F85BB63
:10012000089584B3806F84BB85B38F7085BB81B322
:10013000826381BB08951ABA1BBA08951EBC8FEF63
:100140008DBD91E09CBD1BBC8ABD19BC88BD17BC90
:1001500086BD81EA8FBD8DE08EBD089516B880E220
:1001600087B980E888B986E886B9089587B38F6033
:1001700087BB88B3807F88BB81B3806381BB82B338
:10018000806382BB08958A98929A08958B98939A77
:100190000895A39AAB98089585B7886085BF8BB7FB
:1001A00080688BBF089585B7826085BF8BB78064F8
:1001B0008BBF08950E94B6000E94C3000E94C60033
:1001C0000E949B000E9491000E948A000895F8946A
:1001D0000E94DA000E949E000E94AE000E94D3009E
:1001E0000E94CC00789408951BBC8ABD19BC68BDE0
:1001F000089598B3907F8F70982B98BB089580E0F6
:100200000E94F90008951F920F920FB60F921124C9
:100210008F939F9380917A0090917B0001969093A9
:100220007B0080937A009F918F910F900FBE0F906B
:100230001F9018951F920F920FB60F9211248F9353
:100240009F93AF93BF938091760090917700A09198
:100250007800B09179000196A11DB11D80937600C0
:1002600090937700A0937800B0937900BF91AF91FD
:100270009F918F910F900FBE0F901F901895BC010A
:1002800080E090E00E94550522E538EB4EE451E411
:100290000E94BC04262F372FF82FE92F462F572F07
:1002A000682F792F40937E0050937F0060938000E9
:1002B00070938100822F932FAF2FBE2FBC01CD01F1
:1002C0000E942905DC01CB019C0190937D00809365
:1002D0007C0010927B0010927A0080917A009091BD
:1002E0007B0028173907C8F70E94FF0008951F9365
:1002F000CF93DF93BC0180E090E00E9455052AE98E
:1003000039E94DE451E40E94BC04262F372FF82F21
:10031000E92F462F572F682F792F40937E00509357
:100320007F006093800070938100822F932FAF2F06
:10033000BE2FBC01CD010E942905DC01CB01FC01CF
:1003400090937D0080937C0010927600109277004D
:10035000109278001092790010927B0010927A002F
:10036000D1E010E0AC0160E070E020917A003091C3
:100370007B008091760090917700A0917800B091F9
:100380007900CD2F2E173F0708F4C12FCC2349F455
:100390002D2F84179507A607B70708F4212F2223CE
:1003A00021F30E94FF00DF91CF911F91089586E015
:1003B0000E94F900089589E00E94F900089585E0FF
:1003C0000E94F90008958AE00E94F900089584E0EF
:1003D0000E94F900089582E00E94F900089581E0EA
:1003E0000E94F900089588E00E94F9000895CF93D3
:1003F000DF93EC010E94D701CE010E943F01DF9103
:10040000CF910895CF93DF93EC010E94DF01CE01DD
:100410000E947701DF91CF910895CF93DF93EC0194
:100420000E94E301CE010E947701DF91CF910895F0
:1004300085B3887F816085BB089585B3887F82609E
:1004400085BB089585B3887F846085BB089585B397
:10045000887F85BB08951EBC83EE8DBD81EE8CBD6B
:100460009CE19BBD8FE18ABD99BD88BD97BD86BDCE
:100470001FBC85E08EBD08951F920F920FB60F929C
:1004800011248F939F93AF93BF9380916B009091B2
:100490006C00A0916D00B0916E000196A11DB11D80
:1004A00080936B0090936C00A0936D00B0936E00EE
:1004B000BF91AF919F918F910F900FBE0F901F90A2
:1004C0001895AE98AF980895AE9AAF9A0895AE98E1
:1004D000AF9A0895AE9AAF980895AC9AAD980895E2
:1004E000AC98AD9A08950E94610210926B00109230
:1004F0006C0010926D0010926E008FEF9FE3A2E0EF
:1005000081509040A040E1F700C0000080916B0056
:1005100090916C00A0916D00B0916E0080938C0062
:1005200090938D00A0938E00B0938F0008950E9449
:10053000640210926B0010926C0010926D00109289
:100540006E008FEF9FE3A2E081509040A040E1F762
:1005500000C0000080916B0090916C00A0916D0034
:10056000B0916E008093880090938900A0938A00D8
:10057000B0938B0008950E94670210926B00109256
:100580006C0010926D0010926E008FEF9FE3A2E05E
:1005900081509040A040E1F700C0000080916B00C6
:1005A00090916C00A0916D00B0916E0080938200DC
:1005B00090938300A0938400B09385000895F894ED
:1005C0000E942B0289B7806289BF78940E947002D2
:1005D00008950E94DF020E9473028FEF9FE3ABE059
:1005E00081509040A040E1F700C000000E949702B7
:1005F0008FEF9FE3ABE081509040A040E1F700C057
:1006000000000E94BB028FEF9FE3ABE0815090405F
:10061000A040E1F700C00000F8940E949E0078948A
:1006200040918C0050918D0060918E0070918F00F0
:100630008091880090918900A0918A00B0918B00F0
:1006400084179507A607B707D0F440918C00509106
:100650008D0060918E0070918F008091820090914A
:100660008300A0918400B091850084179507A607A8
:10067000B70728F4109294001092930008954091C7
:1006800088005091890060918A0070918B00809160
:10069000820090918300A0918400B091850084171E
:1006A0009507A607B70738F481E090E0909394008F
:1006B00080939300089582E090E09093940080935B
:1006C000930008958770806287B9369A349BFECF75
:1006D00085B1349A089583B3886085BB089583B348
:1006E000877F85BB08950E946B038FEF9FE7A6E18C
:1006F00081509040A040E1F700C000000E946F03CD
:1007000008950F931F93682F70E080E090E00E949F
:1007100055052FEE39EC43E95FE30E944606B62FFC
:10072000A72F382F292F60E070E080E89FE3422F49
:100730000B2F1A2F232F342FA90198010E94BC04DC
:100740002AE939EF4EE255E40E94E30520E030E06B
:1007500040E251E40E94E3050E942405882777FDCA
:100760008095982F0E9457050E942405862F972F69
:1007700023E08132920710F080E293E01F910F9105
:10078000089587E00E94620380936A000E948103BB
:1007900090939600809395002FEF3FEB46E0215019
:1007A00030404040E1F700C0000021E030E08639F1
:1007B000910510F020E030E0822F932F08950E94E1
:1007C000E700C1E0D0E083E00E94620390E09093F4
:1007D00075008093740084E00E94620390E090931F
:1007E00073008093720085E00E94620390E0909312
:1007F00071008093700010928700109286008091A3
:100800007200909173008036910550F0D09387006C
:10081000C09386000E94D7018EE16EE10E94F40031
:1008200080917400909175008F35910580F48091CE
:10083000860090918700009751F4D0938700C09371
:1008400086000E94D70183E269E10E94F400809152
:100850007000909171008F35910580F48091860031
:1008600090918700009751F4D0938700C093860041
:100870000E94D70189E163E20E94F4008091720036
:10088000909173008F359105F0F4809174009091F0
:1008900075008F359105B8F48091700090917100CA
:1008A0008F35910580F480918600909187000097A4
:1008B00051F4D0938700C09386000E94FF0080E02F
:1008C00060E00E94F4000E94C1038130910509F0AC
:1008D0007ACF0E94FF008FEF9FE3ABE08150904002
:1008E000A040E1F700C0000088E790E00E940D0200
:1008F0000E94E9028091930090919400009771F416
:100900000E9418028FEF9FEFACE281509040A04010
:10091000E1F700C000000E94270229C080919300E7
:10092000909194008130910571F40E941D028FEF27
:100930009FEFACE281509040A040E1F700C0000082
:100940000E94270214C080919300909194008230FD
:10095000910569F40E9422028FEF9FEFACE2815073
:100960009040A040E1F700C000000E94270288E705
:1009700090E00E94020227CF0CD0EBC0E3D040F001
:10098000DAD030F021F45F3F19F0CCC0511115C11D
:10099000CFC0F0D098F39923C9F35523B1F3951B39
:1009A000550BBB27AA2762177307840738F09F5F90
:1009B0005F4F220F331F441FAA1FA9F333D00E2EFF
:1009C0003AF0E0E830D091505040E695001CCAF76C
:1009D00029D0FE2F27D0660F771F881FBB1F261731
:1009E00037074807AB07B0E809F0BB0B802DBF0104
:1009F000FF2793585F4F2AF09E3F510568F092C041
:100A0000DCC05F3FECF3983EDCF386957795679505
:100A1000B795F7959F5FC9F7880F911D96958795B4
:100A200097F90895E1E0660F771F881FBB1F6217D3
:100A300073078407BA0720F0621B730B840BBA0B91
:100A4000EE1F88F7E095089504D06894B111B5C001
:100A5000089598D088F09F5790F0B92F9927B751F3
:100A6000A0F0D1F0660F771F881F991F1AF0BA9572
:100A7000C9F712C0B13081F09FD0B1E008959CC099
:100A8000672F782F8827B85F39F0B93FCCF3869568
:100A900077956795B395D9F73EF4909580957095C5
:100AA00061957F4F8F4F9F4F0895E89409C097FB42
:100AB0003EF490958095709561957F4F8F4F9F4F35
:100AC0009923A9F0F92F96E9BB279395F695879579
:100AD00077956795B795F111F8CFFAF4BB0F11F43C
:100AE00060FF1BC06F5F7F4F8F4F9F4F16C08823E3
:100AF00011F096E911C0772321F09EE8872F762F19
:100B000005C0662371F096E8862F70E060E02AF059
:100B10009A95660F771F881FDAF7880F9695879545
:100B200097F9089597F99F6780E870E060E008956D
:100B30009FEF80EC089500240A94161617061806F5
:100B40000906089500240A941216130614060506D1
:100B50000895092E0394000C11F4882352F0BB0F62
:100B600040F4BF2B11F460FF04C06F5F7F4F8F4FC5
:100B70009F4F089557FD9058440F551F59F05F3F00
:100B800071F04795880F97FB991F61F09F3F79F0AF
:100B900087950895121613061406551FF2CF469531
:100BA000F1DF08C0161617061806991FF1CF8695B3
:100BB0007105610508940895E894BB276627772797
:100BC000CB0197F908950BD0C4CFB5DF28F0BADF79
:100BD00018F0952309F0A6CFABCF1124EECFCADFD2
:100BE000A0F3959FD1F3950F50E0551F629FF00140
:100BF000729FBB27F00DB11D639FAA27F00DB11D99
:100C0000AA1F649F6627B00DA11D661F829F222721
:100C1000B00DA11D621F739FB00DA11D621F839FA8
:100C2000A00D611D221F749F3327A00D611D231F7E
:100C3000849F600D211D822F762F6A2F11249F57CC
:100C400050408AF0E1F088234AF0EE0FFF1FBB1FEF
:100C5000661F771F881F91505040A9F79E3F51058E
:100C600070F060CFAACF5F3FECF3983EDCF386953F
:100C700077956795B795F795E7959F5FC1F7FE2B39
:100C8000880F911D9695879597F90895FA01EE0FB3
:100C9000FF1F30962105310599F16115710561F449
:100CA0008038BFE39B0749F168949038810561F073
:100CB0008038BFEF9B0741F0992342F5FF3FE105E4
:100CC0003105210511F1E8940894E795D901AA238B
:100CD00029F4AB2FBE2FF85FD0F310C0FF5F70F484
:100CE000A695E0F7F73950F019F0FF3A38F49F77FE
:100CF0009F930CD00F9007FC905808953EF018CFAA
:100D000060E070E080E89FE308954FE79F775F938E
:100D10004F933F932F939ED02F913F914F915F918F
:100D200052DF05C019F40EF0FDCE46CF01CF2ADF09
:100D3000C8F39638C0F707F80F92E8942BE33AEA25
:100D400048EB5FE74EDF0F920F920F924DB75EB701
:100D50000F92C0D0E4E5F0E016D04F915F91EF9193
:100D6000FF91E595EE1FFF1F49F0FE57E06844270D
:100D7000EE0F441FFA95E1F74195550B32D00F90D5
:100D800007FE26C00895DF93CF931F930F93FF9222
:100D9000EF92DF927B018C01689405C0DA2EEF019F
:100DA0001EDFFE01E894A59125913591459155915D
:100DB000AEF3EF01D4D0FE019701A801DA9479F7E0
:100DC000DF90EF90FF900F911F91CF91DF910895E9
:100DD0009B01AC0160E070E080E89FE3CDCDA2CE46
:100DE00011C1D0DEE8F39923D9F3940F511DBBF361
:100DF0009150504094F059F0882332F0660F771FDD
:100E0000881F91505040C1F79E3F510544F7880F0D
:100E1000911D9695879597F908955F3FACF0983EA0
:100E20009CF0BB27869577956795B79508F4B160D8
:100E30009395C1F7BB0F58F711F460FFE8CF6F5FD0
:100E40007F4F8F4F9F4FE3CFB8CE0EF0DBC070CEF9
:100E5000689468CE97DEC8F39923D1F3C6F3DF9385
:100E6000CF931F930F93FF92C92FDD2788232AF07A
:100E70002197660F771F881FDAF720E030E040E8FF
:100E80005FEB9FE3883920F0803E30F021968F772A
:100E900055D0ECE7F0E003C051D0E9EAF0E073DFB1
:100EA0008B01BE01EC01FB2E6F5771097595771F01
:100EB000880B990BFCDD28E132E741E35FE38FDE2D
:100EC000AF2D9801AE01FF900F911F91CF91DF914F
:100ED00046D03FCEFA01DC01AA0FBB1F9B01AC013B
:100EE000BF5728F422273327442750781FC0B75113
:100EF00088F4AB2F0024469537952795011CA395C0
:100F0000D2F3002069F0220F331F441FB395DAF3A8
:100F10000DD013C061307105A0E88A07B94630F4DE
:100F20009B01AC016627772788279078309621F0BF
:100F3000208331834283538308955058BB27AA27C7
:100F40000ED007CEF8DD30F0FDDD20F031F49F3F0C
:100F500011F41EF4EDCD0EF4E095E7FBE3CDE92F9F
:100F600009DE80F3BA17620773078407950718F044
:100F700071F49EF521CE0EF4E0950B2EBA2FA02D24
:100F80000B01B90190010C01CA01A0011124FF2736
:100F9000591B99F0593F50F4503E68F11A16F04031
:100FA000A22F232F342F4427585FF3CF4695379530
:100FB0002795A795F0405395C9F77EF41F16BA0BF5
:100FC000620B730B840BBAF09150A1F0FF0FBB1FA3
:100FD000661F771F881FC2F70EC0BA0F621F731FEC
:100FE000841F48F4879577956795B795F7959E3F49
:100FF00008F0B3CF9395880F08F09927EE0F9795D7
:10100000879508959F3F31F0915020F4879577950B
:101010006795B795880F911D9695879597F90895CF
:04102000F894FFCF72
:0A10240023233333B33ECDCC4C3D03
:00000001FF
