:100000000C942A000C9447000C9447000C94470071
:100010000C9447000C9420010C9447000C9447006A
:100020000C9447000C9447000C9447000C94470034
:100030000C9447000C9447000C9447000C94470024
:100040000C9447000C9447000C9447000C94470014
:100050000C94470011241FBECFE5D4E0DEBFCDBF16
:1000600010E0A0E6B0E0E8EAF4E002C005900D92EE
:10007000A036B107D9F710E0A0E6B0E001C01D92AC
:10008000A237B107E1F70E9440020C9452020C948F
:10009000000084B3876084BB85B3887F85BB0895E7
:1000A00084B38FEF84BB85B385BB81B3826381BB8F
:1000B00008951ABA1BBA08951EBC8FEF8DBD91E04A
:1000C0009CBD1BBC8ABD19BC88BD17BC86BD81EA1E
:1000D0008FBD8DE08EBD08958F9A82E083BF8BEE39
:1000E00082BF81E089BF089516B880E287B980E8B1
:1000F00088B986E886B9089587B38F6087BB88B3CF
:10010000807F88BB81B3806381BB82B3806382BB05
:1001100008951AB81BB886E880BD8FE289B910BC73
:1001200088E98AB908958A98929A08958B98939A43
:100130000895A39AAB98089585B7886085BF8BB75B
:1001400080688BBF089585B7826085BF8BB7806458
:100150008BBF08950E947C000E9499000E94890034
:100160000E9493000E9496000E9459000E94500035
:100170000E9449000895F8940E94AA000E945C0021
:100180000E9474000E94A3000E949C000E946C00C8
:100190007894089585B3887F816085BB089585B381
:1001A000887F826085BB089585B3887F846085BB26
:1001B000089585B3887F85BB0895009771F40E94E8
:1001C000CA008FEF9FE7A6E181509040A040E1F781
:1001D00000C000000E94D90008958130910571F49B
:1001E0000E94CF008FEF9FE7A6E181509040A04092
:1001F000E1F700C000000E94D90008958230910507
:1002000069F40E94D4008FEF9FE7A6E181509040EF
:10021000A040E1F700C000000E94D90008951EBC74
:1002200083EE8DBD81EE8CBD9CE19BBD8FE18ABDCF
:1002300099BD88BD97BD86BD1FBC85E08EBD089564
:100240001F920F920FB60F9211248F939F93AF932B
:10025000BF938091600090916100A0916200B09185
:1002600063000196A11DB11D809360009093610011
:10027000A0936200B0936300BF91AF919F918F9163
:100280000F900FBE0F901F901895AE98AF980895DD
:10029000AE9AAF9A0895AE98AF9A0895AE9AAF9875
:1002A0000895AC9AAD980895AC98AD9A08950E94BF
:1002B000450110926000109261001092620010924D
:1002C00063008FEF9FE3A2E081509040A040E1F7F0
:1002D00000C000008091600090916100A0916200D8
:1002E000B091630080936C0090936D00A0936E00BA
:1002F000B0936F0008950E94480110926000109220
:10030000610010926200109263008FEF9FE3A2E001
:1003100081509040A040E1F700C000008091600053
:1003200090916100A0916200B09163008093680099
:1003300090936900A0936A00B0936B0008950E94A7
:100340004B011092600010926100109262001092B6
:1003500063008FEF9FE3A2E081509040A040E1F75F
:1003600000C000008091600090916100A091620047
:10037000B09163008093640090936500A093660041
:10038000B09367000895F8940E940F0189B78062C6
:1003900089BF78940E94540108950E9457018FEFFD
:1003A0009FE3ABE081509040A040E1F700C0000027
:1003B0000E947B018FEF9FE3ABE081509040A04013
:1003C000E1F700C000000E949F018FEF9FE3ABE0C8
:1003D00081509040A040E1F700C0000040916C00C7
:1003E00050916D0060916E0070916F008091680077
:1003F00090916900A0916A00B0916B0084179507F5
:10040000A607B707D0F440916C0050916D00609141
:100410006E0070916F008091640090916500A091D2
:100420006600B091670084179507A607B70728F400
:1004300010927100109270000895409168005091E0
:10044000690060916A0070916B00809164009091E6
:100450006500A0916600B091670084179507A60714
:10046000B70738F481E090E09093710080937000BA
:10047000089582E090E09093710080937000089559
:100480000E94BB000E94C3010E94CA008FEF9FEF31
:10049000ACE281509040A040E1F700C000000E9413
:0804A000D9000895F894FFCF84
:00000001FF
