:100000000C942A000C9499070C9482070C944700D6
:100010000C9447000C9480090C9447000C94470002
:100020000C9447000C9447000C9447000C94590C16
:100030000C9447000C9447000C9447000C94470024
:100040000C9447000C9447000C9447000C94470014
:100050000C94470011241FBECFE5D4E0DEBFCDBF16
:1000600010E0A0E6B0E0E8ECF0E302C005900D92ED
:10007000A036B107D9F710E0A0E6B0E001C01D92AC
:10008000AA3FB107E1F70E949B120C9462180C94EE
:1000900000001BBC8ABD19BC68BD08958091D400C6
:1000A0009091D500009751F48091A0009091A1000B
:1000B00007979093A1008093A00008958091D400A9
:1000C0009091D5008130910551F48091A0009091DC
:1000D000A10001969093A1008093A00008958091C3
:1000E000D4009091D5008230910551F48091A00008
:1000F0009091A10007969093A1008093A00008958D
:100100008091D4009091D5008330910549F480917D
:10011000A0009091A10001979093A1008093A0006E
:1001200008951092910010929000109293001092F6
:1001300092001092950010929400089584B38FEF6E
:1001400084BB85B385BB81B3826381BB08951ABA32
:100150001BBA08951EBC8FEF8DBD91E09CBD1BBCEA
:100160008ABD19BC88BD17BC86BD81EA8FBD8DE0F4
:100170008EBD089516B880E287B980E888B986E810
:1001800086B9089587B38F6087BB88B3807F88BBAB
:1001900081B3806381BB82B3806382BB08951AB848
:1001A0001BB886E880BD8FE289B910BC88E98AB99E
:1001B00008958A98929A08958B98939A0895A39A8D
:1001C000AB98089584B3876F84BB85B3807885BB73
:1001D000089585B7886085BF8BB780688BBF089509
:1001E00085B7826085BF8BB780648BBF08950E94FE
:1001F000C2000E94DF000E94CF000E94D9000E942E
:10020000DC000E94E2000E94A7000E949E00089568
:10021000F8940E94F7000E94AA000E94BA000E946F
:10022000F0000E94E900789408958770806287B991
:10023000369A349BFECF85B1349A089583B3886093
:1002400085BB089583B3877F85BB08950E941E01F7
:100250008FEF9FE7A6E181509040A040E1F700C0FA
:1002600000000E942201089583E397E00197F1F7CF
:10027000A898A99880E385BBAA9AEFEFF3E231979B
:10028000F1F700C00000AA98E3E3F7E03197F1F737
:10029000A898A99885BBAA9AEFEFF3E23197F1F7F6
:1002A00000C00000AA98E3E3F7E03197F1F7A898BF
:1002B000A99885BBAA9A8FEF93E20197F1F700C046
:1002C0000000AA98E3E3F7E03197F1F7A898A9981E
:1002D00080E285BBAA9A8FEF93E20197F1F700C005
:1002E0000000AA98089595B39F7095BB95B3282FE9
:1002F000207F922B95BBA898A998AA9AEFEFF3E2DA
:100300003197F1F700C00000AA9895B39F7095BB94
:1003100095B38295807F892B85BBA898A998AA9AC6
:100320008FEF93E20197F1F700C00000AA980895BB
:1003300083E397E00197F1F788E20E94730181E07F
:100340000E94730186E00E9473018EE00E94730197
:1003500080E80E947301089595B39F7095BB95B393
:10036000282F207F922B95BBA89AA998AA9AEFEFE5
:10037000F3E23197F1F700C00000AA9895B39F709F
:1003800095BB95B38295807F892B85BBA89AA99848
:10039000AA9A8FEF93E20197F1F700C00000AA98A4
:1003A000089580E80E9473010895CF93DF93EC01D4
:1003B0008881882331F021960E94AC01899188239D
:1003C000D9F7DF91CF910895823079F0833018F416
:1003D0008130C9F405C0833069F08430A1F40FC0C6
:1003E000862F81580E9473010895862F81540E94A0
:1003F00073010895862F8D560E9473010895862FEC
:100400008D520E94730108950F931F93CF93DF9332
:100410008A01E901882311F0662319F40E94D101B1
:1004200002C00E94E401C530D10571F4C80160E149
:1004300077E20E944618CB01C0969093A800809363
:10044000A7000E94AC0103C0C430D105B9F4C801B3
:1004500068EE73E00E944618CB017093AC00609385
:10046000AB006AE070E00E944618C0969093F900D5
:100470008093F8000E94AC0181E001C080E0C330AD
:10048000D10511F08130B1F4C80164E670E00E943A
:100490004618CB017093AC006093AB006AE070E04B
:1004A0000E944618C0969093F3008093F2000E9439
:1004B000AC0181E0C230D10511F08130B1F42AE005
:1004C00030E0C801B9010E944618CB017093AC001E
:1004D0006093AB00B9010E944618C0969093E50066
:1004E0008093E4000E94AC0181E0C130D10511F09D
:1004F000813061F4C8016AE070E00E944618C0963D
:100500009093F7008093F6000E94AC01C630D105AD
:100510001CF085E40E94AC01DF91CF911F910F91F7
:100520000895CF93DF93D82FC62F842F0E941501F3
:10053000482F8093C9008D2F6C2F50E023E030E0CE
:100540000E940402DF91CF910895CF93DF93C1E021
:10055000D0E0D2C083E00E94150190E090936B0040
:1005600080936A0084E00E94150190E090936900F6
:100570008093680085E00E94150190E090936700E9
:10058000809366001092AA001092A90080916800E2
:10059000909169008036910560F0D093AA00C093D5
:1005A000A9000E947E078EE190E06EE170E00E945B
:1005B000490080916A0090916B008F35910590F40D
:1005C0008091A9009091AA00009761F4D093AA00AD
:1005D000C093A9000E947E0783E290E069E170E089
:1005E0000E94490080916600909167008F359105C7
:1005F00090F48091A9009091AA00009761F4D093A3
:10060000AA00C093A9000E947E0789E190E063E2FE
:1006100070E00E94490080916800909169008F35D8
:10062000910500F580916A0090916B008F359105DE
:10063000C8F480916600909167008F35910590F421
:100640008091A9009091AA00009761F4D093AA002C
:10065000C093A9000E947A0780E090E060E070E01B
:100660000E94490080916800909169008036910550
:1006700008F442C080916A0090916B008036910529
:10068000D8F1809166009091670080369105A0F1C5
:100690000E944E004091A0005091A10082E069E0CC
:1006A00023E030E00E9404028FEF9FE7A4E0815036
:1006B0009040A040E1F700C000000E947A070E942D
:1006C00026018091A0009091A1008730910529F426
:1006D00084E690E00E94F6070FC086E490E066E4AE
:1006E00070E00E9449008FEF9FEFA8E0815090409A
:1006F000A040E1F700C000008091A0009091A1000F
:100700008730910509F026CF0E9426018FEF9FE7E1
:10071000A3E481509040A040E1F700C000000E9497
:100720002601DF91CF9108958F929F92BF92CF9231
:10073000DF92EF92FF920F931F93CF93DF93EC0121
:1007400001E010E00F2EFAE7EF2EF7E0FF2EF02D7C
:10075000BB246894B6F80F2EF0E9CF2EF0E0DF2E20
:10076000F02D88249924689481F82BC183E00E949D
:10077000150190E090936B0080936A0084E00E94E2
:10078000150190E0909369008093680085E00E94D5
:10079000150190E090936700809366001092AA0084
:1007A0001092A900809168009091690080369105AF
:1007B00060F01093AA000093A9000E947E078EE1CA
:1007C00090E06EE170E00E94490080916A00909193
:1007D0006B008F35910590F48091A9009091AA004B
:1007E000009761F41093AA000093A9000E947E076D
:1007F00083E290E069E170E00E9449008091660028
:10080000909167008F35910590F48091A9009091A7
:10081000AA00009761F41093AA000093A9000E9417
:100820007E0789E190E063E270E00E9449008091D8
:100830006800909169008F35910500F580916A00FC
:1008400090916B008F359105C8F48091660090916E
:1008500067008F35910590F48091A9009091AA00CE
:10086000009761F41093AA000093A9000E947A07F0
:1008700080E090E060E070E00E94490080916800B4
:10088000909169008036910508F49BC080916A00C0
:1008900090916B008036910508F493C080916600BA
:1008A000909167008036910508F48BC00E944E003D
:1008B0004091A0005091A10082E069E023E030E087
:1008C0000E9404028FEF9FE7A4E081509040A04077
:1008D000E1F700C00000F70109950E942601809110
:1008E000A0009091A1008C179D0721F58091A00098
:1008F0009091A1008D309105E9F08091A000909138
:10090000A10087309105B1F086E990E00E94F607DA
:10091000F70109950E9426018FEF9FE7A0E781501C
:100920009040A040E1F700C00000109389000093C0
:10093000880047C08091A0009091A1008C179D076E
:10094000A1F48091A0009091A1008730910569F4F5
:10095000C8010E941D09BCB8D60111961C930E93C4
:1009600090928900809288002CC08091A000909184
:10097000A1008C179D07B1F48091A0009091A10077
:100980008D30910579F483E090E00E941D09BCB898
:10099000F6011183008383E090E0909389008093B7
:1009A00088000FC086E490E066E470E00E94490091
:1009B0008FEF9FEFA8E081509040A040E1F700C08A
:1009C00000008091A0009091A1008C179D0709F074
:1009D000CDCEDF91CF911F910F91FF90EF90DF90DF
:1009E000CF90BF909F908F900895BF92CF92DF924B
:1009F000EF92FF920F931F93CF93DF93EC0101E0EF
:100A000010E00F2EFAE7EF2EF7E0FF2EF02DBB24BB
:100A10006894B6F80F2EF0E9CF2EF0E0DF2EF02D1F
:100A20003CC183E00E94150190E090936B0080939D
:100A30006A0084E00E94150190E090936900809321
:100A4000680085E00E94150190E090936700809314
:100A500066001092AA001092A90081E061E043E0D4
:100A60000E94910281E065E044E00E94910281E0F1
:100A700069E045E00E9491028091680090916900D0
:100A80008036910560F01093AA000093A9000E949F
:100A90007E078EE190E06EE170E00E944900809157
:100AA0006A0090916B008F35910590F48091A900B8
:100AB0009091AA00009761F41093AA000093A900F6
:100AC0000E947E0783E290E069E170E00E944900A5
:100AD00080916600909167008F35910590F4809128
:100AE000A9009091AA00009761F41093AA000093C6
:100AF000A9000E947E0789E190E063E270E00E9415
:100B0000490080916800909169008F35910500F54A
:100B100080916A0090916B008F359105C8F48091A7
:100B20006600909167008F35910590F48091A9003F
:100B30009091AA00009761F41093AA000093A90075
:100B40000E947A0780E090E060E070E00E94490037
:100B500080916800909169008036910508F49DC0ED
:100B600080916A0090916B008036910508F495C0E1
:100B700080916600909167008036910508F48DC0E1
:100B80000E944E004091A0005091A10082E069E0D7
:100B900023E030E00E9404028FEF9FEBA6E081503B
:100BA0009040A040E1F700C00000F70109950E94C5
:100BB00026018091A0009091A1008C179D0721F53E
:100BC0008091A0009091A10089329105E9F0809177
:100BD000A0009091A10083329105B1F08AEA90E0E3
:100BE0000E94F607F70109950E9426018FEF9FE703
:100BF000A0E781509040A040E1F700C000001093B2
:100C000089000093880049C08091A0009091A100C4
:100C10008C179D07B1F48091A0009091A1008332C0
:100C2000910579F4C8010E941D09BCB8D60111963E
:100C30001C930E9382E090E090938900809388004B
:100C40002CC08091A0009091A1008C179D07B1F459
:100C50008091A0009091A1008932910579F482E001
:100C600090E00E941D09BCB8F6011183008383E067
:100C700090E090938900809388000FC08EE190E00F
:100C80006EE170E00E9449008FEF9FEFA8E0815075
:100C90009040A040E1F700C000008091A00090913A
:100CA000A1008C179D0709F0BCCEDF91CF911F9159
:100CB0000F91FF90EF90DF90CF90BF90089583E069
:100CC0000E94150190E090936B0080936A0084E08D
:100CD0000E94150190E0909369008093680085E080
:100CE0000E94150190E09093670080936600109237
:100CF000AA001092A9008091680090916900803646
:100D0000910570F081E090E09093AA008093A90093
:100D10000E947E078EE190E06EE170E00E94490043
:100D200080916A0090916B008F359105A0F48091BD
:100D3000A9009091AA00009771F481E090E090934F
:100D4000AA008093A9000E947E0783E290E069E1F7
:100D500070E00E94490080916600909167008F3595
:100D60009105A0F48091A9009091AA00009771F4D8
:100D700081E090E09093AA008093A9000E947E07F2
:100D800089E190E063E270E00E9449008091680090
:100D9000909169008F35910510F580916A009091CE
:100DA0006B008F359105D8F48091660090916700B3
:100DB0008F359105A0F48091A9009091AA00009729
:100DC00071F481E090E09093AA008093A9000E94C2
:100DD0007A0780E090E060E070E00E944900809136
:100DE0006800909169008036910508F47CC080917C
:100DF0006A0090916B008036910508F474C0809170
:100E00006600909167008036910508F46CC00E94DE
:100E10004E004091A0005091A10082E069E023E0E3
:100E200030E00E9404028FEF9FE7A4E081509040E1
:100E3000A040E1F700C000000E947A070E9426014E
:100E40008091A0009091A10085319105C9F481E0C5
:100E500090E00E941D0982E390E090938B008093C4
:100E60008A0081E090E0909391008093900080E46C
:100E70008CB984E090E09093890080938800089575
:100E80008091A0009091A1008B319105C9F485E07B
:100E900090E0909389008093880082E090E00E9427
:100EA0001D0984E690E090938B0080938A0081E096
:100EB00090E0909391008093900080E48CB9089525
:100EC00010928900109288008EE190E06EE170E04F
:100ED0000E9449008FEF9FEFA8E081509040A04012
:100EE000E1F700C00000089598B3907F8F70982BB1
:100EF00098BB089580E00E947407089586E00E94E0
:100F0000740708951F920F920FB60F9211248F93BA
:100F10009F93809170009091710001969093710061
:100F2000809370009F918F910F900FBE0F901F9034
:100F300018951F920F920FB60F9211248F939F93C3
:100F4000AF93BF9380916C0090916D00A0916E0063
:100F5000B0916F000196A11DB11D80936C0090931C
:100F60006D00A0936E00B0936F00BF91AF919F9101
:100F70008F910F900FBE0F901F901895BC0180E0CD
:100F800090E00E94B81722E538EB4EE451E40E944D
:100F90002417262F372FF82FE92F462F572F682F8A
:100FA000792F40937400509375006093760070938E
:100FB0007700822F932FAF2FBE2FBC01CD010E944F
:100FC0008C17DC01CB019C0190937300809372001D
:100FD00010927100109270008091700090917100D9
:100FE00028173907C8F70E947A070895CF93DF932F
:100FF000EC010E947E07CE010E94BE07DF91CF91D7
:1010000008951F93CF93DF93BC0180E090E00E948E
:10101000B8172AE939E94DE451E40E942417262F34
:10102000372FF82FE92F462F572F682F792F40930E
:101030007400509375006093760070937700822F50
:10104000932FAF2FBE2FBC01CD010E948C17DC0166
:10105000CB01FC01909373008093720010926C009E
:1010600010926D0010926E0010926F00109271003D
:1010700010927000D1E010E0AC0160E070E02091CF
:1010800070003091710080916C0090916D00A09182
:101090006E00B0916F00CD2F2E173F0708F4C12FBF
:1010A000CC2349F42D2F84179507A607B70708F41A
:1010B000212F222321F30E947A07DF91CF911F91E4
:1010C000089589E00E947407089585E00E947407DE
:1010D00008958AE00E947407089584E00E947407CE
:1010E000089582E00E947407089581E00E947407C9
:1010F000089588E00E94740708958FE00E947407A5
:101100000895CF93DF93EC010E946508CE010E9401
:101110000108DF91CF910895CF93DF93EC010E94F6
:101120006908CE010E940108DF91CF9108950097D0
:1011300009F047C08CE390E00E94810884E00E949F
:10114000150190E090936900809368008091680099
:10115000909169008238910588F40E94650884E0C6
:101160000E94150190E0909369008093680080913F
:101170006800909169008238910578F30E947A079F
:101180008091D4009091D500009739F483E090E0ED
:101190009093D5008093D40009C08091D4009091A1
:1011A000D50001979093D5008093D4004091D4004E
:1011B0005091D50082E06CE023E030E00E94040210
:1011C00008958CE390E00E948C0884E00E94150151
:1011D00090E09093690080936800809168009091FE
:1011E00069008238910588F40E94690884E00E94B1
:1011F000150190E0909369008093680080916800E9
:10120000909169008238910578F30E947A07809165
:10121000D4009091D5000196837090709093D50082
:101220008093D4004091D4005091D50082E06CE0CE
:1012300023E030E00E9404020895CF93DF93EC0195
:101240000E947A078091D4009091D500C817D907E1
:1012500059F081E090E00E9497088091D40090912D
:10126000D500C817D907A9F7DF91CF91089581E07C
:101270000E94150180936400109265008B508534A4
:10128000D0F481E0809365000E94260140916500C2
:1012900081E06DE050E021E030E00E9404028FEF39
:1012A0009FE7A0E781509040A040E1F700C0000018
:1012B00081E090E0089581E06DE040E050E021E0C1
:1012C00030E00E9404028FEF9FE7A0E7815090403A
:1012D000A040E1F700C0000080E090E008951EBC4F
:1012E00083EE8DBD81EE8CBD9CE19BBD8FE18ABDFF
:1012F00099BD88BD97BD86BD1FBC85E08EBD089594
:101300001F920F920FB60F9211248F939F93AF935A
:10131000BF938091600090916100A0916200B091B4
:1013200063000196A11DB11D809360009093610040
:10133000A0936200B0936300BF91AF919F918F9192
:101340000F900FBE0F901F901895AE98AF9808950C
:10135000AE9AAF9A0895AE98AF9A0895AE9AAF98A4
:101360000895AC9AAD980895AC98AD9A08950E94EE
:10137000A509109260001092610010926200109214
:1013800063008FEF9FE3A2E081509040A040E1F71F
:1013900000C000008091600090916100A091620007
:1013A000B09163008093C5009093C600A093C700DE
:1013B000B093C80008950E94A8091092600010928E
:1013C000610010926200109263008FEF9FE3A2E031
:1013D00081509040A040E1F700C000008091600083
:1013E00090916100A0916200B09163008093C10070
:1013F0009093C200A093C300B093C40008950E94CC
:10140000AB0910926000109261001092620010927D
:1014100063008FEF9FE3A2E081509040A040E1F78E
:1014200000C000008091600090916100A091620076
:10143000B09163008093A3009093A400A093A500B3
:10144000B093A6000895F8940E946F0989B780624E
:1014500089BF78940E94B40908950E94230A0E94CB
:10146000B7098FEF9FE3ABE081509040A040E1F7D8
:1014700000C000000E94DB098FEF9FE3ABE08150CA
:101480009040A040E1F700C000000E94FF098FEFEC
:101490009FE3ABE081509040A040E1F700C0000026
:1014A000F8940E94AA0078944091C5005091C6001B
:1014B0006091C7007091C8008091C1009091C200F6
:1014C000A091C300B091C40084179507A607B70781
:1014D000A8F44091C5005091C6006091C70070917A
:1014E000C8008091A3009091A400A091A500B091A4
:1014F000A60084179507A607B707C0F04091C10062
:101500005091C2006091C3007091C4008091A3000B
:101510009091A400A091A500B091A6008417950712
:10152000A607B70730F481E090E0089580E090E0EE
:10153000089582E090E00895962F91569A3108F42C
:101540006052282F30E021503040C901880F991F88
:10155000880F991F880F991F821B930B0197605466
:10156000860F911D08951092A2008091A2008A30EA
:10157000B0F48DEA90E023E630E0E091A200F0E0E4
:10158000EE0FFF1FE80FF91F318320834091A20067
:101590004F5F4093A2004091A2004A3070F308953B
:1015A0000F931F93CF93DF93C82FD62F8A0180917B
:1015B0008500109285000E94B30A1093D500009315
:1015C000D40083E190E09093A1008093A000C43305
:1015D00009F441C0C53340F4C233D9F0C33350F5E8
:1015E000C13309F07CC00AC0C63309F456C0C63303
:1015F00008F442C0C73309F072C060C08091850012
:1016000081608093850081E090E0909387008093D3
:1016100086008091860090918700009759F4809110
:10162000850082608093850081E090E09093870040
:10163000809386008091860090918700009759F4EE
:101640008091850083608093850081E090E0909395
:101650008700809386008091860090918700009794
:1016600059F48091850084608093850081E090E04A
:1016700090938700809386008091860090918700E8
:10168000009759F48091850085608093850081E002
:1016900090E09093870080938600809186009091DF
:1016A0008700009759F480918500866080938500BB
:1016B00081E090E09093870080938600809186007F
:1016C00090918700009759F48091850087608093FE
:1016D000850081E090E090938700809386001092CF
:1016E0008700109286008D2F90E00E945A18843453
:1016F000910509F448C0853491055CF48234910564
:1017000001F18334910574F58134910509F07FC0AE
:101710000DC08634910509F458C0863491050CF447
:1017200043C08734910509F072C060C08091850084
:1017300088608093850081E090E09093870080939B
:1017400086008091860090918700009759F48091DF
:10175000850080618093850081E090E09093870010
:10176000809386008091860090918700009759F4BD
:101770008091850088618093850081E090E090935E
:101780008700809386008091860090918700009763
:1017900059F48091850080628093850081E090E01B
:1017A00090938700809386008091860090918700B7
:1017B000009759F48091850088628093850081E0CC
:1017C00090E09093870080938600809186009091AE
:1017D0008700009759F4809185008063809385008D
:1017E00081E090E09093870080938600809186004E
:1017F00090918700009759F48091850088638093C9
:10180000850081E090E0909387008093860010929D
:101810008700109286008091850080648093850007
:10182000809185008CB9DF91CF911F910F91089520
:101830008130E9F0823019F427E030E018C08330BD
:1018400019F42EE030E013C0843019F425E130E0C3
:101850000EC0853019F42CE130E009C0863019F44F
:1018600023E230E004C0873011F42AE230E068302F
:10187000E9F0603119F42F5F3F4F18C0683119F457
:101880002E5F3F4F13C0603219F42D5F3F4F0EC0E3
:10189000683219F42C5F3F4F09C0603319F42B5F95
:1018A0003F4F04C0683311F42A5F3F4F822F932FBC
:1018B00008951F920F920FB60F9211242F933F930A
:1018C0004F935F936F937F938F939F93AF93BF9348
:1018D000CF93DF93EF93FF938CB18093F5008091CA
:1018E000F500882331F481E090E090939300809399
:1018F00092008091F500803831F481E090E090937F
:1019000095008093940080918400882381F58091D4
:10191000F500807C8093F4008091F400803409F01D
:10192000AEC00E9426018091F50087708093E6008A
:101930008091F50088738093F100C0918200D0916E
:1019400083008091E6006091F1000E94180CCC0F9A
:10195000DD1FC355DF4F998388838091820090916A
:1019600083000196909383008093820088C08091C9
:101970008400813009F083C08091F500807C8093E1
:10198000F4008091F400803409F079C08091F50072
:1019900087708093E6008091F50088738093F10052
:1019A0008091E6006091F1000E94180C20918A005D
:1019B00030918B002115310571F5982F9352973096
:1019C000A8F4E0918000F091810090E0EE0FFF1FFD
:1019D000EA56FF4F9183808380918000909181002F
:1019E0000196909381008093800049C0E0917C0033
:1019F000F0917D0090E0EE0FFF1FE653FF4F9183C3
:101A0000808380917C0090917D00019690937D0071
:101A100080937C0034C020918A0030918B00223367
:101A2000310569F5982F93529730A8F4E0917E0024
:101A3000F0917F0090E0EE0FFF1FE652FF4F918381
:101A4000808380917E0090917F00019690937F002B
:101A500080937E0014C0E0917A00F0917B0090E0CA
:101A6000EE0FFF1FE951FF4F9183808380917A0031
:101A700090917B00019690937B0080937A00FF9178
:101A8000EF91DF91CF91BF91AF919F918F917F9116
:101A90006F915F914F913F912F910F900FBE0F90DB
:101AA0001F901895E0918200F0918300EE0FFF1FC8
:101AB000E555FF4F808191818B31910571F48091C3
:101AC000900090919100009741F480E48CB981E0FE
:101AD00090E0909391008093900008958091900001
:101AE000909191008130910599F4809192009091AC
:101AF00093008130910579F4209194003091950004
:101B000081E090E02130310541F080E090E00895DF
:101B100080E090E0089580E090E00895EF92FF92D9
:101B20000F931F93CF93DF9300E910E0C1E0D0E063
:101B3000FF246894F6F8EE24EA9403C18091A00093
:101B40009091A1008932910509F4FBC083E00E94C5
:101B5000150190E090936B0080936A0084E00E94EE
:101B6000150190E0909369008093680085E00E94E1
:101B7000150190E090936700809366001092AA0090
:101B80001092A90081E061E043E00E94910281E0AF
:101B900065E044E00E94910281E069E045E00E9436
:101BA000910280916800909169008036910560F003
:101BB000D093AA00C093A9000E947E078EE190E016
:101BC0006EE170E00E94490080916A0090916B0084
:101BD0008F35910590F48091A9009091AA0000970B
:101BE00061F4D093AA00C093A9000E947E0783E20B
:101BF00090E069E170E00E94490080916600909158
:101C000067008F35910590F48091A9009091AA000A
:101C1000009761F4D093AA00C093A9000E947E07A8
:101C200089E190E063E270E00E94490080916800E1
:101C3000909169008F35910500F580916A0090912F
:101C40006B008F359105C8F4809166009091670014
:101C50008F35910590F48091A9009091AA0000978A
:101C600061F4D093AA00C093A9000E947A0780E093
:101C700090E060E070E00E944900809168009091DF
:101C800069008036910508F45CC080916A009091EB
:101C90006B008036910508F454C0809166009091E5
:101CA00067008036910508F44CC00E944E004091B8
:101CB000A0005091A10082E069E023E030E00E94A2
:101CC00004028FEF9FE7A4E081509040A040E1F72D
:101CD00000C000000E947A070E9426018091A000A7
:101CE0009091A1008932910581F086E490E066E44C
:101CF00070E00E9449008FEF9FEFA8E08150904074
:101D0000A040E1F700C000001CC083E090E00E940A
:101D10001D09D8011196DC93CE93FCB810928B006C
:101D200010928A0080918C0090918D000196909382
:101D30008D0080938C00E0928400109289001092B4
:101D400088000E946E0D8130910509F0F7CE0E9447
:101D50009100DF91CF911F910F91FF90EF90089527
:101D6000EF92FF920F931F93CF93DF9311E0C1E0A7
:101D7000D0E00F2EF0E9EF2EF0E0FF2EF02D00E086
:101D800009C18091A0009091A1008D30910509F4C6
:101D900001C183E00E94150190E090936B00809355
:101DA0006A0084E00E94150190E09093690080939E
:101DB000680085E00E94150190E090936700809391
:101DC00066001092AA001092A9008091680090917C
:101DD00069008036910560F0D093AA00C093A900F5
:101DE0000E947E078EE190E06EE170E00E94490063
:101DF00080916A0090916B008F35910590F48091ED
:101E0000A9009091AA00009761F4D093AA00C09312
:101E1000A9000E947E0783E290E069E170E00E94E1
:101E2000490080916600909167008F35910590F48C
:101E30008091A9009091AA00009761F4D093AA0024
:101E4000C093A9000E947E0789E190E063E270E000
:101E50000E94490080916800909169008F3591053A
:101E600000F580916A0090916B008F359105C8F460
:101E700080916600909167008F35910590F4809174
:101E8000A9009091AA00009761F4D093AA00C09392
:101E9000A9000E947A0780E090E060E070E00E9474
:101EA000490080916800909169008036910508F49E
:101EB00071C080916A0090916B008036910508F4A2
:101EC00069C080916600909167008036910508F4A2
:101ED00061C00E944E004091A0005091A10082E09C
:101EE00069E023E030E00E9404028FEF9FE7A4E066
:101EF00081509040A040E1F700C000000E947A07A6
:101F00000E9426018091A0009091A1002091A00044
:101F10003091A1004091A0005091A100612F803329
:101F2000910509F0602F812F2F32310509F0802FA4
:101F3000862B282F30E0CE014C30510511F080E087
:101F400090E0822B932B009721F0CE010E949708FE
:101F500021C08091A0009091A1008D30910559F48D
:101F600083E090E00E941D09D7011196DC93CE9387
:101F7000B0E4BCB90FC086E490E066E470E00E9473
:101F800049008FEF9FEFA8E081509040A040E1F71B
:101F900000C000000E946E0D8130910509F0F1CE65
:101FA0000E949100DF91CF911F910F91FF90EF90D0
:101FB0000895AC01E0918200F0918300A09182002D
:101FC000B09183001E161F068CF4AA0FBB1FA355E9
:101FD000BF4FEE0FFF1FE155FF4F2FEA30E09E91FC
:101FE0008E9192938293E217F307C9F75093AE0054
:101FF0004093AD0008958F929F92AF92BF92CF927F
:10200000DF92EF92FF920F931F93CF93DF93809114
:10201000D4009091D500009731F4C091AD00D091DB
:10202000AE00279626C08091D4009091D5008130D3
:10203000910531F4C091AD00D091AE00219719C047
:102040008091D4009091D5008230910531F4C091F7
:10205000AD00D091AE0027970CC08091D400909134
:10206000D5008330910529F4C091AD00D091AE0028
:102070002196CE010E94D90FD093A100C093A00059
:10208000C090AD00D090AE000091AF001091B000B4
:10209000C091B100D091B200EE24FF24E3940F2E42
:1020A000FDEAAF2EF0E0BF2EF02D88249924839412
:1020B00009C283E00E94150190E090936B00809329
:1020C0006A0084E00E94150190E09093690080937B
:1020D000680085E00E94150190E09093670080936E
:1020E00066001092AA001092A90081E061E043E02E
:1020F0000E94910281E065E044E00E94910281E04B
:1021000069E045E00E94910282E061E0A60122E0E0
:1021100030E00E94040282E064E0A80122E030E0A6
:102120000E94040282E067E0AE0122E030E00E94FB
:10213000040280916800909169008036910550F00A
:102140009092AA008092A9000E947E078EE16EE123
:102150000E94490080916A0090916B008F35910533
:1021600080F48091A9009091AA00009751F4909278
:10217000AA008092A9000E947E0783E269E10E9482
:10218000490080916600909167008F35910580F439
:102190008091A9009091AA00009751F49092AA0012
:1021A0008092A9000E947E0789E163E20E944900B3
:1021B00080916800909169008F359105F0F48091CD
:1021C0006A0090916B008F359105B8F4809166009C
:1021D000909167008F35910580F48091A9009091CE
:1021E000AA00009751F49092AA008092A9000E9440
:1021F0007A0780E060E00E94490080916800909139
:1022000069008036910508F45DC180916A00909163
:102210006B008036910508F455C18091660090915D
:1022200067008036910508F44DC10E944E00409130
:10223000A0005091A10082E069E023E030E00E941C
:1022400004024091D4005091D50082E06CE023E07C
:1022500030E00E9404028FEF9FE7A4E0815090409D
:10226000A040E1F700C000000E947A070E9426010A
:10227000C336D10509F433C1CE01801B910B8130E7
:10228000910509F041C0E801CC19DD09C130D10543
:1022900019F40E947E0710C0C730D10529F480E0F0
:1022A00090E00E94970812C09FEFC93FD90721F420
:1022B000C4010E9497080AC0AFEFCF3FDA0731F49C
:1022C000C4010E949708C4010E94970897012F5FDC
:1022D0003F4FF701EE0FFF1FEA0DFB1DC080D180BD
:1022E000C901880F991F8A0D9B1DFC010081118176
:1022F000C7010296880F991F8A0D9B1DDC01CD91A5
:10230000DC9111977901CFC08730910509F041C068
:10231000E801CC19DD09C730D10519F40E947E0708
:1023200010C0BFEFCF3FDB0729F480E090E00E94B0
:10233000970811C0C130D10521F4C4010E9497084B
:102340000AC0EFEFC93FDE0731F4C4010E949708CD
:10235000C4010E94970897012F5F3F4FF701EE0FCE
:10236000FF1FEA0DFB1DC080D180C901880F991F96
:102370008A0D9B1DDC010D911C911197C7010296DE
:10238000880F991F8A0D9B1DFC01C081D1817901A5
:102390008AC0FFEF893F9F0709F041C0E801CC19CF
:1023A000DD092FEFC93FD20719F40E947E0710C044
:1023B000C130D10529F480E090E00E94970811C057
:1023C0008FEFCF3FD80721F4C4010E94970809C0BE
:1023D000C730D10531F4C4010E949708C4010E949E
:1023E000970897012F5F3F4FF701EE0FFF1FEA0D90
:1023F000FB1DC080D180C901880F991F8A0D9B1DCC
:10240000DC010D911C911197C7010296880F991F4D
:102410008A0D9B1DFC01C081D181790144C0FFEF71
:102420008F3F9F0709F03FC0E801CC19DD092FEF6E
:10243000CF3FD20719F40E947E0710C08FEFC93F2B
:10244000D80729F480E090E00E94970810C0C730B8
:10245000D10521F4C4010E94970809C0C130D105FB
:1024600031F4C4010E949708C4010E9497089701A3
:102470002F5F3F4FF701EE0FFF1FEA0DFB1DC080DE
:10248000D180C901880F991F8A0D9B1DDC010D9118
:102490001C91C7010296880F991F8A0D9B1DFC0194
:1024A000C081D18179010E947E0784E164E10E94AC
:1024B00049008FEF9FEFA8E081509040A040E1F7E6
:1024C00000C00000C701880F991F8A0D9B1DDC0109
:1024D0008D919C9111978336910509F0EACD8091F9
:1024E00088009091890001969093890080938800DC
:1024F00080E48CB981E090E090939100809390000B
:1025000083E090E00E941D094091D4005091D500D5
:1025100082E06CE023E030E00E940402DF91CF9182
:102520001F910F91FF90EF90DF90CF90BF90AF90F1
:102530009F908F9008954F925F926F927F928F92AB
:102540009F92AF92BF92CF92DF92EF92FF920F9342
:102550001F93CF93DF930E9408010E9434010E94D1
:10256000980181E090E090937D0080937C0088E06A
:1025700090E09093CB008093CA0083E090E090932A
:102580008F0080938E002DE030E03093A1002093E7
:10259000A0009093D5008093D4008FEF80938400A7
:1025A000109289001092880010928B0010928A007D
:1025B0004091D4005091D50082E06CE023E030E0FF
:1025C0000E9404028824839499249A940F2EF2E3A3
:1025D0006F2E7724F02D0F2EF7EE4F2EF0E05F2EAA
:1025E000F02D0F2EFAECCF2EF0E0DF2EF02D0F2E77
:1025F000FAEDAF2EF0E0BF2EF02D0F2EF6E9EF2E04
:10260000F0E0FF2EF02DC1E0D0E003E010E080917B
:102610008E0090918F00009709F043C08091880050
:10262000909189000097A9F40E94520D0E946E0DAE
:102630008130910561F70E94910090928400809111
:10264000880090918900019690938900809388007A
:10265000DECF80918800909189008130910519F436
:102660000E94FB0FD4CF8091880090918900823026
:10267000910569F60E946E0D8130910541F68091B9
:102680008E0090918F00019690938F0080938E0022
:102690001092890010928800809284000E9491001C
:1026A000B6CF80918E0090918F008130910509F016
:1026B000EBC18091880090918900009781F58AEAAA
:1026C00090E00E94F6070E947A0788E790E00E9457
:1026D0008C088091D4009091D50001968370907001
:1026E0009093D5008093D4004091D4005091D500B0
:1026F00082E06CE098010E9404028FEF9FE7A0E760
:1027000081509040A040E1F700C000008091880017
:102710009091890001969093890080938800809120
:1027200088009091890081309105B9F40E943709A1
:102730008130910551F48091880090918900019633
:10274000909389008093880008C0109389000093BB
:10275000880080E090E00E94970880918800909126
:1027600089008230910509F046C1809188009091DE
:1027700089008436910509F431C1109285001092C8
:102780008700109286008091A0009091A10067E0E0
:1027900070E00E94461883309105E9F1843091057C
:1027A00038F481309105C9F08230910528F50CC0CC
:1027B0008530910509F44DC085309105D8F18630FA
:1027C000910509F064C054C08091850088608093B1
:1027D0008500D0938700C0938600809186009091F9
:1027E0008700009749F4809185008061809385007F
:1027F000D0938700C09386008091860090918700D7
:10280000009749F480918500886180938500D0937A
:102810008700C09386008091860090918700009782
:1028200049F480918500806280938500D093870071
:10283000C09386008091860090918700009749F4AC
:1028400080918500886280938500D0938700C09333
:1028500086008091860090918700009749F48091CE
:102860008500806380938500D0938700C0938600A5
:102870008091860090918700009749F480918500AF
:10288000886380938500D0938700C0938600109260
:102890008700109286008091A0009091A10067E0CF
:1028A00070E00E944618CB0101968430910509F42E
:1028B00041C08530910558F482309105E9F08330AC
:1028C000910548F58130910509F070C00CC0863043
:1028D000910509F44DC086309105D8F187309105F6
:1028E00009F064C054C080918500816080938500A8
:1028F000D0938700C09386008091860090918700D6
:10290000009749F480918500826080938500D09380
:102910008700C09386008091860090918700009781
:1029200049F480918500836080938500D09387006F
:10293000C09386008091860090918700009749F4AB
:1029400080918500846080938500D0938700C09338
:1029500086008091860090918700009749F48091CD
:102960008500856080938500D0938700C0938600A2
:102970008091860090918700009749F480918500AE
:10298000866080938500D0938700C09386008091F5
:10299000860090918700009749F4809185008760B8
:1029A00080938500D0938700C093860010928700A3
:1029B000109286008091880090918900843691055C
:1029C00029F4809185008093850005C08091850061
:1029D000806880938500809185008CB98091880003
:1029E000909189000196909389008093880080E0FF
:1029F00090E00E9497088091880090918900833030
:102A0000910519F40E945F0602CE80918800909192
:102A100089008430910569F40E946E0D8130910522
:102A200009F0F5CD10928900109288000E94910063
:102A3000EECD80918800909189008530910509F054
:102A4000E6CD0E946E0D8130910509F0E0CD8091B8
:102A50008E0090918F00019690938F0080938E004E
:102A60000E9491000E948E0D0E947A070E9426010A
:102A70008FEF9FE7A6E181509040A040E1F700C0B2
:102A800000000E942601C3CD80918E0090918F009E
:102A90008230910509F0D3C080918800909189001F
:102AA000009709F040C080918A0090918B000097B8
:102AB000C9F48091800090918100009729F483E20D
:102AC00090E00E94F504A3CD809178009091790068
:102AD000880F991F8E0D9F1DDC018D919C910E9486
:102AE000F50495CD80918A0090918B0082339105F9
:102AF00009F08DCD80917E0090917F00009729F4A0
:102B000089E290E00E94F50482CD80917800909156
:102B10007900880F991F8A0D9B1DFC01808191818E
:102B20000E94F50474CD80918800909189008130D5
:102B30009105C1F5109289001092880080918A0059
:102B400090918B00009799F4809180009091810082
:102B500001979093810080938000809178009091FC
:102B600079000196909379008093780050CD809100
:102B70008A0090918B008233910509F048CD8091B5
:102B80007E0090917F00019790937F0080937E005C
:102B900080917800909179000196909379008093CC
:102BA000780035CD80918800909189008230910520
:102BB000A9F40E946E0D8130910509F028CD0E9484
:102BC000910070928B0060928A00109279001092AE
:102BD0007800109289001092880019CD80918800A9
:102BE000909189008330910509F011CD0E946E0DFE
:102BF0008130910509F00BCD80918C0090918D0072
:102C0000019690938D0080938C0010928B0010920F
:102C10008A00109279001092780010928900109228
:102C2000880080918E0090918F00019690938F0084
:102C300080938E000E9491000E94B00EE8CC80919B
:102C40008E0090918F008330910509F0D1C0809162
:102C5000880090918900009709F040C080918A0017
:102C600090918B000097C9F480917C0090917D0039
:102C7000009729F487E090E00E949403C8CC8091EB
:102C8000780090917900880F991F8C0D9D1DDC01B3
:102C90008D919C910E949403BACC80918A0090916E
:102CA0008B008233910509F0B2CC80917A0090912B
:102CB0007B00009729F48DE090E00E949403A7CC5C
:102CC0008091780090917900880F991F840D951D4F
:102CD000FC01808191810E94940399CC80918800AD
:102CE0009091890081309105C1F510928900109270
:102CF000880080918A0090918B00009799F48091D0
:102D00007C0090917D00019790937D0080937C00E2
:102D1000809178009091790001969093790080934A
:102D2000780075CC80918A0090918B008233910558
:102D300009F06DCC80917A0090917B00019790937F
:102D40007B0080937A0080917800909179000196C1
:102D500090937900809378005ACC8091880090916C
:102D6000890082309105A9F40E946E0D8130910591
:102D700009F04DCC0E94910070928B0060928A0005
:102D800010927900109278001092890010928800B9
:102D90003ECC80918800909189008330910509F0A4
:102DA00036CC0E946E0D8130910509F030CC8091B7
:102DB0008C0090918D00019690938D0080938C00F3
:102DC00010928B0010928A00109279001092780075
:102DD000109289001092880080918E0090918F004F
:102DE000019690938F0080938E000E9491000FCCEB
:102DF00080918E0090918F008430910561F40E9443
:102E0000A50280918E0090918F00019690938F0083
:102E100080938E00FCCB80918E0090918F00853046
:102E2000910509F0F4CBDF91CF911F910F91FF90A5
:102E3000EF90DF90CF90BF90AF909F908F907F905A
:102E40006F905F904F9008950CD0E6C0DED040F0B8
:102E5000D5D030F021F45F3F19F0C7C0511110C137
:102E6000CAC0EBD098F39923C9F35523B1F3951B4E
:102E7000550BBB27AA2762177307840738F09F5F9B
:102E80005F4F220F331F441FAA1FA9F333D00E2E0A
:102E90003AF0E0E830D091505040E695001CCAF777
:102EA00029D0FE2F27D0660F771F881FBB1F26173C
:102EB00037074807AB07B0E809F0BB0B802DBF010F
:102EC000FF2793585F4F2AF09E3F510568F08DC051
:102ED000D7C05F3FECF3983EDCF386957795679516
:102EE000B795F7959F5FC9F7880F911D96958795C0
:102EF00097F90895E1E0660F771F881FBB1F6217DF
:102F000073078407BA0720F0621B730B840BBA0B9C
:102F1000EE1F88F7E095089598D088F09F5790F0BD
:102F2000B92F9927B751A0F0D1F0660F771F881FEE
:102F3000991F1AF0BA95C9F712C0B13081F09FD02D
:102F4000B1E008959CC0672F782F8827B85F39F0CB
:102F5000B93FCCF3869577956795B395D9F73EF44D
:102F600090958095709561957F4F8F4F9F4F0895F5
:102F7000E89409C097FB3EF4909580957095619513
:102F80007F4F8F4F9F4F9923A9F0F92F96E9BB27C9
:102F90009395F695879577956795B795F111F8CF45
:102FA000FAF4BB0F11F460FF1BC06F5F7F4F8F4FB0
:102FB0009F4F16C0882311F096E911C0772321F0A6
:102FC0009EE8872F762F05C0662371F096E8862F3E
:102FD00070E060E02AF09A95660F771F881FDAF795
:102FE000880F9695879597F9089597F99F6780E8D8
:102FF00070E060E008959FEF80EC089500240A944B
:103000001616170618060906089500240A941216C3
:103010001306140605060895092E0394000C11F4F6
:10302000882352F0BB0F40F4BF2B11F460FF04C0A3
:103030006F5F7F4F8F4F9F4F089557FD9058440FFC
:10304000551F59F05F3F71F04795880F97FB991F07
:1030500061F09F3F79F087950895121613061406C4
:10306000551FF2CF4695F1DF08C016161706180651
:10307000991FF1CF86957105610508940895E8942C
:10308000BB2766277727CB0197F90895AA1BBB1B9F
:1030900051E107C0AA1FBB1FA617B70710F0A61B58
:1030A000B70B881F991F5A95A9F780959095BC0179
:1030B000CD0108959111089581568A5108F48052E6
:0830C00085580895F894FFCF34
:00000001FF
