:100000000C942A000C9447000C9447000C94470071
:100010000C9447000C9447000C9447000C94470044
:100020000C9447000C9447000C9447000C94470034
:100030000C9447000C9447000C9447000C94470024
:100040000C9447000C9447000C9447000C94470014
:100050000C94470011241FBECFE5D4E0DEBFCDBF16
:1000600010E0A0E6B0E0EEE6F4E002C005900D92EC
:10007000A036B107D9F710E0A0E6B0E001C01D92AC
:10008000A237B107E1F70E94F8010C9435020C94F5
:10009000000089EF90E00197F1F700C00000A898F8
:1000A000A99880E385BBAA9AE1EEF4E03197F1F7D5
:1000B00000C00000AA98E9EFF0E03197F1F700C026
:1000C0000000A898A99885BBAA9AE1EEF4E03197C0
:1000D000F1F700C00000AA98E9EFF0E03197F1F7DE
:1000E00000C00000A898A99885BBAA9A81EE94E068
:1000F0000197F1F700C00000AA98E9EFF0E031970E
:10010000F1F700C00000A898A99880E285BBAA9AE0
:1001100081EE94E00197F1F700C00000AA980895DD
:1001200095B39F7095BB95B3282F207F922B95BBDD
:10013000A898A998AA9AE1EEF4E03197F1F700C0E7
:100140000000AA9895B39F7095BB95B38295807F68
:10015000892B85BBA898A998AA9A81EE94E001976B
:10016000F1F700C00000AA98089589EF90E0019788
:10017000F1F700C0000088E20E94900081E00E9438
:10018000900086E00E9490008EE00E94900080E83F
:100190000E949000089595B39F7095BB95B3282F4A
:1001A000207F922B95BBA89AA998AA9AE1EEF4E039
:1001B0003197F1F700C00000AA9895B39F7095BBE6
:1001C00095B38295807F892B85BBA89AA998AA9A16
:1001D00081EE94E00197F1F700C00000AA9808951D
:1001E00080E80E9490000895CF93DF93EC0188810E
:1001F000882331F021960E94CB0089918823D9F77A
:10020000DF91CF910895823079F0833018F48130F6
:10021000C9F405C0833069F08430A1F40FC0862F83
:1002200081580E9490000895862F81540E9490006A
:100230000895862F8D560E9490000895862F8D5226
:100240000E94900008950F931F93CF93DF938A012C
:10025000E901882311F0662319F40E94F00002C01E
:100260000E940301C530D10571F4C80160E177E255
:100270000E942102CB01C09690936400809363009A
:100280000E94CB0003C0C430D105B9F4C80168EEA8
:1002900073E00E942102CB017093660060936500B9
:1002A0006AE070E00E942102C096909371008093F2
:1002B00070000E94CB0081E001C080E0C330D10516
:1002C00011F08130B1F4C80164E670E00E942102AF
:1002D000CB0170936600609365006AE070E00E9455
:1002E0002102C09690936D0080936C000E94CB0019
:1002F00081E0C230D10511F08130B1F42AE030E064
:10030000C801B9010E942102CB017093660060937D
:100310006500B9010E942102C09690936B00809302
:100320006A000E94CB0081E0C130D10511F081301C
:1003300061F4C8016AE070E00E942102C0969093C7
:100340006F0080936E000E94CB00C630D1051CF078
:1003500085E40E94CB00DF91CF911F910F9108950A
:1003600084B3876F84BB85B3807885BB08951ABA40
:100370001BBA0895A39AAB9808950E94B0010E94F9
:10038000B7010E94BA01089516B880E287B980E8E3
:1003900088B986E886B908958770806287B9369AE9
:1003A000349BFECF85B1349A0895CF93DF93D82F35
:1003B000C62F842F0E94CC01482F809367008D2F79
:1003C0006C2F50E023E030E00E942301DF91CF91B9
:1003D000089583B3886085BB089583B3877F85BB09
:1003E0000895F8940E94BD010E94C4017894089574
:1003F0000E94F1010E9449000E94B50081E00E9424
:10040000CC018093600081E06DE041E00E94D50165
:100410004091610081E061E050E021E030E00E9425
:10042000230110926100809160008B508F3430F472
:1004300081E0809361000E94E901E0CF0E94ED011C
:10044000DDCFAA1BBB1B51E107C0AA1FBB1FA6170C
:10045000B70710F0A61BB70B881F991F5A95A9F76D
:0E04600080959095BC01CD010895F894FFCFD2
:00000001FF
