:1000000026C100000C94800A53C1000051C10000B9
:100010004FC100004EC1000071C1000049C1000085
:1000200047C1000045C1000043C1000041C10000BC
:100030003FC100000C94EF103BC1000039C100002B
:1000400037C100000C94361533C1000031C10000E7
:100050002FC100002DC100002BC100000C94B9126B
:1000600027C10000C3C4000023C1000021C100005B
:100070001FC100001DC100001BC1000019C100000C
:100080000C94091515C1000013C1000011C1000036
:100090000FC100000DC100000BC1000009C100002C
:1000A00007C1000005C100000C94DC1401C1000070
:1000B000FFC00000FDC00000FBC000000C94AF14A6
:1000C000F7C00000F5C00000F3C00000F1C0000060
:1000D000EFC00000EDC00000EBC00000E9C0000070
:1000E000E7C00000AF25B825C725D625E525F425AE
:1000F0000326FD26062715272427332742275127C5
:100100005E1061105010541058109810651069104E
:100110006F10731077107D108110851098108B1060
:100120008F1093100E161116141617161A161D1688
:10013000251628162B16311637163D1643164E1661
:1001400052165D1600002100240027002A002D0011
:100150003000330001010000040107010A01000022
:100160000A0B02090C0D0E08070304010000000031
:10017000000000000000000000000000000000007F
:10018000000000000000000000001211100000003C
:10019000000000000000000000000000000000005F
:1001A000000000000102102020080810204010204C
:1001B000408002010201080402010102040810202B
:1001C0004080804020100804020180040201804029
:1001D0002010080402010804020101020408102092
:1001E0004080010204081020408000002200250009
:1001F00028002B002E003100340002010000050110
:1002000008010B0105050505070508080808020295
:1002100002020A0A080804040404010101010101A0
:1002200001010303030303030303040707070C0C83
:100230000C0C0C0C0C0C020202020606060606064A
:1002400006060B0B0B0B0B0B0B0B020005361124D8
:100250001FBECFEFD1E2DEBFCDBF00E00CBF12E08A
:10026000A0E0B2E0EAEBFFE600E00BBF02C00790BF
:100270000D92A838B107D9F729E1A8E8B2E001C08A
:100280001D92AA31B207E1F711E0C7E2D1E000E028
:1002900006C021970109802FFE010E94CF37C63288
:1002A000D10780E00807A9F70E944F230C94DB37A1
:1002B000A7CE1F920F920FB60F9211248F939F9388
:1002C000AF93BF938091860490918704A091880496
:1002D000B09189040196A11DB11D8093860490936D
:1002E0008704A0938804B0938904BF91AF919F9134
:1002F0008F910F900FBE0F901F9018951F920F9225
:100300000FB60F9211248F939F93AF93BF93809159
:100310008A0490918B04A0918C04B0918D04019675
:10032000A11DB11D80938A0490938B04A0938C042B
:10033000B0938D04BF91AF919F918F910F900FBE9D
:100340000F901F9018958230C9F08233B9F0833036
:10035000C1F08333B1F08430B9F08433A9F0853033
:10036000B1F08533A1F08630A9F0863399F087305B
:10037000A1F0873391F080E090E011C087E090E039
:100380000EC08EE090E00BC085E190E008C08CE1EB
:1003900090E005C083E290E002C08AE290E0603124
:1003A00011F0623411F401960895683111F063344C
:1003B00011F402960895603211F0643411F403963A
:1003C0000895683211F0653411F40496089560338D
:1003D00011F0663411F405960895683311F067340E
:1003E00009F406960895E9E3F4E01182108213827D
:1003F00012821582148208958091390490913A04F2
:10040000019789F480913B0490913C04019759F441
:1004100020913D0430913E0481E090E0213031058F
:1004200021F080E0089580E090E0089592B1907FFF
:100430008F70982B92B9089580E0F8CF0F931F9397
:10044000BC0180E090E00E94213728E431EE42E8D0
:1004500050E40E948D360E94F536CB01A0E0B0E05A
:1004600010928A0410928B0410928C0410928D04C6
:1004700010928604109287041092880410928904C6
:1004800040918A0450918B0460918C0470918D048A
:10049000009186041091870420918804309189048A
:1004A000081719072A073B0728F4481759076A074E
:1004B0007B0730F31F910F91BFCF82E0B7CF84E06D
:1004C000B5CF86E0B3CF8F929F92AF92BF92CF927B
:1004D000DF92EF92FF921F93CF93DF93EC01F1DF56
:1004E000BE0180E090E00E94213725EE30ED4AEA1F
:1004F00050E40E948D360E94F5364B015C0110924B
:100500008A0410928B0410928C0410928D0484EA59
:10051000C82EDD24D394E12CF12CC1E0D0E016E903
:1005200089E30E946212092E000CAA0BBB0B9C01EE
:10053000AD012E51310941095109A6E9B0E00E94EF
:100540004C36A70196010E94303630930004209368
:10055000FF0388E30E946212092E000CAA0BBB0B5A
:100560009C01AD012E51310941095109A6E9B0E0C4
:100570000E944C36A70196010E9430363093FE034C
:100580002093FD0387E30E946212092E000CAA0B40
:10059000BB0B9C01AD012E51310941095109A6E95E
:1005A000B0E00E944C36A70196010E94303630938D
:1005B000FC032093FB0389E30E946212092E000CC6
:1005C000AA0BBB0B9C01AD012E5131094109510908
:1005D000A6E9B0E00E944C36A70196010E94303691
:1005E000309300042093FF0388E30E946212092ED7
:1005F000000CAA0BBB0B9C01AD012E513109410926
:100600005109A6E9B0E00E944C36A70196010E946C
:1006100030363093FE032093FD0387E30E9462127D
:10062000092E000CAA0BBB0B9C01AD012E51310908
:1006300041095109A6E9B0E00E944C36A701960194
:100640000E9430363093FC032093FB038AE79FE03F
:100650000E94821360E080E00E94571C82E792E0D3
:100660000E94561C61E080E00E94571C8091FF03AD
:10067000909100040E94221C80E792E00E94561C88
:100680008091FD039091FE030E94221C80E792E07E
:100690000E94561C8091FB039091FC030E94221C37
:1006A0001092FA031092F9038091FF0390910004D5
:1006B00005973CF48091FB039091FC0305970CF4A3
:1006C0008EC08091FF03909100040B976CF0809195
:1006D000FF03909100044E973CF48091F9039091B0
:1006E000FA03892B09F489C08091FF0390910004DB
:1006F0004F976CF08091FF0390910004C2973CF4F7
:100700008091F9039091FA03892B09F480C08091BC
:10071000FF0390910004C39774F08091FF039091C0
:100720000004863491053CF48091F9039091FA031A
:10073000892B09F472C08091FB039091FC030B9705
:100740006CF08091FB039091FC034E973CF48091F8
:10075000F9039091FA03892B09F465C08091FB039A
:100760009091FC034F976CF08091FB039091FC03F8
:10077000C2973CF48091F9039091FA03892B09F414
:100780005CC08091FB039091FC03C39774F080914F
:10079000FB039091FC03863491053CF48091F903AE
:1007A0009091FA03892B09F44EC080918A049091AC
:1007B0008B04A0918C04B0918D0488169906AA062A
:1007C000BB0608F0ADCEDF91CF911F91FF90EF9067
:1007D000DF90CF90BF90AF909F908F902DCED09311
:1007E000FA03C093F9036DDE61E08EE20E942F10E0
:1007F00061E08DE20E942F1064CFD093FA03C09382
:10080000F9035FDE1093280110932A016DCFD09376
:10081000FA03C093F90353DE7ACFD093FA03C0935F
:10082000F9034DDE88CFD093FA03C093F90349DE74
:100830001093280110932A0191CFD093FA03C0930B
:10084000F9033BDE9ECFD093FA03C093F90335DE64
:10085000ACCF84E190E037DE6AE070E088E494E0B9
:100860000E94891364EF71E080E090E00E948112A1
:1008700066E470E085E494E00E94891364EF71E01F
:1008800080E090E00E94811260EA70E082E494E0EF
:100890000E94891364EF71E080E090E00E94811271
:1008A00086E490E09093810480938004809180049A
:1008B000909181048D389105A4F460918004709129
:1008C000810485E494E00E94891362E370E080E093
:1008D00090E00E948112809180049091810405969D
:1008E000E1CF80EA90E0909381048093800480912E
:1008F000800490918104CC97A4F060918004709161
:10090000810482E494E00E94891362E370E080E055
:1009100090E00E948112809180049091810403975D
:10092000E2CF8CE890E090938104809380048091E2
:1009300080049091810486349105A4F06091800434
:100940007091810485E494E00E94891362E370E071
:1009500080E090E00E948112809180049091810457
:100960000597E1CF60E570E088E494E00E94891388
:1009700068EE73E080E090E00E94811260EA70E02F
:1009800082E494E00E94891360E971E080E090E0E5
:100990000E9481126AE070E088E494E00E9489136A
:1009A00064EF71E080E090E00E94811266E470E004
:1009B00085E494E00E94891364EF71E080E090E0A8
:1009C0000C94811261E082E20E942F1064EF71E0CA
:1009D00080E090E00E94811260E082E20E942F108D
:1009E00062E370E080E090E00C9481121F920F921D
:1009F0000FB60F9211240BB60F922F933F934F9384
:100A00005F936F937F938F939F93AF93BF93EF9376
:100A1000FF938091C6008093850480918504803483
:100A200039F48091B70F9091B80F892B09F4F5C074
:100A300080918504803839F48091B50F9091B60F7C
:100A4000892B09F4F5C080913F0481115DC080912C
:100A50008504807C8093840480918404803441F5F3
:100A6000B1DF809185048770809383048091850431
:100A7000887380938204609182048091830463DC94
:100A80009093F20E8093F10E81E090E090933C04FD
:100A900080933B048AE79FE00E94821360E080E03D
:100AA0000E94571C8091F10E9091F20E0E946C1CD6
:100AB00080918404803841F585DF809185048770BA
:100AC000809383048091850488738093820460916D
:100AD00082048091830437DC9093F00E8093EF0EB4
:100AE00081E090E090933E0480933D048AE79FE08C
:100AF0000E94821360E080E00E94571C8091EF0EFC
:100B00009091F00E0E946C1C80913F04813009F09E
:100B10009AC080918504807C8093840480918404B1
:100B2000811191C0809185048093C60080918504D5
:100B300087708093830480918504887380938204F6
:100B40006091820480918304FEDB20913504309112
:100B50003604232B69F52BEE280F99272730A0F4B4
:100B6000E0912504F0912604EE0FFF1FE95DFB4F95
:100B7000918380838091250490912604019690931F
:100B80002604809325045FC0E0911704F0911804B7
:100B9000EE0FFF1FE35FFB4F91838083809117046B
:100BA00090911804019690931804809317044BC0F9
:100BB00020913504309136042233310509F043C0C9
:100BC0002BEE280F99272730A0F4E0912304F09111
:100BD0002404EE0FFF1FE75EFB4F9183808380911B
:100BE0002304909124040196909324048093230479
:100BF0002AC0E0910B04F0910C04EE0FFF1FEF5F91
:100C0000FB4F9183808380910B0490910C0401969B
:100C100090930C0480930B0416C081E090E09093B5
:100C20003C0480933B049093B80F8093B70F00CFA0
:100C300081E090E090933E0480933D049093B60F42
:100C40008093B50F00CFFF91EF91BF91AF919F912E
:100C50008F917F916F915F914F913F912F910F9065
:100C60000BBE0F900FBE0F901F9018954F925F9282
:100C70006F927F92AF92BF92CF92DF92FF920F93CB
:100C80001F93CF93DF938C018932910541F48091BA
:100C9000350490913604892B09F40BC109C0839760
:100CA00039F48091350490913604C29709F401C15A
:100CB00084EA482E55245394612C712C96E9F92E20
:100CC000C1E0D0E022E0C22ED12C32E3A32EB12C21
:100CD00080913704909138048017910709F40FC26E
:100CE00089E30E946212092E000CAA0BBB0B9C0127
:100CF000AD012E51310941095109A6E9B0E00E9428
:100D00004C36A30192010E943036309300042093A8
:100D1000FF0388E30E946212092E000CAA0BBB0B92
:100D20009C01AD012E51310941095109A6E9B0E0FC
:100D30000E944C36A30192010E9430363093FE038C
:100D40002093FD0387E30E946212092E000CAA0B78
:100D5000BB0B9C01AD012E51310941095109A6E996
:100D6000B0E00E944C36A30192010E9430363093CD
:100D7000FC032093FB031092FA031092F903809175
:100D8000FF039091000405973CF48091FB03909140
:100D9000FC0305970CF497C08091FF039091000429
:100DA0000B976CF08091FF03909100044E973CF4F8
:100DB0008091F9039091FA03892B09F492C08091F4
:100DC000FF03909100044F976CF08091FF03909186
:100DD0000004C2973CF48091F9039091FA03892BA7
:100DE00009F489C08091FF0390910004C39774F0C7
:100DF0008091FF0390910004863491053CF480912A
:100E0000F9039091FA03892B09F47BC08091FB03CD
:100E10009091FC030B976CF08091FB039091FC0385
:100E20004E973CF48091F9039091FA03892B09F4D1
:100E30006EC08091FB039091FC034F976CF0809102
:100E4000FB039091FC03C2973CF48091F9039091CD
:100E5000FA03892B09F465C08091FB039091FC0390
:100E6000C39774F08091FB039091FC038634910545
:100E70003CF48091F9039091FA03892B09F457C04F
:100E80008091FD039091FE03873491050CF420CFEF
:100E90008091FF0390910004873491050CF418CFE2
:100EA0008091FB039091FC03873491050CF410CFE3
:100EB00044C080E590E007DB81E090E0909341043E
:100EC000809340041CC1D093FA03C093F903F9DA6C
:100ED00061E08EE20E942F1061E08DE20E942F10EF
:100EE0005BCFD093FA03C093F903EBDAF0922801B9
:100EF000F0922A0164CFD093FA03C093F903DFDAAA
:100F000071CFD093FA03C093F903D9DA7FCFD0938E
:100F1000FA03C093F903D5DAF0922801F0922A017E
:100F200088CFD093FA03C093F903C7DA95CFD09353
:100F3000FA03C093F903C1DAA3CF7EDA43DD04D705
:100F40008091370490913804879711F40E944623CA
:100F500080913704909138048017910761F4809153
:100F6000370490913804899731F08091370490913B
:100F70003804839731F580913704909138048017B5
:100F8000910739F58091370490913804839709F5DA
:100F90008091350490913604892BD9F486E490E051
:100FA00092DA81E090E0F2D710924104109240046E
:100FB000B0923604A0923504109234041092330497
:100FC00087CE82ED90E07FDAD0934104C093400455
:100FD0007FCE80913704909138048017910761F497
:100FE0008091370490913804899731F480913504C9
:100FF00090913604C29779F064DAF0922801F09269
:101000002A012FEF87E893E1215080409040E1F7DB
:1010100000C000005DCE86E490E055DA80E090E00C
:10102000C7D684E690E04FDA60EA70E088E494E0A6
:101030000E94891364EF71E080E090E00E948112C9
:101040006CE370E082E494E00E94891364EF71E045
:1010500080E090E00E9481126CE870E085E494E00A
:101060000E94891364EF71E080E090E00E94811299
:1010700080EA90E0909381048093800480918004C2
:10108000909181044497A4F0609180047091810450
:1010900088E494E00E94891364E670E080E090E0C8
:1010A0000E94811280918004909181040A97E2CF7E
:1010B00066E470E085E494E00E94891364EF71E0D7
:1010C00080E090E00E9481121092C60064E670E019
:1010D00080E090E00E9481121092C60064E670E009
:1010E00080E090E00E9481121092C600D0933A04F2
:1010F000C0933904D0924104C0924004E9CDDF91FD
:10110000CF911F910F91FF90DF90CF90BF90AF9044
:101110007F906F905F904F9008958F929F92AF92C3
:10112000BF92CF92DF92EF92FF921F93CF93DF9304
:101130007C014B9741F48091350490913604892BC2
:1011400009F409C10BC085E1E816F10439F4809176
:10115000350490913604C29709F4FDC084EA882EC4
:1011600099249394A12CB12C16E9C1E0D0E092E32C
:10117000C92ED12C80913704909138048E159F058B
:1011800009F4B2C189E30E946212092E000CAA0B75
:10119000BB0B9C01AD012E51310941095109A6E952
:1011A000B0E00E944C36A50194010E943036309385
:1011B00000042093FF0388E30E946212092E000CB2
:1011C000AA0BBB0B9C01AD012E51310941095109FC
:1011D000A6E9B0E00E944C36A50194010E94303689
:1011E0003093FE032093FD0387E30E946212AC015B
:1011F000990F660B770B9A01AB012E51310941090A
:101200005109A6E9B0E00E944C36A50194010E9464
:1012100030363093FC032093FB031092FA031092B4
:10122000F9038091FF039091000405973CF48091AD
:10123000FB039091FC0305970CF497C08091FF038A
:10124000909100040B976CF08091FF039091000443
:101250004E973CF48091F9039091FA03892B09F49D
:1012600090C08091FF03909100044F976CF08091A3
:10127000FF0390910004C2973CF48091F903909190
:10128000FA03892B09F487C08091FF039091000431
:10129000C39774F08091FF03909100048634910508
:1012A0003CF48091F9039091FA03892B09F479C0F9
:1012B0008091FB039091FC030B976CF08091FB03F2
:1012C0009091FC034E973CF48091F9039091FA03BE
:1012D000892B09F46CC08091FB039091FC034F971C
:1012E0006CF08091FB039091FC03C2973CF48091D9
:1012F000F9039091FA03892B09F463C08091FB03F1
:101300009091FC03C39774F08091FB039091FC03D0
:10131000863491053CF48091F9039091FA03892B6E
:1013200009F455C08091FD039091FE038734910527
:101330000CF420CF8091FF03909100048734910535
:101340000CF418CF8091FB039091FC038734910536
:101350000CF410CF42C080E590E0B5D881E090E079
:101360009093410480934004BFC0D093FA03C0938C
:10137000F903A7D861E08EE272D661E08DE26FD604
:101380005DCFD093FA03C093F9039BD81093280143
:1013900010932A0166CFD093FA03C093F9038FD834
:1013A00073CFD093FA03C093F90389D881CFD09338
:1013B000FA03C093F90385D81093280110932A01EA
:1013C0008ACFD093FA03C093F90377D897CFD093FD
:1013D000FA03C093F90371D8A5CF2ED8F3DAB4D4A9
:1013E00080913704909138048E159F05E9F480911F
:1013F0003704909138044597B9F080913704909163
:1014000038044B9789F082ED90E05DD8D093410489
:10141000C09340048091370490913804499709F0B3
:10142000A9CE0E944623A6CE80913704909138041D
:101430008E159F05C9F48091370490913804459723
:1014400099F486E490E03FD881E090E09FD5109237
:10145000410410924004D0923604C0923504109298
:10146000340410923304D6CF80913704909138041D
:101470008E159F0549F580913704909138044B975C
:1014800019F586E490E01FD882E090E07FD51092B5
:10149000C60064E670E080E090E00E948112109245
:1014A000C60064E670E080E090E00E948112109235
:1014B000C600D0933A04C093390482E090E0909340
:1014C000410480934004A6CF0E946102109328013A
:1014D00010932A019FEF27E883E19150204080403C
:1014E000E1F700C0000096CFDF91CF911F91FF90F0
:1014F000EF90DF90CF90BF90AF909F908F90089526
:101500001F920F920FB60F9211248F939F93AF9358
:10151000BF938091F5039091F603A091F703B091EA
:10152000F8030196A11DB11D8093F5039093F60376
:10153000A093F703B093F803BF91AF919F918F9160
:101540000F900FBE0F901F901895F894E9E6F0E009
:10155000808182608083E89A78940895CF93DF93A6
:10156000C4E0D0E068E871E082E20E94711C64EFA0
:1015700071E080E090E0C5D782E2EED566E071E0F0
:1015800082E20E94711C64EF71E080E090E0B9D7C4
:1015900082E2E2D567E371E082E20E94711C6AEFA9
:1015A00070E080E090E0ADD782E2D6D56DE571E0E5
:1015B00082E20E94711C6AEF70E080E090E0A1D7A7
:1015C00082E2CAD5219771F6C4E0D0E068E871E004
:1015D00082E20E94711C64EF71E080E090E091D79C
:1015E00082E2BAD566E071E082E20E94711C64EF8B
:1015F00071E080E090E085D782E2AED56AE471E0E8
:1016000082E20E94711C6AEF70E080E090E079D77E
:1016100082E2A2D56DE571E082E20E94711C6AEF60
:1016200070E080E090E06DD782E296D5219771F668
:1016300068E871E082E20E94711C64EF71E080E072
:1016400090E05FD782E288D566E071E082E20E9496
:10165000711C64EF71E080E090E053D767E371E0C4
:1016600082E20E94711C6AEF70E080E090E049D74E
:1016700082E272D56DE571E082E20E94711C6AEF30
:1016800070E080E090E03DD782E266D566E271E0EE
:1016900082E20E94711C64EF71E080E090E031D73B
:1016A00082E25AD5C3E0D0E064EC70E082E20E94AE
:1016B000711C64EF71E080E090E023D782E24CD5AA
:1016C00069EE70E082E20E94711C6AEF70E080E0D7
:1016D00090E017D782E240D566E071E082E20E9496
:1016E000711C6AEF70E080E090E00BD782E234D5A5
:1016F00066E271E082E20E94711C64EF71E080E0BA
:1017000090E0FFD682E228D5219771F664EC70E074
:1017100082E20E94711C64EF71E080E090E0F1D6FB
:1017200082E21AD569EE70E082E20E94711C6AEFD3
:1017300070E080E090E0E5D682E20ED566E071E0F0
:1017400082E20E94711C6AEF70E080E090E0D9D6DE
:1017500082E202D566E271E082E20E94711C68EECC
:1017600073E080E090E0CDD682E2F6D46DE571E0E2
:1017700082E20E94711C68EE73E080E090E0C1D6C6
:1017800082E2EAD469EE70E082E20E94711C68EEA7
:1017900073E080E090E0B5D682E2DED467E371E0EA
:1017A00082E20E94711C6AEF70E080E090E0A9D6AE
:1017B00082E2D2D466E271E082E20E94711C6AEF9A
:1017C00070E080E090E09DD682E2C6D46DE571E0E5
:1017D00082E20E94711C68EE73E080E090E091D696
:1017E00082E2BAD469EE70E082E20E94711C68EE77
:1017F00073E080E090E085D682E2AED467E371E0EA
:1018000082E20E94711C6AEF70E080E090E079D67D
:1018100082E2A2D466E271E082E20E94711C6AEF69
:1018200070E080E090E06DD682E296D466E071E0F0
:1018300082E20E94711C64EF71E080E090E061D66A
:1018400082E28AD4C3E0D0E060ED70E082E20E94E0
:10185000711C6AEF70E080E090E053D682E27CD4A5
:1018600069EE70E082E20E94711C6AEF70E080E035
:1018700090E047D682E270D466E071E082E20E9496
:10188000711C64EF71E080E090E03BD682E264D4AA
:101890006FEA70E082E20E94711C64EF71E080E008
:1018A00090E02FD682E258D4219771F668E871E073
:1018B00082E20E94711C68EE73E080E090E021D625
:1018C00082E24AD466E071E082E20E94711C68EE16
:1018D00073E080E090E015D682E23ED467E371E0E9
:1018E00082E20E94711C6AEF70E080E090E009D60D
:1018F00082E232D46DE571E082E20E94711C6AEFEF
:1019000070E080E090E0FDD582E226D468E871E0E6
:1019100082E20E94711C68EE73E080E090E0F1D5F5
:1019200082E21AD466E071E082E20E94711C68EEE5
:1019300073E080E090E0E5D582E20ED467E371E0E9
:1019400082E20E94711C6AEF70E080E090E0D9D5DD
:1019500082E202D46DE571E082E20E94711C6AEFBE
:1019600070E080E090E0CDD582E2F6D366E271E0EF
:1019700082E20E94711C64EF71E080E090E0C1D5CA
:1019800082E2EAD3C4E0D0E064EC70E082E20E943C
:10199000711C64EF71E080E090E0B3D582E2DCD3AB
:1019A00069EE70E082E20E94711C6AEF70E080E0F4
:1019B00090E0A7D582E2D0D366E071E082E20E9497
:1019C000711C6AEF70E080E090E09BD582E2C4D3A6
:1019D00066E271E082E20E94711C64EF71E080E0D7
:1019E00090E08FD582E2B8D3219771F6DF91CF9145
:1019F00008959C01FB0110927C0310920303109246
:101A000002038730910508F077C083309105B1F16A
:101A100030F481309105A1F0029709F108C08530BA
:101A2000910509F449C0C8F1069709F454C089E04A
:101A300080937C0381E090E0909303038093020302
:101A40008091020390910303892B49F481E18093F3
:101A50007C0381E090E090930303809302038091E4
:101A6000020390910303892B49F489E180937C035D
:101A700081E090E09093030380930203809102033E
:101A800090910303892B49F481E280937C0381E0E8
:101A900090E090930303809302038091020390915E
:101AA0000303892B49F489E280937C0381E090E071
:101AB00090930303809302038091020390910303A8
:101AC000892B49F481E380937C0381E090E090933B
:101AD0000303809302038091020390910303892BF7
:101AE00009F01AC189E380937C0381E090E0909330
:101AF00003038093020310C167E070E00E94BB37CC
:101B000083309105E9F130F481309105B9F0029705
:101B100031F109C08530910509F454C008F441C081
:101B2000069709F460C080917C03886080937C03F1
:101B300081E090E09093030380930203809102037D
:101B400090910303892B59F480917C0380618093E9
:101B50007C0381E090E090930303809302038091E3
:101B6000020390910303892B59F480917C038861CF
:101B700080937C0381E090E09093030380930203C1
:101B80008091020390910303892B59F480917C0387
:101B9000806280937C0381E090E0909303038093C4
:101BA00002038091020390910303892B59F48091E1
:101BB0007C03886280937C0381E090E09093030330
:101BC000809302038091020390910303892B59F4BF
:101BD00080917C03806380937C0381E090E090930C
:101BE0000303809302038091020390910303892BE6
:101BF00059F480917C03886380937C0381E090E0BA
:101C00009093030380930203109203031092020344
:101C1000C90167E070E00E94BB37CB0101968430B8
:101C2000910591F130F48230910561F00397D9F07C
:101C30006FC08630910509F449C0B8F1079709F4DF
:101C400056C066C08091020390910303892B59F41A
:101C500080917C03826080937C0381E090E090938C
:101C60000303809302038091020390910303892B65
:101C700059F480917C03836080937C0381E090E041
:101C800090930303809302038091020390910303D6
:101C9000892B59F480917C03846080937C0381E0DC
:101CA00090E090930303809302038091020390914C
:101CB0000303892B59F480917C03856080937C0316
:101CC00081E090E0909303038093020380910203EC
:101CD00090910303892B59F480917C038660809353
:101CE0007C0381E090E09093030380930203809152
:101CF000020390910303892B59F480917C03876040
:101D000080937C0381E090E090930303809302032F
:101D10001092030310920203309719F480917C0310
:101D20000CC0E130F10521F480917C03806405C092
:101D3000329729F480917C03806880937C038091A2
:101D40007C038093C6000895809131049091320401
:101D5000892B31F48091370490913804079723C080
:101D60008091310490913204019731F480913704CD
:101D700090913804019617C08091310490913204FB
:101D8000029731F4809137049091380407960BC084
:101D90008091310490913204039749F48091370483
:101DA00090913804019790933804809337040895F4
:101DB000009709F058C085E00E9416028CE390E07D
:101DC0000E941E0288E37ED3092E000CAA0BBB0BD7
:101DD0009C01AD012E51310941095109A6E9B0E03C
:101DE0000E944C3624EA31E040E050E00E94303658
:101DF0003093FE032093FD0388E364D3092E000C87
:101E0000AA0BBB0B9C01AD012E51310941095109AF
:101E1000A6E9B0E00E944C366031744A8105910514
:101E200024F485E00E941602E7CF0E941C028091F4
:101E3000310490913204892B19F483E090E005C0BD
:101E400080913104909132040197909332048093F1
:101E5000310466E080E00E94571C8091310490912B
:101E600032040C946C1C8130910509F044C08AE066
:101E70000E9416028CE390E00E941E0288E322D3A7
:101E8000092E000CAA0BBB0B9C01AD012E51310990
:101E900041095109A6E9B0E00E944C3624EA31E03C
:101EA00040E050E00E9430363093FE032093FD0363
:101EB00088E308D3092E000CAA0BBB0B9C01AD01D3
:101EC0002E51310941095109A6E9B0E00E944C3672
:101ED0006031744A8105910524F48AE00E9416025B
:101EE000E7CF0E941C028091310490913204019648
:101EF00083709927AACF029709F047C08AE00E9411
:101F000016028AEA90E00E941E0288E3DBD2092EC4
:101F1000000CAA0BBB0B9C01AD012E5131094109EC
:101F20005109A6E9B0E00E944C3624EA31E040E0D5
:101F300050E00E9430363093FE032093FD0388E387
:101F4000C1D2092E000CAA0BBB0B9C01AD012E5176
:101F5000310941095109A6E9B0E00E944C366031CF
:101F6000744A8105910524F48AE00E941602E7CFA5
:101F70000E941C0280913104909132040296837079
:101F8000992790933204809331040895CF93DF937F
:101F9000EC010E941C022091310430913204C217DE
:101FA000D30721F081E090E003DFF5CFDF91CF91FF
:101FB0000895CF92DF92EF92FF920F931F93CF93EA
:101FC000DF936C017A018B01C0E0D0E0CE15DF0514
:101FD00089F0D8016D918D01D601ED91FC910190B0
:101FE000F081E02DC6011995892B11F47E0102C004
:101FF0002196ECCFC701DF91CF911F910F91FF90F8
:10200000EF90DF90CF9008953FB7F8948091280526
:1020100090912905A0912A05B0912B0526B5A89B82
:1020200005C02F3F19F00196A11DB11D3FBFBA2F6A
:10203000A92F982F8827820F911DA11DB11DBC01CA
:10204000CD0142E0660F771F881F991F4A95D1F78F
:102050000895089580E090E008950E94D737362FC4
:1020600090E0FC01E25AFE4F4491FC01EC55FE4F1A
:102070002491FC01EC5FFD4F9491992309F46BC00E
:10208000442309F455C050E0FA013197E231F105DB
:1020900008F04EC08827E058FF4F8F4F0C94CF3781
:1020A000809180008F7707C0809180008F7D03C072
:1020B00080918000877F809380003AC084B58F77BD
:1020C00002C084B58F7D84BD33C08091B0008F770E
:1020D00003C08091B0008F7D8093B00029C08091B3
:1020E00090008F7707C0809190008F7D03C0809112
:1020F0009000877F809390001BC08091A0008F7715
:1021000007C08091A0008F7D03C08091A000877FD1
:102110008093A0000DC0809120018F7707C080912F
:1021200020018F7D03C080912001877F8093200153
:10213000E92FF0E0EE0FFF1FE651FE4FA591B4919D
:102140008FB7F894EC91311103C020952E2301C074
:102150002E2B2C938FBF08959091620298133DC04F
:10216000EAE4F2E0E4919FEF90936202E230C9F07A
:1021700050F4EE2399F0E13081F590916F009D7F4E
:1021800090936F002AC0E43019F1E0F0E53029F5B2
:10219000909173009D7F909373001FC010926E000A
:1021A0001CC0909170009D7F9093700091E090937F
:1021B000B0009091B100987F94609093B10010921C
:1021C000B3000BC0909171009D7F9093710005C08A
:1021D000909172009D7F9093720060E040CF1F92BB
:1021E0000F920FB60F9211240BB60F922F933F93BD
:1021F0004F935F936F937F938F939F93AF93BF930F
:10220000EF93FF938091760F9091770FA091780FC5
:10221000B091790F892B8A2B8B2B51F18091730F01
:10222000E091740FF091750F9081892780838091E0
:10223000760F9091770FA091780FB091790F1816C3
:1022400019061A061B06BCF48091760F9091770F41
:10225000A091780FB091790F0197A109B1098093EE
:10226000760F9093770FA093780FB093790F03C0F8
:102270008091620271DFFF91EF91BF91AF919F91C9
:102280008F917F916F915F914F913F912F910F901F
:102290000BBE0F900FBE0F901F901895CF93DF933A
:1022A000EC0160E08E81DBDE61E08E81D8DE60E0F3
:1022B0008E81D5DE8BE891E00197F1F7DF91CF9128
:1022C0000895CF92DF92EF92FF920F931F93CF93D7
:1022D000DF936C018B017A01EC01C257DB4F8881DF
:1022E00087FF04C0FB011182108224C08CE08C9D0A
:1022F00090018D9D300D11248881A901480F511D39
:1023000087FD5A958091920490E04817590794F4FC
:102310008881A901480F511D87FD5A95CA01FA010C
:10232000EE0FFF1F8E0F9F1FFC01ED56FB4F8081AC
:1023300086FD19C088818F5F88838CE08C9D900119
:102340008D9D300D11248881A901480F511D87FDF5
:102350005A958091920490E048175907B4F4888107
:102360008C303CF112C08881280F311D87FD3A95D1
:10237000F901EE0FFF1F2E0F3F1FF901ED56FB4F26
:10238000808160E08F736BDED5CFF8018081918111
:10239000049680349C4918F480E49CE904C0F80158
:1023A000808191810496F701918380838FEF8883E8
:1023B00044C0F801408151818881B901680F711DC5
:1023C00087FD7A95CB01FB01EE0FFF1F8E0F9F1F3C
:1023D000FC01ED56FB4F81819281840F951FF7011F
:1023E000918380838881A901480F511D87FD5A95EB
:1023F000CA01FA01EE0FFF1F8E0F9F1FFC01ED5661
:10240000FB4F808186FF19C08881280F311D87FD11
:102410003A95F901EE0FFF1F2E0F3F1FF901ED5600
:10242000FB4F808161E08F73DF91CF911F910F91FE
:10243000FF90EF90DF90CF9012CEDF91CF911F9160
:102440000F91FF90EF90DF90CF900895CF93DF939F
:1024500090E0FC01EC55FE4F2491FC01EC5FFD4F38
:102460008491882361F190E0880F991FFC01EC5B57
:10247000FE4FC591D491FC01E651FE4FA591B49158
:10248000611109C09FB7F8948881209582238883C1
:10249000EC912E230BC0623061F49FB7F894388121
:1024A000822F809583238883EC912E2B2C939FBFC2
:1024B00006C08FB7F894E8812E2B28838FBFDF9159
:1024C000CF910895863308F0865390917B00282F92
:1024D0002870977F922B90937B0087708064809305
:1024E0007C0080917A00806480937A0080917A00E9
:1024F00086FDFCCF809178002091790090E0922BAE
:1025000008958F929F92AF92BF92CF92DF92EF92F7
:10251000FF926B017C0178DD4B015C01C114D10499
:10252000E104F104E9F070DDDC01CB0188199909BF
:10253000AA09BB09883E9340A105B10578F321E0C3
:10254000C21AD108E108F10888EE880E83E0981ECF
:10255000A11CB11CC114D104E104F10421F7DECFA8
:10256000FF90EF90DF90CF90BF90AF909F908F90B3
:1025700008951F920F920FB60F9211242F933F933D
:102580008F939F93AF93BF938091240590912505DE
:10259000A0912605B09127053091230523E0230F54
:1025A0002D3720F40196A11DB11D05C026E8230F8B
:1025B0000296A11DB11D20932305809324059093BD
:1025C0002505A0932605B0932705809128059091B5
:1025D0002905A0912A05B0912B050196A11DB11DD9
:1025E0008093280590932905A0932A05B0932B0585
:1025F000BF91AF919F918F913F912F910F900FBEFF
:102600000F901F901895CF92DF92EF92FF920F9349
:102610001F93CF93DF937C016C0187E0C80ED11C20
:10262000C0E0D0E0062F10E0B8010C2E02C0759576
:1026300067950A94E2F76170F60181916F010FDDF1
:102640002196C430D10581F7C701DF91CF911F9149
:102650000F91FF90EF90DF90CF9020CECF92DF923E
:10266000EF92FF920F931F93CF93DF93EC01F62E1F
:10267000642F8C81F4DC8D818F3F11F060E0EFDC02
:102680008F850F2D10E084FF23C06E0187E0C80EF8
:10269000D11CE12CF12CB8010E2C02C07595679568
:1026A0000A94E2F76170F60181916F01D8DCFFEFC7
:1026B000EF1AFF0A88E0E816F10469F7CE01DF910E
:1026C000CF911F910F91FF90EF90DF90CF90E6CDCB
:1026D000B80184E0759567958A95E1F7CE0193DF9F
:1026E0006F2DCE01DF91CF911F910F91FF90EF9051
:1026F000DF90CF9088CF41E0B1DF81E090E0089596
:1027000040E0ACCF61E0FCDF8BE39FE10197F1F7A4
:102710000895CF92DF92EF92FF92CF93DF93EC0177
:10272000603282E078070CF03DC077FD06C0653B63
:1027300071052CF064EB70E002C060E070E089810C
:1027400028E830E06901C81AD10887FDD394CC0C81
:10275000DD1CCC0CDD1C0D2C000CEE08FF088A8162
:1027600028E532E0281B310987FD3395220F331FFE
:10277000220F331FC901330FAA0BBB0B9C01AD0104
:102780002C193D094E095F09DB010E94563624EBE6
:1027900030E040E050E00E943036C20ED31EE41E0E
:1027A000F51EB6018881803380F5998148E850E0B4
:1027B000491B510997FD5395440F551F440F551F51
:1027C0006417750784F09A8128E532E0291B3109E6
:1027D00097FD3395220F331F220F331FAB012617AE
:1027E00037070CF4A90142505109440F551F2FB768
:1027F000F89490E0FC01EE0FFF1F8E0F9F1FFC016D
:10280000ED56FB4F528341832FBFDF91CF91FF9055
:10281000EF90DF90CF9008951F93CF93DF93EC015B
:10282000162F8881803308F04DC061E0812F0EDEC5
:102830008881E82FF0E09F01220F331FE20FF31F82
:10284000ED56FB4F1F739081907C192B10831982DA
:102850001A826CE00E94AF379CE0899FB00111247E
:1028600040E050E09A01260F371FF901EE0FFF1FDD
:102870002E0F3F1FF901ED56FB4F908196FD16C0BC
:102880004F5F5F4F4C30510569F7813001F5109271
:10289000800082E080938100109285001092840075
:1028A000B19A80916F00826080936F00E881F0E0C0
:1028B000CF01880F991FE80FF91FED56FB4F80815C
:1028C000806480838881DF91CF911F910895823049
:1028D00061F41092900080939100109295001092F4
:1028E000940088BB80937100E1CF833069F410922B
:1028F000A00082E08093A1001092A5001092A40095
:1029000089BB80937200D2CF8111D0CF1092200169
:1029100082E08093210110922501109224018ABB4C
:1029200080937300C3CFFC01909192049033A0F484
:1029300081E0890F809392049083892F90E0FC01BD
:10294000EE0FFF1F8E0F9F1FFC01ED56FB4F88EB14
:102950009BE09283818308958FEF808308951F9277
:102960000F920FB60F9211240BB60F922F933F9335
:102970004F935F936F937F938F939F93AF93BF9387
:10298000EF93FF9348E251E064E271E080E090E071
:1029900098DCFF91EF91BF91AF919F918F917F91C3
:1029A0006F915F914F913F912F910F900BBE0F90C0
:1029B0000FBE0F901F9018951F920F920FB60F9297
:1029C00011240BB60F922F933F934F935F936F9306
:1029D0007F938F939F93AF93BF93EF93FF9348EAB7
:1029E00050E064EA70E083E090E06BDCFF91EF91EF
:1029F000BF91AF919F918F917F916F915F914F9117
:102A00003F912F910F900BBE0F900FBE0F901F9014
:102A100018951F920F920FB60F9211240BB60F92BA
:102A20002F933F934F935F936F937F938F939F93D6
:102A3000AF93BF93EF93FF9348E950E064E970E0F0
:102A400082E090E03EDCFF91EF91BF91AF919F91CA
:102A50008F917F916F915F914F913F912F910F9047
:102A60000BBE0F900FBE0F901F9018951F920F92E4
:102A70000FB60F9211240BB60F922F933F934F93E3
:102A80005F936F937F938F939F93AF93BF93EF93D6
:102A9000FF9348E850E064E870E081E090E011DCEA
:102AA000FF91EF91BF91AF919F918F917F916F9126
:102AB0005F914F913F912F910F900BBE0F900FBEE2
:102AC0000F901F9018952F923F924F925F926F92A6
:102AD0007F928F929F92AF92BF92CF92DF92EF92AE
:102AE000FF920F931F93CF93DF93CDB7DEB7689715
:102AF0000FB6F894DEBF0FBECDBF988B8F877A8359
:102B000069835C834B833E832D8318870F83FA860A
:102B1000E986DC86CB86CB80DC802D803E804F80B2
:102B2000588489819A819093F40E8093F30E2985BD
:102B30003A853E872D87EB84FC848215930519F432
:102B400003E6202E312C8415950519F413E6412E49
:102B5000512C2D853E858217930721F423E630E022
:102B60003E872D878E159F0519F4F3E6EF2EF12C85
:102B7000C816D90654F4D092F40EC092F30E6C012C
:102B800081E090E09A8B898B02C01A8A198AE091C1
:102B9000F30EF091F40EFC8BEB8B80E090E011E3F0
:102BA00020E030E0189FB001199F700D1124AB0197
:102BB000420F531F445D5A4FFA0110822F5F3F4F5F
:102BC00021333105A1F701968133910549F7612C35
:102BD000712C00E010E061E371E0930140E050E00F
:102BE000E7E0E09FC001E19F900D11249E8B8D8B4B
:102BF0008D899E89840F951F880F991F80509E4F45
:102C0000FC01808191818031910508F062C0FC0156
:102C10008827EE56FF4F8F4F0C94CF37812C912C85
:102C20001DC0812C912C20C0812C912C23C0812C83
:102C3000912C26C0812C912C29C0812C912CAA2466
:102C4000A394B12C188E1F8A42C0812C912C2DC0C8
:102C5000812C912C35C088248394912CA12CB12CEB
:102C600018C088248394912CA12CB12CEBCF8824FC
:102C70008394912CA12CB12C1BC088248394912C7B
:102C8000A12CB12C20C088248394912CAA24A39435
:102C9000B12C188E1F8AA0E0B0E01BC0882483945A
:102CA000912CCDCF88248394912CAA24A394B12C69
:102CB000E1E0F0E0F88FEF8BEECF88248394912C45
:102CC000AA24A394B12CE1E0F0E0F88FEF8BA1E00F
:102CD000B0E0109759F4629FC001639F900D1124DA
:102CE000820F931F8B5D9A4FFC017083EF89F88DE3
:102CF000EF2B59F4629FC001639F900D1124820F46
:102D0000931F835D9A4FFC017083A114B10459F4A1
:102D1000629FC001639F900D1124820F931F8D5CF1
:102D20009A4FFC0170838114910459F4629FC00191
:102D3000639F900D1124820F931F855D9A4FFC01B4
:102D400070834F5F5F4F2F5F3F4F4730510509F052
:102D50004FCF0F5F1F4FF7E06F0E711C073011054B
:102D600009F03BCF0D851E859201A1016B897C89FD
:102D7000C60101960E945A1F29893A89232B19F40A
:102D800080E090E02CC080E090E0FC01EE0FFF1F9F
:102D9000E357F14F208131812F3F3F4F11F00196D2
:102DA000F4CF019720E030E0281739074CF7D9011C
:102DB000AA0FBB1FA357B14F4D915C911197FC0116
:102DC000EE0FFF1FE357F14F6081718111967C93E5
:102DD0006E93518340832F5F3F4F0197E5CFFC01F6
:102DE000EE0FFF1FE357F14F20813181EF85F88906
:102DF000318320833296F88BEF870196FC01EE0F2A
:102E0000FF1FE357F14F208131812F3FFFEF3F0735
:102E100031F7EF85F8893183208368960FB6F894EF
:102E2000DEBF0FBECDBFDF91CF911F910F91FF90FD
:102E3000EF90DF90CF90BF90AF909F908F907F905A
:102E40006F905F904F903F902F9008956F927F9278
:102E50008F929F92AF92BF92CF92DF92EF92FF92AA
:102E60000F931F93CF93DF938091F10E9091F20E09
:102E7000C09719F40FE210E002C003E610E0809161
:102E8000F10E9091F20E069741F480918802909194
:102E90008902059711F406E010E08091EF0E909101
:102EA000F00E069741F4809188029091890205976F
:102EB00011F406E010E06091880270918902E9E265
:102EC000CE2ED12CFBE1EF2EF12C23E630E04DE0AD
:102ED00050E08DE793E0F7DD80917F0390918003D0
:102EE0009093720F8093710F8091F10E9091F20E7A
:102EF000069749F48091710F9091720F059719F41C
:102F0000C3E6D0E002C0CDE0D0E08091EF0E90911A
:102F1000F00E069721F475E0872E912C03C063E62E
:102F2000862E912C2091710F3091720F6091F10ECD
:102F30007091F20E59E2C52ED12C7E0184014BE135
:102F400050E08AE892E0BFDDA12CB12C3501FFEF03
:102F50006F1A7F0AC301880F991F8C0103581C4FF9
:102F6000D8012D913C912D30310509F4D8C0FC01D8
:102F7000E657FD4F208131812B31310509F4CFC057
:102F8000A501440F551F9A0123583C4FD9016D915B
:102F90007C91208131816217730769F4D8016D91AA
:102FA0007C91DA01A657BD4F2D913C911197621784
:102FB000730709F463C0FC01E358FC4F20813181A1
:102FC000FC01E657FD4F808191812817390711F0E8
:102FD0005301BCCF808191819093720F8093710FC8
:102FE0002091710F3091720FFA01E657FD4F608109
:102FF000718199E2C92ED12C7E0184014BE150E010
:1030000089EF9EE060DDB092F80EA092F70E10926C
:10301000F60E1092F50EE091F70EF091F80EA091D9
:10302000F50EB091F60EAA0FBB1FA750B14F8D91B0
:103030009C91EE0FFF1FE657FD4F91838083809197
:10304000F70E9091F80E01969093F80E8093F70E7C
:103050008091F50E9091F60E01969093F60E809366
:10306000F50EE091F50EF091F60EEE0FFF1FE95010
:10307000F14F80819181019671F6AACF8081918173
:103080009093720F8093710F2091710F3091720F96
:103090006D917C9149E2C42ED12C7E0184014BE1DB
:1030A00050E089EF9EE00FDDB092F80EA092F70E8F
:1030B0001092F60E1092F50EE091F70EF091F80EC8
:1030C000A091F50EB091F60EAA0FBB1FA750B14FFD
:1030D0008D919C91EE0FFF1FE657FD4F91838083EA
:1030E0008091F70E9091F80E01969093F80E8093D0
:1030F000F70E8091F50E9091F60E01969093F60ED4
:103100008093F50EE091F50EF091F60EEE0FFF1F95
:10311000E950F14F80819181019671F659CF8091EC
:10312000EF0E9091F00E449751F480917F039091AF
:103130008003439721F4A3E6AA2EB12C03C0FDE03F
:10314000AF2EB12C8091EF0E9091F00E449749F480
:1031500080918C0290918D02439719F4C3E6D0E0E0
:1031600002C0CBE1D0E08091EF0E9091F00E069777
:1031700049F480917F0390918003059719F4E3E669
:10318000AE2EB12C8091EF0E9091F00E449789F401
:103190008091F10E9091F20E0D9759F48091880272
:1031A000909189024A9729F473E6A72EB12CC3E6C1
:1031B000D0E08091EF0E9091F00E449771F48091E1
:1031C000F10E9091F20E0C9741F48091880290914B
:1031D00089020D9711F4C3E6D0E08091EF0E909133
:1031E000F00E0D9741F48091F10E9091F20E05973B
:1031F00011F4C3E6D0E000918C0210918D02209171
:103200007F03309180036091EF0E7091F00E6501A5
:103210007E0149E250E084E093E055DC812C912C62
:103220003401EFEF6E1A7E0AC301880F991FFC016B
:10323000E358FC4F208131812D30310541F0FC01F4
:10324000EC5FFC4F208131812932310591F4FC0182
:10325000E657FD4F208131812B31310509F4F3C14F
:10326000FC01EC5FFC4F208131812932310509F4EA
:10327000EAC1A401440F551FFA01E358FC4F6081D5
:103280007181FC01EC5FFC4F208131816217730773
:1032900071F4DC01A358BC4F6D917C91DA01AC5FF5
:1032A000BC4F2D913C91119762177307F1F0FA0111
:1032B000E657FD4F60817181FC01EC5FFC4F20817E
:1032C00031816217730709F073C0DC01A657BD4F47
:1032D0006D917C91DA01AC5FBC4F2D913C911197BF
:1032E0006217730709F064C04CC1208131813093AB
:1032F000720F2093710FFC01E657FD4F8081918181
:10330000019659F0008111812091710F3091720F57
:103310006D917C9165017E010AC02091710F309101
:10332000720F6D917C9165017E0103E610E049E228
:1033300050E089EF9EE0C7DB9092F80E8092F70E86
:103340001092F60E1092F50EE091F70EF091F80E35
:10335000A091F50EB091F60EAA0FBB1FA750B14F6A
:103360008D919C91EE0FFF1FEC5FFC4F918380834A
:103370008091F70E9091F80E01969093F80E80933D
:10338000F70E8091F50E9091F60E01969093F60E41
:103390008093F50EE091F50EF091F60EEE0FFF1F03
:1033A000E950F14F80819181019671F6430138CF48
:1033B0008C0103581C4FD8016D917C91FC01EC5F8E
:1033C000FC4F2081318186579D4F6217730709F0AA
:1033D00068C0208131813093720F2093710FDC011E
:1033E0002D913C912F3F3F4F79F0FC0100811181DD
:1033F0002091710F3091720FFA01EC5FFC4F6081E8
:10340000718165017E010DC02091710F3091720FA5
:10341000FA01EC5FFC4F6081718165017E0103E67A
:1034200010E049E250E089EF9EE04DDB9092F80E0B
:103430008092F70E1092F60E1092F50EE091F70EB4
:10344000F091F80EA091F50EB091F60EAA0FBB1FE9
:10345000A750B14F8D919C91EE0FFF1FEC5FFC4F79
:10346000918380838091F70E9091F80E019690934E
:10347000F80E8093F70E8091F50E9091F60E01965E
:103480009093F60E8093F50EE091F50EF091F60E06
:10349000EE0FFF1FE950F14F80819181019671F687
:1034A00085CFDC012D913C918081918128173907CE
:1034B00009F07CCF808191819093720F8093710F7E
:1034C000F80180819181019679F0D8010D911C91CC
:1034D0002091710F3091720FFA01EC5FFC4F608107
:1034E000718165017E010DC02091710F3091720FC5
:1034F000FA01EC5FFC4F6081718165017E0103E69A
:1035000010E049E250E089EF9EE0DDDA9092F80E9B
:103510008092F70E1092F60E1092F50EE091F70ED3
:10352000F091F80EA091F50EB091F60EAA0FBB1F08
:10353000A750B14F8D919C91EE0FFF1FEC5FFC4F98
:10354000918380838091F70E9091F80E019690936D
:10355000F80E8093F70E8091F50E9091F60E01967D
:103560009093F60E8093F50EE091F50EF091F60E25
:10357000EE0FFF1FE950F14F80819181019671F6A6
:1035800015CF208131813093720F2093710FFC0190
:10359000E358FC4F80819181019659F0008111819F
:1035A0002091710F3091720F6D917C9165017E01B8
:1035B0000AC02091710F3091720F6D917C9165015D
:1035C0007E0103E610E049E250E089EF9EE07BDAFD
:1035D0009092F80E8092F70E1092F60E1092F50E61
:1035E000E091F70EF091F80EA091F50EB091F60E65
:1035F000AA0FBB1FA750B14F8D919C91EE0FFF1FDB
:10360000EC5FFC4F918380838091F70E9091F80ED0
:1036100001969093F80E8093F70E8091F50E90919D
:10362000F60E01969093F60E8093F50EE091F50E4E
:10363000F091F60EEE0FFF1FE950F14F808191815E
:10364000019671F6B3CEDF91CF911F910F91FF904C
:10365000EF90DF90CF90BF90AF909F908F907F9032
:103660006F900895009769F0FC0101900020E9F740
:103670003197AF01481B590BBC018AE79FE00C94BE
:10368000D90F80E090E008958F929F92AF92BF9201
:103690000F931F93CF93DF93CDB7DEB7A1970FB6EC
:1036A000F894DEBF0FBECDBF19A2423008F44AE045
:1036B0008E010F5D1F4F842E912CA12CB12CA501E2
:1036C00094010E945C36E62FB901CA01015011092C
:1036D000EA3014F4E05D01C0E95CD801EC93232BDF
:1036E000242B252B61F7C801BDDFA1960FB6F894F6
:1036F000DEBF0FBECDBFDF91CF911F910F91BF9065
:10370000AF909F908F900895EF92FF920F931F9329
:10371000CF93DF93EC01623018F08F8588608F873C
:103720006B8B1C8A80E48D8B80E18E8B80E58F8B88
:1037300061E08C810E9426128D818F3F19F061E03B
:103740000E94261261E08E810E9426127E0187E08F
:10375000E80EF11C00E010E08F8584FD03C084E0DA
:1037600090E002C088E090E0081719074CF461E08F
:10377000F70181917F010E9426120F5F1F4FECCF4E
:103780008BE39DE00197F1F760E08C810E942F10A0
:1037900060E08E810E942F108D818F3F19F060E0D4
:1037A0000E942F106F8564FD1DC063E0CE010E9452
:1037B00003130BE416E4C8010197F1F763E0CE01AF
:1037C0000E940313C8010197F1F763E0CE010E9444
:1037D000031383E592E00197F1F762E0CE010E94C6
:1037E000031316C06062CE010E9480138BE496E43E
:1037F0000197F1F76F856062CE010E94801383E527
:1038000092E00197F1F76F856062CE010E9480130C
:103810006F856062CE010E94801384E0888B6CE02B
:10382000CE010E948013CE010E94821382E0898B18
:1038300066E0CE01DF91CF911F910F91FF90EF9045
:103840000C948013CF92DF92EF92FF92CF93DF938D
:103850006C01990FEE08FF08F7FE1EC0E0917A0F89
:10386000F0917B0F0190F081E02D6DE28AE79FE0FF
:103870001995EC0166277727CB016C197D098E0914
:103880009F094AE001DF8C0F9D1FDF91CF91FF90D0
:10389000EF90DF90CF9008954AE0C701B601DF9125
:1038A000CF91FF90EF90DF90CF90EECEDBCE6430E3
:1038B00008F063E090918D0F691710F06FEF690FBA
:1038C000E62FF0E0E658F04F9489682F690F6068A2
:1038D0008AE79FE00C948013BC0180E090E04AE00E
:1038E000D3CE8F929F92AF92BF92CF92DF92EF9200
:1038F000FF92CF9390916202981721F09F3F09F0B9
:10390000CFC204C0EAE4F2E0C491FEC08093620238
:10391000EAE4F2E0C491CF3F09F4C2C2C23009F434
:103920007EC06CF5CC2309F459C0C13009F0ECC05D
:103930001092800010928100909181009860909385
:10394000810090918100916090938100282F30E058
:10395000F901EC5FFD4FE491F0E0EE0FFF1FE6513F
:10396000FE4F4591549150939D0F40939C0FF90148
:10397000EC55FE4FE491E0939B0FC1E0C7C0C4300B
:1039800009F49BC00CF472C0C53009F0BDC01092A0
:1039900020011092210190912101986090932101C2
:1039A00090912101916090932101282F30E0F9013D
:1039B000EC5FFD4FE491F0E0EE0FFF1FE651FE4F8C
:1039C000459154915093940F4093930FF901EC5506
:1039D000FE4FE491E093920FC5E098C014BC15BC73
:1039E00094B5926094BD95B5916095BD282F30E057
:1039F000F901EC5FFD4FE491F0E0EE0FFF1FE6519F
:103A0000FE4F459154915093A00F40939F0FF901A1
:103A1000EC55FE4FE491E0939E0FC0E077C010920A
:103A2000B0001092B1009091B00092609093B000FD
:103A30009091B10091609093B100282F30E0F9018E
:103A4000EC5FFD4FE491F0E0EE0FFF1FE651FE4FFB
:103A5000459154915093750F4093740FF901EC55B3
:103A6000FE4FE491E093730FC2E050C010929000BB
:103A70001092910090919100986090939100909194
:103A80009100916090939100282F30E0F901EC5F54
:103A9000FD4FE491F0E0EE0FFF1FE651FE4F459120
:103AA000549150939A0F4093990FF901EC55FE4FA2
:103AB000E491E093980FC3E029C01092A000109207
:103AC000A1009091A10098609093A1009091A10015
:103AD00091609093A100282F30E0F901EC5FFD4F39
:103AE000E491F0E0EE0FFF1FE651FE4F4591549137
:103AF0005093970F4093960FF901EC55FE4FE491C8
:103B0000E093950FC4E002C0C7FDCAC16B0161E03C
:103B10000E942612E12CF12C8C2F8D7F09F0A0C081
:103B200060E072E18AE790E0A70196010E943036DA
:103B300049015A01DA01C9010197A109B1098F3F71
:103B40009105A105B10509F008F442C060E472E4F2
:103B50008FE090E0A70196010E943036DA01C9019A
:103B60000197A109B109C230E1F48F3F9105A10588
:103B7000B10509F008F492C160E970ED83E090E0CE
:103B8000A70196010E943036DA01C9010197A10907
:103B9000B1098F3F9105A105B10509F088F523E032
:103BA00058C08F3F9105A105B105A1F098F068E4D8
:103BB00078EE81E090E0A70196010E943036DA01AC
:103BC000C9010197A109B109CC2309F41BC15EC148
:103BD00021E001C022E0CC2371F03BC0D501C4013B
:103BE0002AE0B595A795979587952A95D1F70197DE
:103BF000A109B10925E035B5387F232B25BD87C044
:103C000068E478EE81E090E0A70196010E943036EA
:103C1000DA01C9010197A109B1098F3F9105A105F9
:103C2000B10509F008F4ECC064E274EF80E090E0C4
:103C3000A70196010E943036DA01C9010197A10956
:103C4000B1098F3F9105A105B10511F008F0F8C049
:103C500025E03091B100387F232B2093B10046C07E
:103C600060E072E18AE790E0A70196010E94303699
:103C7000DA01C9010197A109B109009721E0A20762
:103C8000B10578F068E478EE81E090E0A701960154
:103C90000E943036DA01C9010197A109B10923E078
:103CA00001C021E0C13039F430918100387F232BED
:103CB000209381003EC0C33039F430919100387FA9
:103CC000232B209391005DC0C43039F43091A100C2
:103CD000387F232B2093A10069C0C53039F430917F
:103CE0002101387F232B2093210175C0C230B1F10F
:103CF00034F4CC2361F0C13009F0D2C01AC0C43012
:103D000009F454C0F4F1C53009F465C0C9C087BDD9
:103D10008FEF9FEFDC018093B10F9093B20FA093D0
:103D2000B30FB093B40F80916E00826080936E00E9
:103D3000B7C090938900809388008FEF9FEFDC01DC
:103D40008093AD0F9093AE0FA093AF0FB093B00FD1
:103D500080916F00826080936F00A2C08093B30057
:103D60008FEF9FEFDC018093760F9093770FA093F6
:103D7000780FB093790F809170008260809370000B
:103D80008FC090939900809398008FEF9FEFDC0194
:103D90008093A90F9093AA0FA093AB0FB093AC0F91
:103DA000809171008260809371007AC09093A90025
:103DB0008093A8008FEF9FEFDC018093A50F909375
:103DC000A60FA093A70FB093A80F809172008260F6
:103DD0008093720065C090932901809328018FEF32
:103DE0009FEFDC018093A10F9093A20FA093A30FEC
:103DF000B093A40F8091730082608093730050C0D1
:103E000024E027CF8F3F9105A105B105B9F0B0F0AF
:103E100062E17AE780E090E0A70196010E943036E7
:103E2000DA01C9010197A109B1098F3F9105A105E7
:103E3000B10511F008F0D2CE24E0DDCE23E0DBCED8
:103E400062E17AE780E090E0A70196010E943036B7
:103E5000DA01C9010197A109B1098F3F9105A105B7
:103E6000B10591F088F0D501C4013AE0B595A79568
:103E7000979587953A95D1F70197A109B109CC2378
:103E800009F4B8CE27E0E5CE26E0A5CE8F3F910518
:103E9000A105B10509F0A0F624E09DCE22E0D9CE1F
:103EA000CF91FF90EF90DF90CF90BF90AF909F9019
:103EB0008F9008952F923F924F925F926F927F92D0
:103EC0008F929F92AF92BF92CF92DF92EF92FF922A
:103ED0000F931F93CF93DF93CDB7DEB7C853D14075
:103EE0000FB6F894DEBF0FBECDBFCB5CDE4F99831B
:103EF0008883C553D1401B016DB77EB7C95CDE4FC7
:103F000079836883C753D1404336510551F0C95D69
:103F1000DE4F59834883C752D14088248394912C23
:103F200002C0812C912C2336310571F0F401EE0F83
:103F3000FF1F87E291E08C0F9D1FE80FF91F31836F
:103F400020839FEF891A990A0336110571F0F40155
:103F5000EE0FFF1FA7E2B1E0AC0FBD1FEA0FFB1F82
:103F600011830083BFEF8B1A9B0AE3E6EE16F10480
:103F700071F0F401EE0FFF1F07E211E00C0F1D1F9F
:103F8000E00FF11FF182E0821FEF811A910A80E0B9
:103F900090E061E37FE020E030E0689FA001699F4E
:103FA000500D1124FA01E20FF31FDF01A45DBA4F97
:103FB0001C91E754F04F111102C0708302C0AC9104
:103FC000A0832F5F3F4F2133310561F70196813385
:103FD000910509F78E010F5F1F4FDE01AD59BF4FED
:103FE000AE014B535F4F80E090E021E3229DB00192
:103FF000239D700D11249B01280F391F2754304F2A
:10400000F901208130E0FA0121933193AF012D9223
:104010003D92F801119211928F0101968133910521
:1040200051F7C101880F991FE5ECF0E0EC0FFD1F7F
:10403000E80FF91F11821082E1E0F0E0EC0FFD1FA4
:10404000E80FF91F21E030E031832083C95DDE4FA6
:1040500048805980C752D140C75DDE4F6880798063
:10406000C952D140C55DDE4FE880F980CB52D140C6
:10407000C15DDE4FF982E882CF52D140C35DDE4F91
:1040800008811981CD52D140CD5CDE4F1983088360
:10409000C353D1402FE230E0CF5CDE4F3983288319
:1040A000C153D140FE0131968114910409F05AC0E8
:1040B000DE01AB53BF4F80E090E02FE037E24D913F
:1040C0005D914217530734F460817181672B11F4BD
:1040D0005C019A01019632968133910581F7F501D1
:1040E000EE0FFF1F41E050E04C0F5D1FE40FF51F86
:1040F00061E070E071836083AE014D595F4FFE0156
:10410000EB53FF4FBE016F5F7F4F80E090E0A1E374
:10411000AA9D8001AB9D100D1124DB01ED90FD9057
:10412000BD01EF28B9F4D801A80FB91FA754B04FAB
:10413000FC906901CF0CD11CE080F180CE14DF042B
:104140004CF4AC917901EA0EF11CF182E082DA01C3
:10415000AD92BC92019632964E5F5F4F81339105CE
:10416000E1F6B0C1B1E08B16910409F057C0DE0151
:10417000AB53BF4F80E090E02FE037E24D915D916F
:10418000421753074CF460817181672B29F4841521
:10419000950511F05C019A010196329681339105E3
:1041A00069F7F501EE0FFF1FEE24E394F12CEC0EFE
:1041B000FD1EEE0DFF1D01E010E011830083AE0136
:1041C0004D595F4FFE01EB53FF4FB70180E090E088
:1041D00011E31A9D60011B9DD00C1124DB010D9190
:1041E0001D91BD01012B91F4D601A80FB91FA75451
:1041F000B04F1C917901E10EF11C00811181E01694
:10420000F10624F48415950509F0F3C10196329660
:104210004E5F5F4F8133910509F754C1B2E08B16B1
:10422000910409F05DC0DE01AB53BF4F80E090E028
:104230002FE037E24D915D914217530764F460819E
:104240007181672B41F48415950529F08615970532
:1042500011F05C019A01019632968133910551F774
:10426000F501EE0FFF1FEE24E394F12CEC0EFD1E82
:10427000EE0DFF1D01E010E011830083AE014D59EA
:104280005F4FFE01EB53FF4FB70180E090E011E379
:104290001A9D60011B9DD00C1124DB010D911D9115
:1042A000BD01012BA9F4D601A80FB91FA754B04F27
:1042B0001C917901E10EF11C00811181E016F106DB
:1042C0003CF48415950521F08615970509F09BC1EE
:1042D000019632964E5F5F4F81339105F1F6F2C041
:1042E000B3E08B16910409F06EC0DE01AB53BF4FF3
:1042F00080E090E02FE037E24D915D914217530747
:10430000ACF460817181672B89F48415950571F097
:104310008615970559F0C15DDE4FE880F980CF52D0
:10432000D1408E159F0511F05C019A0101963296DD
:104330008133910509F7F501EE0FFF1F01E010E051
:104340000C0F1D1FE00FF11F41E050E0518340832F
:10435000AE014D595F4FFE01EB53FF4FB80180E0B6
:1043600090E0A1E3AA9D6001AB9DD00C1124DB017C
:104370000D911D91BD01012BF1F4D601A80FB91FBC
:10438000A754B04F1C917901E10EF11C00811181FD
:10439000E016F10684F48415950569F086159705F5
:1043A00051F0C15DDE4FE880F980CF52D1408E15CB
:1043B0009F0509F032C1019632964E5F5F4F8133FF
:1043C0009105A9F67FC0DE01AB53BF4F80E090E0BE
:1043D0002FE037E24D915D9142175307F4F460816D
:1043E0007181672BD1F484159505B9F08615970571
:1043F000A1F0C15DDE4F08811981CF52D1408017F5
:10440000910759F0CD5CDE4F68817981C353D1406B
:104410008617970711F05C019A0101963296813355
:104420009105C1F6F501EE0FFF1F81E090E08C0FC2
:104430009D1FE80FF91FA1E0B0E0B183A083AE019A
:104440004D595F4FFE01EB53FF4FBC0180E090E000
:10445000B1E3BA9D6001BB9DD00C1124DB010D912D
:104460001D91BD01012B39F5D601A80FB91FA75425
:10447000B04F1C917901E10EF11C00811181E01611
:10448000F106CCF484159505B1F08615970599F0E1
:10449000C15DDE4FE880F980CF52D1408E159F0577
:1044A00051F0CD5CDE4F08811981C353D140801794
:1044B000910709F0BCC0019632964E5F5F4F813381
:1044C000910561F6CF5CDE4F28813981C153D1401F
:1044D00021503109CF5CDE4F39832883C153D1404D
:1044E000232B09F0DFCDCB5CDE4F88819981C5534A
:1044F000D1400197FC01EE0FFF1F45EC50E04C0F3F
:104500005D1FE40FF51F20813181220F331F6DB72E
:104510007EB7621B730B0FB6F8947EBF0FBE6DBFE4
:104520004DB75EB74F5F5F4F82159305B1F0DA016B
:10453000BC0120E030E0660F771FE3E6F0E0EC0F0F
:10454000FD1FE60FF71F608171816D937D932F5FD3
:104550003F4F6215730579F702C020E030E060E05C
:1045600070E0AFEFBFEFFB01EE0FFF1FE357F14F1E
:10457000B183A0836F5F7F4F61337105A1F729017C
:1045800071E0471A51086A01B901660F771FFA01F5
:10459000E60FF71F7A0100E010E0329704151505C9
:1045A0008CF4D7018D909C901197A080B180AD9232
:1045B000BD927D01918280820F5F1F4FB1E04B1A47
:1045C0005108EBCFFA01E60FF71F9183808380E05B
:1045D00090E0F601419151916F01FC01EE0FFF1F38
:1045E000E357F14F518340830196281739078CF721
:1045F00028C0AC917901EA0EF11CF182E082DA0167
:10460000AD92BC9203CEAC917901EA0EF11CF1821D
:10461000E082DA01AD92BC925BCEAC917901EA0EF8
:10462000F11CF182E082DA01AD92BC92C4CEAC9171
:104630007901EA0EF11CF182E082DA01AD92BC92BE
:104640003ACFC95CDE4FE881F981C753D1400FB63C
:10465000F894FEBF0FBEEDBFC85CDE4F0FB6F894F6
:10466000DEBF0FBECDBFDF91CF911F910F91FF90A5
:10467000EF90DF90CF90BF90AF909F908F907F9002
:104680006F905F904F903F902F9008951092B80FC9
:104690001092B70F1092B60F1092B50F0895CF93E6
:1046A000DF93CDB7DEB727970FB6F894DEBF0FBE06
:1046B000CDBF789484B5826084BD84B5816084BDAB
:1046C00085B5826085BD85B5816085BD80916E00B0
:1046D000816080936E0010928100809181008260E1
:1046E000809381008091810081608093810080911E
:1046F00080008160809380008091B100846080930D
:10470000B1008091B00081608093B00080919100F1
:1047100082608093910080919100816080939100EC
:10472000809190008160809390008091A1008260D0
:104730008093A1008091A10081608093A10080916D
:10474000A00081608093A00080912101826080930D
:1047500021018091210181608093210180912001BC
:1047600081608093200180917A00846080937A0038
:1047700080917A00826080937A0080917A008160D3
:1047800080937A0080917A00806880937A001092FA
:10479000C10081B18F6081B982B1807F82B980917F
:1047A0000A01886180930A0180910B0188618093DE
:1047B0000B01109221018FEF8093250191E09093DE
:1047C0002401109229018093280110922B018093DB
:1047D0002A0110922D0180932C0189EA80932001F7
:1047E0008BE0809321011092C1001092C00086E0FE
:1047F0008093C2008FE58093C4001092C50088E9C1
:104800008093C1008AB18E6F8AB9589A0E94A50A16
:104810006C98749A6D98759AF89480916A00826089
:1048200080936A00EC9A7894F89480916A0088608A
:1048300080936A00ED9A78948AB18E6F8AB9589AFB
:104840000E94A50A61E082E20E94261260E08CE3E9
:104850000E94261260E08EE30E94261261E086E04C
:104860000E94261260E086E00E942F1061E084E240
:104870000E94261260E084E20E942F1062E08AE724
:104880009FE00E94841B61E087E20E94261260E0A4
:1048900087E20E942F1061E082E20E94261260E00F
:1048A00087E30E94261260E088E30E94261260E0FF
:1048B00089E30E94261261E081E30E94261261E0F2
:1048C0008FE20E94261261E080E30E9426126BE0D4
:1048D00070E082E494E00E940C146CE070E085E4E7
:1048E00094E00E940C146DE070E088E494E00E9473
:1048F0000C1444EA442E55245394612C712C01E08D
:1049000010E088248394912CAA24A394B12C6AE00B
:1049100070E088E494E00E94891366E470E085E426
:1049200094E00E94891360EA70E082E494E00E94BF
:10493000891364EF71E080E090E00E948112809121
:104940007C0310927C0310925F0483E690E0209138
:104950005F042A3078F4E0915F04F0E0EE0FFF1F6F
:10496000E55BFB4F9183808320915F042F5F209351
:104970005F04EDCF109232041092310464E484E3BA
:104980000E94A301909338048093370480913704E8
:1049900090913804909389028093880221E030E05E
:1049A00030933A04209339048091740490917504F3
:1049B000892B09F0B7C58091400490914104892B5F
:1049C000A9F40E94FC01019789F40E9426170E9415
:1049D000F3015CDE80914004909141040196909334
:1049E0004104809340048FEF80933F048091400402
:1049F00090914104019709F045C11092340410923E
:104A0000330464E670E080E090E00E94811210922E
:104A10007C03E0913304F0913404EE0FFF1FE6575E
:104A2000FD4F808191819093610480936004109286
:104A3000030310920203809160049091610467E087
:104A400070E00E94BB3783309105B1F130F48130C2
:104A50009105A1F0029709F108C08530910509F48C
:104A600049C0C8F1069709F454C080917C0388605E
:104A700080937C031093030300930203809102034D
:104A800090910303892B49F480917C03806180938A
:104A90007C0310930303009302038091020390911F
:104AA0000303892B49F480917C03886180937C0304
:104AB0001093030300930203809102039091030378
:104AC000892B49F480917C03806280937C0310934E
:104AD0000303009302038091020390910303892B47
:104AE00049F480917C03886280937C0310930303D4
:104AF000009302038091020390910303892B49F4F0
:104B000080917C03806380937C0310930303009364
:104B100002038091020390910303892B49F4809151
:104B20007C03886380937C03109303030093020348
:104B3000109203031092020380916004909161042B
:104B400067E070E00E94BB376730710508F06AC00B
:104B5000FB018827EE58FF4F8F4F0C94CF37809181
:104B60007C03816080937C03109303030093020312
:104B70008091020390910303892B49F480917C0377
:104B8000826080937C03109303030093020380915F
:104B9000020390910303892B49F480917C03836085
:104BA00080937C031093030300930203809102031C
:104BB00090910303892B49F480917C038460809356
:104BC0007C031093030300930203809102039091EE
:104BD0000303892B49F480917C03856080937C03D7
:104BE0001093030300930203809102039091030347
:104BF000892B49F480917C03866080937C03109319
:104C00000303009302038091020390910303892B15
:104C100049F480917C03876080937C0310930303A5
:104C20000093020310920303109202038091330455
:104C300090913404019690933404809333048091CE
:104C40007C03806480937C0380917C038093C60006
:104C5000E0913304F0913404EE0FFF1FE857FD4F4D
:104C6000808191814B9709F0CCCE10923404109240
:104C70003304809140049091410401969093410443
:104C8000809340048091400490914104029709F080
:104C900047C110927C03109234041092330464E6EE
:104CA00070E080E090E00E94811210927C03E0911D
:104CB0003304F0913404EE0FFF1FEC5FFC4F808152
:104CC0009181909361048093600410920303109289
:104CD0000203809160049091610467E070E00E949B
:104CE000BB3783309105B1F130F481309105A1F0EB
:104CF000029709F108C08530910509F449C0C8F14F
:104D0000069709F454C080917C03886080937C03EB
:104D10001093030300930203809102039091030315
:104D2000892B49F480917C03806180937C031093EC
:104D30000303009302038091020390910303892BE4
:104D400049F480917C03886180937C031093030372
:104D5000009302038091020390910303892B49F48D
:104D600080917C03806280937C0310930303009303
:104D700002038091020390910303892B49F48091EF
:104D80007C03886280937C031093030300930203E7
:104D90008091020390910303892B49F480917C0355
:104DA000806380937C03109303030093020380913C
:104DB000020390910303892B49F480917C0388635B
:104DC00080937C0310930303009302031092030368
:104DD00010920203809160049091610467E070E09A
:104DE0000E94BB376730710508F06AC0FB01882755
:104DF000E758FF4F8F4F0C94CF3780917C03816031
:104E000080937C03109303030093020380910203B9
:104E100090910303892B49F480917C0382608093F5
:104E20007C0310930303009302038091020390918B
:104E30000303892B49F480917C03836080937C0376
:104E400010930303009302038091020390910303E4
:104E5000892B49F480917C03846080937C031093B8
:104E60000303009302038091020390910303892BB3
:104E700049F480917C03856080937C031093030345
:104E8000009302038091020390910303892B49F45C
:104E900080917C03866080937C03109303030093CE
:104EA00002038091020390910303892B49F48091BE
:104EB0007C03876080937C031093030300930203B9
:104EC00010920303109202038091330490913404F2
:104ED0000196909334048093330480917C0380681E
:104EE00080937C0380917C038093C600E09133041F
:104EF000F0913404EE0FFF1FEE5FFC4F8081918133
:104F0000899709F0CCCE109234041092330480912A
:104F10004004909141040196909341048093400491
:104F20008091400490914104039779F4809140046A
:104F30009091410401969093410480934004109213
:104F4000C60010933A040093390480914004909174
:104F50004104049781F40E94FC01019761F40E94CE
:104F6000F30194DB80914004909141040196909369
:104F7000410480934004809140049091410405973E
:104F800009F0B1C28091310490913204892B31F43F
:104F900080917D0390917E03079626C08091310415
:104FA00090913204019731F480917D0390917E03BA
:104FB00001971AC08091310490913204029731F424
:104FC00080917D0390917E0307970EC080913104FC
:104FD00090913204039731F480917D0390917E0388
:104FE000019602C080E090E020E030E0A9014F5F30
:104FF0005F4FFA01EE0FFF1FE358FC4F6081718194
:105000006F3F7F4F11F09A01F1CF2E5F3F4FA90103
:1050100041505109FA01EE0FFF1FE358FC4F608128
:105020007181220F331FF901E358FC4F71836083B4
:105030009A01452B61F790937E0380937D039093B3
:10504000380480933704C0907D03D0907E03209174
:105050007F03309180033F832E8320908103309023
:1050600082030E94A40EC101EE81FF818E1B9F0B63
:1050700081309105D9F49F012C193D09213031056A
:1050800009F44EC02730310509F45CC0293FFFEF19
:105090003F0709F465C02F3F3F4F09F07BC00E94D6
:1050A000610264EF71E080E090E06EC087309105AE
:1050B000A1F42E813F812C193D092730310581F162
:1050C0002F3FFFEF3F07F1F12130310509F448C0D0
:1050D000293F3F4F09F05EC051C0893FFFEF9F0756
:1050E000A1F42E813F812C193D09293F8FEF38070C
:1050F000B9F02130310531F12F3F9FEF390781F1B0
:105100002730310509F046C039C0019609F054C076
:105110002E813F812C193D092F3F8FEF380771F405
:105120000E94610286E98093280180932A0160E948
:1051300071E080E090E00E9481122CC0293F9FEF37
:10514000390759F40E9461026CE271E080E090E05E
:105150000E94811280E090E01BC02730310559F495
:105160000E9461026CE271E080E090E00E94811296
:1051700081E090E00DC02130310561F40E946102B0
:105180006CE271E080E090E00E94811282E090E0A9
:105190000E94D80EC0907F03D0908003E0918103DD
:1051A000F0918203FF83EE83209083033090840389
:1051B00092E0E92EF12C03C0EE24E394F12C0E943E
:1051C000610226E92093280120932A01FFEF31EEA6
:1051D00084E0F15030408040E1F700C000002D83B2
:1051E0000E941C0260ED77E080E090E00E94811256
:1051F0000E9461022D812093280120932A019FEFB4
:10520000E1EEF4E09150E040F040E1F700C0000032
:105210009701220F331F3A83298323583C4F3C8345
:105220002B83EB81FC8180819181019609F434C14B
:1052300089E30E946212092E000CAA0BBB0B9C0191
:10524000AD012E51310941095109A6E9B0E00E9492
:105250004C36A30192010E94303630930004209313
:10526000FF0388E30E946212092E000CAA0BBB0BFD
:105270009C01AD012E51310941095109A6E9B0E067
:105280000E944C36A30192010E9430363093FE03F7
:105290002093FD0387E30E946212092E000CAA0BE3
:1052A000BB0B9C01AD012E51310941095109A6E901
:1052B000B0E00E944C36A30192010E943036309338
:1052C000FC032093FB031092FA031092F90361E0B0
:1052D00081E00E94571CC6010E94221C80E792E0D8
:1052E0000E94561C8E819F810E94221C80E792E0C2
:1052F0000E94561CC1010E94221C8091FF039091C4
:105300000004059744F48091FB039091FC030597FA
:1053100014F40C9411328091FF03909100040B97C8
:1053200074F08091FF03909100044E9744F48091B3
:10533000F9039091FA03892B11F40C942132809196
:10534000FF03909100044F9774F08091FF039091B8
:105350000004C29744F48091F9039091FA03892BD9
:1053600011F40C942E328091FF0390910004C397A6
:105370007CF08091FF03909100048634910544F401
:105380008091F9039091FA03892B11F40C94363231
:105390008091FB039091FC030B9774F08091FB03C9
:1053A0009091FC034E9744F48091F9039091FA0395
:1053B000892B11F40C943E328091FB039091FC03F5
:1053C0004F9774F08091FB039091FC03C29744F4D3
:1053D0008091F9039091FA03892B11F40C944B32CC
:1053E0008091FB039091FC03C3977CF08091FB03B9
:1053F0009091FC038634910544F48091F9039091D7
:10540000FA03892B11F40C9453328091FD0390918F
:10541000FE03873491050CF404CF8091FF03909133
:105420000004873491050CF4FCCE8091FB0390912D
:10543000FC03873491050CF4F4CE0E941C020E94F8
:10544000E20460ED77E080E090E00E9481120E942B
:10545000A40E60E080E00E94571C80913704909178
:1054600038040E946C1C8FE692E00E94561C8091CA
:105470003104909132040E946C1C9FEFE3ECF9E040
:105480009150E040F040E1F700C000002FEF2216FD
:10549000320611F00C945B328091400490914104EB
:1054A000019690934104809340041092C60064E6F4
:1054B00070E080E090E00E9481121092C60064E6E5
:1054C00070E080E090E00E9481121092C60010937C
:1054D0003A040093390486E490E00E94630283E07A
:1054E00090E00E94C60F809140049091410406977D
:1054F00009F05ACA0E94FC01019709F055CA0E949E
:10550000F301109241041092400480917404909130
:1055100075040196909375048093740481E08093E0
:105520003F0442CA8091740490917504019709F078
:105530009DC38091400490914104892B09F0FAC0E9
:1055400080913704909138040D9749F08091370489
:1055500090913804079719F086E990E009C08EE32E
:105560000E946212909373048093720480E590E02D
:105570000E9463020E941C0264E670E080E090E0FA
:105580000E948112E0907204F09073048EE30E94F6
:10559000621224E1E21AF1088E159F0514F00C94B2
:1055A00063335C9A5D9A83E690E0909371048093F4
:1055B00070045E985F981092F5031092F6031092B3
:1055C000F7031092F8033FEF81EE94E031508040F2
:1055D0009040E1F700C000008091F5039091F60340
:1055E000A091F703B091F80380936A0490936B0441
:1055F000A0936C04B0936D0464EF71E080E090E0E0
:105600000E9481125E9A5F9A1092F5031092F6033F
:105610001092F7031092F803EFEFF1EE24E0E1505F
:10562000F0402040E1F700C000008091F503909128
:10563000F603A091F703B091F8038093620490936E
:105640006304A0936404B093650464EF71E080E0A8
:1056500090E00E9481125E985F9A1092F50310927A
:10566000F6031092F7031092F8033FEF81EE94E0F7
:10567000315080409040E1F700C000008091F50378
:105680009091F603A091F703B091F803809366041C
:1056900090936704A0936804B093690464EF71E089
:1056A00080E090E00E94811240916A0450916B0466
:1056B00060916C0470916D04809166049091670410
:1056C000A0916804B091690484179507A607B707ED
:1056D00008F4B7C740916204509163046091640478
:1056E000709165048091660490916704A0916804AC
:1056F000B091690484179507A607B70708F4B7C7E0
:105700004091660450916704609168047091690447
:1057100080916A0490916B04A0916C04B0916D0427
:1057200084179507A607B70708F4B7C71093410475
:10573000009340048091400490914104019709F046
:1057400060C08091700490917104019779F461E0D8
:1057500080E30E942F1064EF71E080E090E00E94EF
:1057600081120E94290460E080E335C080917004BA
:1057700090917104892BA9F461E081E30E942F10BC
:1057800064EF71E080E090E00E9481128091370424
:105790009091380461E070E00E94F90C60E081E3D0
:1057A0001AC08091700490917104029719F561E01C
:1057B0008FE20E942F1064EF71E080E090E00E9481
:1057C0008112809137049091380462E070E00E9469
:1057D000F90C60E08FE20E942F100E94610286E9BE
:1057E0008093280180932A0164E670E080E090E0D5
:1057F0000E94811222E030E0309341042093400463
:10580000D3C88091400490914104029709F0ECC004
:1058100089E30E946212092E000CAA0BBB0B9C01AB
:10582000AD012E51310941095109A6E9B0E00E94AC
:105830004C36A30192010E9430363093000420932D
:10584000FF0388E30E946212092E000CAA0BBB0B17
:105850009C01AD012E51310941095109A6E9B0E081
:105860000E944C36A30192010E9430363093FE0311
:105870002093FD0387E30E946212092E000CAA0BFD
:10588000BB0B9C01AD012E51310941095109A6E91B
:10589000B0E00E944C36A30192010E943036309352
:1058A000FC032093FB031092FA031092F9038091FA
:1058B000FF039091000405973CF48091FB039091C5
:1058C000FC0305970CF41AC78091FF039091000424
:1058D0000B976CF08091FF03909100044E973CF47D
:1058E0008091F9039091FA03892B09F416C78091EE
:1058F000FF03909100044F976CF08091FF0390910B
:105900000004C2973CF48091F9039091FA03892B2B
:1059100009F40FC78091FF0390910004C39774F0BE
:105920008091FF0390910004863491053CF48091AE
:10593000F9039091FA03892B09F402C78091FB03C4
:105940009091FC030B976CF08091FB039091FC030A
:105950004E973CF48091F9039091FA03892B09F456
:10596000F6C68091FB039091FC034F976CF08091F9
:10597000FB039091FC03C2973CF48091F903909152
:10598000FA03892B09F4EFC68091FB039091FC0385
:10599000C39774F08091FB039091FC0386349105CA
:1059A0003CF48091F9039091FA03892B09F4E2C643
:1059B0008091FD039091FE038734910514F40C94BB
:1059C000D4248091FF03909100048734910514F44E
:1059D0000C94D4248091FB039091FC0387349105AF
:1059E0000CF0CFC60C94D4248091400490914104D3
:1059F000039711F00C94D42481E080933F0482E358
:105A000090E090933604809335040E94FC01019746
:105A100011F00C94D4248FEF80933F0482E090E047
:105A20009093750480937404109241041092400482
:105A30000E94F30176E9F72E8091370490913804A3
:105A40004B9709F4E9C089E30E946212092E000C09
:105A5000AA0BBB0B9C01AD012E5131094109510923
:105A6000A6E9B0E00E944C36A30192010E943036B4
:105A7000309300042093FF0388E30E946212092EF2
:105A8000000CAA0BBB0B9C01AD012E513109410941
:105A90005109A6E9B0E00E944C36A30192010E9490
:105AA00030363093FE032093FD0387E30E94621299
:105AB000092E000CAA0BBB0B9C01AD012E51310924
:105AC00041095109A6E9B0E00E944C36A3019201B8
:105AD0000E9430363093FC032093FB031092FA03AC
