:100000000C946B000C94B10A0C949A0A0C9488001E
:100010000C9488000C943A0C0C9488000C94880082
:100020000C9488000C94DB100C9488000C94C20D86
:100030000C9488000C9488000C9488000C94880020
:100040000C9488000C9488000C9488000C94880010
:100050000C94880007634236B79BD8A71A396856B4
:1000600018AEBAAB558C1D3CB7CC5763BD6DEDFDDA
:10007000753EF6177231BF000000803F0800000097
:10008000BE922449123EABAAAA2ABECDCCCC4C3E8D
:1000900000000080BEABAAAAAA3E00000000BF007C
:1000A0000000803F0000000000084178D3BB438778
:1000B000D1133D190E3CC3BD4282AD2B3E68EC828C
:1000C00076BED98FE1A93E4C80EFFFBE01C4FF7F11
:1000D0003F000000000011241FBECFE5D4E0DEBFCA
:1000E000CDBF10E0A0E6B0E0E2E9F3E302C0059086
:1000F0000D92AC36B107D9F711E0ACE6B0E001C023
:100100001D92A931B107E1F70E9414130C94C7198D
:100110000C9400001BBC8ABD19BC68BD0895809179
:10012000F4009091F500009751F48091B000909107
:10013000B10007979093B1008093B000089580912B
:10014000F4009091F5008130910551F48091B00058
:100150009091B10001969093B1008093B000089502
:100160008091F4009091F5008230910551F48091D6
:10017000B0009091B10007969093B1008093B000C9
:1001800008958091F4009091F5008330910549F431
:100190008091B0009091B10001979093B10080934D
:1001A000B00008951092A1001092A0001092A30038
:1001B0001092A2001092A5001092A4000895CF936F
:1001C000DF93EC01209192003091930040919200D6
:1001D0005091930012161306C4F441505040A9EBFD
:1001E000B0E0FA01EE0FFF1FEA0FFB1F6081718183
:1001F000C901880F991F8A0F9B1FFC0171836083BF
:10020000415050402150304061F7D093BA00C09324
:10021000B900DF91CF9108950E94800A8BE190E0B0
:100220006BE170E00E948A008FEF9FE3A4E18150B0
:100230009040A040E1F700C0000008950E94800AAD
:100240008BE190E06BE170E00E948A008FEF9FE30A
:10025000A4E181509040A040E1F700C0000081E09F
:1002600090E00E94B00B08950E94800A8BE190E01C
:100270006BE170E00E948A008FEF9FE3A4E1815060
:100280009040A040E1F700C0000080E090E00E94B4
:10029000B00B08950E94800A8DE190E06EE170E05D
:1002A0000E948A008FEF9FEFA8E081509040A0400D
:1002B000E1F700C0000082E090E00E94B00B0895DA
:1002C00084B3876084BB85B3887F85BB089584B37E
:1002D0008FEF84BB85B385BB81B3826381BB0895F7
:1002E0001ABA1BBA08951EBC8FEF8DBD91E09CBD5C
:1002F0001BBC8ABD19BC88BD17BC86BD81EA8FBDF9
:100300008DE08EBD08958F9A82E083BF8BEE82BF11
:1003100081E089BF089516B880E287B980E888B97E
:1003200086E886B9089587B38F6087BB88B3807FDE
:1003300088BB81B3806381BB82B3806382BB089535
:100340001AB81BB886E880BD8FE289B910BC88E96D
:100350008AB908958A98929A08958B98939A0895E5
:10036000A39AAB98089585B7886085BF8BB78068DE
:100370008BBF089585B7826085BF8BB780648BBFC4
:10038000089584B3876F84BB85B3807885BB089557
:100390000E9493010E94B0010E94A0010E94AA0144
:1003A0000E94AD010E9470010E9467010E946001DD
:1003B0000895F8940E94C8010E9473010E948B0165
:1003C0000E94BA010E94B3010E94830178940895AB
:1003D0008770806287B9369A349BFECF85B1349A94
:1003E000089583B3886085BB089583B3877F85BBF9
:1003F00008950E94F1018FEF9FE3A2E081509040A9
:10040000A040E1F700C000000E94F50108952F927E
:100410003F924F925F926F927F928F929F92AF9294
:10042000BF92CF92DF92EF92FF920F931F93CF93E1
:10043000DF93CDB7DEB728970FB6F894DEBF0FBEB7
:10044000CDBF8091F4009091F500009739F40091B0
:10045000B9001091BA00095F1F4F29C08091F400C4
:100460009091F5008130910539F40091B900109117
:10047000BA00015010401BC08091F4009091F5002B
:100480008230910539F40091B9001091BA000750FB
:1004900010400DC08091F4009091F50083309105DB
:1004A00031F40091B9001091BA000F5F1F4FC801DD
:1004B0000E94DF001093B1000093B0002091B900BA
:1004C0003091BA003E832D834091BB005091BC0017
:1004D0005C834B838091BD009091BE009A83898399
:1004E0008091BB009091BC008336910509F4E0C176
:1004F000662477246394222433240F2EF9EB4F2EA5
:10050000F0E05F2EF02D83E00E94E80180937900F7
:1005100084E00E94E8018093780085E00E94E80171
:100520008093770090E020917900821B910990934D
:100530000F0180930E0160910E0170910F01C09028
:100540006700D0906800E0906900F0906A00A09188
:100550000E01B0910F01B887AF8300917A0010911E
:100560007B008090630090906400A0906500B09044
:100570006600882777FD8095982F0E944C17A70169
:1005800096010E94D8176B017C016F817885601BF2
:10059000710B882777FD8095982F0E944C17A50135
:1005A00094010E94D8179B01AC01C701B6010E94BB
:1005B0004D160E941917DC01CB0120910E013091DC
:1005C0000F0130937B0020937A000091620010E0CD
:1005D000209161006C01C20ED11C081B190B08335D
:1005E000110514F007E310E0B8E3CB16D1042CF0AA
:1005F0000F2EF7E3CF2EDD24F02D0E94800AC601D6
:1006000099230CF4C101B80111230CF4B1010E942B
:100610008A0080917800853608F43BC1809179008A
:10062000853608F436C180917700853608F431C1EB
:100630000E948F000E94570A0E94F901E981FA8105
:10064000E336F10509F434C1CF012B813C81821BD3
:10065000930B8130910509F043C089014D815E8182
:10066000041B150B0130110519F40E940C010DC07B
:100670000730110519F40E9434010DC05FEF093FE6
:10068000150719F40E941E0106C08FEF0F3F1807CF
:1006900011F40E944A0193012F5F3F4FF301EE0FC7
:1006A000FF1FE40DF51DA081B181BE83AD83C9019B
:1006B000880F991F840D951DFC010190F081E02D9C
:1006C000FC83EB83C3010296880F991F840D951D4F
:1006D000DC010D90BC91A02DBA83A9833901D9C04A
:1006E0008730910509F044C00B811C81ED81FE81AA
:1006F0000E1B1F0B0730110519F40E940C010DC0D1
:10070000FFEF0F3F1F0719F40E9434010CC00130A6
:10071000110519F40E941E0106C02FEF093F1207B0
:1007200011F40E944A0193012F5F3F4FF301EE0F36
:10073000FF1FE40DF51D408151815E834D83C9018A
:10074000880F991F840D951DDC010D90BC91A02D83
:10075000BC83AB83C3010296880F991F840D951D3E
:10076000FC010190F081E02DFA83E983390191C009
:10077000FFEF893F9F0709F044C00B811C812D8149
:100780003E81021B130B3FEF093F130719F40E9430
:100790000C010DC00130110519F40E9434010CC088
:1007A0004FEF0F3F140719F40E941E0105C00730D8
:1007B000110511F40E944A0193012F5F3F4FF3018D
:1007C000EE0FFF1FE40DF51D808191819E838D83C7
:1007D000C901880F991F840D951DDC010D90BC91F6
:1007E000A02DBC83AB83C3010296880F991F840D93
:1007F000951DFC010190F081E02DFA83E983390118
:1008000048C0FFEF8F3F9F0709F043C00B811C8159
:100810002D813E81021B130B3FEF0F3F130719F48D
:100820000E940C010DC04FEF093F140719F40E94FC
:1008300034010BC00730110519F40E941E0105C0D8
:100840000130110511F40E944A0193012F5F3F4FBF
:10085000F301EE0FFF1FE40DF51D808191819E8352
:100860008D83C901880F991F840D951DDC010D90A2
:10087000BC91A02DBC83AB83C3010296880F991F46
:10088000840D951DFC010190F081E02DFA83E98330
:1008900039010E94840AC301880F991F840D951D98
:1008A000DC018D919C9111978336910509F02BCE37
:1008B000809198009091990001969093990080936F
:1008C000980083E090E00E945B0A80E48CB981E0AC
:1008D00090E09093A1008093A0000E94F9012896D7
:1008E0000FB6F894DEBF0FBECDBFDF91CF911F9141
:1008F0000F91FF90EF90DF90CF90BF90AF909F90BF
:100900008F907F906F905F904F903F902F900895C1
:1009100081E090E00E94B00B08956F927F928F92D9
:100920009F92AF92BF92CF92DF92EF92FF920F937E
:100930001F93CF93DF93662477249DC083E00E94AA
:10094000E8018093790084E00E94E80180937800B8
:1009500085E00E94E8018093770090E02091790083
:10096000821B910990930F0180930E0160910E01FB
:1009700070910F01C0906700D0906800E09069000E
:10098000F0906A00C0910E01D0910F0100917A00A1
:1009900010917B008090630090906400A0906500AF
:1009A000B0906600882777FD8095982F0E944C179D
:1009B000A70196010E94D8176B017C01BE01601B44
:1009C000710B882777FD8095982F0E944C17A50101
:1009D00094010E94D8179B01AC01C701B6010E9487
:1009E0004D160E94191780910E0190910F0190935E
:1009F0007B0080937A000091620010E0809161009A
:100A0000EB01C80FD11D061B170B0833110514F09D
:100A100007E310E0C833D10514F0C7E3D0E00E942B
:100A2000800ACE01DD230CF4C301B80111230CF4BC
:100A3000B3010E948A00809178008536E0F08091B1
:100A400079008536C0F0809177008536A0F00E944D
:100A50008F000E94570A0E94F9018091B000909186
:100A6000B1008730910529F484E690E00E94130BD1
:100A700002C00E940C018091B0009091B1008730BB
:100A8000910509F05BCFDF91CF911F910F91FF90FE
:100A9000EF90DF90CF90BF90AF909F908F907F901E
:100AA0006F9008954F925F926F927F928F929F9274
:100AB000AF92BF92CF92DF92EF92FF920F931F936C
:100AC000CF93DF9366247724552453944424B6C0EF
:100AD00083E00E94E8018093790084E00E94E801AD
:100AE0008093780085E00E94E8018093770090E091
:100AF00020917900821B910990930F0180930E0140
:100B000060910E0170910F01C0906700D090680055
:100B1000E0906900F0906A00C0910E01D0910F0141
:100B200000917A0010917B008090630090906400A7
:100B3000A0906500B0906600882777FD8095982F7B
:100B40000E944C17A70196010E94D8176B017C01E7
:100B5000BE01601B710B882777FD8095982F0E943E
:100B60004C17A50194010E94D8179B01AC01C70145
:100B7000B6010E944D160E94191780910E019091A6
:100B80000F0190937B0080937A000091620010E047
:100B900080916100EB01C80FD11D061B170B0833B4
:100BA000110514F007E310E0C833D10514F0C7E3D2
:100BB000D0E00E94800ACE01DD230CF4C301B8010D
:100BC00011230CF4B3010E948A00809178008536CD
:100BD000A8F180917900853688F18091770085367B
:100BE00068F10E948F000E94570A0E94F9018091CB
:100BF000B0009091B1002091B0003091B100452D2E
:100C00008832910509F0442D442339F4852D2C3088
:100C1000310509F0842D882319F00E941E010EC0B1
:100C20008091B0009091B1008D30910529F483E05E
:100C300090E00E945B0A02C00E940C018091B0000B
:100C40009091B1008D30910509F042CFDF91CF91A5
:100C50001F910F91FF90EF90DF90CF90BF90AF90DA
:100C60009F908F907F906F905F904F9008955F92CC
:100C70006F927F928F929F92AF92BF92CF92DF92AC
:100C8000EF92FF920F931F93CF93DF936624772405
:100C900055245A94B4C083E00E94E80180937900FF
:100CA00084E00E94E8018093780085E00E94E801DA
:100CB0008093770090E020917900821B91099093B6
:100CC0000F0180930E0160910E0170910F01C09091
:100CD0006700D0906800E0906900F0906A00C091D1
:100CE0000E01D0910F0100917A0010917B0080904D
:100CF000630090906400A0906500B0906600882723
:100D000077FD8095982F0E944C17A70196010E94AD
:100D1000D8176B017C01BE01601B710B882777FD22
:100D20008095982F0E944C17A50194010E94D81716
:100D30009B01AC01C701B6010E944D160E94191714
:100D400080910E0190910F0190937B0080937A0027
:100D50000091620010E080916100EB01C80FD11D8D
:100D6000061B170B0833110514F007E310E0C83316
:100D7000D10514F0C7E3D0E00E94800ACE01DD2344
:100D80000CF4C301B80111230CF4B3010E948A00D2
:100D900080917800853698F180917900853678F1D8
:100DA00080917700853658F10E948F000E94570A83
:100DB0000E94F9018091B0009091B10089329105B3
:100DC00019F00E940C011BC083E090E00E945B0AB6
:100DD000709289006092880070929B0060929A00E5
:100DE00080919C0090919D00019690939D0080932E
:100DF0009C005092940070929900609298008091AB
:100E0000B0009091B1008932910509F044CFDF9193
:100E1000CF911F910F91FF90EF90DF90CF90BF90F7
:100E2000AF909F908F907F906F905F9008953F92CA
:100E30004F925F926F927F928F929F92AF92BF92EA
:100E4000CF92DF92EF92FF920F931F93CF93DF9396
:100E50003C018DE06816710441F480919A009091F4
:100E60009B00009709F015C10DC097E06916710449
:100E700009F00FC180919A0090919B0082339105F7
:100E800009F007C186E990E00E94130B81E090E031
:100E9000909399008093980009C183E00E94E80133
:100EA0008093790084E00E94E8018093780085E0D7
:100EB0000E94E8018093770090E020917900821BE6
:100EC000910990930F0180930E0160910E01709132
:100ED0000F01C0906700D0906800E0906900F0902A
:100EE0006A00C0910E01D0910F0100917A0010911B
:100EF0007B008090630090906400A0906500B090AB
:100F00006600882777FD8095982F0E944C17A701CF
:100F100096010E94D8176B017C01BE01601B710B0A
:100F2000882777FD8095982F0E944C17A501940182
:100F30000E94D8179B01AC01C701B6010E944D1653
:100F40000E941917DC01CB0120910E0130910F0195
:100F500030937B0020937A000091620010E0209192
:100F60006100EC01C20FD11D081B190B08331105DC
:100F700014F007E310E0C833D10514F0C7E3D0E064
:100F80000E94800ACE01DD230CF4C201B8011123B6
:100F90000CF4B2010E948A0080917800853608F432
:100FA0007DC080917900853608F478C08091770003
:100FB000853608F473C00E948F000E94570A0E9471
:100FC000F9018091B0009091B10086159705C9F4A0
:100FD0008091B0009091B1008D30910591F0809199
:100FE000B0009091B1008730910559F08AEA90E005
:100FF0000E94130BE1E0F0E0F0939900E093980079
:101000004DC08091B0009091B10086159705D1F444
:101010008091B0009091B1008730910599F481E002
:1010200090E00E945B0A82E390E090939B008093A3
:101030009A00509289004092880050929900409204
:1010400098002CC08091B0009091B1008615970552
:10105000E9F48091B0009091B1008D309105B1F428
:1010600083E090E00E945B0A3CB881E090E0E0EA17
:10107000F0E091838083E2E0F0E0F0939900E09368
:101080009800909314018093130108C00E940C01F2
:1010900005C0442455243324689436F88091B00068
:1010A0009091B1008615970509F0F7CEDF91CF91A9
:1010B0001F910F91FF90EF90DF90CF90BF90AF9076
:1010C0009F908F907F906F905F904F903F9008958A
:1010D0003F924F925F926F927F928F929F92AF92C8
:1010E000BF92CF92DF92EF92FF920F931F93CF9315
:1010F000DF933C0189E26816710441F480919A0003
:1011000090919B00009709F015C10DC093E26916FC
:10111000710409F00FC180919A0090919B00823375
:10112000910509F007C186E990E00E94130B81E068
:1011300090E0909399008093980009C183E00E9409
:10114000E8018093790084E00E94E80180937800B0
:1011500085E00E94E8018093770090E0209179007B
:10116000821B910990930F0180930E0160910E01F3
:1011700070910F01C0906700D0906800E090690006
:10118000F0906A00C0910E01D0910F0100917A0099
:1011900010917B008090630090906400A0906500A7
:1011A000B0906600882777FD8095982F0E944C1795
:1011B000A70196010E94D8176B017C01BE01601B3C
:1011C000710B882777FD8095982F0E944C17A501F9
:1011D00094010E94D8179B01AC01C701B6010E947F
:1011E0004D160E941917DC01CB0120910E013091A0
:1011F0000F0130937B0020937A000091620010E091
:1012000020916100EC01C20FD11D081B190B08339E
:10121000110514F007E310E0C833D10514F0C7E35B
:10122000D0E00E94800ACE01DD230CF4C201B80197
:1012300011230CF4B2010E948A0080917800853657
:1012400008F47DC080917900853608F478C08091DB
:101250007700853608F473C00E948F000E94570AF9
:101260000E94F9018091B0009091B1008615970518
:10127000C9F48091B0009091B1008932910591F04C
:101280008091B0009091B1008332910559F08AEAC3
:1012900090E00E94130BE1E0F0E0F0939900E093FE
:1012A00098004DC08091B0009091B10086159705CF
:1012B000D1F48091B0009091B1008332910599F4FE
:1012C00081E090E00E945B0A509299004092980061
:1012D00082E390E090939B0080939A005092890063
:1012E000409288002CC08091B0009091B10086158A
:1012F0009705E9F48091B0009091B1008932910591
:10130000B1F483E090E00E945B0A3CB881E090E099
:10131000E0EAF0E091838083E2E0F0E0F09399006E
:10132000E0939800909314018093130108C00E94E9
:101330000C0105C0442455243324689436F8809168
:10134000B0009091B1008615970509F0F7CEDF91B6
:10135000CF911F910F91FF90EF90DF90CF90BF90B2
:10136000AF909F908F907F906F905F904F903F9045
:1013700008958F929F92AF92BF92CF92DF92EF9299
:10138000FF920F931F93CF93DF9383E00E94E801B6
:101390008093790084E00E94E8018093780085E0E2
:1013A0000E94E8018093770090E020917900821BF1
:1013B000910990930F0180930E0160910E0170913D
:1013C0000F01C0906700D0906800E0906900F09035
:1013D0006A00C0910E01D0910F0100917A00109126
:1013E0007B008090630090906400A0906500B090B6
:1013F0006600882777FD8095982F0E944C17A701DB
:1014000096010E94D8176B017C01BE01601B710B15
:10141000882777FD8095982F0E944C17A50194018D
:101420000E94D8179B01AC01C701B6010E944D165E
:101430000E94191780910E0190910F0190937B00EB
:1014400080937A000091620010E080916100EB01CE
:10145000C80FD11D061B170B0833110514F007E345
:1014600010E0C833D10514F0C7E3D0E00E94800A31
:10147000CE01DD2314F480E090E0B801112314F4D0
:1014800060E070E00E948A00DF91CF911F910F9180
:10149000FF90EF90DF90CF90BF90AF909F908F9094
:1014A000089598B3907F8F70982B98BB089580E033
:1014B0000E94510A0895EF92FF920F931F93CF93CA
:1014C000DF938C010E94570AC0E0D0E0EE24FF2495
:1014D000E39408C0209721F40E941E01E70102C096
:1014E0000E9488048091F4009091F5000817190774
:1014F00089F7DF91CF911F910F91FF90EF900895A1
:1015000086E00E94510A089581E00E94E8018093DC
:1015100073008556843068F40E94570A8FEF9FEF5E
:10152000A9E581509040A040E1F700C000000E9472
:10153000800A08951F920F920FB60F9211248F9375
:101540009F938091800090918100019690938100FB
:10155000809380009F918F910F900FBE0F901F90EE
:1015600018951F920F920FB60F9211248F939F938D
:10157000AF93BF9380917C0090917D00A0917E00FD
:10158000B0917F000196A11DB11D80937C009093C6
:101590007D00A0937E00B0937F00BF91AF919F919B
:1015A0008F910F900FBE0F901F901895BC0180E097
:1015B00090E00E944A1722E538EB4EE451E40E9485
:1015C000B116262F372FF82FE92F462F572F682FC8
:1015D000792F409384005093850060938600709328
:1015E0008700822F932FAF2FBE2FBC01CD010E9409
:1015F0001E17DC01CB019093830080938200109230
:101600008100109280000E94B909209180003091E1
:10161000810080918200909183008217930798F750
:101620000E94570A0895CF93DF93EC010E94800A2D
:10163000CE010E94D60ADF91CF9108951F93CF93D8
:10164000DF93BC0180E090E00E944A172AE939E963
:101650004DE451E40E94B116262F372FF82FE92FC1
:10166000462F572F682F792F409384005093850081
:101670006093860070938700822F932FAF2FBE2F29
:10168000BC01CD010E941E17DC01CB01FC0190932F
:1016900083008093820010927C0010927D00109253
:1016A0007E0010927F001092810010928000D1E0A5
:1016B00010E0AC0160E070E020918000309181008A
:1016C00080917C0090917D00A0917E00B0917F0080
:1016D000CD2F2E173F0708F4C12FCC2349F42D2F0F
:1016E00084179507A607B70708F4212F222321F3B3
:1016F0000E94570ADF91CF911F91089589E00E94BF
:10170000510A089585E00E94510A08958AE00E94D6
:10171000510A089584E00E94510A089582E00E94CF
:10172000510A089581E00E94510A089588E00E94BC
:10173000510A0895CF93DF93EC010E94820BCE01F2
:101740000E941E0BDF91CF910895CF93DF93EC01A0
:101750000E94860BCE010E941E0BDF91CF9108954F
:10176000009769F586E490E00E949A0B84E00E945D
:10177000E80180937800853548F40E94820B84E06C
:101780000E94E801809378008535B8F30E94570ADB
:101790008091F4009091F500009739F483E090E097
:1017A0009093F5008093F40008958091F400909157
:1017B000F50001979093F5008093F400089581302F
:1017C000910511F586E490E00E94A50B84E00E944B
:1017D000E80180937800853548F40E94860B84E008
:1017E0000E94E801809378008535B8F30E94570A7B
:1017F0008091F4009091F500019683709070909321
:10180000F5008093F40008958230910509F58AEA85
:1018100090E00E94A50B84E00E94E801809378008C
:10182000853548F40E94860B84E00E94E80180938D
:1018300078008535B8F30E94570A8091F4009091A2
:10184000F5000296837090709093F5008093F400F9
:1018500008951EBC83EE8DBD81EE8CBD9CE19BBDC9
:101860008FE18ABD99BD88BD97BD86BD1FBC85E04F
:101870008EBD08951F920F920FB60F9211248F9371
:101880009F93AF93BF9380916F0090917000A09150
:101890007100B09172000196A11DB11D80936F007F
:1018A00090937000A0937100B0937200BF91AF91BC
:1018B0009F918F910F900FBE0F901F901895AE982B
:1018C000AF980895AE9AAF9A0895AE98AF9A0895DA
:1018D000AE9AAF980895AC9AAD980895AC98AD9A29
:1018E00008950E945F0C10926F0010927000109289
:1018F0007100109272008FEF9FE3A2E08150904040
:10190000A040E1F700C0000080916F00909170004E
:10191000A0917100B09172008093E5009093E60071
:10192000A093E700B093E80008950E94620C109223
:101930006F001092700010927100109272008FEF81
:101940009FE3A2E081509040A040E1F700C000007A
:1019500080916F0090917000A0917100B091720021
:101960008093E1009093E200A093E300B093E40041
:1019700008950E94650C10926F00109270001092F2
:101980007100109272008FEF9FE3A2E081509040AF
:10199000A040E1F700C0000080916F0090917000BE
:1019A000A0917100B09172008093B3009093B40045
:1019B000A093B500B093B6000895F8940E94290C46
:1019C00089B7806289BF78940E946E0C08950E9446
:1019D000DD0C0E94710C8FEF9FE3ABE081509040D3
:1019E000A040E1F700C000000E94950C8FEF9FE33C
:1019F000ABE081509040A040E1F700C000000E94A1
:101A0000B90C8FEF9FE3ABE081509040A040E1F72D
:101A100000C00000F8940E94730178944091E500A2
:101A20005091E6006091E7007091E8008091E1003C
:101A30009091E200A091E300B091E4008417950733
:101A4000A607B707D0F44091E5005091E6006091F9
:101A5000E7007091E8008091B3009091B400A091EC
:101A6000B500B091B60084179507A607B70728F40C
:101A7000109216011092150108954091E1005091C5
:101A8000E2006091E3007091E4008091B3009091D6
:101A9000B400A091B500B091B60084179507A607D1
:101AA000B70738F481E090E0909316018093150118
:101AB000089582E090E090931601809315010895B7
:101AC0008230C9F08233D1F08330D9F08333E1F032
:101AD0008430E9F08433F1F08530F9F0853301F199
:101AE000863009F1863311F1873019F1873321F1FE
:101AF00080E090E023C087E090E020C087E090E0A5
:101B00001DC08EE090E01AC08EE090E017C085E125
:101B100090E014C085E190E011C08CE190E00EC02F
:101B20008CE190E00BC083E290E008C083E290E09B
:101B300005C08AE290E002C08AE290E0603111F0D4
:101B4000623411F401960895683111F0633411F490
:101B500002960895603211F0643411F403960895EA
:101B6000683211F0653411F404960895603311F071
:101B7000663411F405960895683311F0673409F45A
:101B8000069608951F920F920FB60F9211242F936D
:101B90003F934F935F936F937F938F939F93AF93F5
:101BA000BF93CF93DF93EF93FF938CB18093120198
:101BB00080911201882331F481E090E09093A3009A
:101BC0008093A20080911201803831F481E090E08E
:101BD0009093A5008093A40080919400882381F5C0
:101BE00080911201807C80931101809111018034D9
:101BF00009F0B0C08091120187708093020180913A
:101C00001201887380931001C0919200D0919300CB
:101C100080910201609110010E94600D282F392FE0
:101C2000CC0FDD1FC754DF4F39832883809192008A
:101C300090919300019690939300809392008AC0B4
:101C400080919400813009F085C080911201807CE0
:101C50008093110180911101803409F07BC00E94B2
:101C6000F901809112018770809302018091120125
:101C700088738093100180910201609110010E948D
:101C8000600D20919A0030919B002115310571F56E
:101C9000982F93529730A8F4E0919000F091910022
:101CA00090E0EE0FFF1FEA55FF4F918380838091F4
:101CB00090009091910001969093910080939000F4
:101CC00049C0E0918C00F0918D0090E0EE0FFF1F75
:101CD000E651FF4F9183808380918C0090918D001D
:101CE000019690938D0080938C0034C020919A00CF
:101CF00030919B002233310569F5982F935297302C
:101D0000A8F4E0918E00F0918F0090E0EE0FFF1F9D
:101D1000E850FF4F9183808380918E0090918F00D7
:101D2000019690938F0080938E0014C0E0918A00FA
:101D3000F0918B0090E0EE0FFF1FED5FFE4F91835F
:101D4000808380918A0090918B00019690938B0004
:101D500080938A00FF91EF91DF91CF91BF91AF9176
:101D60009F918F917F916F915F914F913F912F91B3
:101D70000F900FBE0F901F9018959C01FB011092C1
:101D800095008730910508F082C01092970010925C
:101D9000960083309105E9F18430910538F4813063
:101DA0009105C9F08230910528F50CC08530910568
:101DB00009F44DC085309105D8F18630910509F0C0
:101DC00099C154C089E08093950081E090E09093A0
:101DD00097008093960080919600909197000097CD
:101DE00049F481E18093950081E090E09093970021
:101DF000809396008091960090919700009749F407
:101E000089E18093950081E090E090939700809322
:101E100096008091960090919700009749F481E296
:101E20008093950081E090E09093970080939600D6
:101E30008091960090919700009749F489E28093F1
:101E4000950081E090E090939700809396008091B8
:101E5000960090919700009749F481E38093950054
:101E600081E090E090939700809396008091960097
:101E700090919700009709F03DC189E38093950008
:101E800081E090E0909397008093960033C1109288
:101E900097001092960067E070E00E94A0198330CE
:101EA000910509F444C08430910538F481309105DE
:101EB000E1F08230910550F50DC08530910509F4AF
:101EC00058C08530910508F443C08630910509F06B
:101ED00072C060C08091950088608093950081E019
:101EE00090E0909397008093960080919600909157
:101EF0009700009759F48091950080618093950038
:101F000081E090E0909397008093960080919600F6
:101F100090919700009759F4809195008861809383
:101F2000950081E090E090939700809396008091D7
:101F3000960090919700009759F4809195008062E7
:101F40008093950081E090E09093970080939600B5
:101F50008091960090919700009759F48091950098
:101F600088628093950081E090E090939700809341
:101F700096008091960090919700009759F4809177
:101F8000950080638093950081E090E090939700A6
:101F9000809396008091960090919700009759F455
:101FA0008091950088638093950081E090E0909304
:101FB0009700809396001092970010929600C901A6
:101FC00067E070E00E94A0196F5F7F4F6430710579
:101FD00009F448C06530710558F46230710501F1AB
:101FE0006330710570F56130710509F07FC00DC077
:101FF0006630710509F458C06630710508F443C0B5
:102000006730710509F072C060C0809195008160F1
:102010008093950081E090E09093970080939600E4
:102020008091960090919700009759F480919500C7
:1020300082608093950081E090E090939700809378
:1020400096008091960090919700009759F48091A6
:10205000950083608093950081E090E090939700D5
:10206000809396008091960090919700009759F484
:102070008091950084608093950081E090E090933A
:10208000970080939600809196009091970000971A
:1020900059F48091950085608093950081E090E0EF
:1020A000909397008093960080919600909197006E
:1020B000009759F48091950086608093950081E0A7
:1020C00090E0909397008093960080919600909175
:1020D0009700009759F48091950087608093950050
:1020E00081E090E090939700809396001092970083
:1020F00010929600309731F480919500806480931F
:10210000950010C0E130F10529F48091950080938D
:10211000950008C0E230F10529F4809195008068AF
:1021200080939500809195008CB9089585B3887F40
:10213000816085BB089585B3887F826085BB0895E3
:1021400085B3887F846085BB089585B3887F85BB10
:102150000895009771F40E9496108FEF9FE7A6E113
:1021600081509040A040E1F700C000000E94A510FF
:1021700008958130910571F40E949B108FEF9FE7C5
:10218000A6E181509040A040E1F700C000000E940D
:10219000A51008958230910569F40E94A0108FEF78
:1021A0009FE7A6E181509040A040E1F700C0000009
:1021B0000E94A51008951F920F920FB60F9211243E
:1021C0008F939F9381E088BF80910D018F5F8093F3
:1021D0000D0180910D018D3710F48BEE82BF90912F
:1021E0000D0180916E00981709F4979880910D0168
:1021F0008D3720F087E982BF84E083BF80910D0195
:10220000823841F480E882BB82E083BF8BEE82BFDC
:1022100010920D019F918F910F900FBE0F901F9004
:10222000189590E09C01220F331F220F331F820F5D
:10223000931F69E070E00E94B419862FE9E9F5E187
:102240003197F1F700C0875E089584E60E9411116E
:1022500080936E0086E696E7A1E081509040A04012
:10226000E1F780E00E94111180936E008FEF9FEFE5
:10227000A8E081509040A040E1F700C00000089520
:102280000F931F93682F70E080E090E00E944A1740
:102290002FEE39EC43E95FE30E943B18B62FA72FDE
:1022A000382F292F60E070E080E89FE3422F0B2F4A
:1022B0001A2F232F342FA90198010E94B1162AE961
:1022C00039EF4EE255E40E94D81720E030E040E2BA
:1022D00051E40E94D8170E941917882777FD80952E
:1022E000982F0E944C170E941917862F972F23E0D2
:1022F0008132920710F080E293E01F910F910895D0
:1023000087E00E94E80180936C000E944011909346
:102310001801809317012FEF3FEB46E0215030402A
:102320004040E1F700C0000021E030E0863991052F
:1023300010F020E030E0822F932F08951092B20029
:102340008091B2008431B0F489EB90E023E630E074
:10235000E091B200F0E0EE0FFF1FE80FF91F3183AC
:1023600020834091B2004F5F4093B2004091B20091
:10237000443170F308950F931F93CF93DF93082F89
:10238000162FEA010E949E11D093F500C093F4002D
:10239000802F612F0E94600D9093B1008093B00058
:1023A0008091B0009091B10060E070E00E94BD0E9D
:1023B000DF91CF911F910F910895E0919200F091DC
:1023C0009300EE0FFF1FE954FF4F808191818B3105
:1023D000910571F48091A0009091A100009741F4C3
:1023E00080E48CB981E090E09093A1008093A000FC
:1023F00008958091A0009091A1008130910599F4F9
:102400008091A2009091A3008130910579F42091F0
:10241000A4003091A50081E090E02130310541F029
:1024200080E090E0089580E090E0089580E090E002
:1024300008958F929F92AF92BF92CF92DF92EF92C8
:10244000FF920F931F93CF93DF9383E00E94E801E5
:102450008093790084E00E94E8018093780085E011
:102460000E94E8018093770090E020917900821B20
:10247000910990930F0180930E0160910E0170916C
:102480000F01C0906700D0906800E0906900F09064
:102490006A00C0910E01D0910F0100917A00109155
:1024A0007B008090630090906400A0906500B090E5
:1024B0006600882777FD8095982F0E944C17A7010A
:1024C00096010E94D8176B017C01BE01601B710B45
:1024D000882777FD8095982F0E944C17A5019401BD
:1024E0000E94D8179B01AC01C701B6010E944D168E
:1024F0000E94191780910E0190910F0190937B001B
:1025000080937A000091620010E080916100EB01FD
:10251000C80FD11D061B170B0833110514F007E374
:1025200010E0C833D10514F0C7E3D0E00E94800A60
:10253000CE01DD2314F480E090E0B801112314F4FF
:1025400060E070E00E948A0080917800853608F48F
:102550005EC080917900853608F459C0809177007B
:10256000853608F454C00E948F000E94570A0E94CA
:10257000F9018091B0009091B1008531910519F574
:1025800081E090E00E945B0A80E48CB981E090E0F9
:102590009093A1008093A0000E94F9110097E1F3AD
:1025A0000E94D200109299001092980081E090E071
:1025B00090939F0080939E0082E390E090939B0015
:1025C00080939A0024C08091B0009091B1008B312B
:1025D0009105B9F483E090E090939900809398007E
:1025E000C1E0D0E0D0939F00C0939E0082E090E0D5
:1025F0000E945B0AD093A100C093A00080E48CB934
:1026000006C010929900109298000E940C01DF9170
:10261000CF911F910F91FF90EF90DF90CF90BF90DF
:10262000AF909F908F9008952F923F924F925F921C
:102630006F927F928F929F92AF92BF92CF92DF92D2
:10264000EF92FF920F931F93CF93DF930E94D901D4
:102650008FEF9FE9A5E081509040A040E1F700C0D6
:10266000000081E366E442E050E00E94BB1180E09C
:102670000E94111180936E008FEF9FEAA1E08150BC
:102680009040A040E1F700C00000EE24FF24E39456
:1026900099249394C2E0D0E088248A940F2EF3E02A
:1026A0002F2EF1E03F2EF02D0F2EFAEEAF2EF0E0A0
:1026B000BF2EF02D0F2EF0EA4F2EF0E05F2EF02D02
:1026C0000F2EF8EF6F2EF0E07F2EF02D0F2EF6EA92
:1026D000CF2EF0E0DF2EF02D02E310E080919E007F
:1026E00090919F00009709F043C0809198009091CD
:1026F00099000097A1F40E94DD110E94F911813028
:10270000910569F40E94D200809294008091980013
:1027100090919900019690939900809398008091F0
:102720009800909199008130910551F40E94070220
:10273000D0939900C093980010929F0010929E0031
:1027400080919800909199008230910589F40E94BF
:10275000F9118130910561F4F0929F00E0929E00A2
:1027600010929900109298000E94D20090929400CA
:1027700080919E0090919F008130910509F0BCC02E
:102780008091980090919900009719F583E790E067
:102790000E94130B0E94570A0E94801181309105FC
:1027A000A1F4F0929900E092980088E290E00E94F3
:1027B000130B0E94570A8FEF9FE7A4E081509040CF
:1027C000A040E1F700C0000004C0D0939900C0937E
:1027D000980080919800909199008130910509F0BE
:1027E00053C00E94E70C809115019091160100974B
:1027F00081F40E9496100E9425118FEF9FEFACE2AA
:1028000081509040A040E1F700C000000E94A51058
:1028100037C0809115019091160181309105A9F47E
:102820000E949B108091B0009091B100B7010E946E
:10283000BD0E8FEF9FEFACE281509040A040E1F7DA
:1028400000C000000E94A5101BC08091150190914E
:10285000160182309105A1F40E94A0108091B00071
:102860009091B100BE010E94BD0E8FEF9FEFACE2D0
:1028700081509040A040E1F700C000000E94A510E8
:10288000D0939900C09398008091980090919900FE
:102890008230910511F40E94191280919800909154
:1028A00099008330910509F019CF9092940010930C
:1028B0009B0000939A000E94F9118130910509F064
:1028C0000DCF0E94D200D0939F00C0939E000E9423
:1028D00037060E94570A90E49CB9D2011196FC92E7
:1028E000EE920E94F9110097E1F30E94D200F0925B
:1028F0001401E0921301F2CE80919E0090919F000E
:102900008230910509F0CAC0809198009091990099
:10291000009709F040C080919A0090919B00009729
:10292000C9F48091900090919100009729F483E27E
:1029300090E00E946808D2CE809188009091890032
:10294000880F991F8C0D9D1DFC01808191810E9433
:102950006808C4CE80919A0090919B0082339105C3
:1029600009F0BCCE80918E0090918F00009729F4E1
:1029700089E290E00E946808B1CE80918800909131
:102980008900880F991F860D971DDC018D919C9100
:102990000E946808A3CE80919800909199008130A0
:1029A0009105F1F50E9496100E9425110E94A51034
:1029B000109299001092980080919A0090919B003B
:1029C000009799F4809190009091910001979093D5
:1029D00091008093900080918800909189000196E9
:1029E000909389008093880079CE80919A0090918D
:1029F0009B008233910509F071CE80918E009091F9
:102A00008F00019790938F0080938E0080918800B3
:102A100090918900019690938900809388005ECE02
:102A200080919800909199008230910509F056CEDE
:102A30000E94F9118130910509F050CE0E94D20018
:102A40000E94520580919C0090919D000196909368
:102A50009D0080939C0010929B0010929A0010920F
:102A6000890010928800109299001092980080912D
:102A70009E0090919F00019690939F0080939E00EE
:102A80000E94570AB0E4BCB9F201F182E0820E94D0
:102A9000F9110097E1F30E94D20020CE80919E00B0
:102AA00090919F008330910509F0BBC08091980000
:102AB00090919900009709F040C080919A00909100
:102AC0009B000097C9F480918C0090918D00009735
:102AD00029F487E090E00E94170700CE80918800DB
:102AE00090918900880F991F8A0D9B1DDC018D91A3
:102AF0009C910E941707F2CD80919A0090919B00C3
:102B00008233910509F0EACD80918A0090918B0083
:102B1000009729F48DE090E00E941707DFCD8091A7
:102B2000880090918900880F991F820D931DFC01E8
:102B3000808191810E941707D1CD8091980090915A
:102B4000990081309105F1F50E9496100E9425119F
:102B50000E94A510109299001092980080919A00FE
:102B600090919B00009799F480918C0090918D003A
:102B7000019790938D0080938C00809188009091B4
:102B8000890001969093890080938800A7CD809159
:102B90009A0090919B008233910509F09FCD80911E
:102BA0008A0090918B00019790938B0080938A000C
:102BB000809188009091890001969093890080937C
:102BC00088008CCD80919800909199008230910579
:102BD00009F084CD0E94F9118130910509F07ECD74
:102BE0000E94D20080919C0090919D00019690934C
:102BF0009D0080939C0010929B0010929A0010926E
:102C0000890010928800109299001092980080918B
:102C10009E0090919F00019690939F0080939E004C
:102C20005DCD80919E0090919F008430910561F46C
:102C30000E948D0480919E0090919F000196909338
:102C40009F0080939E004ACD80919E0090919F00AE
:102C50008530910509F042CD0E94F1018FEF9FEF81
:102C6000A6E881509040A040E1F700C000000E941B
:102C7000F501DF91CF911F910F91FF90EF90DF90C1
:102C8000CF90BF90AF909F908F907F906F905F900C
:102C90004F903F902F9008955058BB27AA270ED0F1
:102CA0004DC13ED130F043D120F031F49F3F11F4BB
:102CB0001EF433C10EF4E095E7FB29C1E92F4FD193
:102CC00080F3BA17620773078407950718F071F449
:102CD0009EF567C10EF4E0950B2EBA2FA02D0B01C7
:102CE000B90190010C01CA01A0011124FF27591B51
:102CF00099F0593F50F4503E68F11A16F040A22F57
:102D0000232F342F4427585FF3CF469537952795C7
:102D1000A795F0405395C9F77EF41F16BA0B620BC6
:102D2000730B840BBAF09150A1F0FF0FBB1F661F0D
:102D3000771F881FC2F70EC0BA0F621F731F841F50
:102D400048F4879577956795B795F7959E3F08F076
:102D5000B3CF9395880F08F09927EE0F9795879535
:102D600008950CD0EBC0E3D040F0DAD030F021F47D
:102D70005F3F19F0CCC0511115C1CFC0F0D098F30E
:102D80009923C9F35523B1F3951B550BBB27AA27EC
:102D900062177307840738F09F5F5F4F220F331F5E
:102DA000441FAA1FA9F333D00E2E3AF0E0E830D02A
:102DB00091505040E695001CCAF729D0FE2F27D02D
:102DC000660F771F881FBB1F261737074807AB07FB
:102DD000B0E809F0BB0B802DBF01FF2793585F4F70
:102DE0002AF09E3F510568F092C0DCC05F3FECF3D3
:102DF000983EDCF3869577956795B795F7959F5F35
:102E0000C9F7880F911D9695879597F90895E1E088
:102E1000660F771F881FBB1F621773078407BA07E7
:102E200020F0621B730B840BBA0BEE1F88F7E09542
:102E3000089504D06894B111B5C0089598D088F071
:102E40009F5790F0B92F9927B751A0F0D1F0660F96
:102E5000771F881F991F1AF0BA95C9F712C0B130B1
:102E600081F09FD0B1E008959CC0672F782F88270C
:102E7000B85F39F0B93FCCF3869577956795B395F0
:102E8000D9F73EF490958095709561957F4F8F4F5F
:102E90009F4F0895E89409C097FB3EF49095809564
:102EA000709561957F4F8F4F9F4F9923A9F0F92F10
:102EB00096E9BB279395F695879577956795B7958E
:102EC000F111F8CFFAF4BB0F11F460FF1BC06F5F74
:102ED0007F4F8F4F9F4F16C0882311F096E911C086
:102EE000772321F09EE8872F762F05C0662371F0A7
:102EF00096E8862F70E060E02AF09A95660F771FBB
:102F0000881FDAF7880F9695879597F9089597F9AE
:102F10009F6780E870E060E008959FEF80EC08957F
:102F200000240A94161617061806090608950024A8
:102F30000A9412161306140605060895092E039422
:102F4000000C11F4882352F0BB0F40F4BF2B11F496
:102F500060FF04C06F5F7F4F8F4F9F4F089557FDF5
:102F60009058440F551F59F05F3F71F04795880FF7
:102F700097FB991F61F09F3F79F08795089512168E
:102F800013061406551FF2CF4695F1DF08C016163A
:102F900017061806991FF1CF8695710561050894EB
:102FA0000895E894BB2766277727CB0197F9089502
:102FB0000BD0C4CFB5DF28F0BADF18F0952309F0A5
:102FC000A6CFABCF1124EECFCADFA0F3959FD1F3EC
:102FD000950F50E0551F629FF001729FBB27F00DC7
:102FE000B11D639FAA27F00DB11DAA1F649F66271C
:102FF000B00DA11D661F829F2227B00DA11D621F6B
:10300000739FB00DA11D621F839FA00D611D221F24
:10301000749F3327A00D611D231F849F600D211D08
:10302000822F762F6A2F11249F5750408AF0E1F0AB
:1030300088234AF0EE0FFF1FBB1F661F771F881FF4
:1030400091505040A9F79E3F510570F060CFAACF34
:103050005F3FECF3983EDCF3869577956795B795DF
:10306000F795E7959F5FC1F7FE2B880F911D969509
:10307000879597F90895FA01EE0FFF1F3096210505
:10308000310599F16115710561F48038BFE39B0743
:1030900049F168949038810561F08038BFEF9B0753
:1030A00041F0992342F5FF3FE1053105210511F17A
:1030B000E8940894E795D901AA2329F4AB2FBE2FF1
:1030C000F85FD0F310C0FF5F70F4A695E0F7F73912
:1030D00050F019F0FF3A38F49F779F930CD00F907F
:1030E00007FC905808953EF018CF60E070E080E84B
:1030F0009FE308954FE79F775F934F933F932F93FD
:103100009ED02F913F914F915F9152DF05C019F4EE
:103110000EF0FDCE46CF01CF2ADFC8F39638C0F7B8
:1031200007F80F92E8942BE33AEA48EB5FE74EDFAB
:103130000F920F920F924DB75EB70F92C0D0E4E599
:10314000F0E016D04F915F91EF91FF91E595EE1F62
:10315000FF1F49F0FE57E0684427EE0F441FFA9521
:10316000E1F74195550B32D00F9007FE26C0089528
:10317000DF93CF931F930F93FF92EF92DF927B0128
:103180008C01689405C0DA2EEF011EDFFE01E89481
:10319000A5912591359145915591AEF3EF018EDDC5
:1031A000FE019701A801DA9479F7DF90EF90FF9084
:1031B0000F911F91CF91DF9108959B01AC0160E0C9
:1031C00070E080E89FE3CDCDA2CEACC0D0DEE8F3C6
:1031D0009923D9F3940F511DBBF39150504094F0B3
:1031E00059F0882332F0660F771F881F91505040A6
:1031F000C1F79E3F510544F7880F911D969587951D
:1032000097F908955F3FACF0983E9CF0BB278695F8
:1032100077956795B79508F4B1609395C1F7BB0FA3
:1032200058F711F460FFE8CF6F5F7F4F8F4F9F4FCC
:10323000E3CFB8CE0EF076C070CE689468CE97DE3D
:10324000C8F39923D1F3C6F3DF93CF931F930F9362
:10325000FF92C92FDD2788232AF02197660F771F59
:10326000881FDAF720E030E040E85FEB9FE3883921
:1032700020F0803E30F021968F770FDDECE7F0E014
:1032800003C00BDDE9EAF0E073DF8B01BE01EC0166
:10329000FB2E6F5771097595771F880B990BFCDD15
:1032A00028E132E741E35FE38FDEAF2D9801AE0105
:1032B000FF900F911F91CF91DF9100DD3FCEFA017A
:1032C000DC01AA0FBB1F9B01AC01BF5728F42227CA
:1032D0003327442750781FC0B75188F4AB2F002400
:1032E000469537952795011CA395D2F3002069F0E8
:1032F000220F331F441FB395DAF30DD0CDCC6130CC
:103300007105A0E88A07B94630F49B01AC01662735
:10331000772788279078309621F020833183428365
:10332000538308959F3F31F0915020F4879577950E
:103330006795B795880F911D9695879597F908958C
:10334000AA1BBB1B51E107C0AA1FBB1FA617B707CB
:1033500010F0A61BB70B881F991F5A95A9F78095E7
:103360009095BC01CD01089597FB092E07260AD040
:1033700077FD04D0E5DF06D000201AF47095619542
:103380007F4F0895F6F7909581959F4F0895F89493
:02339000FFCF6D
:0C3392000A37376666663F9A99593F007B
:00000001FF
