:100000000C946B000C94FD0A0C94E60A0C94880086
:100010000C9488000C949C0C0C9488000C94880020
:100020000C9488000C9451110C9488000C94240EAC
:100030000C9488000C9488000C9488000C94880020
:100040000C9488000C9488000C9488000C94880010
:100050000C94880007634236B79BD8A71A396856B4
:1000600018AEBAAB558C1D3CB7CC5763BD6DEDFDDA
:10007000753EF6177231BF000000803F0800000097
:10008000BE922449123EABAAAA2ABECDCCCC4C3E8D
:1000900000000080BEABAAAAAA3E00000000BF007C
:1000A0000000803F0000000000084178D3BB438778
:1000B000D1133D190E3CC3BD4282AD2B3E68EC828C
:1000C00076BED98FE1A93E4C80EFFFBE01C4FF7F11
:1000D0003F000000000011241FBECFE5D4E0DEBFCA
:1000E000CDBF10E0A0E6B0E0ECE6F5E302C005907D
:1000F0000D92AC36B107D9F711E0ACE6B0E001C023
:100100001D92AD31B107E1F70E94D2130C94B41ADD
:100110000C9400001BBC8ABD19BC68BD0895809179
:10012000F8009091F900009751F48091B4009091FB
:10013000B50007979093B5008093B400089580911F
:10014000F8009091F9008130910551F48091B4004C
:100150009091B50001969093B5008093B4000895F6
:100160008091F8009091F9008230910551F48091CE
:10017000B4009091B50007969093B5008093B400B9
:1001800008958091F8009091F9008330910549F429
:100190008091B4009091B50001979093B500809341
:1001A000B40008951092A5001092A4001092A70028
:1001B0001092A6001092A9001092A8000895109223
:1001C00089001092880010928B0010928A00089586
:1001D000CF93DF93EC0120919600309197004091EE
:1001E00096005091970012161306C4F441505040E7
:1001F000ADEBB0E0FA01EE0FFF1FEA0FFB1F6081CD
:100200007181C901880F991F8A0F9B1FFC0171839F
:100210006083415050402150304061F7D093BE0080
:10022000C093BD00DF91CF9108950E94E20A8BE157
:1002300090E06BE170E00E948A008FEF9FE3A4E101
:1002400081509040A040E1F700C0000008950E9456
:10025000E20A8BE190E06BE170E00E948A008FEF90
:100260009FE3A4E181509040A040E1F700C000006E
:1002700081E090E00E94FC0B08950E94E20A8BE16D
:1002800090E06BE170E00E948A008FEF9FE3A4E1B1
:1002900081509040A040E1F700C0000080E090E075
:1002A0000E94FC0B08950E94E20A8DE190E06EE14D
:1002B00070E00E948A008FEF9FEFA8E0815090408D
:1002C000A040E1F700C0000082E090E00E94FC0B3B
:1002D000089584B3876084BB85B3887F85BB089508
:1002E00084B38FEF84BB85B385BB81B3826381BB4D
:1002F00008951ABA1BBA08951EBC8FEF8DBD91E008
:100300009CBD1BBC8ABD19BC88BD17BC86BD81EADB
:100310008FBD8DE08EBD08958F9A82E083BF8BEEF6
:1003200082BF81E089BF089516B880E287B980E86E
:1003300088B986E886B9089587B38F6087BB88B38C
:10034000807F88BB81B3806381BB82B3806382BBC3
:1003500008951AB81BB886E880BD8FE289B910BC31
:1003600088E98AB908958A98929A08958B98939A01
:100370000895A39AAB98089585B7886085BF8BB719
:1003800080688BBF089585B7826085BF8BB7806416
:100390008BBF089584B3876F84BB85B3807885BB9A
:1003A00008950E949C010E94B9010E94A9010E9427
:1003B000B3010E94B6010E9479010E9470010E945F
:1003C00069010895F8940E94D1010E947C010E9465
:1003D00094010E94C3010E94BC010E948C01789488
:1003E00008958770806287B9369A349BFECF85B1B5
:1003F000349A089583B3886085BB089583B3877F5B
:1004000085BB08950E94FA018FEF9FE3A2E081501F
:100410009040A040E1F700C000000E94FE01089556
:100420002F923F924F925F926F927F928F929F9204
:10043000AF92BF92CF92DF92EF92FF920F931F93F2
:10044000CF93DF93CDB7DEB728970FB6F894DEBF12
:100450000FBECDBF8091F8009091F900009739F45C
:100460000091BD001091BE00095F1F4F29C080910F
:10047000F8009091F9008130910539F40091BD00A8
:100480001091BE00015010401BC08091F800909167
:10049000F9008230910539F40091BD001091BE0041
:1004A000075010400DC08091F8009091F900833002
:1004B000910531F40091BD001091BE000F5F1F4FF8
:1004C000C8010E94E8001093B5000093B400209189
:1004D000BD003091BE003E832D834091BF005091FE
:1004E000C0005C834B838091C1009091C2009A83CD
:1004F00089836624772463940F2EFDEB4F2EF0E062
:100500005F2EF02D22243324C6C183E00E94F10126
:100510008093790084E00E94F1018093780085E067
:100520000E94F1018093770090E020917900821B76
:1005300091099093130180931201609112017091BF
:100540001301C0906700D0906800E0906900F090BF
:100550006A00A0911201B0911301B887AF83009196
:100560007A0010917B008090630090906400A090CE
:100570006500B0906600882777FD8095982F0E94CF
:100580003918A70196010E94C5186B017C016F8183
:100590007885601B710B882777FD8095982F0E94C6
:1005A0003918A50194010E94C5189B01AC01C7012F
:1005B000B6010E943A170E940618DC01CB01209177
:1005C00012013091130130937B0020937A00009147
:1005D000620010E0209161006C01C20ED11C081B6A
:1005E000190B0833110514F007E310E0B8E3CB163C
:1005F000D1042CF00F2EF7E3CF2EDD24F02D0E9436
:10060000E20AC60199230CF4C101B80111230CF4CC
:10061000B1010E948A0080917800853608F43BC1C0
:1006200080917900853608F436C18091770085364F
:1006300008F431C10E948F000E94B90A0E94020290
:10064000E981FA81E336F10509F432C1CF012B814A
:100650003C81821B930B8130910509F043C08901D5
:100660004D815E81041B150B0130110519F40E94A8
:1006700015010DC00730110519F40E943D010DC090
:100680005FEF093F150719F40E94270106C08FEF9D
:100690000F3F180711F40E94530193012F5F3F4F42
:1006A000F301EE0FFF1FE40DF51DA081B181BE83A4
:1006B000AD83C901880F991F840D951DFC01019020
:1006C000F081E02DFC83EB83C3010296880F991F14
:1006D000840D951DDC010D90BC91A02DBA83A983DA
:1006E0003901D9C08730910509F044C00B811C81C4
:1006F000ED81FE810E1B1F0B0730110519F40E94BE
:1007000015010DC0FFEF0F3F1F0719F40E943D01B7
:100710000CC00130110519F40E94270106C02FEF0B
:10072000093F120711F40E94530193012F5F3F4FBD
:10073000F301EE0FFF1FE40DF51D408151815E8333
:100740004D83C901880F991F840D951DDC010D9003
:10075000BC91A02DBC83AB83C3010296880F991F67
:10076000840D951DFC010190F081E02DFA83E98351
:10077000390191C0FFEF893F9F0709F044C00B8109
:100780001C812D813E81021B130B3FEF093F130794
:1007900019F40E9415010DC00130110519F40E94D1
:1007A0003D010CC04FEF0F3F140719F40E942701C1
:1007B00005C00730110511F40E94530193012F5F0A
:1007C0003F4FF301EE0FFF1FE40DF51D8081918176
:1007D0009E838D83C901880F991F840D951DDC01AF
:1007E0000D90BC91A02DBC83AB83C3010296880FF2
:1007F000991F840D951DFC010190F081E02DFA8375
:10080000E983390148C0FFEF8F3F9F0709F043C0DC
:100810000B811C812D813E81021B130B3FEF0F3F8B
:10082000130719F40E9415010DC04FEF093F14077B
:1008300019F40E943D010BC00730110519F40E9404
:10084000270105C00130110511F40E9453019301E5
:100850002F5F3F4FF301EE0FFF1FE40DF51D808169
:1008600091819E838D83C901880F991F840D951DE9
:10087000DC010D90BC91A02DBC83AB83C30102961B
:10088000880F991F840D951DFC010190F081E02DCA
:10089000FA83E9833901C301880F991F840D951DDF
:1008A000DC018D919C9111978336910509F02DCE35
:1008B00080919C0090919D00019690939D00809363
:1008C0009C0083E090E00E94BD0A80E48CB92FEF89
:1008D0003FE342E0215030404040E1F700C00000DB
:1008E0008CB92FEF3FE342E0215030404040E1F728
:1008F00000C000008CB981E090E09093A500809347
:10090000A4000E94020228960FB6F894DEBF0FBE24
:10091000CDBFDF91CF911F910F91FF90EF90DF90AE
:10092000CF90BF90AF909F908F907F906F905F908F
:100930004F903F902F90089581E090E00E94FC0B33
:1009400008956F927F928F929F92AF92BF92CF92B3
:10095000DF92EF92FF920F931F93CF93DF93662462
:1009600077249DC083E00E94F1018093790084E0A8
:100970000E94F1018093780085E00E94F10180934C
:10098000770090E020917900821B910990931301E8
:10099000809312016091120170911301C090670061
:1009A000D0906800E0906900F0906A00C091120158
:1009B000D091130100917A0010917B008090630028
:1009C00090906400A0906500B0906600882777FD45
:1009D0008095982F0E943918A70196010E94C5188A
:1009E0006B017C01BE01601B710B882777FD809530
:1009F000982F0E943918A50194010E94C5189B01E7
:100A0000AC01C701B6010E943A170E9406188091F6
:100A100012019091130190937B0080937A000091D2
:100A2000620010E080916100EB01C80FD11D061B30
:100A3000170B0833110514F007E310E0C833D10594
:100A400014F0C7E3D0E00E94E20ACE01DD230CF4EB
:100A5000C301B80111230CF4B3010E948A008091F4
:100A600078008536E0F0809179008536C0F080917D
:100A700077008536A0F00E948F000E94B90A0E947C
:100A800002028091B4009091B5008730910529F45D
:100A900084E690E00E945F0B02C00E9415018091E5
:100AA000B4009091B5008730910509F05BCFDF91DC
:100AB000CF911F910F91FF90EF90DF90CF90BF905B
:100AC000AF909F908F907F906F9008954F925F921C
:100AD0006F927F928F929F92AF92BF92CF92DF924E
:100AE000EF92FF920F931F93CF93DF9366247724A7
:100AF000552453944424BFC083E00E94F1018093A5
:100B0000790084E00E94F1018093780085E00E94E2
:100B1000F1018093770090E020917900821B910988
:100B2000909313018093120160911201709113014F
:100B3000C0906700D0906800E0906900F0906A0073
:100B4000C0911201D091130100917A0010917B00A5
:100B50008090630090906400A0906500B090660063
:100B6000882777FD8095982F0E943918A701960154
:100B70000E94C5186B017C01BE01601B710B8827A8
:100B800077FD8095982F0E943918A50194010E9445
:100B9000C5189B01AC01C701B6010E943A170E941B
:100BA0000618809112019091130190937B0080931D
:100BB0007A000091620010E080916100EB01C80FA3
:100BC000D11D061B170B0833110514F007E310E0C5
:100BD000C833D10514F0C7E3D0E00E94E20ACE0189
:100BE000DD230CF4C301B80111230CF4B3010E94FE
:100BF0008A00809178008536F0F180917900853601
:100C0000D0F1809177008536B0F10E948F000E946C
:100C1000B90A0E9402028091B4009091B500883216
:100C2000910511F40E94DF008091B4009091B5000D
:100C30002091B4003091B500452D8832910509F01E
:100C4000442D442339F4852D2C30310509F0842DB1
:100C5000882319F00E9427010EC08091B400909162
:100C6000B5008D30910529F483E090E00E94BD0A23
:100C700002C00E9415018091B4009091B5008D30A2
:100C8000910509F039CFDF91CF911F910F91FF901E
:100C9000EF90DF90CF90BF90AF909F908F907F901C
:100CA0006F905F904F9008955F926F927F928F92B6
:100CB0009F92AF92BF92CF92DF92EF92FF920F93EB
:100CC0001F93CF93DF936624772455245A94BDC095
:100CD00083E00E94F1018093790084E00E94F10199
:100CE0008093780085E00E94F1018093770090E086
:100CF00020917900821B9109909313018093120136
:100D00006091120170911301C0906700D09068004B
:100D1000E0906900F0906A00C0911201D091130137
:100D200000917A0010917B008090630090906400A5
:100D3000A0906500B0906600882777FD8095982F79
:100D40000E943918A70196010E94C5186B017C0109
:100D5000BE01601B710B882777FD8095982F0E943C
:100D60003918A50194010E94C5189B01AC01C70167
:100D7000B6010E943A170E940618809112019091C4
:100D8000130190937B0080937A000091620010E041
:100D900080916100EB01C80FD11D061B170B0833B2
:100DA000110514F007E310E0C833D10514F0C7E3D0
:100DB000D0E00E94E20ACE01DD230CF4C301B801A9
:100DC00011230CF4B3010E948A00809178008536CB
:100DD000E0F1809179008536C0F180917700853609
:100DE000A0F10E948F000E94B90A0E940202809125
:100DF000B4009091B5008232910511F40E94DF0099
:100E00008091B4009091B5008932910519F00E944B
:100E100015011BC083E090E00E94BD0A70928D0016
:100E200060928C0070929F0060929E008091A00062
:100E30009091A10001969093A1008093A000509200
:100E4000980070929D0060929C008091B4009091F7
:100E5000B5008932910509F03BCFDF91CF911F9109
:100E60000F91FF90EF90DF90CF90BF90AF909F9049
:100E70008F907F906F905F9008953F924F925F9216
:100E80006F927F928F929F92AF92BF92CF92DF929A
:100E9000EF92FF920F931F93CF93DF933C018DE06E
:100EA0006816710441F480919E0090919F00009714
:100EB00009F033C10DC097E06916710409F02DC126
:100EC00080919E0090919F008233910509F025C189
:100ED00086E990E00E945F0B81E090E090939D0096
:100EE00080939C0027C183E00E94F10180937900E8
:100EF00084E00E94F1018093780085E00E94F10176
:100F00008093770090E020917900821B9109909363
:100F10001301809312016091120170911301C0902E
:100F20006700D0906800E0906900F0906A00C0917E
:100F30001201D091130100917A0010917B008090F2
:100F4000630090906400A0906500B09066008827D0
:100F500077FD8095982F0E943918A70196010E946D
:100F6000C5186B017C01BE01601B710B882777FDE2
:100F70008095982F0E943918A50194010E94C518E8
:100F80009B01AC01C701B6010E943A170E940618E6
:100F9000DC01CB01209112013091130130937B00D1
:100FA00020937A000091620010E020916100EC0132
:100FB000C20FD11D081B190B0833110514F007E3EC
:100FC00010E0C833D10514F0C7E3D0E00E94E20A74
:100FD000CE01DD230CF4C201B80111230CF4B201DF
:100FE0000E948A0080917800853608F49BC0809129
:100FF0007900853608F496C080917700853608F42C
:1010000091C00E948F000E94B90A0E940202809142
:10101000B4009091B50086159705C9F48091B4008D
:101020009091B5008D30910591F08091B400909130
:10103000B5008730910559F08AEA90E00E945F0B75
:10104000A1E0B0E0B0939D00A0939C005CC08091B3
:10105000B4009091B50086159705D1F48091B40045
:101060009091B5008730910599F481E090E00E945D
:10107000BD0AE2E3F0E0F0939F00E0939E005092FF
:101080008D0040928C0050929D0040929C003BC08D
:101090008091B4009091B5008615970591F58091E7
:1010A000B4009091B5008D30910559F583E090E042
:1010B0000E94BD0A3CB88FEF9FE3A2E081509040B0
:1010C000A040E1F700C000003CB88FEF9FE3A2E032
:1010D00081509040A040E1F700C000003CB8E1E042
:1010E000F0E0A4EAB0E01196FC93EE9382E090E089
:1010F00090939D0080939C00F0931801E09317015A
:1011000002C00E9415018091B4009091B5008B300F
:10111000910541F40E94DF0005C044245524332486
:10112000689436F88091B4009091B50086159705C3
:1011300009F0D9CEDF91CF911F910F91FF90EF90E1
:10114000DF90CF90BF90AF909F908F907F906F90E7
:101150005F904F903F9008953F924F925F926F92B1
:101160007F928F929F92AF92BF92CF92DF92EF9237
:10117000FF920F931F93CF93DF933C0189E2681690
:10118000710441F480919E0090919F00009709F0B6
:1011900033C10DC093E26916710409F02DC180912D
:1011A0009E0090919F008233910509F025C186E948
:1011B00090E00E945F0B81E090E090939D0080930F
:1011C0009C0027C183E00E94F1018093790084E0B4
:1011D0000E94F1018093780085E00E94F1018093E4
:1011E000770090E020917900821B91099093130180
:1011F000809312016091120170911301C0906700F9
:10120000D0906800E0906900F0906A00C0911201EF
:10121000D091130100917A0010917B0080906300BF
:1012200090906400A0906500B0906600882777FDDC
:101230008095982F0E943918A70196010E94C51821
:101240006B017C01BE01601B710B882777FD8095C7
:10125000982F0E943918A50194010E94C5189B017E
:10126000AC01C701B6010E943A170E940618DC01C2
:10127000CB01209112013091130130937B00209318
:101280007A000091620010E020916100EC01C20F31
:10129000D11D081B190B0833110514F007E310E0EA
:1012A000C833D10514F0C7E3D0E00E94E20ACE01B2
:1012B000DD230CF4C201B80111230CF4B2010E9429
:1012C0008A0080917800853608F49BC0809179006F
:1012D000853608F496C080917700853608F491C071
:1012E0000E948F000E94B90A0E9402028091B400FD
:1012F0009091B50086159705C9F48091B40090913E
:10130000B5008932910591F08091B4009091B500BB
:101310008332910559F08AEA90E00E945F0BA1E0C8
:10132000B0E0B0939D00A0939C005CC08091B4009D
:101330009091B50086159705D1F48091B4009091F5
:10134000B5008332910599F481E090E00E94BD0AD6
:1013500050929D0040929C00E2E3F0E0F0939F00E9
:10136000E0939E0050928D0040928C003BC0809193
:10137000B4009091B5008615970591F58091B40061
:101380009091B5008932910559F583E090E00E9473
:10139000BD0A3CB88FEF9FE3A2E081509040A0408F
:1013A000E1F700C000003CB88FEF9FE3A2E081505E
:1013B0009040A040E1F700C000003CB8E1E0F0E060
:1013C000A4EAB0E01196FC93EE9382E090E0909353
:1013D0009D0080939C00F0931801E093170102C0D8
:1013E0000E9415018091B4009091B500873291055B
:1013F00041F40E94DF0005C044245524332468943E
:1014000036F88091B4009091B5008615970509F0E3
:10141000D9CEDF91CF911F910F91FF90EF90DF9088
:10142000CF90BF90AF909F908F907F906F905F9084
:101430004F903F9008958F929F92AF92BF92CF921C
:10144000DF92EF92FF920F931F93CF93DF9383E08E
:101450000E94F1018093790084E00E94F101809361
:10146000780085E00E94F1018093770090E0209160
:101470007900821B9109909313018093120160916E
:10148000120170911301C0906700D0906800E09045
:101490006900F0906A00C0911201D091130100918F
:1014A0007A0010917B008090630090906400A0907F
:1014B0006500B0906600882777FD8095982F0E9480
:1014C0003918A70196010E94C5186B017C01BE0165
:1014D000601B710B882777FD8095982F0E94391823
:1014E000A50194010E94C5189B01AC01C701B6017A
:1014F0000E943A170E9406188091120190911301E0
:1015000090937B0080937A000091620010E08091BC
:101510006100EB01C80FD11D061B170B0833110525
:1015200014F007E310E0C833D10514F0C7E3D0E0AE
:101530000E94E20ACE01DD2314F480E090E0B801BD
:10154000112314F460E070E00E948A00DF91CF91D3
:101550001F910F91FF90EF90DF90CF90BF90AF90D1
:101560009F908F90089598B3907F8F70982B98BB21
:10157000089580E00E94B30A0895EF92FF920F93BE
:101580001F93CF93DF938C010E94B90AC0E0D0E093
:10159000EE24FF24E39408C0209721F40E94270141
:1015A000E70102C00E949C048091F8009091F9002C
:1015B0000817190789F7DF91CF911F910F91FF90BD
:1015C000EF90089586E00E94B30A08951F920F924B
:1015D0000FB60F9211248F939F938091800090916A
:1015E0008100019690938100809380009F918F915C
:1015F0000F900FBE0F901F9018951F920F920FB66D
:101600000F9211248F939F93AF93BF9380917C008F
:1016100090917D00A0917E00B0917F000196A11D68
:10162000B11D80937C0090937D00A0937E00B093C9
:101630007F00BF91AF919F918F910F900FBE0F9040
:101640001F901895BC0180E090E00E94371822E5B9
:1016500038EB4EE451E40E949E17262F372FF82FC7
:10166000E92F462F572F682F792F409384005093EE
:1016700085006093860070938700822F932FAF2F91
:10168000BE2FBC01CD010E940B18DC01CB01909351
:1016900083008093820010928100109280000E944B
:1016A0001B0A2091800030918100809182009091EE
:1016B00083008217930798F70E94B90A0895CF9381
:1016C000DF93EC010E94E20ACE010E94220BDF911F
:1016D000CF9108951F93CF93DF93BC0180E090E0FA
:1016E0000E9437182AE939E94DE451E40E949E1717
:1016F000262F372FF82FE92F462F572F682F792FB6
:101700004093840050938500609386007093870017
:10171000822F932FAF2FBE2FBC01CD010E940B183B
:10172000DC01CB01FC019093830080938200109236
:101730007C0010927D0010927E0010927F0010922B
:10174000810010928000D1E010E0AC0160E070E018
:10175000209180003091810080917C0090917D00EB
:10176000A0917E00B0917F00CD2F2E173F0708F487
:10177000C12FCC2349F42D2F84179507A607B7074F
:1017800008F4212F222321F30E94B90ADF91CF917F
:101790001F91089589E00E94B30A089585E00E9490
:1017A000B30A08958AE00E94B30A089584E00E9473
:1017B000B30A089582E00E94B30A089581E00E946E
:1017C000B30A089588E00E94B30A0895CF93DF9387
:1017D000EC010E94CE0BCE010E946A0BDF91CF91EB
:1017E0000895CF93DF93EC010E94D20BCE010E94AB
:1017F0006A0BDF91CF910895009769F586E490E038
:101800000E94E60B84E00E94F10180937800853508
:1018100048F40E94CE0B84E00E94F101809378008E
:101820008535B8F30E94B90A8091F8009091F900CB
:10183000009739F483E090E09093F9008093F800EA
:1018400008958091F8009091F90001979093F90024
:101850008093F80008958130910511F586E490E0B9
:101860000E94F10B84E00E94F1018093780085359D
:1018700048F40E94D20B84E00E94F101809378002A
:101880008535B8F30E94B90A8091F8009091F9006B
:101890000196837090709093F9008093F8000895FA
:1018A0008230910509F58AEA90E00E94F10B84E00C
:1018B0000E94F10180937800853548F40E94D20B94
:1018C00084E00E94F101809378008535B8F30E948E
:1018D000B90A8091F8009091F90002968370907097
:1018E0009093F9008093F800089581E00E94F1013F
:1018F000809373008556843068F40E94B90A8FEF94
:101900009FEFA9E581509040A040E1F700C00000A2
:101910000E94E20A08951EBC83EE8DBD81EE8CBD4F
:101920009CE19BBD8FE18ABD99BD88BD97BD86BDF9
:101930001FBC85E08EBD08951F920F920FB60F92C7
:1019400011248F939F93AF93BF9380916F009091D9
:101950007000A0917100B09172000196A11DB11D9F
:1019600080936F0090937000A0937100B093720009
:10197000BF91AF919F918F910F900FBE0F901F90CD
:101980001895AE98AF980895AE9AAF9A0895AE980C
:10199000AF9A0895AE9AAF980895AC9AAD9808950D
:1019A000AC98AD9A08950E94C10C10926F001092ED
:1019B000700010927100109272008FEF9FE3A2E00E
:1019C00081509040A040E1F700C0000080916F007E
:1019D00090917000A0917100B09172008093E90025
:1019E0009093EA00A093EB00B093EC0008950E945E
:1019F000C40C10926F00109270001092710010923F
:101A000072008FEF9FE3A2E081509040A040E1F789
:101A100000C0000080916F0090917000A091710053
:101A2000B09172008093E5009093E600A093E700E8
:101A3000B093E80008950E94C70C10926F001092B6
:101A4000700010927100109272008FEF9FE3A2E07D
:101A500081509040A040E1F700C0000080916F00ED
:101A600090917000A0917100B09172008093B700C6
:101A70009093B800A093B900B093BA000895F89479
:101A80000E948B0C89B7806289BF78940E94D00C29
:101A900008950E943F0D0E94D30C8FEF9FE3ABE0AF
:101AA00081509040A040E1F700C000000E94F70C78
:101AB0008FEF9FE3ABE081509040A040E1F700C082
:101AC00000000E941B0D8FEF9FE3ABE08150904020
:101AD000A040E1F700C00000F8940E947C017894D7
:101AE0004091E9005091EA006091EB007091EC00A8
:101AF0008091E5009091E600A091E700B091E800A8
:101B000084179507A607B707D0F44091E9005091D4
:101B1000EA006091EB007091EC008091B700909129
:101B2000B800A091B900B091BA0084179507A60734
:101B3000B70728F410921A011092190108954091E4
:101B4000E5005091E6006091E7007091E800809117
:101B5000B7009091B800A091B900B091BA00841775
:101B60009507A607B70738F481E090E090931A0133
:101B700080931901089582E090E090931A01809378
:101B8000190108958230C9F08233D1F08330D9F041
:101B90008333E1F08430E9F08433F1F08530F9F0FB
:101BA000853301F1863009F1863311F1873019F15F
:101BB000873321F180E090E023C087E090E020C0EF
:101BC00087E090E01DC08EE090E01AC08EE090E0CB
:101BD00017C085E190E014C085E190E011C08CE170
:101BE00090E00EC08CE190E00BC083E290E008C072
:101BF00083E290E005C08AE290E002C08AE290E0D1
:101C0000603111F0623411F401960895683111F0D9
:101C1000633411F402960895603211F0643411F4C3
:101C200003960895683211F0653411F4049608950E
:101C3000603311F0663411F405960895683311F09D
:101C4000673409F4069608951F920F920FB60F920B
:101C500011242F933F934F935F936F937F938F93B1
:101C60009F93AF93BF93CF93DF93EF93FF938CB189
:101C70008093160180911601882381F48091880059
:101C800090918900009751F481E090E09093A70033
:101C90008093A6009093890080938800809116011C
:101CA000803881F480918A0090918B00009751F4E4
:101CB00081E090E09093A9008093A80090938B001E
:101CC00080938A0080919800882381F58091160185
:101CD000807C8093150180911501803409F0B0C09B
:101CE0008091160187708093060180911601887398
:101CF00080931401C0919600D091970080910601C5
:101D0000609114010E94C20D282F392FCC0FDD1FC6
:101D1000C354DF4F398328838091960090919700B8
:101D2000019690939700809396008AC080919800C6
:101D3000813009F085C080911601807C8093150167
:101D400080911501803409F07BC00E9402028091CD
:101D50001601877080930601809116018873809325
:101D6000140180910601609114010E94C20D20911E
:101D70009E0030919F002115310571F5982F9352E7
:101D80009730A8F4E0919400F091950090E0EE0F68
:101D9000FF1FE655FF4F91838083809194009091BF
:101DA00095000196909395008093940049C0E0912E
:101DB0009000F091910090E0EE0FFF1FE251FF4F75
:101DC00091838083809190009091910001969093EF
:101DD00091008093900034C020919E0030919F002C
:101DE0002233310569F5982F93529730A8F4E0918A
:101DF0009200F091930090E0EE0FFF1FE450FF4F30
:101E000091838083809192009091930001969093AA
:101E100093008093920014C0E0918E00F0918F00A7
:101E200090E0EE0FFF1FE95FFE4F9183808380916A
:101E30008E0090918F00019690938F0080938E007A
:101E4000FF91EF91DF91CF91BF91AF919F918F91D2
:101E50007F916F915F914F913F912F910F900FBEA6
:101E60000F901F9018959C01FB01109299008730EC
:101E7000910508F082C010929B0010929A00833066
:101E80009105E9F18430910538F481309105C9F06C
:101E90008230910528F50CC08530910509F44DC0BC
:101EA00085309105D8F18630910509F099C154C06B
:101EB00089E08093990081E090E090939B0080936B
:101EC0009A0080919A0090919B00009749F481E1DB
:101ED0008093990081E090E090939B0080939A001A
:101EE00080919A0090919B00009749F489E180933A
:101EF000990081E090E090939B0080939A008091FC
:101F00009A0090919B00009749F481E28093990098
:101F100081E090E090939B0080939A0080919A00DA
:101F200090919B00009749F489E28093990081E0A9
:101F300090E090939B0080939A0080919A009091FA
:101F40009B00009749F481E38093990081E090E041
:101F500090939B0080939A0080919A0090919B00AF
:101F6000009709F03DC189E38093990081E090E0FA
:101F700090939B0080939A0033C110929B00109223
:101F80009A0067E070E00E948D1A8330910509F491
:101F900044C08430910538F481309105E1F08230FD
:101FA000910550F50DC08530910509F458C0853074
:101FB000910508F443C08630910509F072C060C0F5
:101FC0008091990088608093990081E090E09093DF
:101FD0009B0080939A0080919A0090919B000097BB
:101FE00059F48091990080618093990081E090E09C
:101FF00090939B0080939A0080919A0090919B000F
:10200000009759F48091990088618093990081E04C
:1020100090E090939B0080939A0080919A00909119
:102020009B00009759F480919900806280939900F9
:1020300081E090E090939B0080939A0080919A00B9
:1020400090919B00009759F4809199008862809349
:10205000990081E090E090939B0080939A0080919A
:102060009A0090919B00009759F4809199008063A9
:102070008093990081E090E090939B0080939A0078
:1020800080919A0090919B00009759F4809199005B
:1020900088638093990081E090E090939B00809307
:1020A0009A0010929B0010929A00C90167E070E0BC
:1020B0000E948D1A6F5F7F4F6430710509F448C02C
:1020C0006530710558F46230710501F163307105B6
:1020D00070F56130710509F07FC00DC06630710583
:1020E00009F458C06630710508F443C067307105C3
:1020F00009F072C060C0809199008160809399005E
:1021000081E090E090939B0080939A0080919A00E8
:1021100090919B00009759F4809199008260809380
:10212000990081E090E090939B0080939A008091C9
:102130009A0090919B00009759F4809199008360D8
:102140008093990081E090E090939B0080939A00A7
:1021500080919A0090919B00009759F4809199008A
:1021600084608093990081E090E090939B0080933D
:102170009A0080919A0090919B00009759F4809169
:10218000990085608093990081E090E090939B0096
:1021900080939A0080919A0090919B00009759F447
:1021A0008091990086608093990081E090E09093FF
:1021B0009B0080939A0080919A0090919B000097D9
:1021C00059F48091990087608093990081E090E0B4
:1021D00090939B0080939A0010929B0010929A001B
:1021E000309731F48091990080648093990010C0F9
:1021F000E130F10529F4809199008093990008C09D
:10220000E230F10529F4809199008068809399006B
:10221000809199008CB9089585B3887F816085BBD2
:10222000089585B3887F826085BB089585B3887FD4
:10223000846085BB089585B3887F85BB089500972A
:1022400071F40E940C118FEF9FE7A6E1815090403E
:10225000A040E1F700C000000E941B1108958130EA
:10226000910571F40E9411118FEF9FE7A6E1815053
:102270009040A040E1F700C000000E941B110895AB
:102280008230910569F40E9416118FEF9FE7A6E155
:1022900081509040A040E1F700C000000E941B1157
:1022A00008951F920F920FB60F9211248F939F9350
:1022B00081E088BF809111018F5F8093110180912F
:1022C00011018D3710F48BEE82BF90911101809136
:1022D0006E00981709F49798809111018D3720F0BE
:1022E00087E982BF84E083BF80911101823841F485
:1022F00080E882BB82E083BF8BEE82BF1092110127
:102300009F918F910F900FBE0F901F90189590E0A6
:102310009C01220F331F220F331F820F931F69E08E
:1023200070E00E94A11A862FE9E9F5E13197F1F7F3
:1023300000C0875E089584E60E94871180936E0036
:102340008CEC9CE3A1E081509040A040E1F700C0FC
:1023500080E00E94871180936E008FEF9FEFA8E0CE
:1023600081509040A040E1F700C0000008950F9315
:102370001F93682F70E080E090E00E9437182FEEE6
:1023800039EC43E95FE30E942819B62FA72F382FB5
:10239000292F60E070E080E89FE3422F0B2F1A2F77
:1023A000232F342FA90198010E949E172AE939EFA3
:1023B0004EE255E40E94C51820E030E040E251E4CE
:1023C0000E94C5180E940618882777FD8095982FCF
:1023D0000E9439180E940618862F972F23E0813219
:1023E000920710F080E293E01F910F91089587E02B
:1023F0000E94F10180936C000E94B71190931C0120
:1024000080931B012FEF3FEB46E0215030404040CE
:10241000E1F700C0000021E030E08639910510F0BE
:1024200020E030E0822F932F08951092B600809123
:10243000B6008431B0F48DEB90E023E630E0E0911B
:10244000B600F0E0EE0FFF1FE80FF91F3183208385
:102450004091B6004F5F4093B6004091B6004431C2
:1024600070F308950F931F93CF93DF93082F162FC8
:10247000EA010E941512D093F900C093F800802F52
:10248000612F0E94C20D9093B5008093B40080919B
:10249000B4009091B50060E070E00E94330FDF91CE
:1024A000CF911F910F910895E0919600F0919700C0
:1024B000EE0FFF1FE554FF4F808191818B31910515
:1024C00071F48091A4009091A500009741F480E4FC
:1024D0008CB981E090E09093A5008093A4000895CA
:1024E0008091A4009091A5008130910599F480918C
:1024F000A6009091A7008130910579F42091A80061
:102500003091A90081E090E02130310541F080E078
:1025100090E0089580E090E0089580E090E00895D4
:102520008F929F92AF92BF92CF92DF92EF92FF92E3
:102530000F931F93CF93DF9383E00E94F101809369
:10254000790084E00E94F1018093780085E00E9488
:10255000F1018093770090E020917900821B91092E
:1025600090931301809312016091120170911301F5
:10257000C0906700D0906800E0906900F0906A0019
:10258000C0911201D091130100917A0010917B004B
:102590008090630090906400A0906500B090660009
:1025A000882777FD8095982F0E943918A7019601FA
:1025B0000E94C5186B017C01BE01601B710B88274E
:1025C00077FD8095982F0E943918A50194010E94EB
:1025D000C5189B01AC01C701B6010E943A170E94C1
:1025E0000618809112019091130190937B008093C3
:1025F0007A000091620010E080916100EB01C80F49
:10260000D11D061B170B0833110514F007E310E06A
:10261000C833D10514F0C7E3D0E00E94E20ACE012E
:10262000DD2314F480E090E0B801112314F460E09D
:1026300070E00E948A0080917800853608F4A5C079
:1026400080917900853608F4A0C0809177008536A6
:1026500008F49BC00E948F000E94B90A0E940202E7
:102660008091B4009091B50085319105B9F581E074
:1026700090E00E94BD0A80E48CB92FEF3FE342E076
:10268000215030404040E1F700C000008CB92FEFEE
:102690003FE342E0215030404040E1F700C00000FD
:1026A0008CB981E090E09093A5008093A4000E94F3
:1026B00070120097E1F30E94D20010929D001092D8
:1026C0009C0081E090E09093A3008093A20082E3BD
:1026D00090E090939F0080939E0038C08091B4005A
:1026E0009091B5008B31910559F583E090E090937E
:1026F0009D0080939C00C1E0D0E0D093A300C093E4
:10270000A20082E090E00E94BD0AD093A500C09391
:10271000A40080E48CB92FEF3FE342E02150304029
:102720004040E1F700C000008CB92FEF3FE342E0EA
:10273000215030404040E1F700C000008CB906C095
:1027400010929D0010929C000E9415018091B4008F
:102750009091B5008931910541F480919E0090914E
:102760009F00009711F40E94DF008091B4009091C7
:10277000B5008731910549F480919E0090919F00AA
:102780008233910511F40E94DF00DF91CF911F91F8
:102790000F91FF90EF90DF90CF90BF90AF909F9000
:1027A0008F9008952F923F924F925F926F927F92F7
:1027B0008F929F92AF92BF92CF92DF92EF92FF9251
:1027C0000F931F93CF93DF930E94E2018FEF9FE956
:1027D000A5E081509040A040E1F700C0000085E3F3
:1027E00067E443E050E00E94321280E00E948711CB
:1027F00080936E008FEF9FEAA1E081509040A0404F
:10280000E1F700C00000EE24FF24E39499249394A0
:10281000C2E0D0E088248A940F2EF7E02F2EF1E05A
:102820003F2EF02D0F2EFEEEAF2EF0E0BF2EF02D3E
:102830000F2EF4EA4F2EF0E05F2EF02D0F2EFCEF5E
:102840006F2EF0E07F2EF02D0F2EFAEACF2EF0E063
:10285000DF2EF02D02E310E08091A2009091A30002
:10286000009709F045C080919C0090919D000097D1
:10287000B1F40E9454120E9470128130910579F4D3
:102880000E94D2000E94DF008092980080919C00FC
:1028900090919D00019690939D0080939C00809163
:1028A0009C0090919D008130910551F40E9410028E
:1028B000D0939D00C0939C001092A3001092A200A0
:1028C00080919C0090919D008230910589F40E9436
:1028D00070128130910561F4F092A300E092A200A1
:1028E00010929D0010929C000E94D200909298003D
:1028F0008091A2009091A3008130910509F0D2C08F
:1029000080919C0090919D00009719F583E790E0DD
:102910000E945F0B0E94B90A0E94F7118130910555
:10292000A1F4F0929D00E0929C0088E290E00E9469
:102930005F0B0E94B90A8FEF9FE7A4E0815090409F
:10294000A040E1F700C0000004C0D0939D00C093F8
:102950009C0080919C0090919D008130910509F030
:1029600053C00E94490D8091190190911A0100975E
:1029700081F40E940C110E949B118FEF9FEFACE23B
:1029800081509040A040E1F700C000000E941B1160
:1029900037C08091190190911A0181309105A9F4F5
:1029A0000E9411118091B4009091B500B7010E946E
:1029B000330F8FEF9FEFACE281509040A040E1F7E2
:1029C00000C000000E941B111BC080911901909152
:1029D0001A0182309105A1F40E9416118091B40071
:1029E0009091B500BE010E94330F8FEF9FEFACE2D4
:1029F00081509040A040E1F700C000000E941B11F0
:102A0000D0939D00C0939C0080919C0090919D006C
:102A10008230910511F40E94901280919C00909157
:102A20009D008330910509F017CF90929800109384
:102A30009F0000939E000E9470128130910509F062
:102A40000BCF0E94D200D093A300C093A2000E949B
:102A500054060E94B90A90E49CB98FEF9FE3A2E06C
:102A600081509040A040E1F700C0000090E49CB984
:102A70008FEF9FE3A2E081509040A040E1F700C0BB
:102A8000000090E49CB9D2011196FC92EE920E9453
:102A900070120097E1F30E94D200F0921801E092C8
:102AA0001701DACE8091A2009091A30082309105A7
:102AB00009F0E1C080919C0090919D00009709F081
:102AC00040C080919E0090919F000097C9F4809132
:102AD000940090919500009729F483E290E00E9481
:102AE000AC08BACE80918C0090918D00880F991F10
:102AF0008C0D9D1DFC01808191810E94AC08ACCEA3
:102B000080919E0090919F008233910509F0A4CEA0
:102B10008091920090919300009729F489E290E0CF
:102B20000E94AC0899CE80918C0090918D00880F06
:102B3000991F860D971DDC018D919C910E94AC0818
:102B40008BCE80919C0090919D0081309105F1F594
:102B50000E940C110E949B110E941B1110929D005B
:102B600010929C0080919E0090919F00009799F494
:102B70008091940090919500019790939500809397
:102B8000940080918C0090918D00019690938D001F
:102B900080938C0061CE80919E0090919F00823343
:102BA000910509F059CE8091920090919300019780
:102BB000909393008093920080918C0090918D006F
:102BC000019690938D0080938C0046CE80919C005E
:102BD00090919D008230910509F03ECE0E947012C6
:102BE0008130910509F038CE0E94D2000E9466051E
:102BF0008091A0009091A10001969093A1008093F4
:102C0000A00010929F0010929E0010928D001092D2
:102C10008C0010929D0010929C008091A2009091D7
:102C2000A30001969093A3008093A2000E94B90A8A
:102C3000B0E4BCB98FEF9FE3A2E081509040A04088
:102C4000E1F700C0000090E49CB98FEF9FE3A2E0A1
:102C500081509040A040E1F700C0000090E49CB992
:102C6000D2011196FC92EE920E9470120097E1F34D
:102C70000E94D200F1CD8091A2009091A3008330F8
:102C8000910509F0BBC080919C0090919D00009738
:102C900009F040C080919E0090919F000097C9F478
:102CA0008091900090919100009729F487E090E046
:102CB0000E943D07D1CD80918C0090918D00880FAE
:102CC000991F8A0D9B1DFC01808191810E943D0707
:102CD000C3CD80919E0090919F008233910509F0B1
:102CE000BBCD80918E0090918F00009729F48DE0EC
:102CF00090E00E943D07B0CD80918C0090918D00B6
:102D0000880F991F820D931DDC018D919C910E946B
:102D10003D07A2CD80919C0090919D00813091054E
:102D2000F1F50E940C110E949B110E941B11109240
:102D30009D0010929C0080919E0090919F000097B2
:102D400099F4809190009091910001979093910057
:102D50008093900080918C0090918D0001969093CB
:102D60008D0080938C0078CD80919E0090919F0083
:102D70008233910509F070CD80918E0090918F0083
:102D8000019790938F0080938E0080918C0090919A
:102D90008D00019690938D0080938C005DCD809185
:102DA0009C0090919D008230910509F055CD0E94C4
:102DB00070128130910509F04FCD0E94D2008091B0
:102DC000A0009091A10001969093A1008093A00093
:102DD00010929F0010929E0010928D0010928C0015
:102DE00010929D0010929C008091A2009091A300EF
:102DF00001969093A3008093A2002ECD8091A20013
:102E00009091A3008430910561F40E94A104809107
:102E1000A2009091A30001969093A3008093A2003A
:102E20001BCD8091A2009091A3008530910509F0FF
:102E300013CD0E94FA018FEF9FEFA6E881509040DA
:102E4000A040E1F700C000000E94FE01DF91CF9199
:102E50001F910F91FF90EF90DF90CF90BF90AF90B8
:102E60009F908F907F906F905F904F903F902F90AA
:102E700008955058BB27AA270ED04DC13ED130F03F
:102E800043D120F031F49F3F11F41EF433C10EF40E
:102E9000E095E7FB29C1E92F4FD180F3BA1762070C
:102EA00073078407950718F071F49EF567C10EF457
:102EB000E0950B2EBA2FA02D0B01B90190010C014A
:102EC000CA01A0011124FF27591B99F0593F50F462
:102ED000503E68F11A16F040A22F232F342F4427BA
:102EE000585FF3CF469537952795A795F0405395B2
:102EF000C9F77EF41F16BA0B620B730B840BBAF082
:102F00009150A1F0FF0FBB1F661F771F881FC2F7EC
:102F10000EC0BA0F621F731F841F48F48795779500
:102F20006795B795F7959E3F08F0B3CF9395880FB7
:102F300008F09927EE0F9795879508950CD0EBC070
:102F4000E3D040F0DAD030F021F45F3F19F0CCC08C
:102F5000511115C1CFC0F0D098F39923C9F355236F
:102F6000B1F3951B550BBB27AA276217730784077C
:102F700038F09F5F5F4F220F331F441FAA1FA9F332
:102F800033D00E2E3AF0E0E830D091505040E69524
:102F9000001CCAF729D0FE2F27D0660F771F881F85
:102FA000BB1F261737074807AB07B0E809F0BB0B74
:102FB000802DBF01FF2793585F4F2AF09E3F510598
:102FC00068F092C0DCC05F3FECF3983EDCF386957E
:102FD00077956795B795F7959F5FC9F7880F911D0E
:102FE0009695879597F90895E1E0660F771F881FFA
:102FF000BB1F621773078407BA0720F0621B730BAD
:10300000840BBA0BEE1F88F7E095089504D06894FE
:10301000B111B5C0089598D088F09F5790F0B92F9E
:103020009927B751A0F0D1F0660F771F881F991F1D
:103030001AF0BA95C9F712C0B13081F09FD0B1E053
:1030400008959CC0672F782F8827B85F39F0B93F63
:10305000CCF3869577956795B395D9F73EF490951F
:103060008095709561957F4F8F4F9F4F0895E8949D
:1030700009C097FB3EF490958095709561957F4FC0
:103080008F4F9F4F9923A9F0F92F96E9BB2793956E
:10309000F695879577956795B795F111F8CFFAF47E
:1030A000BB0F11F460FF1BC06F5F7F4F8F4F9F4FAF
:1030B00016C0882311F096E911C0772321F09EE80D
:1030C000872F762F05C0662371F096E8862F70E073
:1030D00060E02AF09A95660F771F881FDAF7880F4D
:1030E0009695879597F9089597F99F6780E870E01E
:1030F00060E008959FEF80EC089500240A9416166E
:10310000170618060906089500240A9412161306D5
:10311000140605060895092E0394000C11F4882363
:1031200052F0BB0F40F4BF2B11F460FF04C06F5F7F
:103130007F4F8F4F9F4F089557FD9058440F551F55
:1031400059F05F3F71F04795880F97FB991F61F029
:103150009F3F79F087950895121613061406551FA0
:10316000F2CF4695F1DF08C0161617061806991F0C
:10317000F1CF86957105610508940895E894BB2701
:1031800066277727CB0197F908950BD0C4CFB5DF19
:1031900028F0BADF18F0952309F0A6CFABCF1124A1
:1031A000EECFCADFA0F3959FD1F3950F50E0551FE6
:1031B000629FF001729FBB27F00DB11D639FAA278C
:1031C000F00DB11DAA1F649F6627B00DA11D661FDB
:1031D000829F2227B00DA11D621F739FB00DA11DFC
:1031E000621F839FA00D611D221F749F3327A00DB6
:1031F000611D231F849F600D211D822F762F6A2F52
:1032000011249F5750408AF0E1F088234AF0EE0FD6
:10321000FF1FBB1F661F771F881F91505040A9F7E3
:103220009E3F510570F060CFAACF5F3FECF3983E10
:10323000DCF3869577956795B795F795E7959F5F4A
:10324000C1F7FE2B880F911D9695879597F90895E4
:10325000FA01EE0FFF1F30962105310599F1611536
:10326000710561F48038BFE39B0749F16894903899
:10327000810561F08038BFEF9B0741F0992342F54B
:10328000FF3FE1053105210511F1E8940894E79528
:10329000D901AA2329F4AB2FBE2FF85FD0F310C0B9
:1032A000FF5F70F4A695E0F7F73950F019F0FF3A98
:1032B00038F49F779F930CD00F9007FC9058089597
:1032C0003EF018CF60E070E080E89FE308954FE79C
:1032D0009F775F934F933F932F939ED02F913F9172
:1032E0004F915F9152DF05C019F40EF0FDCE46CF2D
:1032F00001CF2ADFC8F39638C0F707F80F92E89499
:103300002BE33AEA48EB5FE74EDF0F920F920F9202
:103310004DB75EB70F92C0D0E4E5F0E016D04F9104
:103320005F91EF91FF91E595EE1FFF1F49F0FE576A
:10333000E0684427EE0F441FFA95E1F74195550BDD
:1033400032D00F9007FE26C00895DF93CF931F93CE
:103350000F93FF92EF92DF927B018C01689405C07E
:10336000DA2EEF011EDFFE01E894A591259135913B
:1033700045915591AEF3EF018EDDFE019701A80155
:10338000DA9479F7DF90EF90FF900F911F91CF9132
:10339000DF9108959B01AC0160E070E080E89FE35D
:1033A000CDCDA2CEACC0D0DEE8F39923D9F3940FF3
:1033B000511DBBF39150504094F059F0882332F0E6
:1033C000660F771F881F91505040C1F79E3F5105EF
:1033D00044F7880F911D9695879597F908955F3F5B
:1033E000ACF0983E9CF0BB27869577956795B7958E
:1033F00008F4B1609395C1F7BB0F58F711F460FF63
:10340000E8CF6F5F7F4F8F4F9F4FE3CFB8CE0EF067
:1034100076C070CE689468CE97DEC8F39923D1F356
:10342000C6F3DF93CF931F930F93FF92C92FDD272E
:1034300088232AF02197660F771F881FDAF720E08C
:1034400030E040E85FEB9FE3883920F0803E30F0C9
:1034500021968F770FDDECE7F0E003C00BDDE9EAA2
:10346000F0E073DF8B01BE01EC01FB2E6F57710999
:103470007595771F880B990BFCDD28E132E741E356
:103480005FE38FDEAF2D9801AE01FF900F911F918A
:10349000CF91DF9100DD3FCEFA01DC01AA0FBB1F07
:1034A0009B01AC01BF5728F42227332744275078CB
:1034B0001FC0B75188F4AB2F002446953795279548
:1034C000011CA395D2F3002069F0220F331F441F83
:1034D000B395DAF30DD0CDCC61307105A0E88A0741
:1034E000B94630F49B01AC0166277727882790788E
:1034F000309621F0208331834283538308959F3F88
:1035000031F0915020F4879577956795B795880F9E
:10351000911D9695879597F90895AA1BBB1B51E1BC
:1035200007C0AA1FBB1FA617B70710F0A61BB70B33
:10353000881F991F5A95A9F780959095BC01CD01D8
:10354000089597FB092E07260AD077FD04D0E5DF02
:1035500006D000201AF4709561957F4F0895F6F714
:0C356000909581959F4F0895F894FFCF3F
:0C356C000A37376666663F9A99593F009F
:00000001FF
