:100000000C942A000C94A1080C948A080C944700C4
:100010000C9447000C944E0A0C9447000C94470033
:100020000C9447000C94D80E0C9447000C94450C8B
:100030000C9447000C9447000C9447000C94470024
:100040000C9447000C9447000C9447000C94470014
:100050000C94470011241FBECFE5D4E0DEBFCDBF16
:1000600010E0A0E6B0E0E4E0FEE202C005900D92F0
:10007000AC36B107D9F711E0ACE6B0E001C01D9293
:10008000A431B107E1F70E94EC110C9400170C9415
:1000900000001BBC8ABD19BC68BD08958091F300A7
:1000A0009091F400009751F48091AF009091B000CE
:1000B00007979093B0008093AF0008958091F3006C
:1000C0009091F4008130910551F48091AF009091AE
:1000D000B00001969093B0008093AF000895809196
:1000E000F3009091F4008230910551F48091AF00BB
:1000F0009091B00007969093B0008093AF00089560
:100100008091F3009091F4008330910549F480913F
:10011000AF009091B00001979093B0008093AF0032
:1001200008951092A00010929F001092A2001092C9
:10013000A1001092A4001092A3000895CF93DF9322
:10014000EC012091910030919200409191005091EA
:10015000920012161306C4F441505040A8EBB0E0D0
:10016000FA01EE0FFF1FEA0FFB1F60817181C901C9
:10017000880F991F8A0F9B1FFC0171836083415078
:1001800050402150304061F7D093B900C093B8007F
:10019000DF91CF91089584B3876084BB85B3887F56
:1001A00085BB089584B38FEF84BB85B385BB81B3D2
:1001B000826381BB08951ABA1BBA08951EBC8FEFE3
:1001C0008DBD91E09CBD1BBC8ABD19BC88BD17BC10
:1001D00086BD81EA8FBD8DE08EBD08958F9A82E045
:1001E00083BF8BEE82BF81E089BF089516B880E29D
:1001F00087B980E888B986E886B9089587B38F60A3
:1002000087BB88B3807F88BB81B3806381BB82B3A7
:10021000806382BB08951AB81BB886E880BD8FE260
:1002200089B910BC88E98AB908958A98929A089584
:100230008B98939A0895A39AAB98089585B7886090
:1002400085BF8BB780688BBF089585B7826085BFF7
:100250008BB780648BBF08950E94FE000E941B0133
:100260000E940B010E9415010E9418010E94DB00F0
:100270000E94D2000E94CB000895F8940E942C01A5
:100280000E94DE000E94F6000E9425010E941E01CD
:100290000E94EE00789408958770806287B9369A3C
:1002A000349BFECF85B1349A089583B3886085BBB3
:1002B000089583B3877F85BB08950E9455018FEF12
:1002C0009FE7A6E181509040A040E1F700C0000008
:1002D0000E94590108956F927F928F929F92AF92E0
:1002E000BF92CF92DF92EF92FF920F931F93CF9323
:1002F000DF938091F3009091F400009731F4C09166
:10030000B800D091B900279626C08091F300909153
:10031000F4008130910531F4C091B800D091B9005A
:10032000219719C08091F3009091F40082309105DB
:1003300031F4C091B800D091B90027970CC08091DA
:10034000F3009091F4008330910529F4C091B80036
:10035000D091B9002196CE010E949E00D093B000AA
:10036000C093AF008090B8009090B900A090BA0000
:10037000B090BB00C091BC00D091BD0001E010E086
:100380000F2EF8EBEF2EF0E0FF2EF02DCC24DD2425
:10039000C3940F2EFBE96F2EF9E07F2EF02DDFC105
:1003A00083E00E944C0190E090937A008093790062
:1003B00084E00E944C0190E0909378008093770055
:1003C00085E00E944C0190E0909376008093750048
:1003D0001092B7001092B60080917700909178004B
:1003E000813A910560F0D092B700C092B6000E94A9
:1003F00086088EE190E06EE170E00E9449008091F5
:10040000790090917A00803A910590F48091B6003D
:100410009091B700009761F4D092B700C092B600F7
:100420000E94860883E290E069E170E00E94490042
:100430008091750090917600803A910590F48091BA
:10044000B6009091B700009761F4D092B700C092C7
:10045000B6000E94860889E190E063E270E00E94A5
:1004600049008091770090917800803A910500F5DD
:100470008091790090917A00803A9105C8F480913A
:10048000750090917600803A910590F48091B600C5
:100490009091B700009761F4D092B700C092B60077
:1004A0000E94820880E090E060E070E00E944900D5
:1004B0008091770090917800813A910508F44FC1BE
:1004C0008091790090917A00813A910508F447C1B2
:1004D0008091750090917600813A910508F43FC1B2
:1004E0000E944E008FEF9FE7A4E081509040A04013
:1004F000E1F700C000000E9482080E945D01C3363F
:10050000D10509F439C1CE018A199B0981309105C1
:1005100009F042C0E501C819D909C130D10519F463
:100520000E94860810C0C730D10529F480E090E011
:100530000E949B0912C09FEFC93FD90721F4C60151
:100540000E949B090AC0AFEFCF3FDA0731F4C60122
:10055000F3010995C601F301099598012F5F3F4FFB
:10056000C801880F991F8E0D9F1DFC01808091800E
:10057000C901880F991F8E0D9F1DDC01AD90BC90A5
:100580001197C8010296880F991F8E0D9F1DFC01BF
:10059000C081D1818901D2C08730910509F042C064
:1005A000E501C819D909C730D10519F40E94860898
:1005B00010C0FFEFCF3FDF0729F480E090E00E94FA
:1005C0009B0911C0C130D10521F4C6010E949B09CD
:1005D0000AC02FEFC93FD20731F4C601F3010995D4
:1005E000C601F301099598012F5F3F4FC801880F9D
:1005F000991F8E0D9F1DDC018D909C90C901880F65
:10060000991F8E0D9F1DFC01A080B180C80102962C
:10061000880F991F8E0D9F1DDC01CD91DC911197E4
:1006200089018CC0BFEF893F9B0709F042C0E501FB
:10063000C819D909EFEFC93FDE0719F40E948608EF
:1006400010C0C130D10529F480E090E00E949B09E0
:1006500011C0FFEFCF3FDF0721F4C6010E949B09C5
:1006600009C0C730D10531F4C601F3010995C601AF
:10067000F301099598012F5F3F4FC801880F991F1B
:100680008E0D9F1DDC018D909C90C901880F991FD4
:100690008E0D9F1DFC01A080B180C8010296880FBD
:1006A000991F8E0D9F1DDC01CD91DC911197890161
:1006B00045C0BFEF8F3F9B0709F040C0E501C81957
:1006C000D909EFEFCF3FDE0719F40E94860810C06A
:1006D000FFEFC93FDF0729F480E090E00E949B090B
:1006E00010C0C730D10521F4C6010E949B0909C082
:1006F000C130D10531F4C601F3010995C601F301FA
:10070000099598012F5F3F4FC801880F991F8E0DE3
:100710009F1DDC018D909C90C901880F991F8E0D43
:100720009F1DFC01A080B180C8010296880F991F0F
:100730008E0D9F1DDC01CD91DC9189010E94860800
:1007400084E190E064E170E00E9449008FEF9FEF48
:10075000A8E081509040A040E1F700C00000C8012F
:10076000880F991F8E0D9F1DDC018D919C91119713
:100770008336910509F014CE8091970090919800EE
:100780000196909398008093970080E48CB981E063
:1007900090E09093A00080939F0083E090E00E94FF
:1007A0000C0ADF91CF911F910F91FF90EF90DF9096
:1007B000CF90BF90AF909F908F907F906F90089553
:1007C0004F925F926F927F928F929F92AF92BF9261
:1007D000CF92DF92EF92FF920F931F93CF93DF930D
:1007E0000F2EF9E46F2EF0E07F2EF02D44245524D7
:1007F000BCC083E00E944C0190E090937A0080930B
:10080000790084E00E944C0190E0909378008093FE
:10081000770085E00E944C0190E0909376008093F1
:10082000750020917500309176008091790090914B
:100830007A00281B390B30930E0120930D01609133
:100840000D0170910E01C0906700D0906800E0909B
:100850006900F0906A00C0910D01D0910E01809066
:10086000630090906400A0906500B09066008827B7
:1008700077FD8095982F0E94EA15A70196010E94A6
:1008800076166B017C0180917400BE01681B7109B2
:10089000882777FD8095982F0E94EA15A50194017D
:1008A0000E9476169B01AC01C701B6010E94EB14B1
:1008B0000E94B71580910D0190910E0180937400F4
:1008C0008091620090E020916100EB01C20FD11D88
:1008D0008C01061B170B0932110514F008E210E019
:1008E000C932D10514F0C8E2D0E00E948608CE01DA
:1008F000DD230CF4C201B80111230CF4B201F301A1
:10090000099580917500909176008B35910568F17D
:100910008091790090917A008B35910530F180912A
:100920007700909178008B359105F8F00E944E0089
:100930000E9482088091AF009091B00087309105AD
:1009400029F484E690E00E94FE080FC086E490E05F
:1009500066E470E0F30109958FEF9FEFA8E0815006
:100960009040A040E1F700C000008091AF0090915E
:10097000B0008730910509F03CCFDF91CF911F91F6
:100980000F91FF90EF90DF90CF90BF90AF909F902E
:100990008F907F906F905F904F9008952F923F922D
:1009A0004F925F926F927F928F929F92AF92BF927F
:1009B000CF92DF92EF92FF920F931F93CF93DF932B
:1009C0003C010F2EF9E44F2EF0E05F2EF02D222493
:1009D000332416C183E00E944C0190E090937A008A
:1009E0008093790084E00E944C0190E0909378001D
:1009F0008093770085E00E944C0190E09093760010
:100A00008093750080917500909176002091790017
:100A100030917A00821B930B90930E0180930D010D
:100A200060910D0170910E01C0906700D090680038
:100A3000E0906900F0906A00C0910D01D0910E0124
:100A40008090630090906400A0906500B090660074
:100A5000882777FD8095982F0E94EA15A7019601B7
:100A60000E9476166B017C0180917400BE01681BA8
:100A70007109882777FD8095982F0E94EA15A501B6
:100A800094010E9476169B01AC01C701B6010E9439
:100A9000EB140E94B715DC01CB0120910D013091C0
:100AA0000E01209374000091620010E0209161001B
:100AB000EC01C20FD11D081B190B0932110514F0EE
:100AC00008E210E0C932D10514F0C8E2D0E00E947B
:100AD0008608CE01DD230CF4C101B80111230CF40A
:100AE000B101F201099580917500909176008B35E6
:100AF000910508F485C08091790090917A008B353A
:100B0000910508F47DC080917700909178008B3535
:100B1000910508F475C00E944E000E9482088091E1
:100B2000AF009091B00086159705C9F48091AF0091
:100B30009091B0008D30910591F08091AF0090912F
:100B4000B0008730910559F086E990E00E94FE08D8
:100B500081E090E0909398008093970051C080913D
:100B6000AF009091B00086159705D1F48091AF0049
:100B70009091B0008730910599F481E090E00E9457
:100B80000C0AA2E3B0E0B0939A00A09399003092CF
:100B9000880020928700309298002092970030C001
:100BA0008091AF009091B00086159705D1F48091A7
:100BB000AF009091B0008D30910599F483E090E002
:100BC0000E940C0AB0E4BCB981E090E0EFE9F0E0EB
:100BD0009183808383E090E09093980080939700C6
:100BE0000FC086E490E066E470E0F20109958FEFB3
:100BF0009FEFA8E081509040A040E1F700C00000C6
:100C00008091AF009091B0008615970509F0E2CE73
:100C1000DF91CF911F910F91FF90EF90DF90CF90D8
:100C2000BF90AF909F908F907F906F905F904F900C
:100C30003F902F9008952F923F924F925F926F9224
:100C40007F928F929F92AF92BF92CF92DF92EF925C
:100C5000FF920F931F93CF93DF933C010F2EF9E484
:100C60004F2EF0E05F2EF02D2224332416C183E0B6
:100C70000E944C0190E090937A008093790084E088
:100C80000E944C0190E0909378008093770085E07B
:100C90000E944C0190E090937600809375008091C3
:100CA0007500909176002091790030917A00821B36
:100CB000930B90930E0180930D0160910D01709143
:100CC0000E01C0906700D0906800E0906900F0903D
:100CD0006A00C0910D01D0910E0180906300909048
:100CE0006400A0906500B0906600882777FD80952D
:100CF000982F0E94EA15A70196010E9476166B01B3
:100D00007C0180917400BE01681B7109882777FD02
:100D10008095982F0E94EA15A50194010E947616ED
:100D20009B01AC01C701B6010E94EB140E94B715EC
:100D3000DC01CB0120910D0130910E012093740054
:100D40000091620010E020916100EC01C20FD11D02
:100D5000081B190B0932110514F008E210E0C93222
:100D6000D10514F0C8E2D0E00E948608CE01DD2350
:100D70000CF4C101B80111230CF4B101F201099581
:100D800080917500909176008B35910508F485C0AF
:100D90008091790090917A008B35910508F47DC09F
:100DA00080917700909178008B35910508F475C09B
:100DB0000E944E000E9482088091AF009091B00086
:100DC00086159705C9F48091AF009091B0008932E3
:100DD000910591F08091AF009091B0008332910520
:100DE00059F086E990E00E94FE0881E090E090933F
:100DF00098008093970051C08091AF009091B0000F
:100E000086159705D1F48091AF009091B0008332A0
:100E1000910599F481E090E00E940C0A30929800CC
:100E200020929700A2E3B0E0B0939A00A0939900BB
:100E3000309288002092870030C08091AF0090915E
:100E4000B00086159705D1F48091AF009091B00065
:100E50008932910599F483E090E00E940C0AB0E495
:100E6000BCB981E090E0EFE9F0E091838083A2E0FB
:100E7000B0E0B0939800A09397000FC086E490E094
:100E800066E470E0F20109958FEF9FEFA8E08150D2
:100E90009040A040E1F700C000008091AF00909129
:100EA000B0008615970509F0E2CEDF91CF911F9132
:100EB0000F91FF90EF90DF90CF90BF90AF909F90F9
:100EC0008F907F906F905F904F903F902F900895FC
:100ED0008F929F92AF92BF92CF92DF92EF92FF924A
:100EE0000F931F93CF93DF9383E00E944C0190E018
:100EF00090937A008093790084E00E944C0190E006
:100F0000909378008093770085E00E944C0190E0F8
:100F10009093760080937500809175009091760093
:100F20002091790030917A00821B930B90930E01EF
:100F300080930D0160910D0170910E01C0906700CA
:100F4000D0906800E0906900F0906A00C0910D01B7
:100F5000D0910E018090630090906400A090650095
:100F6000B0906600882777FD8095982F0E94EA153B
:100F7000A70196010E9476166B017C018091740096
:100F8000BE01681B7109882777FD8095982F0E9404
:100F9000EA15A50194010E9476169B01AC01C701D8
:100FA000B6010E94EB140E94B71580910D0190913B
:100FB0000E01809374000091620010E08091610046
:100FC000EB01C80FD11D061B170B0932110514F0D8
:100FD00008E210E0C932D10514F0C8E2D0E00E9466
:100FE00086080F2EF9E4CF2EF0E0DF2EF02DCE0193
:100FF000DD2314F480E090E0B801112314F460E0E4
:1010000070E0F601099580917500909176008B351E
:10101000910508F464C08091790090917A008B3535
:10102000910508F45CC080917700909178008B3531
:10103000910508F454C00E944E000E9482088FEF70
:101040009FE3A2E081509040A040E1F700C0000083
:101050008091AF009091B0008531910579F481E0E5
:1010600090E00E940C0A82E390E090939A008093B3
:101070009900109298001092970031C08091AF00B3
:101080009091B0008B319105B9F482E090E090939B
:101090009800809397000E940C0A84E690E0909359
:1010A0009A008093990081E090E09093A000809353
:1010B0009F0080E48CB913C01092980010929700A2
:1010C00086E490E066E470E0F60109958FEF9FEF0B
:1010D000A8E081509040A040E1F700C00000DF91FF
:1010E000CF911F910F91FF90EF90DF90CF90BF9025
:1010F000AF909F908F90089598B3907F8F70982BAA
:1011000098BB089580E00E947C08089586E00E94C4
:101110007C0808951F920F920FB60F9211248F939F
:101120009F9380917F009091800001969093800022
:1011300080937F009F918F910F900FBE0F901F9013
:1011400018951F920F920FB60F9211248F939F93B1
:10115000AF93BF9380917B0090917C00A0917D0024
:10116000B0917E000196A11DB11D80937B009093EC
:101170007C00A0937D00B0937E00BF91AF919F91C2
:101180008F910F900FBE0F901F901895BC0180E0BB
:1011900090E00E94E81522E538EB4EE451E40E940D
:1011A0004F15262F372FF82FE92F462F572F682F4F
:1011B000792F40938300509384006093850070934F
:1011C0008600822F932FAF2FBE2FBC01CD010E942E
:1011D000BC15DC01CB019C019093820080938100BF
:1011E0001092800010927F0080917F00909180008B
:1011F00028173907C8F70E9482080895CF93DF9314
:10120000EC010E948608CE010E94C608DF91CF91B2
:1012100008951F93CF93DF93BC0180E090E00E947C
:10122000E8152AE939E94DE451E40E944F15262FCB
:10123000372FF82FE92F462F572F682F792F4093FC
:101240008300509384006093850070938600822F02
:10125000932FAF2FBE2FBC01CD010E94BC15DC0126
:10126000CB01FC01909382008093810010927B005F
:1012700010927C0010927D0010927E0010928000EF
:1012800010927F00D1E010E0AC0160E070E02091AE
:101290007F003091800080917B0090917C00A09134
:1012A0007D00B0917E00CD2F2E173F0708F4C12F8F
:1012B000CC2349F42D2F84179507A607B70708F408
:1012C000212F222321F30E948208DF91CF911F91C9
:1012D000089589E00E947C08089585E00E947C08BA
:1012E00008958AE00E947C08089584E00E947C08AA
:1012F000089582E00E947C08089581E00E947C08A5
:10130000089588E00E947C080895CF93DF93EC0154
:101310000E946D09CE010E940909DF91CF910895C5
:10132000CF93DF93EC010E947109CE010E9409095D
:10133000DF91CF9108950097E9F58CE390E00E944A
:10134000850984E00E944C0190E09093780080939E
:10135000770080917700909178008A35910588F424
:101360000E946D0984E00E944C0190E09093780007
:101370008093770080917700909178008A3591056D
:1013800078F30E9482088091F3009091F400009716
:1013900039F483E090E09093F4008093F300089593
:1013A0008091F3009091F40001979093F400809362
:1013B000F30008958CE390E00E94900984E00E947D
:1013C0004C0190E0909378008093770080917700B3
:1013D000909178008A35910588F40E94710984E023
:1013E0000E944C0190E09093780080937700809168
:1013F0007700909178008A35910578F30E948208F1
:101400008091F3009091F400019683709070909316
:10141000F4008093F3000895CF93DF93EC010E94D2
:1014200082088091F3009091F400C817D90759F011
:1014300081E090E00E949B098091F3009091F4007C
:10144000C817D907A9F7DF91CF91089582E00E94CC
:101450004C0180937200109273008B50853450F4CD
:1014600081E0809373000E9482080E945D0181E008
:1014700090E0089580E090E008951EBC83EE8DBD5D
:1014800081EE8CBD9CE19BBD8FE18ABD99BD88BD7D
:1014900097BD86BD1FBC85E08EBD08951F920F923B
:1014A0000FB60F9211248F939F93AF93BF938091A8
:1014B0006E0090916F00A0917000B0917100019644
:1014C000A11DB11D80936E0090936F00A0937000DA
:1014D000B0937100BF91AF919F918F910F900FBE0C
:1014E0000F901F901895AE98AF980895AE9AAF9A46
:1014F0000895AE98AF9A0895AE9AAF980895AC9AB1
:10150000AD980895AC98AD9A08950E94730A109210
:101510006E0010926F0010927000109271008FEFA9
:101520009FE3A2E081509040A040E1F700C000009E
:1015300080916E0090916F00A0917000B091710049
:101540008093E4009093E500A093E600B093E70059
:1015500008950E94760A10926E0010926F00109209
:101560007000109271008FEF9FE3A2E081509040D5
:10157000A040E1F700C0000080916E0090916F00E4
:10158000A0917000B09171008093E0009093E10011
:10159000A093E200B093E30008950E94790A1092AC
:1015A0006E0010926F0010927000109271008FEF19
:1015B0009FE3A2E081509040A040E1F700C000000E
:1015C00080916E0090916F00A0917000B0917100B9
:1015D0008093B2009093B300A093B400B093B50091
:1015E0000895F8940E943D0A89B7806289BF789473
:1015F0000E94820A08950E94F10A0E94850A8FEFD4
:101600009FE3ABE081509040A040E1F700C00000B4
:101610000E94A90A8FEF9FE3ABE081509040A04069
:10162000E1F700C000000E94CD0A8FEF9FE3ABE01E
:1016300081509040A040E1F700C00000F8940E9463
:10164000DE0078944091E4005091E5006091E6005E
:101650007091E7008091E0009091E100A091E2009C
:10166000B091E30084179507A607B707D0F440911F
:10167000E4005091E5006091E6007091E7008091F0
:10168000B2009091B300A091B400B091B50084175E
:101690009507A607B70728F41092130110921201BC
:1016A00008954091E0005091E1006091E200709156
:1016B000E3008091B2009091B300A091B400B0918A
:1016C000B50084179507A607B70738F481E090E0C6
:1016D0009093130180931201089582E090E090931B
:1016E000130180931201089591E0813009F090E098
:1016F000992309F060C091E0813309F090E09923CB
:1017000009F059C091E0823009F090E0992331F45A
:1017100091E0823309F090E0992319F027E030E05E
:101720004AC091E0833009F090E0992331F491E0D0
:10173000833309F090E0992319F02EE030E03BC0AC
:1017400091E0843009F090E0992331F491E0843302
:1017500009F090E0992319F025E130E02CC091E0E8
:10176000853009F090E0992331F491E0853309F058
:1017700090E0992319F02CE130E01DC091E0863013
:1017800009F090E0992331F491E0863309F090E07C
:10179000992319F023E230E00EC091E0873009F080
:1017A00090E0992331F491E0873309F090E0992398
:1017B00011F02AE230E081E0683009F080E088230F
:1017C00009F060C081E0613409F080E0882309F00D
:1017D00059C081E0603109F080E0882331F481E074
:1017E000623409F080E0882319F02F5F3F4F4AC030
:1017F00081E0683109F080E0882331F481E06334CE
:1018000009F080E0882319F02E5F3F4F3BC081E054
:10181000603209F080E0882331F481E0643409F01B
:1018200080E0882319F02D5F3F4F2CC081E06832A3
:1018300009F080E0882331F481E0653409F080E02C
:10184000882319F02C5F3F4F1DC081E0603309F001
:1018500080E0882331F481E0663409F080E0882359
:1018600019F02B5F3F4F0EC081E0683309F080E034
:10187000882331F481E0673409F080E0882311F097
:101880002A5F3F4F822F932F08951F920F920FB61A
:101890000F9211242F933F934F935F936F937F93F6
:1018A0008F939F93AF93BF93CF93DF93EF93FF9368
:1018B0008CB18093110180911101882331F481E072
:1018C00090E09093A2008093A10080911101803854
:1018D00031F481E090E09093A4008093A300809184
:1018E0009300882391F580911101807C80931001F1
:1018F00080911001803409F0B0C00E945D01809198
:101900001101877080930101809111018873809388
:101910000F01C0919100D0919200809101016091DE
:101920000F010E94740B282F392FCC0FDD1FC854D4
:10193000DF4F398328838091910090919200019626
:10194000909392008093910088C0809193008130A1
:1019500009F083C080911101807C809310018091F7
:101960001001803409F079C0809111018770809353
:10197000010180911101887380930F018091010111
:1019800060910F010E94740B2091990030919A0090
:101990002115310571F5982F93529730A8F4E091F5
:1019A0008F00F091900090E0EE0FFF1FEB55FF4F7E
:1019B0009183808380918F00909190000196909305
:1019C000900080938F0049C0E0918B00F0918C00D3
:1019D00090E0EE0FFF1FE751FF4F918380838091CE
:1019E0008B0090918C00019690938C0080938B00DB
:1019F00034C02091990030919A002233310569F565
:101A0000982F93529730A8F4E0918D00F0918E00BA
:101A100090E0EE0FFF1FE950FF4F9183808380918C
:101A20008D0090918E00019690938E0080938D0092
:101A300014C0E0918900F0918A0090E0EE0FFF1F42
:101A4000EE5FFE4F918380838091890090918A00A0
:101A5000019690938A0080938900FF91EF91DF9126
:101A6000CF91BF91AF919F918F917F916F915F9136
:101A70004F913F912F910F900FBE0F901F9018958F
:101A80009C01FB0110929400109296001092950018
:101A900067E070E00E94D9168330910509F444C0D4
:101AA0008430910538F481309105E1F08230910560
:101AB00050F50DC08530910509F458C08530910569
:101AC00008F443C08630910509F072C060C080916F
:101AD000940088608093940081E090E09093960059
:101AE000809395008091950090919600009759F40D
:101AF0008091940080618093940081E090E09093C5
:101B000096008093950080919500909196000097A3
:101B100059F48091940088618093940081E090E072
:101B200090939600809395008091950090919600F7
:101B3000009759F48091940080628093940081E032
:101B400090E09093960080939500809195009091FD
:101B50009600009759F480919400886280939400D5
:101B600081E090E09093960080939500809195009D
:101B700090919600009759F480919400806380932F
:101B8000940081E090E0909396008093950080917E
:101B9000950090919600009759F480919400886385
:101BA0008093940081E090E090939600809395005C
:101BB0001092960010929500C90167E070E00E94B3
:101BC000D9166F5F7F4F6430710509F448C06530E6
:101BD000710558F46230710501F16330710570F5DB
:101BE0006130710509F07FC00DC06630710509F4E0
:101BF00058C06630710508F443C06730710509F0BC
:101C000072C060C08091940081608093940081E0F4
:101C100090E090939600809395008091950090912C
:101C20009600009759F4809194008260809394000C
:101C300081E090E0909396008093950080919500CC
:101C400090919600009759F480919400836080935E
:101C5000940081E090E090939600809395008091AD
:101C6000950090919600009759F4809194008460BB
:101C70008093940081E090E090939600809395008B
:101C80008091950090919600009759F4809194006E
:101C900085608093940081E090E09093960080931B
:101CA00095008091950090919600009759F480914D
:101CB000940086608093940081E090E09093960079
:101CC000809395008091950090919600009759F42B
:101CD0008091940087608093940081E090E09093DD
:101CE0009600809395001092960010929500309780
:101CF00031F48091940080648093940010C0E130AE
:101D0000F10529F4809194008093940008C0E2309A
:101D1000F10529F48091940080688093940080916B
:101D200094008CB9089585B3887F816085BB089540
:101D300085B3887F826085BB089585B3887F846082
:101D400085BB089585B3887F85BB0895009771F49E
:101D50000E94930E8FEF9FE7A6E181509040A04034
:101D6000E1F700C000000E94A20E089581309105A5
:101D700071F40E94980E8FEF9FE7A6E1815090408A
:101D8000A040E1F700C000000E94A20E089582303A
:101D9000910569F40E949D0E8FEF9FE7A6E18150A7
:101DA0009040A040E1F700C000000E94A20E0895FC
:101DB0001F920F920FB60F9211248F939F9381E081
:101DC00088BF80910C018F5F80930C0180910C0182
:101DD0008D3710F48BEE82BF90910C0180916D00D5
:101DE000981709F4979880910C018D3720F087E9B6
:101DF00082BF84E083BF80910C01823841F480E887
:101E000082BB82E083BF8BEE82BF10920C019F9158
:101E10008F910F900FBE0F901F90189590E09C012E
:101E2000220F331F220F331F820F931F69E070E0D0
:101E30000E94ED16862FE9E9F5E13197F1F700C030
:101E4000875E089588E20E940E0F80936D008FEFE9
:101E50009FE3A2E081509040A040E1F700C0000065
:101E600084EB0E940E0F80936D008FEF9FEBA1E239
:101E700081509040A040E1F700C00000089510920A
:101E8000B1008091B1008431B0F488EB90E023E69A
:101E900030E0E091B100F0E0EE0FFF1FE80FF91F16
:101EA000318320834091B1004F5F4093B100409156
:101EB000B100443170F308950F931F93CF93DF93D4
:101EC000082F162FEA010E943F0FD093F400C09311
:101ED000F300802F612F0E94740B9093B0008093C9
:101EE000AF008091AF009091B00060E070E00E9480
:101EF000400DDF91CF911F910F910895E0919100D6
:101F0000F0919200EE0FFF1FEA54FF4F8081918104
:101F10008B31910571F480919F009091A000009702
:101F200041F480E48CB981E090E09093A00080932C
:101F30009F00089580919F009091A00081309105AD
:101F400099F48091A1009091A2008130910579F4DB
:101F50002091A3003091A40081E090E02130310570
:101F600041F080E090E0089580E090E0089580E006
:101F700090E008955F926F927F928F929F92AF92BE
:101F8000BF92CF92DF92EF92FF920F931F93CF9366
:101F9000DF930F2EF9E46F2EF0E07F2EF02D552405
:101FA0005A94E8C08091AF009091B00089329105B9
:101FB00009F4E0C083E00E944C0190E090937A0025
:101FC0008093790084E00E944C0190E09093780027
:101FD0008093770085E00E944C0190E0909376001A
:101FE0008093750020917500309176008091790082
:101FF00090917A00281B390B30930E0120930D012C
:1020000060910D0170910E01C0906700D090680042
:10201000E0906900F0906A00C0910D01D0910E012E
:102020008090630090906400A0906500B09066007E
:10203000882777FD8095982F0E94EA15A7019601C1
:102040000E9476166B017C0180917400BE01681BB2
:102050007109882777FD8095982F0E94EA15A501C0
:1020600094010E9476169B01AC01C701B6010E9443
:10207000EB140E94B71580910D0190910E01809391
:1020800074000091620010E080916100EB01C80FC4
:10209000D11D061B170B0932110514F008E210E0E0
:1020A000C932D10514F0C8E2D0E00E948608CE0102
:1020B000DD2314F480E090E0B801112314F460E013
:1020C00070E0F301099580917500909176008B3551
:1020D000910508F44FC08091790090917A008B357A
:1020E000910508F447C080917700909178008B3576
:1020F000910508F43FC00E944E000E9482088FEFB5
:102100009FE3A2E081509040A040E1F700C00000B2
:102110008091AF009091B0008932910581F086E402
:1021200090E066E470E0F30109958FEF9FEFA8E07F
:1021300081509040A040E1F700C000001BC083E048
:1021400090E00E940C0A1092880010928700109272
:102150009A001092990080919B0090919C000196AA
:1021600090939C0080939B00509293001092980053
:10217000109297000E949A0F8130910509F012CFBA
:102180000E949100DF91CF911F910F91FF90EF90EE
:10219000DF90CF90BF90AF909F908F907F906F9087
:1021A0005F9008952F923F924F925F926F927F922D
:1021B0008F929F92AF92BF92CF92DF92EF92FF9257
:1021C0000F931F93CF93DF930F2EF9E46F2EF0E060
:1021D0007F2EF02D33243394222444245524E1C04F
:1021E0008091AF009091B0008D30910509F4D9C075
:1021F00083E00E944C0190E090937A0080937900F4
:1022000084E00E944C0190E09093780080937700E6
:1022100085E00E944C0190E09093760080937500D9
:1022200020917500309176008091790090917A002C
:10223000281B390B30930E0120930D0160910D0185
:1022400070910E01C0906700D0906800E090690026
:10225000F0906A00C0910D01D0910E018090630052
:1022600090906400A0906500B0906600882777FD8C
:102270008095982F0E94EA15A70196010E94761674
:102280006B017C0180917400BE01681B7109882775
:1022900077FD8095982F0E94EA15A50194010E9470
:1022A00076169B01AC01C701B6010E94EB140E9497
:1022B000B71580910D0190910E018093740080916B
:1022C000620090E020916100EB01C20FD11D8C01F2
:1022D000061B170B0932110514F008E210E0C93291
:1022E000D10514F0C8E2D0E00E948608CE01DD23BB
:1022F0000CF4C201B80111230CF4B201F3010995E9
:1023000080917500909176008B35910508F449C055
:102310008091790090917A008B35910508F441C045
:1023200080917700909178008B359105D0F10E94D3
:102330004E000E9482088091AF009091B0002091E1
:10234000AF003091B000432D8832910509F0422D45
:10235000442339F4832D2C30310509F0822D882354
:1023600029F081E090E00E949B091BC08091AF00A2
:102370009091B0008D30910529F483E090E00E94A7
:102380000C0A0FC086E490E066E470E0F301099562
:102390008FEF9FEFA8E081509040A040E1F700C090
:1023A00000000E949A0F8130910509F019CF0E9418
:1023B0009100DF91CF911F910F91FF90EF90DF90EF
:1023C000CF90BF90AF909F908F907F906F905F90D5
:1023D0004F903F902F9008955F926F927F928F92CF
:1023E0009F92AF92BF92CF92DF92EF92FF920F93A4
:1023F0001F93CF93DF930E943D0184E361E440E0AB
:1024000050E00E945C0F8824839499249A94552468
:10241000689456F80F2EFFE9CF2EF0E0DF2EF02D56
:10242000EE24FF24E3940F2EF2E06F2EF1E07F2ED6
:10243000F02D09EE10E00F2EF7EFAF2EF0E0BF2EDB
:10244000F02DC5EAD0E080919D0090919E0000970C
:1024500009F043C080919700909198000097A9F4EB
:102460000E947E0F0E949A0F8130910561F70E94B1
:10247000910090929300809197009091980001961E
:102480009093980080939700DECF80919700909171
:1024900098008130910519F40E946B01D4CF80918E
:1024A0009700909198008230910569F60E949A0FEA
:1024B0008130910541F680919D0090919E0001969A
:1024C00090939E0080939D00109298001092970028
:1024D000809293000E949100B6CF80919D009091D0
:1024E0009E008130910509F09EC0809197009091E7
:1024F0009800009751F50E94260A009719F40E944F
:10250000680723C00E94820888E790E00E94900933
:102510008091F3009091F4000196837090709093F5
:10252000F4008093F3008FEF9FEBA6E08150904082
:10253000A040E1F700C000008091970090919800C2
:1025400001969093980080939700809197009091C6
:10255000980081309105F1F50E94FB0A80911201EB
:1025600090911301009739F40E94930E0E94220F5C
:102570000E94A20E26C08091120190911301813019
:10258000910561F40E94980E8091AF009091B00087
:10259000B7010E94400D0E94A20E13C0809112014B
:1025A000909113018230910561F40E949D0E8091FB
:1025B000AF009091B00062E070E00E94400D0E9478
:1025C000A20E109298001092970080E090E00E9476
:1025D0009B0939CF809197009091980082309105A6
:1025E00009F031CF0E949A0F8130910509F02BCF6D
:1025F00080919D0090919E00019690939E00809303
:102600009D000E9491000E94BA0F0E9482085CB84F
:10261000D6011196FC92EE920E949A0F0097E1F378
:102620000E94910010CF80919D0090919E00823079
:10263000910509F0C9C0809197009091980000978A
:1026400009F040C08091990090919A000097C9F4D8
:1026500080918F0090919000009729F483E290E0A0
:102660000E941B06F0CE8091870090918800880F11
:10267000991F8C0F9D1FFC01808191810E941B0678
:10268000E2CE8091990090919A008233910509F0F1
:10269000DACE80918D0090918E00009729F489E226
:1026A00090E00E941B06CFCE809187009091880019
:1026B000880F991F8A0D9B1DDC018D919C910E94B2
:1026C0001B06C1CE809197009091980081309105B2
:1026D000F1F50E94930E0E94220F0E94A20E10920A
:1026E0009800109297008091990090919A0000971D
:1026F00099F480918F0090919000019790939000B1
:1027000080938F008091870090918800019690932C
:1027100088008093870097CE8091990090919A00CD
:102720008233910509F08FCE80918D0090918E00BB
:10273000019790938E0080938D00809187009091F7
:102740008800019690938800809387007CCE8091CA
:102750009700909198008230910509F074CE0E9404
:102760009A0F8130910509F06ECE0E9491000E946F
:10277000D21080919B0090919C00019690939C00B8
:1027800080939B0010929A001092990010928800FA
:1027900010928700109298001092970080919D00EF
:1027A00090919E00019690939E0080939D000E94C0
:1027B00082085CB8F601F182E0820E949A0F0097CD
:1027C000E1F30E9491003FCE80919D0090919E0088
:1027D0008330910509F0C6C08091970090919800D0
:1027E000009709F040C08091990090919A0000975D
:1027F000C9F480918B0090918C00009729F487E0B8
:1028000090E00E94CE041FCE8091870090918800B6
:10281000880F991F800F911FDC018D919C910E9460
:10282000CE0411CE8091990090919A008233910547
:1028300009F009CE8091890090918A00009729F4CF
:102840008DE090E00E94CE04FECD809187009091B3
:102850008800880F991F860D971DFC01808191814A
:102860000E94CE04F0CD8091970090919800813025
:102870009105F1F50E94930E0E94220F0E94A20E74
:1028800010929800109297008091990090919A0070
:10289000009799F480918B0090918C000197909310
:1028A0008C0080938B008091870090918800019626
:1028B0009093880080938700C6CD80919900909175
:1028C0009A008233910509F0BECD809189009091E4
:1028D0008A00019790938A008093890080918700F5
:1028E0009091880001969093880080938700ABCDEB
:1028F00080919700909198008230910509F0A3CDC6
:102900000E949A0F8130910509F09DCD0E9491009F
:1029100080919B0090919C00019690939C008093E5
:102920009B0010929A0010929900109288001092C9
:102930008700109298001092970080919D009091CE
:102940009E00019690939E0080939D005CB8D601F6
:102950001196FC92EE920E949A0F0097E1F30E946A
:10296000910071CD80919D0090919E0084309105E1
:1029700061F40E94E00380919D0090919E00019679
:1029800090939E0080939D005ECD80919D009091DC
:102990009E008530910509F056CD0E9455018FEFBC
:1029A0009FEFA6E881509040A040E1F700C00000F2
:1029B0000E945901DF91CF911F910F91FF90EF90ED
:1029C000DF90CF90BF90AF909F908F907F906F904F
:1029D0005F9008955058BB27AA270ED04DC13ED115
:1029E00030F043D120F031F49F3F11F41EF433C195
:1029F0000EF4E095E7FB29C1E92F4FD180F3BA1718
:102A0000620773078407950718F071F49EF567C194
:102A10000EF4E0950B2EBA2FA02D0B01B9019001F9
:102A20000C01CA01A0011124FF27591B99F0593F3D
:102A300050F4503E68F11A16F040A22F232F342F85
:102A40004427585FF3CF469537952795A795F040D3
:102A50005395C9F77EF41F16BA0B620B730B840BE8
:102A6000BAF09150A1F0FF0FBB1F661F771F881FA0
:102A7000C2F70EC0BA0F621F731F841F48F48795F8
:102A800077956795B795F7959E3F08F0B3CF9395E7
:102A9000880F08F09927EE0F9795879508950CD029
:102AA000EBC0E3D040F0DAD030F021F45F3F19F012
:102AB000CCC0511115C1CFC0F0D098F39923C9F300
:102AC0005523B1F3951B550BBB27AA276217730734
:102AD000840738F09F5F5F4F220F331F441FAA1FE8
:102AE000A9F333D00E2E3AF0E0E830D091505040A8
:102AF000E695001CCAF729D0FE2F27D0660F771F56
:102B0000881FBB1F261737074807AB07B0E809F037
:102B1000BB0B802DBF01FF2793585F4F2AF09E3FCC
:102B2000510568F092C0DCC05F3FECF3983EDCF3E7
:102B3000869577956795B795F7959F5FC9F7880F45
:102B4000911D9695879597F90895E1E0660F771F97
:102B5000881FBB1F621773078407BA0720F0621B28
:102B6000730B840BBA0BEE1F88F7E095089504D021
:102B70006894B111B5C0089598D088F09F5790F02F
:102B8000B92F9927B751A0F0D1F0660F771F881F92
:102B9000991F1AF0BA95C9F712C0B13081F09FD0D1
:102BA000B1E008959CC0672F782F8827B85F39F06F
:102BB000B93FCCF3869577956795B395D9F73EF4F1
:102BC00090958095709561957F4F8F4F9F4F089599
:102BD000E89409C097FB3EF49095809570956195B7
:102BE0007F4F8F4F9F4F9923A9F0F92F96E9BB276D
:102BF0009395F695879577956795B795F111F8CFE9
:102C0000FAF4BB0F11F460FF1BC06F5F7F4F8F4F53
:102C10009F4F16C0882311F096E911C0772321F049
:102C20009EE8872F762F05C0662371F096E8862FE1
:102C300070E060E02AF09A95660F771F881FDAF738
:102C4000880F9695879597F9089597F99F6780E87B
:102C500070E060E008959FEF80EC089500240A94EE
:102C60001616170618060906089500240A94121667
:102C70001306140605060895092E0394000C11F49A
:102C8000882352F0BB0F40F4BF2B11F460FF04C047
:102C90006F5F7F4F8F4F9F4F089557FD9058440FA0
:102CA000551F59F05F3F71F04795880F97FB991FAB
:102CB00061F09F3F79F08795089512161306140668
:102CC000551FF2CF4695F1DF08C0161617061806F5
:102CD000991FF1CF86957105610508940895E894D0
:102CE000BB2766277727CB0197F908950BD0C4CF70
:102CF000B5DF28F0BADF18F0952309F0A6CFABCFE7
:102D00001124EECFCADFA0F3959FD1F3950F50E0C9
:102D1000551F629FF001729FBB27F00DB11D639F8D
:102D2000AA27F00DB11DAA1F649F6627B00DA11D33
:102D3000661F829F2227B00DA11D621F739FB00DD9
:102D4000A11D621F839FA00D611D221F749F332749
:102D5000A00D611D231F849F600D211D822F762FE2
:102D60006A2F11249F5750408AF0E1F088234AF0DF
:102D7000EE0FFF1FBB1F661F771F881F915050402B
:102D8000A9F79E3F510570F060CFAACF5F3FECF3EB
:102D9000983EDCF3869577956795B795F795E79517
:102DA0009F5FC1F7FE2B880F911D9695879597F928
:102DB0000895AA1BBB1B51E107C0AA1FBB1FA61782
:102DC000B70710F0A61BB70B881F991F5A95A9F7D4
:102DD00080959095BC01CD01089597FB092E07269B
:102DE0000AD077FD04D0E5DF06D000201AF47095F4
:102DF00061957F4F0895F6F7909581959F4F0895BF
:042E0000F894FFCF74
:0C2E04000A23233333B33ECDCC4C3D00F9
:00000001FF
