:100000000C942A000C9447000C9447000C94470071
:100010000C9447000C9447000C9447000C94470044
:100020000C9447000C9447000C9447000C94470034
:100030000C9447000C9447000C9447000C94470024
:100040000C9447000C9447000C9447000C94470014
:100050000C94470011241FBECFE5D4E0DEBFCDBF16
:1000600010E0A0E6B0E0ECE5F1E002C005900D92F2
:10007000A036B107D9F710E0A0E6B0E001C01D92AC
:10008000A036B107E1F70E949B000C94AC000C94E1
:10009000000084B3876084BB85B3887F85BB0895E7
:1000A0000E94490008950E945000089585B3887FFA
:1000B000816085BB089585B3887F826085BB089584
:1000C00085B3887F846085BB089585B3887F85BBB1
:1000D0000895009771F40E9456008FEF9FE7A0E704
:1000E00081509040A040E1F700C000000E946500F0
:1000F00008958130910571F40E945B008FEF9FE7B6
:10010000A0E781509040A040E1F700C000000E94AD
:10011000650008958230910569F40E9460008FEFB8
:100120009FE7A0E781509040A040E1F700C00000A9
:100130000E94650008950E94530080E090E00E94B4
:10014000690081E090E00E94690082E090E00E94F6
:0C015000690080E090E00895F894FFCF73
:00000001FF
