:1000000071C0000081C000007FC000007DC0000002
:100010007BC0000079C0000077C0000075C0000000
:1000200073C0000071C000006FC000006DC0000010
:100030006BC0000069C0000067C0000065C0000020
:1000400063C0000061C000005FC000005DC0000030
:100050005BC0000059C0000057C0000055C0000040
:1000600053C0000052C000004FC000004DC000004F
:100070004BC0000049C0000047C0000045C0000060
:1000800043C0000041C000003FC000003DC0000070
:100090003BC0000039C0000037C0000035C0000080
:1000A00033C0000031C000002FC000002DC0000090
:1000B0002BC0000029C0000027C0000025C00000A0
:1000C00023C0000021C000001FC000001DC00000B0
:1000D0001BC0000019C0000017C0000015C00000C0
:1000E00013C0000011241FBECFEFD1E2DEBFCDBF91
:1000F00000E00CBF22E0A0E0B2E001C01D92A13000
:10010000B207E1F73FD062C07BCF1F920F920FB6CC
:100110000F9211248F938091C600809300028093E8
:10012000C60080910002883311F486E082B9809184
:100130000002823311F489E082B980910002843395
:1001400011F485E082B980910002863311F48AE0CF
:1001500082B980910002853309F412B880910002BF
:10016000873319F486B1886088B980910002893399
:1001700019F486B1877F88B98F910F900FBE0F90C9
:100180001F901895F89481B18F6081B982B1807FFA
:1001900082B980910A01886180930A0180910B01E4
:1001A000886180930B013B9A43981092C100109292
:1001B000C00086E08093C2008FE58093C400109257
:1001C000C50088E98093C1007894FFCFF894FFCFF1
:00000001FF
