:100000000C942A000C94E0010C94C9010C94470054
:100010000C9447000C9447000C9447000C94470044
:100020000C9447000C942E010C9447000C949501FD
:100030000C9447000C9447000C9447000C94470024
:100040000C9447000C9447000C9447000C94470014
:100050000C94470011241FBECFE5D4E0DEBFCDBF16
:1000600010E0A0E6B0E0E2E8F0E202C005900D92F8
:10007000AC36B107D9F710E0ACE6B0E001C01D9294
:10008000A539B107E1F70E94E60A0C943F100C94E1
:10009000000084B38FEF84BB85B385BB81B38263DB
:1000A00081BB08951ABA1BBA08951EBC8FEF8DBD8F
:1000B00091E09CBD1BBC8ABD19BC88BD17BC86BD28
:1000C00081EA8FBD8DE08EBD08958F9A82E083BF57
:1000D0008BEE82BF81E089BF089516B880E287B9B0
:1000E00080E888B986E886B9089587B38F6087BBB2
:1000F00088B3807F88BB81B3806381BB82B3806318
:1001000082BB08951AB81BB886E880BD8FE289B912
:1001100010BC88E98AB908958A98929A08958B98B4
:10012000939A0895A39AAB98089584B3876F84BB7C
:1001300085B3807885BB089585B7886085BF8BB708
:1001400080688BBF089585B7826085BF8BB7806458
:100150008BBF08950E9475000E9492000E94820049
:100160000E948C000E948F000E9495000E94520005
:100170000E9449000895F8940E94AA000E94550028
:100180000E946D000E94A3000E949C000E946500D6
:10019000789408958770806287B9369A349BFECF31
:1001A00085B1349A089583B3886085BB089583B37D
:1001B000877F85BB08950E94D3008FEF9FE7A6E15C
:1001C00081509040A040E1F700C000000E94D7009D
:1001D000089585B3887F816085BB089585B3887F46
:1001E000826085BB089585B3887F846085BB089550
:1001F00085B3887F85BB0895009771F40E94E9005C
:100200008FEF9FE7A6E181509040A040E1F700C04A
:1002100000000E94F80008958130910571F40E9459
:10022000EE008FEF9FE7A6E181509040A040E1F7FC
:1002300000C000000E94F80008958230910569F422
:100240000E94F3008FEF9FE7A6E181509040A0400D
:10025000E1F700C000000E94F80008951F920F927D
:100260000FB60F9211248F939F9381E088BF8091E6
:1002700091008F5F80939100809191008D3710F4F1
:100280008BEE82BF9091910080916E00981709F4D7
:100290009798809191008D3720F087E982BF84E0A4
:1002A00083BF80919100823841F480E882BB82E074
:1002B00083BF8BEE82BF109291009F918F910F9020
:1002C0000FBE0F901F90189590E09C01220F331FD6
:1002D000220F331F820F931F69E070E00E941810F5
:1002E000862FE9E9F5E13197F1F700C0875E0895BF
:1002F00088E20E94640180936E008FEF9FE3A2E08A
:1003000081509040A040E1F700C0000086E90E94C3
:10031000640180936E008FEF9FEBA1E281509040CB
:10032000A040E1F700C0000008951F920F920FB6A1
:100330000F9211248F939F938CB18093940080919E
:100340009400882331F481E090E0909389008093B9
:10035000880080919400803831F481E090E090939F
:100360008B0080938A009F918F910F900FBE0F900A
:100370001F9018951BBC8ABD19BC68BD089598B321
:10038000907F8F70982B98BB089580E00E94BF01EA
:1003900008951F920F920FB60F9211248F939F937F
:1003A00080917300909174000196909374008093F3
:1003B00073009F918F910F900FBE0F901F90189513
:1003C0001F920F920FB60F9211248F939F93AF93AA
:1003D000BF9380916F0090917000A0917100B091D7
:1003E00072000196A11DB11D80936F009093700063
:1003F000A0937100B0937200BF91AF919F918F91C4
:100400000F900FBE0F901F901895BC0180E090E0F8
:100410000E94270F22E538EB4EE451E40E948E0E35
:10042000262F372FF82FE92F462F572F682F792F98
:1004300040937700509378006093790070937A002E
:10044000822F932FAF2FBE2FBC01CD010E94FB0E38
:10045000DC01CB01909376008093750010927400BC
:10046000109273000E94A6022091730030917400D4
:1004700080917500909176008217930798F70E94FB
:10048000C50108951F93CF93DF93BC0180E090E0F6
:100490000E94270F2AE939E94DE451E40E948E0EAB
:1004A000262F372FF82FE92F462F572F682F792F18
:1004B00040937700509378006093790070937A00AE
:1004C000822F932FAF2FBE2FBC01CD010E94FB0EB8
:1004D000DC01CB01FC0190937600809375001092B3
:1004E0006F001092700010927100109272001092C2
:1004F000740010927300D1E010E0AC0160E070E095
:10050000209173003091740080916F009091700081
:10051000A0917100B0917200CD2F2E173F0708F403
:10052000C12FCC2349F42D2F84179507A607B707B1
:1005300008F4212F222321F30E94C501DF91CF91DE
:100540001F91089586E00E94BF0108958F929F92A7
:10055000AF92BF92CF92DF92EF92FF920F931F93D1
:10056000CF93DF9383E00E94CA0080937D0084E0F4
:100570000E94CA0080937C0085E00E94CA0080939C
:100580007B0090E020917D00821B91099093930065
:10059000809392006091920070919300C0906700E8
:1005A000D0906800E0906900F0906A00C0919200DD
:1005B000D091930000917E0010917F0080906300A5
:1005C00090906400A0906500B0906600882777FD49
:1005D0008095982F0E94290FA70196010E94B50FC0
:1005E0006B017C01BE01601B710B882777FD809534
:1005F000982F0E94290FA50194010E94B50F9B011D
:10060000AC01C701B6010E942A0E0E94F60E80912D
:1006100092009091930090937F0080937E000091D0
:10062000620010E080916100EB01C80FD11D061B34
:10063000170B0932110514F008E210E0C932D10598
:1006400014F0C8E2D0E00E94A202CE01DD2314F42F
:1006500080E090E0B801112314F460E070E00E94A3
:10066000BA01DF91CF911F910F91FF90EF90DF9032
:10067000CF90BF90AF909F908F90089589E00E9497
:10068000BF01089585E00E94BF0108958AE00E949D
:10069000BF01089584E00E94BF01089582E00E9496
:1006A000BF01089581E00E94BF01089588E00E9483
:1006B000BF0108958FE00E94BF010895CF93DF939B
:1006C000EC010E94A202CE010E940502DF91CF91AF
:1006D0000895CF93DF93EC010E944203CE010E9464
:1006E0004202DF91CF910895CF93DF93EC010E94F6
:1006F0004603CE010E944202DF91CF9108950097F8
:1007000099F58CE390E00E94690384E00E94CA009E
:1007100080937C0083E261E20E94BA0180917C00B8
:100720008C3348F40E94420384E00E94CA00809304
:100730007C008C33B8F30E94C50180918F009091AA
:100740009000009739F483E090E0909390008093BC
:100750008F00089580918F00909190000197909361
:10076000900080938F0008958CE390E00E947403C2
:1007700084E00E94CA0080937C0081E263E20E94D0
:10078000BA0180917C008C3348F40E94460384E0D7
:100790000E94CA0080937C008C33B8F30E94C5018C
:1007A00080918F009091900001968370907090934B
:1007B000900080938F000895CF93DF93EC010E9407
:1007C000C50180918F0090919000C817D90759F00A
:1007D00081E090E00E947F0380918F0090919000D3
:1007E000C817D907A9F7DF91CF91089580918F009D
:1007F00090919000009751F480918C0090918D0021
:10080000079790938D0080938C00089580918F00BE
:10081000909190008130910551F480918C009091DD
:100820008D00019690938D0080938C0008958091A7
:100830008F00909190008230910551F480918C004E
:1008400090918D00079690938D0080938C00089571
:1008500080918F00909190008330910549F48091B0
:100860008C0090918D00019790938D0080938C0067
:10087000089580918600909187008130910599F4C8
:1008800080918800909189008130910579F42091C0
:100890008A0030918B0081E090E02130310541F0F9
:1008A00080E090E0089580E090E0089580E090E09E
:1008B000089510928700109286001092890010927D
:1008C000880010928B0010928A0008956F927F9298
:1008D0008F929F92AF92BF92CF92DF92EF92FF9250
:1008E0000F931F93CF93DF93662477249FC083E0F9
:1008F0000E94CA0080937D0084E00E94CA00809319
:100900007C0085E00E94CA0080937B0090E02091EB
:100910007D00821B910990939300809392006091D7
:10092000920070919300C0906700D0906800E090B2
:100930006900F0906A00C0919200D09193000091FC
:100940007E0010917F008090630090906400A090E2
:100950006500B0906600882777FD8095982F0E94EB
:10096000290FA70196010E94B50F6B017C01BE0102
:10097000601B710B882777FD8095982F0E94290FA7
:10098000A50194010E94B50F9B01AC01C701B601FE
:100990000E942A0E0E94F60E809192009091930080
:1009A00090937F0080937E000091620010E0809120
:1009B0006100EB01C80FD11D061B170B0932110591
:1009C00014F008E210E0C932D10514F0C8E2D0E01A
:1009D0000E94A202CE01DD230CF4C301B801112351
:1009E0000CF4B3010E94BA0180917C008F36F0F0C4
:1009F00080917D008F36D0F080917B008F36B0F0F3
:100A00008FEF9FE7A6E181509040A040E1F700C042
:100A100000000E94C5018FEF9FE3A2E0815090404B
:100A2000A040E1F700C000000E94F60380918C0016
:100A300090918D008B31910509F059CFDF91CF91C5
:100A40001F910F91FF90EF90DF90CF90BF90AF90EC
:100A50009F908F907F906F9008956F927F928F926A
:100A60009F92AF92BF92CF92DF92EF92FF920F933D
:100A70001F93CF93DF93662477249FC083E00E9467
:100A8000CA0080937D0084E00E94CA0080937C00AD
:100A900085E00E94CA0080937B0090E020917D0059
:100AA000821B910990939300809392006091920031
:100AB00070919300C0906700D0906800E09069004A
:100AC000F0906A00C0919200D091930000917E0056
:100AD00010917F008090630090906400A09065006A
:100AE000B0906600882777FD8095982F0E94290F87
:100AF000A70196010E94B50F6B017C01BE01601B2E
:100B0000710B882777FD8095982F0E94290FA501EA
:100B100094010E94B50F9B01AC01C701B6010E9470
:100B20002A0E0E94F60E809192009091930090936D
:100B30007F0080937E000091620010E08091610050
:100B4000EB01C80FD11D061B170B0932110514F05C
:100B500008E210E0C932D10514F0C8E2D0E00E94EA
:100B6000A202CE01DD230CF4C301B80111230CF461
:100B7000B3010E94BA0180917C008F36F0F0809121
:100B80007D008F36D0F080917B008F36B0F08FEFF4
:100B90009FE7A6E181509040A040E1F700C000002F
:100BA0000E94C5018FEF9FE3A2E081509040A040DA
:100BB000E1F700C000000E94F60380918C00909144
:100BC0008D008932910509F059CFDF91CF911F91A6
:100BD0000F91FF90EF90DF90CF90BF90AF909F90DC
:100BE0008F907F906F9008956F927F928F929F92D7
:100BF000AF92BF92CF92DF92EF92FF920F931F932B
:100C0000CF93DF9366247724B1C083E00E94CA00AB
:100C100080937D0084E00E94CA0080937C0085E080
:100C20000E94CA0080937B0090E020917D00821B8F
:100C3000910990939300809392006091920070913B
:100C40009300C0906700D0906800E0906900F09039
:100C50006A00C0919200D091930000917E001091A3
:100C60007F008090630090906400A0906500B09039
:100C70006600882777FD8095982F0E94290FA7018D
:100C800096010E94B50F6B017C01BE01601B710BC8
:100C9000882777FD8095982F0E94290FA501940140
:100CA0000E94B50F9B01AC01C701B6010E942A0E3C
:100CB0000E94F60E809192009091930090937F0095
:100CC00080937E000091620010E080916100EB0152
:100CD000C80FD11D061B170B0932110514F008E2CD
:100CE00010E0C932D10514F0C8E2D0E00E94A2029F
:100CF000CE01DD230CF4C301B80111230CF4B301C0
:100D00000E94BA0180917C008F3680F180917D0035
:100D10008F3660F180917B008F3640F18FEF9FEB33
:100D2000AFE081509040A040E1F700C000000E9479
:100D3000C5018FEF9FE3A2E081509040A040E1F712
:100D400000C000000E94F60380918C0090918D00FD
:100D50008832910539F080918C0090918D008C3013
:100D6000910521F481E090E00E947F0380918C0046
:100D700090918D008D30910509F047CFDF91CF9193
:100D80001F910F91FF90EF90DF90CF90BF90AF90A9
:100D90009F908F907F906F9008956F927F928F9227
:100DA0009F92AF92BF92CF92DF92EF92FF920F93FA
:100DB0001F93CF93DF93662477249FC083E00E9424
:100DC000CA0080937D0084E00E94CA0080937C006A
:100DD00085E00E94CA0080937B0090E020917D0016
:100DE000821B9109909393008093920060919200EE
:100DF00070919300C0906700D0906800E090690007
:100E0000F0906A00C0919200D091930000917E0012
:100E100010917F008090630090906400A090650026
:100E2000B0906600882777FD8095982F0E94290F43
:100E3000A70196010E94B50F6B017C01BE01601BEA
:100E4000710B882777FD8095982F0E94290FA501A7
:100E500094010E94B50F9B01AC01C701B6010E942D
:100E60002A0E0E94F60E809192009091930090932A
:100E70007F0080937E000091620010E0809161000D
:100E8000EB01C80FD11D061B170B0932110514F019
:100E900008E210E0C932D10514F0C8E2D0E00E94A7
:100EA000A202CE01DD230CF4C301B80111230CF41E
:100EB000B3010E94BA0180917C008F36F0F08091DE
:100EC0007D008F36D0F080917B008F36B0F08FEFB1
:100ED0009FEBAFE081509040A040E1F700C00000E0
:100EE0000E94C5018FEF9FE3A2E081509040A04097
:100EF000E1F700C000000E94F60380918C00909101
:100F00008D008730910509F059CF82E390E00E946F
:100F10005E03DF91CF911F910F91FF90EF90DF90D3
:100F2000CF90BF90AF909F908F907F906F900895DB
:100F30008F929F92AF92BF92CF92DF92EF92FF92E9
:100F40000F931F93CF93DF9383E00E94CA00809397
:100F50007D0084E00E94CA0080937C0085E00E94AE
:100F6000CA0080937B0090E020917D00821B910954
:100F700090939300809392006091920070919300FF
:100F8000C0906700D0906800E0906900F0906A001F
:100F9000C0919200D091930000917E0010917F004B
:100FA0008090630090906400A0906500B09066000F
:100FB000882777FD8095982F0E94290FA701960119
:100FC0000E94B50F6B017C01BE01601B710B88276D
:100FD00077FD8095982F0E94290FA50194010E940A
:100FE000B50F9B01AC01C701B6010E942A0E0E94F9
:100FF000F60E809192009091930090937F008093E1
:101000007E000091620010E080916100EB01C80F4A
:10101000D11D061B170B0932110514F008E210E070
:10102000C932D10514F0C8E2D0E00E94A202CE017C
:10103000DD2314F480E090E0B801112314F460E0A3
:1010400070E00E94BA0180917C008F3608F477C06E
:1010500080917D008F3608F472C080917B008F36BE
:1010600008F46DC08FEF9FE3ABE081509040A0404B
:10107000E1F700C000000E94C5018FEF9FE3A2E0EE
:1010800081509040A040E1F700C000000E94F603AC
:1010900080918C0090918D008531910579F481E0EB
:1010A00090E00E94DC0382E390E0909383008093C1
:1010B0008200109281001092800041C080918C00CB
:1010C00090918D008B31910539F582E090E00E947E
:1010D000DC030E94C5018FEF9FE3A2E081509040A6
:1010E000A040E1F700C0000083E090E09093810011
:1010F000809380008FEF9FE7A0E781509040A04051
:10110000E1F700C0000080E48CB981E090E09093AA
:1011100087008093860013C0109281001092800097
:101120000E94A2028EE16EE10E94BA018FEF9FEF52
:10113000A8E081509040A040E1F700C00000DF919E
:10114000CF911F910F91FF90EF90DF90CF90BF90C4
:10115000AF909F908F9008958F929F92AF92BF9281
:10116000CF92DF92EF92FF920F931F93CF93DF9373
:1011700083E00E94CA0080937D0084E00E94CA0040
:1011800080937C0085E00E94CA0080937B0090E001
:1011900020917D00821B910990939300809392008F
:1011A0006091920070919300C0906700D0906800A9
:1011B000E0906900F0906A00C0919200D091930095
:1011C00000917E0010917F008090630090906400F9
:1011D000A0906500B0906600882777FD8095982FD5
:1011E0000E94290FA70196010E94B50F6B017C0197
:1011F000BE01601B710B882777FD8095982F0E9498
:10120000290FA50194010E94B50F9B01AC01C701F4
:10121000B6010E942A0E0E94F60E809192009091D3
:10122000930090937F0080937E000091620010E015
:1012300080916100EB01C80FD11D061B170B09320D
:10124000110514F008E210E0C932D10514F0C8E22B
:10125000D0E00E94A202CE01DD2314F480E090E0F1
:10126000B801112314F460E070E00E94BA0180918B
:101270007C008F3608F479C080917D008F3608F4A9
:1012800074C080917B008F3608F46FC08FEF9FE3AE
:10129000ABE081509040A040E1F700C000000E9408
:1012A000C5018FEF9FE3A2E081509040A040E1F79D
:1012B00000C000000E94F60380918C0090918D0088
:1012C0008332910589F481E090E00E94DC0382E39F
:1012D00090E0909383008093820081E090E090936F
:1012E00081008093800041C080918C0090918D009E
:1012F0008932910539F583E090E00E94DC030E9479
:10130000C5018FEF9FE3A2E081509040A040E1F73C
:1013100000C0000082E090E0909381008093800004
:101320008FEF9FE7A0E781509040A040E1F700C019
:10133000000080E48CB981E090E090938700809376
:10134000860013C010928100109280000E94A202B9
:101350008EE16EE10E94BA018FEF9FEFA8E081500D
:101360009040A040E1F700C00000DF91CF911F91B5
:101370000F91FF90EF90DF90CF90BF90AF909F9034
:101380008F9008958F929F92AF92BF92CF92DF92EB
:10139000EF92FF920F931F93CF93DF9383E00E940E
:1013A000CA0080937D0084E00E94CA0080937C0084
:1013B00085E00E94CA0080937B0090E020917D0030
:1013C000821B910990939300809392006091920008
:1013D00070919300C0906700D0906800E090690021
:1013E000F0906A00C0919200D091930000917E002D
:1013F00010917F008090630090906400A090650041
:10140000B0906600882777FD8095982F0E94290F5D
:10141000A70196010E94B50F6B017C01BE01601B04
:10142000710B882777FD8095982F0E94290FA501C1
:1014300094010E94B50F9B01AC01C701B6010E9447
:101440002A0E0E94F60E8091920090919300909344
:101450007F0080937E000091620010E08091610027
:10146000EB01C80FD11D061B170B0932110514F033
:1014700008E210E0C932D10514F0C8E2D0E00E94C1
:10148000A202CE01DD2314F480E090E0B801112324
:1014900014F460E070E00E94BA0180917C008F3605
:1014A00008F487C080917D008F3608F482C0809157
:1014B0007B008F3608F47DC08FEF9FE3ABE0815057
:1014C0009040A040E1F700C000000E94C5018FEFEE
:1014D0009FE3A2E081509040A040E1F700C00000EF
:1014E0000E94F60380918C0090918D0087309105C9
:1014F00079F481E090E00E94DC0382E390E0909335
:10150000830080938200109281001092800051C06D
:1015100080918C0090918D008D30910511F583E0C4
:1015200090E00E94DC030E94C5010E94DB008FEF67
:101530009FEFACE281509040A040E1F700C0000076
:101540000E94DB0082E090E0909381008093800015
:1015500080E48CB981E090E09093870080938600CE
:1015600028C080918C0090918D008830910571F495
:1015700080918200909183008233910539F481E05B
:1015800090E0909381008093800013C010928100BE
:10159000109280000E94A2028EE16EE10E94BA01C8
:1015A0008FEF9FEFA8E081509040A040E1F700C08E
:1015B0000000DF91CF911F910F91FF90EF90DF908E
:1015C000CF90BF90AF909F908F900895EF92FF9231
:1015D0000F931F93CF930E94BB000E94650084EB82
:1015E0000E94640180936E008FEF9FEBAEE4815008
:1015F0009040A040E1F700C00000109285001092DA
:101600008400109281001092800081E090E090931D
:10161000900080938F0085E190E090938D008093FF
:101620008C0010928300109282008EE16EE10E9485
:10163000BA01C0E40F2EF6E8EF2EF0E0FF2EF02DF9
:1016400001E010E080918400909185000097E1F422
:101650000E94660480918400909185000196909389
:1016600085008093840083E090E00E94DC030E9468
:10167000C501CCB9D70111961C930E930E94390471
:101680000097E1F30E9459048091840090918500B5
:101690008130910509F0EFC1809180009091810027
:1016A000009709F089C180918C0090918D008A315A
:1016B000910509F046C080918200909183000097C7
:1016C00009F03FC082E890E00E945E0383E261E29D
:1016D0000E94BA0181E790E00E94740380918F001C
:1016E00090919000019683709070909390008093F9
:1016F0008F008FEF9FE3ABE081509040A040E1F777
:1017000000C0000082E090E00E94FC008FEF9FE3A9
:10171000ABE081509040A040E1F700C0000081E2C2
:1017200063E20E94BA0180E090E00E947F038FEFA5
:101730009FEBA6E081509040A040E1F700C0000080
:1017400099C080918C0090918D008931910509F0AC
:1017500044C080918200909183000097F1F582E867
:1017600090E00E945E0383E261E20E94BA0181E799
:1017700090E00E94740380918F00909190000196F8
:10178000837090709093900080938F008FEF9FE311
:10179000ABE081509040A040E1F700C00000C801DC
:1017A0000E94FC008FEF9FE3ABE081509040A0408F
:1017B000E1F700C0000081E263E20E94BA0180E02C
:1017C00090E00E947F038FEF9FEBA6E08150904056
:1017D000A040E1F700C000004DC080918C009091C6
:1017E0008D008831910509F045C08091820090916B
:1017F000830082339105F1F582E890E00E945E0358
:1018000083E261E20E94BA0181E790E00E947403E2
:1018100080918F00909190000196837090709093CA
:10182000900080938F008FEF9FE3ABE0815090405A
:10183000A040E1F700C0000082E090E00E94FC00C0
:101840008FEF9FE3ABE081509040A040E1F700C0F4
:10185000000081E263E20E94BA0180E090E00E9411
:101860007F038FEF9FEBA6E081509040A040E1F70F
:1018700000C0000080918C0090918D008531910511
:1018800009F044C0809182009091830082339105D9
:10189000E9F582E890E00E945E0383E261E20E9443
:1018A000BA0181E790E00E94740380918F009091CB
:1018B00090000196837090709093900080938F00B9
:1018C0008FEF9FE3ABE081509040A040E1F700C074
:1018D000000080918000909181000196909381009A
:1018E000809380000E94E90081E263E20E94BA01D5
:1018F00080E090E00E947F038FEF9FEBA6E0815095
:101900009040A040E1F700C000009CCE80918C0088
:1019100090918D008A31910509F044C08091820038
:101920009091830082339105E9F582E890E00E946E
:101930005E0383E261E20E94BA0181E790E00E94C7
:10194000740380918F009091900001968370907045
:101950009093900080938F008FEF9FE3ABE08150D6
:101960009040A040E1F700C000008091800090917D
:101970008100019690938100809380000E94E9008D
:1019800081E263E20E94BA0180E090E00E947F035E
:101990008FEF9FEBA6E081509040A040E1F700C0A0
:1019A000000050CE8091800090918100029690932B
:1019B00081008093800046CE8091800090918100CC
:1019C00081309105C9F40E94C5018FEF9FE7A6E120
:1019D00081509040A040E1F700C000000E947801D3
:1019E0000E94F80080918000909181000196909370
:1019F00081008093800026CE8091800090918100AC
:101A00008230910519F40E9498071CCE80918000C5
:101A1000909181008330910509F014CE0E94390421
:101A20008130910509F00ECE0E9459048091840006
:101A30009091850001969093850080938400109288
:101A400083001092820010928100109280000E9408
:101A50002D050E94C50183E090E00E94DC03CCB913
:101A6000D70111961C930E930E9439040097E1F35D
:101A70000E945904E7CD80918400909185008230C6
:101A8000910509F05DC080918000909181000097E0
:101A900019F40E94AC08D6CD80918000909181000D
:101AA00081309105D1F482E890E00E945E030E94AB
:101AB000C5010E94E9008FEF9FE7A6E181509040A9
:101AC000A040E1F700C000000E9478010E94F800E9
:101AD0001092810010928000B5CD8091800090918D
:101AE00081008230910509F0ADCD0E94390481302A
:101AF000910509F0A7CD0E9459048091840090912E
:101B00008500019690938500809384001092830055
:101B10001092820010928100109280000E94F405C1
:101B200083E090E00E94DC03CCB9D70111961C93AE
:101B30000E930E9439040097E1F30E94590482CD6C
:101B400080918400909185008330910509F052C006
:101B50008091800090918100009719F40E94C20941
:101B600071CD809180009091810081309105D1F4F8
:101B700082E890E00E945E030E94C5010E94E90095
:101B80008FEF9FE7A6E181509040A040E1F700C0B1
:101B900000000E9478010E94F800109281001092CB
:101BA000800050CD8091800090918100823091051D
:101BB00009F048CD0E9439048130910509F042CDE9
:101BC0008091840090918500019690938500809388
:101BD0008400109283001092820010928100109273
:101BE00080000E94CD0683E090E00E94DC030E940A
:101BF000590428CD8091840090918500843091050E
:101C000009F020CD0E94DB008FEF9FE7A6E1815015
:101C10009040A040E1F700C000000E94DB008FEF81
:101C20009FE7A6E181509040A040E1F700C000008E
:101C30000E94DB008FEF9FE7A6E181509040A0401B
:101C4000E1F700C00000CF911F910F91FF90EF903E
:101C500008955058BB27AA270ED04DC13ED130F071
:101C600043D120F031F49F3F11F41EF433C10EF440
:101C7000E095E7FB29C1E92F4FD180F3BA1762073E
:101C800073078407950718F071F49EF567C10EF489
:101C9000E0950B2EBA2FA02D0B01B90190010C017C
:101CA000CA01A0011124FF27591B99F0593F50F494
:101CB000503E68F11A16F040A22F232F342F4427EC
:101CC000585FF3CF469537952795A795F0405395E4
:101CD000C9F77EF41F16BA0B620B730B840BBAF0B4
:101CE0009150A1F0FF0FBB1F661F771F881FC2F71F
:101CF0000EC0BA0F621F731F841F48F48795779533
:101D00006795B795F7959E3F08F0B3CF9395880FE9
:101D100008F09927EE0F9795879508950CD0EBC0A2
:101D2000E3D040F0DAD030F021F45F3F19F0CCC0BE
:101D3000511115C1CFC0F0D098F39923C9F35523A1
:101D4000B1F3951B550BBB27AA27621773078407AE
:101D500038F09F5F5F4F220F331F441FAA1FA9F364
:101D600033D00E2E3AF0E0E830D091505040E69556
:101D7000001CCAF729D0FE2F27D0660F771F881FB7
:101D8000BB1F261737074807AB07B0E809F0BB0BA6
:101D9000802DBF01FF2793585F4F2AF09E3F5105CA
:101DA00068F092C0DCC05F3FECF3983EDCF38695B0
:101DB00077956795B795F7959F5FC9F7880F911D40
:101DC0009695879597F90895E1E0660F771F881F2C
:101DD000BB1F621773078407BA0720F0621B730BDF
:101DE000840BBA0BEE1F88F7E095089504D0689431
:101DF000B111B5C0089598D088F09F5790F0B92FD1
:101E00009927B751A0F0D1F0660F771F881F991F4F
:101E10001AF0BA95C9F712C0B13081F09FD0B1E085
:101E200008959CC0672F782F8827B85F39F0B93F95
:101E3000CCF3869577956795B395D9F73EF4909551
:101E40008095709561957F4F8F4F9F4F0895E894CF
:101E500009C097FB3EF490958095709561957F4FF2
:101E60008F4F9F4F9923A9F0F92F96E9BB279395A0
:101E7000F695879577956795B795F111F8CFFAF4B0
:101E8000BB0F11F460FF1BC06F5F7F4F8F4F9F4FE1
:101E900016C0882311F096E911C0772321F09EE83F
:101EA000872F762F05C0662371F096E8862F70E0A5
:101EB00060E02AF09A95660F771F881FDAF7880F7F
:101EC0009695879597F9089597F99F6780E870E050
:101ED00060E008959FEF80EC089500240A941616A0
:101EE000170618060906089500240A941216130608
:101EF000140605060895092E0394000C11F4882396
:101F000052F0BB0F40F4BF2B11F460FF04C06F5FB1
:101F10007F4F8F4F9F4F089557FD9058440F551F87
:101F200059F05F3F71F04795880F97FB991F61F05B
:101F30009F3F79F087950895121613061406551FD2
:101F4000F2CF4695F1DF08C0161617061806991F3E
:101F5000F1CF86957105610508940895E894BB2733
:101F600066277727CB0197F908950BD0C4CFB5DF4B
:101F700028F0BADF18F0952309F0A6CFABCF1124D3
:101F8000EECFCADFA0F3959FD1F3950F50E0551F18
:101F9000629FF001729FBB27F00DB11D639FAA27BE
:101FA000F00DB11DAA1F649F6627B00DA11D661F0D
:101FB000829F2227B00DA11D621F739FB00DA11D2E
:101FC000621F839FA00D611D221F749F3327A00DE8
:101FD000611D231F849F600D211D822F762F6A2F84
:101FE00011249F5750408AF0E1F088234AF0EE0F09
:101FF000FF1FBB1F661F771F881F91505040A9F716
:102000009E3F510570F060CFAACF5F3FECF3983E42
:10201000DCF3869577956795B795F795E7959F5F7C
:10202000C1F7FE2B880F911D9695879597F9089516
:1020300097FB092E07260AD077FD04D00CD006D0D6
:1020400000201AF4709561957F4F0895F6F79095EA
:1020500081959F4F0895AA1BBB1B51E107C0AA1F82
:10206000BB1FA617B70710F0A61BB70B881F991F39
:102070005A95A9F780959095BC01CD010895F894E3
:02208000FFCF90
:0C2082000A19196666263FB81E853D004D
:00000001FF
