:100000000C942A000C9447000C9447000C94470071
:100010000C9447000C9447000C9447000C94470044
:100020000C9447000C9447000C9447000C94470034
:100030000C9447000C9447000C9447000C94470024
:100040000C9447000C9447000C9447000C94470014
:100050000C94470011241FBECFE5D4E0DEBFCDBF16
:1000600010E0A0E6B0E0ECEDF5E002C005900D92E6
:10007000A036B107D9F710E0A0E6B0E001C01D92AC
:10008000A237B107E1F70E942E020C94EC020C9407
:10009000000083E397E00197F1F7A898A99880E31F
:1000A00085BBAA9AEFEFF3E23197F1F700C00000A9
:1000B000AA98E3E3F7E03197F1F7A898A99885BBF0
:1000C000AA9AEFEFF3E23197F1F700C00000AA9887
:1000D000E3E3F7E03197F1F7A898A99885BBAA9ACE
:1000E0008FEF93E20197F1F700C00000AA98E3E3D5
:1000F000F7E03197F1F7A898A99880E285BBAA9A12
:100100008FEF93E20197F1F700C00000AA980895DD
:1001100095B39F7095BB95B3282F207F922B95BBED
:10012000A898A998AA9AEFEFF3E23197F1F700C0E7
:100130000000AA9895B39F7095BB95B38295807F78
:10014000892B85BBA898A998AA9A8FEF93E201976B
:10015000F1F700C00000AA98089583E397E00197A3
:10016000F1F788E20E94880081E00E94880086E022
:100170000E9488008EE00E94880080E80E9488002B
:10018000089595B39F7095BB95B3282F207F922B30
:1001900095BBA89AA998AA9AEFEFF3E23197F1F7E5
:1001A00000C00000AA9895B39F7095BB95B3829547
:1001B000807F892B85BBA89AA998AA9A8FEF93E292
:1001C0000197F1F700C00000AA98089580E80E9406
:1001D00088000895CF93DF93EC018881882331F064
:1001E00021960E94C10089918823D9F7DF91CF9190
:1001F0000895823079F0833018F48130C9F405C055
:10020000833069F08430A1F40FC0862F81580E949A
:1002100088000895862F81540E9488000895862FB3
:100220008D560E9488000895862F8D520E94880066
:1002300008950F931F93CF93DF938A01E9018823D9
:1002400011F0662319F40E94E60002C00E94F90032
:10025000C530D10571F4C80160E177E20E94D8028F
:10026000CB01C09690936400809363000E94C1000C
:1002700003C0C430D105B9F4C80168EE73E00E9430
:10028000D802CB0170936600609365006AE070E06D
:100290000E94D802C09690937100809370000E94D3
:1002A000C10081E001C080E0C330D10511F0813090
:1002B000B1F4C80164E670E00E94D802CB017093EB
:1002C0006600609365006AE070E00E94D802C09604
:1002D00090936D0080936C000E94C10081E0C23059
:1002E000D10511F08130B1F42AE030E0C801B90144
:1002F0000E94D802CB017093660060936500B9013B
:100300000E94D802C09690936B0080936A000E946E
:10031000C10081E0C130D10511F0813061F4C80124
:100320006AE070E00E94D802C09690936F008093BC
:100330006E000E94C100C630D1051CF085E40E9409
:10034000C100DF91CF911F910F91089584B3876F02
:1003500084BB85B3807885BB0895A39AAB98089534
:1003600083B3886085BB089583B3877F85BB089579
:100370001ABA1BBA089587B38F6087BB88B3807F92
:1003800088BB81B3806381BB82B3806382BB0895E5
:100390000E94A6010E94B8010E94BB010E94AD010B
:1003A00008951EBC8FEF8DBD91E09CBD1BBC8ABD26
:1003B00019BC88BD17BC86BD81EA8FBD8DE08EBD9E
:1003C000089516B880E287B980E888B986E886B9CA
:1003D00008958770806287B9369A349BFECF85B1C5
:1003E000349A0895CF93DF93D82FC62F842F0E947D
:1003F000E901482F809367008D2F6C2F50E023E098
:1004000030E00E941901DF91CF91089598B3907F59
:100410008F70982B98BB089586E00E94060208957D
:1004200080E00E940602089584E00E94060208957A
:1004300082E00E940602089585E00E940602089567
:100440001BBC8ABD19BC68BD0895F8940E94C80100
:100450000E94D1010E94E101789408950E94250232
:100460000E9449000E94AD008CE36CE30E942002D0
:1004700082E061E04CE350E023E030E00E941901AB
:1004800082E065E04CE350E023E030E00E94190197
:100490000E940C02C0E083E00E94E90180936200A8
:1004A00084E00E94E9018093610085E00E94E901F7
:1004B0008093600081E061E043E00E94F20181E00E
:1004C00065E044E00E94F20181E069E045E00E94BD
:1004D000F20180916100813530F08EE16EE10E9481
:1004E000200281E001C08C2F90916200903538F499
:1004F000882329F48FE06AE00E94200281E0909135
:100500006000903538F4882329F48AE06FE00E9477
:10051000200281E090916100903570F4909162002A
:10052000903550F490916000903530F4882321F498
:100530008C2F6C2F0E94200280916100813508F47D
:10054000AACF80916200813508F4A5CF8091600028
:10055000813508F4A0CF0E9410028FEF9FE7A6E13B
:1005600081509040A040E1F700C000000E94B0011F
:100570008FEF9FE3ABE081509040A040E1F700C0D7
:1005800000000E94B4018FEF9FE3A2E081509040F1
:10059000A040E1F700C000000E940C028FEF9FE72F
:1005A000A6E181509040A040E1F700C0000073CF69
:1005B000AA1BBB1B51E107C0AA1FBB1FA617B70789
:1005C00010F0A61BB70B881F991F5A95A9F78095A5
:0C05D0009095BC01CD010895F894FFCF78
:00000001FF
