:1000000026C100000C942C0D53C1000051C100000A
:100010004FC1000033C3000056C3000049C10000B7
:1000200047C1000045C1000043C1000041C10000BC
:100030003FC100000C944C163BC1000039C10000C8
:1000400037C100000C94931A33C1000031C1000085
:100050002FC100002DC100002BC100000C94161808
:1000600027C10000B4C7000023C1000021C1000067
:100070001FC100001DC100001BC1000019C100000C
:100080000C94661A15C1000013C1000011C10000D4
:100090000FC100000DC100000BC1000009C100002C
:1000A00007C1000005C100000C94391A01C100000D
:1000B000FFC00000FDC00000FBC000000C940C1A43
:1000C000F7C00000F5C00000F3C00000F1C0000060
:1000D000EFC00000EDC00000EBC00000E9C0000070
:1000E000E7C000002D2236224522542263227222CC
:1000F00081227B2384239323A223B123C023CF23F4
:10010000F111F411F711FA11FD11001208120B127E
:100110000E1214121A122012261231123512401227
:10012000BB15BE15AD15B115B515F515C215C6151E
:10013000CC15D015D415DA15DE15E215F515E81530
:10014000EC15F01500002100240027002A002D00E6
:100150003000330001010000040107010A01000022
:100160000A0B02090C0D0E08070304010000000031
:10017000000000000000000000000000000000007F
:10018000000000000000000000001211100000003C
:10019000000000000000000000000000000000005F
:1001A000000000000102102020080810204010204C
:1001B000408002010201080402010102040810202B
:1001C0004080804020100804020180040201804029
:1001D0002010080402010804020101020408102092
:1001E0004080010204081020408000002200250009
:1001F00028002B002E003100340002010000050110
:1002000008010B0105050505070508080808020295
:1002100002020A0A080804040404010101010101A0
:1002200001010303030303030303040707070C0C83
:100230000C0C0C0C0C0C020202020606060606064A
:1002400006060B0B0B0B0B0B0B0B0200F5341124EA
:100250001FBECFEFD1E2DEBFCDBF00E00CBF12E08A
:10026000A0E0B2E0EAE9FDE600E00BBF02C00790C3
:100270000D92A838B107D9F729E1A8E8B2E001C08A
:100280001D92A631B207E1F711E0C7E2D1E000E02C
:1002900006C021970109802FFE010E94BF36C63299
:1002A000D10780E00807A9F70E94D31E0C94CB3633
:1002B000A7CE92B1907F8F70982B92B908959C0130
:1002C000FB0110928E0210928D0210928C028730E8
:1002D000910508F077C083309105B1F130F4813099
:1002E0009105A1F0029709F108C08530910509F444
:1002F00049C0C8F1069709F454C089E080938E0282
:1003000081E090E090938D0280938C0280918C022A
:1003100090918D02892B49F481E180938E0281E0D6
:1003200090E090938D0280938C0280918C0290914A
:100330008D02892B49F489E180938E0281E090E05F
:1003400090938D0280938C0280918C0290918D020B
:10035000892B49F481E280938E0281E090E09093B2
:100360008D0280938C0280918C0290918D02892B5A
:1003700049F489E280938E0281E090E090938D02AF
:1003800080938C0280918C0290918D02892B49F48C
:1003900081E380938E0281E090E090938D028093C0
:1003A0008C0280918C0290918D02892B09F01AC1E8
:1003B00089E380938E0281E090E090938D02809398
:1003C0008C0210C167E070E00E94AB36833091056B
:1003D000E9F130F481309105B9F0029731F109C0AB
:1003E0008530910509F454C008F441C0069709F41A
:1003F00060C080918E02886080938E0281E090E0E0
:1004000090938D0280938C0280918C0290918D024A
:10041000892B59F480918E02806180938E0281E055
:1004200090E090938D0280938C0280918C02909149
:100430008D02892B59F480918E02886180938E02FF
:1004400081E090E090938D0280938C0280918C02E9
:1004500090918D02892B59F480918E028062809355
:100460008E0281E090E090938D0280938C028091C7
:100470008C0290918D02892B59F480918E028862B2
:1004800080938E0281E090E090938D0280938C02A5
:1004900080918C0290918D02892B59F480918E026B
:1004A000806380938E0281E090E090938D02809330
:1004B0008C0280918C0290918D02892B59F480914D
:1004C0008E02886380938E0281E090E090938D028B
:1004D00080938C0210928D0210928C02C90167E009
:1004E00070E00E94AB36CB0101968430910591F10A
:1004F00030F48230910561F00397D9F06FC08630F7
:10050000910509F449C0B8F1079709F456C066C0CF
:1005100080918C0290918D02892B59F480918E02EA
:10052000826080938E0281E090E090938D028093B0
:100530008C0280918C0290918D02892B59F48091CC
:100540008E02836080938E0281E090E090938D0212
:1005500080938C0280918C0290918D02892B59F4AA
:1005600080918E02846080938E0281E090E090936F
:100570008D0280938C0280918C0290918D02892B48
:1005800059F480918E02856080938E0281E090E024
:1005900090938D0280938C0280918C0290918D02B9
:1005A000892B59F480918E02866080938E0281E0BF
:1005B00090E090938D0280938C0280918C029091B8
:1005C0008D02892B59F480918E02876080938E0270
:1005D00081E090E090938D0280938C0210928D02C6
:1005E00010928C02309719F480918E020CC0E13089
:1005F000F10521F480918E02806405C0329729F4C0
:1006000080918E02806880938E0280918E0280930A
:10061000C60008958091CB029091CC02892B31F4D1
:100620008091D1029091D202079723C08091CB0292
:100630009091CC02019731F48091D1029091D20235
:10064000019617C08091CB029091CC02029731F4B1
:100650008091D1029091D20207960BC08091CB027B
:100660009091CC02039749F48091D1029091D202EB
:1006700001979093D2028093D10208951F920F9216
:100680000FB60F9211248F939F93AF93BF938091D6
:10069000080590910905A0910A05B0910B050196F6
:1006A000A11DB11D8093080590930905A0930A052B
:1006B000B0930B05BF91AF919F918F910F900FBE9B
:1006C0000F901F9018951F920F920FB60F92112442
:1006D0008F939F93AF93BF9380910C0590910D05DD
:1006E000A0910E05B0910F050196A11DB11D80933B
:1006F0000C0590930D05A0930E05B0930F05BF91C7
:10070000AF919F918F910F900FBE0F901F901895F2
:100710008230C9F08233B9F08330C1F08333B1F055
:100720008430B9F08433A9F08530B1F08533A1F07D
:100730008630A9F0863399F08730A1F0873391F0A5
:1007400080E090E011C087E090E00EC08EE090E085
:100750000BC085E190E008C08CE190E005C083E229
:1007600090E002C08AE290E0603111F0623411F44E
:1007700001960895683111F0633411F402960895DA
:10078000603211F0643411F403960895683211F068
:10079000653411F404960895603311F0663411F451
:1007A00005960895683311F0673409F406960895A4
:1007B000E3EDF2E01182108213821282158214821C
:1007C00008958091D3029091D402019789F4809189
:1007D000D5029091D602019759F42091D702309119
:1007E000D80281E090E02130310521F080E00895C9
:1007F00080E090E0089580E05CCD0F931F93BC01F2
:1008000080E090E00E94113628E431EE42E850E4A6
:100810000E947D350E94E535CB01A0E0B0E010924A
:100820000C0510920D0510920E0510920F051092F6
:1008300008051092090510920A0510920B054091C7
:100840000C0550910D0560910E0570910F050091FA
:1008500008051091090520910A0530910B0508172C
:1008600019072A073B0728F4481759076A077B0727
:1008700030F31F910F91BFCF009709F056C085E06C
:1008800018DD8CE390E0B9DF88E30E94BF17092EE2
:10089000000CAA0BBB0B9C01AD012E513109410983
:1008A0005109A6E9B0E00E943C3524EA31E040E07D
:1008B00050E00E942035309398022093970288E3FD
:1008C0000E94BF17092E000CAA0BBB0B9C01AD01A7
:1008D0002E51310941095109A6E9B0E00E943C3589
:1008E0006031744A810591051CF485E0E2DCE7CFB4
:1008F00082DF8091CB029091CC02892B19F483E0A6
:1009000090E005C08091CB029091CC02019790932A
:10091000CC028093CB0266E080E00E94D21B8091E3
:10092000CB029091CC020C94E61B8130910509F02A
:1009300042C08AE0BEDC8CE390E05FDF88E30E9487
:10094000BF17092E000CAA0BBB0B9C01AD012E5149
:10095000310941095109A6E9B0E00E943C3524EA79
:1009600031E040E050E00E9420353093980220931F
:10097000970288E30E94BF17092E000CAA0BBB0B3D
:100980009C01AD012E51310941095109A6E9B0E0A0
:100990000E943C356031744A810591051CF48AE05F
:1009A00088DCE7CF28DF8091CB029091CC020196C2
:1009B00083709927ACCF029709F045C08AE079DCB3
:1009C0008AEA90E01ADF88E30E94BF17092E000C24
:1009D000AA0BBB0B9C01AD012E51310941095109F4
:1009E000A6E9B0E00E943C3524EA31E040E050E066
:1009F0000E942035309398022093970288E30E944A
:100A0000BF17092E000CAA0BBB0B9C01AD012E5188
:100A1000310941095109A6E9B0E00E943C35603135
:100A2000744A810591051CF48AE043DCE7CFE3DEDC
:100A30008091CB029091CC0202968370992790937B
:100A4000CC028093CB020895CF93DF93EC01D3DEE9
:100A50002091CB023091CC02C217D30721F081E064
:100A600090E00ADFF5CFDF91CF91089582E021CCAD
:100A700084E01FCC86E01DCC8F929F92AF92BF92F4
:100A8000CF92DF92EF92FF921F93CF93DF93EC010F
:100A9000F1DFBE0180E090E00E94113625EE30EDDE
:100AA0004AEA50E40E947D350E94E5354B015C0125
:100AB00010920C0510920D0510920E0510920F0564
:100AC00084EAC82EDD24D394E12CF12CC1E0D0E0DF
:100AD00016E989E30E94BF17092E000CAA0BBB0B75
:100AE0009C01AD012E51310941095109A6E9B0E03F
:100AF0000E943C35A70196010E94203530939A024E
:100B00002093990288E30E94BF17092E000CAA0BBC
:100B1000BB0B9C01AD012E51310941095109A6E9D8
:100B2000B0E00E943C35A70196010E942035309329
:100B300098022093970287E30E94BF17092E000CAA
:100B4000AA0BBB0B9C01AD012E5131094109510982
:100B5000A6E9B0E00E943C35A70196010E9420352D
:100B6000309396022093950289E30E94BF17092EC5
:100B7000000CAA0BBB0B9C01AD012E5131094109A0
:100B80005109A6E9B0E00E943C35A70196010E94F8
:100B9000203530939A022093990288E30E94BF1770
:100BA000092E000CAA0BBB0B9C01AD012E51310983
:100BB00041095109A6E9B0E00E943C35A701960120
:100BC0000E942035309398022093970287E30E9479
:100BD000BF17092E000CAA0BBB0B9C01AD012E51B7
:100BE000310941095109A6E9B0E00E943C35A7014D
:100BF00096010E94203530939602209395028BED4A
:100C000098E10E94DF1860E080E00E94D21B82E73A
:100C100092E00E94D11B61E080E00E94D21B809193
:100C2000990290919A020E949D1B80E792E00E9497
:100C3000D11B80919702909198020E949D1B80E7A2
:100C400092E00E94D11B80919502909196020E94A1
:100C50009D1B1092940210929302809199029091A0
:100C60009A0205973CF4809195029091960205971F
:100C70000CF48EC08091990290919A020B976CF0BF
:100C80008091990290919A024E973CF48091930240
:100C900090919402892B09F489C0809199029091D6
:100CA0009A024F976CF08091990290919A02C297A4
:100CB0003CF48091930290919402892B09F480C0B6
:100CC0008091990290919A02C39774F08091990251
:100CD00090919A02863491053CF480919302909110
:100CE0009402892B09F472C080919502909196022A
:100CF0000B976CF080919502909196024E973CF480
:100D00008091930290919402892B09F465C080919F
:100D10009502909196024F976CF080919502909178
:100D20009602C2973CF48091930290919402892B91
:100D300009F45CC08091950290919602C39774F07B
:100D40008091950290919602863491053CF48091B1
:100D5000930290919402892B09F44EC080910C0566
:100D600090910D05A0910E05B0910F05881699067A
:100D7000AA06BB0608F0ADCEDF91CF911F91FF9080
:100D8000EF90DF90CF90BF90AF909F908F9033CD3A
:100D9000D0939402C09393026DDE61E08EE20E94D4
:100DA0008C1561E08DE20E948C1564CFD093940283
:100DB000C09393025FDE1093280110932A016DCF38
:100DC000D0939402C093930253DE7ACFD0939402CF
:100DD000C09393024DDE88CFD0939402C0939302C8
:100DE00049DE1093280110932A0191CFD0939402E9
:100DF000C09393023BDE9ECFD0939402C0939302A4
:100E000035DEACCF6AE070E082EE92E00E94E61838
:100E100064EF71E080E090E00E94DE1766E470E02D
:100E20008FED92E00E94E61864EF71E080E090E0C0
:100E30000E94DE1760EA70E08CED92E00E94E618F6
:100E400064EF71E080E090E00E94DE1786E490E0BD
:100E5000909303058093020580910205909103050C
:100E60008D389105A4F460910205709103058FED12
:100E700092E00E94E61862E370E080E090E00E9459
:100E8000DE1780910205909103050596E1CF80EA77
:100E900090E0909303058093020580910205909164
:100EA0000305CC97A4F060910205709103058CEDC9
:100EB00092E00E94E61862E370E080E090E00E9419
:100EC000DE1780910205909103050397E2CF8CE82D
:100ED00090E0909303058093020580910205909124
:100EE000030586349105A4F0609102057091030515
:100EF0008FED92E00E94E61862E370E080E090E0FF
:100F00000E94DE1780910205909103050597E1CFBD
:100F10008AE090E09093030580930205809102059A
:100F20009091030585369105A4F4609102057091B6
:100F3000030582EE92E00E94E61862E370E080E032
:100F400090E00E94DE1780910205909103050596BE
:100F5000E1CF64EF71E080E090E00E94DE1760EA8C
:100F600070E08CED92E00E94E61860E971E080E0AC
:100F700090E00E94DE176AE070E082EE92E00E944C
:100F8000E61864EF71E080E090E00E94DE1766E40E
:100F900070E08FED92E00E94E61864EF71E080E06F
:100FA00090E00C94DE1761E082E20E948C1564EF01
:100FB00071E080E090E00E94DE1760E082E20E9433
:100FC0008C1562E370E080E090E00C94DE171F92D5
:100FD0000F920FB60F9211240BB60F922F933F93DF
:100FE0004F935F936F937F938F939F93AF93BF9331
:100FF000EF93FF938091C6008093070580910705CA
:10100000803431F481E090E09093D6028093D50251
:1010100080910705803831F481E090E09093D80208
:101020008093D7028091D90281115DC0809107051C
:10103000807C8093060580910605803441F5B3DFFE
:101040008091070587708093050580910705887357
:1010500080930405609104058091050559DB909308
:101060008B0280938A0281E090E09093D602809375
:10107000D5028BED98E10E94DF1860E080E00E94CD
:10108000D21B80918A0290918B020E94E61B809174
:101090000605803841F587DF8091070587708093CA
:1010A0000505809107058873809304056091040508
:1010B000809105052DDB909389028093880281E061
:1010C00090E09093D8028093D7028BED98E10E9434
:1010D000DF1860E080E00E94D21B8091880290912E
:1010E00089020E94E61B8091D902813009F082C0FA
:1010F00080910705807C809306058091060581110B
:1011000079C0809107058093C6008091070587709C
:10111000809305058091070588738093040560918D
:10112000040580910505F4DA2091CF023091D002B8
:10113000232B69F52BEE280F99272730A0F4E09197
:10114000BF02F091C002EE0FFF1FEF53FD4F9183DE
:1011500080838091BF029091C00201969093C0025B
:101160008093BF0247C0E091B102F091B202EE0F4E
:10117000FF1FE955FD4F918380838091B1029091CB
:10118000B20201969093B2028093B10233C02091D3
:10119000CF023091D0022233310561F52BEE280FBA
:1011A00099272730A0F4E091BD02F091BE02EE0F26
:1011B000FF1FED54FD4F918380838091BD0290917C
:1011C000BE0201969093BE028093BD0213C0E091CF
:1011D000A502F091A602EE0FFF1FE556FD4F918389
:1011E00080838091A5029091A60201969093A60219
:1011F0008093A502FF91EF91BF91AF919F918F9145
:101200007F916F915F914F913F912F910F900BBE06
:101210000F900FBE0F901F9018954F925F926F9294
:101220007F92AF92BF92CF92DF92EF92FF921F9385
:10123000CF93DF937C01899741F48091CF02909105
:10124000D002892B09F40CC10BC083E2E816F1042B
:1012500039F48091CF029091D002C29709F400C175
:1012600084EA482E55245394612C712C16E9C1E070
:10127000D0E092E0C92ED12C22E3A22EB12C809195
:10128000D1029091D2028E159F0509F4FAC189E32B
:101290000E94BF17092E000CAA0BBB0B9C01AD01CD
:1012A0002E51310941095109A6E9B0E00E943C35AF
:1012B000A30192010E94203530939A022093990253
:1012C00088E30E94BF17092E000CAA0BBB0B9C01E0
:1012D000AD012E51310941095109A6E9B0E00E9442
:1012E0003C35A30192010E9420353093980220934F
:1012F000970287E30E94BF17092E000CAA0BBB0BB5
:101300009C01AD012E51310941095109A6E9B0E016
:101310000E943C35A30192010E9420353093960231
:101320002093950210929402109293028091990258
:1013300090919A0205973CF48091950290919602C3
:1013400005970CF497C08091990290919A020B979F
:101350006CF08091990290919A024E973CF48091A2
:10136000930290919402892B09F492C08091990282
:1013700090919A024F976CF08091990290919A0205
:10138000C2973CF48091930290919402892B09F4C6
:1013900089C08091990290919A02C39774F08091CC
:1013A000990290919A02863491053CF480919302BF
:1013B00090919402892B09F47BC0809195029091C1
:1013C00096020B976CF080919502909196024E9741
:1013D0003CF48091930290919402892B09F46EC0A1
:1013E00080919502909196024F976CF080919502B2
:1013F00090919602C2973CF480919302909194024E
:10140000892B09F465C08091950290919602C3974B
:1014100074F08091950290919602863491053CF487
:101420008091930290919402892B09F457C0809186
:10143000970290919802873491050CF420CF809107
:10144000990290919A02873491050CF418CF8091FB
:10145000950290919602873491050CF410CF44C008
:1014600080E590E009DB81E090E09093DB028093DF
:10147000DA0207C1D0939402C0939302FBDA61E0D1
:101480008EE20E948C1561E08DE20E948C155BCF8C
:10149000D0939402C0939302EDDA10932801109335
:1014A0002A0164CFD0939402C0939302E1DA71CF02
:1014B000D0939402C0939302DBDA7FCFD09394024F
:1014C000C0939302D7DA1093280110932A0188CF92
:1014D000D0939402C0939302C9DA95CFD09394022B
:1014E000C0939302C3DAA3CF86D95DDD93D88091F0
:1014F000D1029091D2028E159F05A1F48091D10264
:101500009091D202899771F08091D1029091D2028C
:10151000839741F082ED90E0AFDAD093DB02C09385
:10152000DA02ADCE8091D1029091D2028E159F0544
:10153000F9F48091D1029091D2028397C9F48091FD
:10154000CF029091D002892B99F486E490E094DA4E
:1015500081E090E079DA1092DB021092DA02B09228
:10156000D002A092CF021092CE021092CD0287CE6E
:101570008091D1029091D2028E159F0509F072C020
:101580008091D1029091D202899709F06BC080912D
:10159000CF029091D002C29709F064C086E490E037
:1015A0006BDA80E090E068D984E690E065DA60EA82
:1015B00070E082EE92E00E94E61864EF71E080E055
:1015C00090E00E94DE176CE370E08CED92E00E94E8
:1015D000E61864EF71E080E090E00E94DE176CE8AE
:1015E00070E08FED92E00E94E61864EF71E080E019
:1015F00090E00E94DE1780EA90E0909303058093CC
:10160000020580910205909103054497A4F0609132
:1016100002057091030582EE92E00E94E61864E6EE
:1016200070E080E090E00E94DE17809102059091CA
:1016300003050A97E2CF66E470E08FED92E00E9426
:10164000E61864EF71E080E090E00E94DE171092EF
:10165000C600D093D402C093D302D092DB02C092D2
:10166000DA020DCE07DA1093280110932A019FEFBA
:1016700027E883E1915020408040E1F700C000005E
:10168000FECDDF91CF911F91FF90EF90DF90CF9033
:10169000BF90AF907F906F905F904F9008958F9222
:1016A0009F92AF92BF92CF92DF92EF92FF921F93E1
:1016B000CF93DF937C014B9741F48091CF029091BF
:1016C000D002892B09F409C10BC085E1E816F104A9
:1016D00039F48091CF029091D002C29709F4FDC0F5
:1016E00084EA882E99249394A12CB12C16E9C1E0A8
:1016F000D0E092E3C92ED12C8091D1029091D202F8
:101700008E159F0509F49CC189E30E94BF17092E1D
:10171000000CAA0BBB0B9C01AD012E5131094109F4
:101720005109A6E9B0E00E943C35A50194010E9450
:10173000203530939A022093990288E30E94BF17C4
:10174000092E000CAA0BBB0B9C01AD012E513109D7
:1017500041095109A6E9B0E00E943C35A501940178
:101760000E942035309398022093970287E30E94CD
:10177000BF17AC01990F660B770B9A01AB012E5185
:10178000310941095109A6E9B0E00E943C35A501A3
:1017900094010E9420353093960220939502109276
:1017A0009402109293028091990290919A02059767
:1017B0003CF4809195029091960205970CF497C0A5
:1017C0008091990290919A020B976CF08091990206
:1017D00090919A024E973CF48091930290919402DA
:1017E000892B09F492C08091990290919A024F97A7
:1017F0006CF08091990290919A02C2973CF480918A
:10180000930290919402892B09F489C080919902E6
:1018100090919A02C39774F08091990290919A02E4
:10182000863491053CF48091930290919402892B27
:1018300009F47BC080919502909196020B976CF011
:1018400080919502909196024E973CF4809193027C
:1018500090919402892B09F46EC080919502909129
:1018600096024F976CF08091950290919602C297E4
:101870003CF48091930290919402892B09F465C005
:101880008091950290919602C39774F08091950291
:1018900090919602863491053CF480919302909148
:1018A0009402892B09F457C0809197029091980275
:1018B000873491050CF420CF8091990290919A027F
:1018C000873491050CF418CF80919502909196027F
:1018D000873491050CF410CF44C080E590E0CCD85B
:1018E00081E090E09093DB028093DA02A9C0D0936C
:1018F0009402C0939302BED861E08EE20E948C15E0
:1019000061E08DE20E948C155BCFD0939402C0936E
:101910009302B0D81093280110932A0164CFD0937A
:101920009402C0939302A4D871CFD0939402C09331
:1019300093029ED87FCFD0939402C09393029AD8FB
:101940001093280110932A0188CFD0939402C0935A
:1019500093028CD895CFD0939402C093930286D8EB
:10196000A3CF0E94FB031FDB0E940A038091D102D8
:101970009091D2028E159F05A1F48091D102909191
:10198000D202459771F08091D1029091D2024B978B
:1019900041F082ED90E070D8D093DB02C093DA0280
:1019A000ABCE8091D1029091D2028E159F05C9F4E1
:1019B0008091D1029091D202459799F486E490E00B
:1019C0005BD881E090E040D81092DB021092DA02FE
:1019D000D092D002C092CF021092CE021092CD02CD
:1019E0008BCE8091D1029091D2028E159F05C9F4C1
:1019F0008091D1029091D2024B9799F486E490E0C5
:101A00003BD882E090E020D81092C600D093D40258
:101A1000C093D30282E090E09093DB028093DA02DD
:101A20006BCE28D81093280110932A019FEF27E846
:101A300083E1915020408040E1F700C000005CCE7F
:101A4000DF91CF911F91FF90EF90DF90CF90BF90EB
:101A5000AF909F908F9008951F920F920FB60F92A4
:101A600011248F939F93AF93BF9380918F02909196
:101A70009002A0919102B09192020196A11DB11D18
:101A800080938F0290939002A0939102B093920260
:101A9000BF91AF919F918F910F900FBE0F901F90AC
:101AA0001895F894E9E6F0E0808182608083E89AF6
:101AB000789408952F923F924F925F926F927F9207
:101AC0008F929F92AF92BF92CF92DF92EF92FF924E
:101AD0000F931F93CF93DF93CDB7DEB7C853D14099
:101AE0000FB6F894DEBF0FBECDBFCB5CDE4F99833F
:101AF0008883C553D1401B016DB77EB7C95CDE4FEB
:101B000079836883C753D1404336510551F0C95D8D
:101B1000DE4F59834883C752D14088248394912C47
:101B200002C0812C912C2336310571F0F401EE0FA7
:101B3000FF1F87E291E08C0F9D1FE80FF91F318393
:101B400020839FEF891A990A0336110571F0F40179
:101B5000EE0FFF1FA7E2B1E0AC0FBD1FEA0FFB1FA6
:101B600011830083BFEF8B1A9B0AE3E6EE16F104A4
:101B700071F0F401EE0FFF1F07E211E00C0F1D1FC3
:101B8000E00FF11FF182E0821FEF811A910A80E0DD
:101B900090E061E37FE020E030E0689FA001699F72
:101BA000500D1124FA01E20FF31FDF01AF58B14FBE
:101BB0001C91E05FFA4F111102C0708302C0AC911A
:101BC000A0832F5F3F4F2133310561F701968133A9
:101BD000910509F78E010F5F1F4FDE01AD59BF4F11
:101BE000AE014B535F4F80E090E021E3229DB001B6
:101BF000239D700D11249B01280F391F205F3A4F40
:101C0000F901208130E0FA0121933193AF012D9247
:101C10003D92F801119211928F0101968133910545
:101C200051F7C101880F991FE5ECF0E0EC0FFD1FA3
:101C3000E80FF91F11821082E1E0F0E0EC0FFD1FC8
:101C4000E80FF91F21E030E031832083C95DDE4FCA
:101C500048805980C752D140C75DDE4F6880798087
:101C6000C952D140C55DDE4FE880F980CB52D140EA
:101C7000C15DDE4FF982E882CF52D140C35DDE4FB5
:101C800008811981CD52D140CD5CDE4F1983088384
:101C9000C353D1402FE230E0CF5CDE4F398328833D
:101CA000C153D140FE0131968114910409F05AC00C
:101CB000DE01AB53BF4F80E090E02FE037E24D9163
:101CC0005D914217530734F460817181672B11F4E1
:101CD0005C019A01019632968133910581F7F501F5
:101CE000EE0FFF1F41E050E04C0F5D1FE40FF51FAA
:101CF00061E070E071836083AE014D595F4FFE017A
:101D0000EB53FF4FBE016F5F7F4F80E090E0A1E398
:101D1000AA9D8001AB9D100D1124DB01ED90FD907B
:101D2000BD01EF28B9F4D801A80FB91FA05FBA4FC1
:101D3000FC906901CF0CD11CE080F180CE14DF044F
:101D40004CF4AC917901EA0EF11CF182E082DA01E7
:101D5000AD92BC92019632964E5F5F4F81339105F2
:101D6000E1F6B0C1B1E08B16910409F057C0DE0175
:101D7000AB53BF4F80E090E02FE037E24D915D9193
:101D8000421753074CF460817181672B29F4841545
:101D9000950511F05C019A01019632968133910507
:101DA00069F7F501EE0FFF1FEE24E394F12CEC0E22
:101DB000FD1EEE0DFF1D01E010E011830083AE015A
:101DC0004D595F4FFE01EB53FF4FB70180E090E0AC
:101DD00011E31A9D60011B9DD00C1124DB010D91B4
:101DE0001D91BD01012B91F4D601A80FB91FA05F71
:101DF000BA4F1C917901E10EF11C00811181E016AE
:101E0000F10624F48415950509F0F3C10196329684
:101E10004E5F5F4F8133910509F754C1B2E08B16D5
:101E2000910409F05DC0DE01AB53BF4F80E090E04C
:101E30002FE037E24D915D914217530764F46081C2
:101E40007181672B41F48415950529F08615970556
:101E500011F05C019A01019632968133910551F798
:101E6000F501EE0FFF1FEE24E394F12CEC0EFD1EA6
:101E7000EE0DFF1D01E010E011830083AE014D590E
:101E80005F4FFE01EB53FF4FB70180E090E011E39D
:101E90001A9D60011B9DD00C1124DB010D911D9139
:101EA000BD01012BA9F4D601A80FB91FA05FBA4F3D
:101EB0001C917901E10EF11C00811181E016F106FF
:101EC0003CF48415950521F08615970509F09BC112
:101ED000019632964E5F5F4F81339105F1F6F2C065
:101EE000B3E08B16910409F06EC0DE01AB53BF4F17
:101EF00080E090E02FE037E24D915D91421753076B
:101F0000ACF460817181672B89F48415950571F0BB
:101F10008615970559F0C15DDE4FE880F980CF52F4
:101F2000D1408E159F0511F05C019A010196329601
:101F30008133910509F7F501EE0FFF1F01E010E075
:101F40000C0F1D1FE00FF11F41E050E05183408353
:101F5000AE014D595F4FFE01EB53FF4FB80180E0DA
:101F600090E0A1E3AA9D6001AB9DD00C1124DB01A0
:101F70000D911D91BD01012BF1F4D601A80FB91FE0
:101F8000A05FBA4F1C917901E10EF11C0081118113
:101F9000E016F10684F48415950569F08615970519
:101FA00051F0C15DDE4FE880F980CF52D1408E15EF
:101FB0009F0509F032C1019632964E5F5F4F813323
:101FC0009105A9F67FC0DE01AB53BF4F80E090E0E2
:101FD0002FE037E24D915D9142175307F4F4608191
:101FE0007181672BD1F484159505B9F08615970595
:101FF000A1F0C15DDE4F08811981CF52D140801719
:10200000910759F0CD5CDE4F68817981C353D1408F
:102010008617970711F05C019A0101963296813379
:102020009105C1F6F501EE0FFF1F81E090E08C0FE6
:102030009D1FE80FF91FA1E0B0E0B183A083AE01BE
:102040004D595F4FFE01EB53FF4FBC0180E090E024
:10205000B1E3BA9D6001BB9DD00C1124DB010D9151
:102060001D91BD01012B39F5D601A80FB91FA05F45
:10207000BA4F1C917901E10EF11C00811181E0162B
:10208000F106CCF484159505B1F08615970599F005
:10209000C15DDE4FE880F980CF52D1408E159F059B
:1020A00051F0CD5CDE4F08811981C353D1408017B8
:1020B000910709F0BCC0019632964E5F5F4F8133A5
:1020C000910561F6CF5CDE4F28813981C153D14043
:1020D00021503109CF5CDE4F39832883C153D14071
:1020E000232B09F0DFCDCB5CDE4F88819981C5536E
:1020F000D1400197FC01EE0FFF1F45EC50E04C0F63
:102100005D1FE40FF51F20813181220F331F6DB752
:102110007EB7621B730B0FB6F8947EBF0FBE6DBF08
:102120004DB75EB74F5F5F4F82159305B1F0DA018F
:10213000BC0120E030E0660F771FE3E6F0E0EC0F33
:10214000FD1FE60FF71F608171816D937D932F5FF7
:102150003F4F6215730579F702C020E030E060E080
:1021600070E0AFEFBFEFFB01EE0FFF1FEE52F84E36
:10217000B183A0836F5F7F4F61337105A1F72901A0
:1021800071E0471A51086A01B901660F771FFA0119
:10219000E60FF71F7A0100E010E0329704151505ED
:1021A0008CF4D7018D909C901197A080B180AD9256
:1021B000BD927D01918280820F5F1F4FB1E04B1A6B
:1021C0005108EBCFFA01E60FF71F9183808380E07F
:1021D00090E0F601419151916F01FC01EE0FFF1F5C
:1021E000EE52F84E518340830196281739078CF739
:1021F00028C0AC917901EA0EF11CF182E082DA018B
:10220000AD92BC9203CEAC917901EA0EF11CF18241
:10221000E082DA01AD92BC925BCEAC917901EA0E1C
:10222000F11CF182E082DA01AD92BC92C4CEAC9195
:102230007901EA0EF11CF182E082DA01AD92BC92E2
:102240003ACFC95CDE4FE881F981C753D1400FB660
:10225000F894FEBF0FBEEDBFC85CDE4F0FB6F8941A
:10226000DEBF0FBECDBFDF91CF911F910F91FF90C9
:10227000EF90DF90CF90BF90AF909F908F907F9026
:102280006F905F904F903F902F9008952F923F92C4
:102290004F925F926F927F928F929F92AF92BF9276
:1022A000CF92DF92EF92FF920F931F93CF93DF9322
:1022B000CDB7DEB768970FB6F894DEBF0FBECDBFBF
:1022C000988B8F877A8369835C834B833E832D83CE
:1022D00018870F83FA86E986DC86CB86CB80DC8084
:1022E0002D803E804F80588489819A819093351843
:1022F0008093341829853A853E872D87EB84FC84AA
:102300008215930519F403E6202E312C84159505CA
:1023100019F413E6412E512C2D853E858217930723
:1023200021F423E630E03E872D878E159F0519F4B2
:10233000F3E6EF2EF12CC816D90654F4D0923518D6
:10234000C09234186C0181E090E09A8B898B02C0B6
:102350001A8A198AE0913418F0913518FC8BEB8BAE
:1023600080E090E011E320E030E0189FB001199F79
:10237000700D1124AB01420F531F4F58514FFA01FA
:1023800010822F5F3F4F21333105A1F70196813332
:10239000910549F7612C712C00E010E061E371E0D8
:1023A000930140E050E0E7E0E09FC001E19F900D25
:1023B00011249E8B8D8B8D899E89840F951F880F8C
:1023C000991F80509E4FFC01808191818031910541
:1023D00008F062C0FC018827E058FF4F8F4F0C9433
:1023E000BF36812C912C1DC0812C912C20C0812CBA
:1023F000912C23C0812C912C26C0812C912C29C09A
:10240000812C912CAA24A394B12C188E1F8A42C02F
:10241000812C912C2DC0812C912C35C08824839443
:10242000912CA12CB12C18C088248394912CA12C20
:10243000B12CEBCF88248394912CA12CB12C1BC000
:1024400088248394912CA12CB12C20C088248394BF
:10245000912CAA24A394B12C188E1F8AA0E0B0E07E
:102460001BC088248394912CCDCF88248394912CF5
:10247000AA24A394B12CE1E0F0E0F88FEF8BEECF2B
:1024800088248394912CAA24A394B12CE1E0F0E059
:10249000F88FEF8BA1E0B0E0109759F4629FC00174
:1024A000639F900D1124820F931F8659914FFC0159
:1024B0007083EF89F88DEF2B59F4629FC001639F01
:1024C000900D1124820F931F8E58914FFC01708341
:1024D000A114B10459F4629FC001639F900D1124AF
:1024E000820F931F8858914FFC01708381149104CF
:1024F00059F4629FC001639F900D1124820F931FB6
:102500008059914FFC0170834F5F5F4F2F5F3F4FAA
:102510004730510509F04FCF0F5F1F4FF7E06F0EA7
:10252000711C0730110509F03BCF0D851E85920106
:10253000A1016B897C89C6010196BCDA29893A8997
:10254000232B19F480E090E02CC080E090E0FC01A7
:10255000EE0FFF1FEE52F84E208131812F3F3F4F8B
:1025600011F00196F4CF019720E030E028173907E9
:102570004CF7D901AA0FBB1FAE52B84E4D915C91DA
:102580001197FC01EE0FFF1FEE52F84E6081718132
:1025900011967C936E93518340832F5F3F4F019739
:1025A000E5CFFC01EE0FFF1FEE52F84E2081318186
:1025B000EF85F889318320833296F88BEF87019677
:1025C000FC01EE0FFF1FEE52F84E208131812F3FAC
:1025D000FFEF3F0731F7EF85F88931832083689655
:1025E0000FB6F894DEBF0FBECDBFDF91CF911F9124
:1025F0000F91FF90EF90DF90CF90BF90AF909F90A2
:102600008F907F906F905F904F903F902F900895A4
:10261000CF93DF93C4E0D0E068E871E082E20E94EB
:10262000EB1B64EF71E080E090E0C8D482E2F1D26D
:1026300066E071E082E20E94EB1B64EF71E080E0F3
:1026400090E0BCD482E2E5D267E371E082E20E94CE
:10265000EB1B6AEF70E080E090E0B0D482E2D9D268
:102660006DE571E082E20E94EB1B6AEF70E080E0B2
:1026700090E0A4D482E2CDD2219771F6C4E0D0E0FC
:1026800068E871E082E20E94EB1B64EF71E080E099
:1026900090E094D482E2BDD266E071E082E20E94D2
:1026A000EB1B64EF71E080E090E088D482E2B1D26D
:1026B0006AE471E082E20E94EB1B6AEF70E080E066
:1026C00090E07CD482E2A5D26DE571E082E20E94C6
:1026D000EB1B6AEF70E080E090E070D482E299D268
:1026E000219771F668E871E082E20E94EB1B64EFCB
:1026F00071E080E090E062D482E28BD266E071E02B
:1027000082E20E94EB1B64EF71E080E090E056D41F
:1027100067E371E082E20E94EB1B6AEF70E080E009
:1027200090E04CD482E275D26DE571E082E20E94C5
:10273000EB1B6AEF70E080E090E040D482E269D267
:1027400066E271E082E20E94EB1B64EF71E080E0E0
:1027500090E034D482E25DD2C3E0D0E064EC70E07B
:1027600082E20E94EB1B64EF71E080E090E026D4EF
:1027700082E24FD269EE70E082E20E94EB1B6AEFC8
:1027800070E080E090E01AD482E243D266E071E02B
:1027900082E20E94EB1B6AEF70E080E090E00ED4D2
:1027A00082E237D266E271E082E20E94EB1B64EFC4
:1027B00071E080E090E002D482E22BD2219771F6A2
:1027C00064EC70E082E20E94EB1B64EF71E080E059
:1027D00090E0F4D382E21DD269EE70E082E2FBD792
:1027E0006AEF70E080E090E0E9D382E212D266E026
:1027F00071E082E2F0D76AEF70E080E090E0DED333
:1028000082E207D266E271E082E2E5D768EE73E029
:1028100080E090E0D3D382E2FCD16DE571E082E20A
:10282000DAD768EE73E080E090E0C8D382E2F1D1BD
:1028300069EE70E082E2CFD768EE73E080E090E06E
:10284000BDD382E2E6D167E371E082E2C4D76AEFEA
:1028500070E080E090E0B2D382E2DBD166E271E02A
:1028600082E2B9D76AEF70E080E090E0A7D382E21D
:10287000D0D16DE571E082E2AED768EE73E080E022
:1028800090E09CD382E2C5D169EE70E082E2A3D7EA
:1028900068EE73E080E090E091D382E2BAD167E322
:1028A00071E082E298D76AEF70E080E090E086D332
:1028B00082E2AFD166E271E082E28DD76AEF70E02A
:1028C00080E090E07BD382E2A4D166E071E082E216
:1028D00082D764EF71E080E090E070D382E299D11A
:1028E000C3E0D0E060ED70E082E275D76AEF70E09F
:1028F00080E090E063D382E28CD169EE70E082E206
:102900006AD76AEF70E080E090E058D382E281D12C
:1029100066E071E082E25FD764EF71E080E090E012
:102920004DD382E276D16FEA70E082E254D764EF51
:1029300071E080E090E042D382E26BD1219791F682
:1029400068E871E082E247D768EE73E080E090E0EB
:1029500035D382E25ED166E071E082E23CD768EE78
:1029600073E080E090E02AD382E253D167E371E024
:1029700082E231D76AEF70E080E090E01FD382E21C
:1029800048D16DE571E082E226D76AEF70E080E021
:1029900090E014D382E23DD168E871E082E21BD777
:1029A00068EE73E080E090E009D382E232D166E025
:1029B00071E082E210D768EE73E080E090E0FED232
:1029C00082E227D167E371E082E205D76AEF70E027
:1029D00080E090E0F3D282E21CD16DE571E082E20A
:1029E000FAD66AEF70E080E090E0E8D282E211D19E
:1029F00066E271E082E2EFD664EF71E080E090E0A1
:102A0000DDD282E206D1C4E0D0E064EC70E082E284
:102A1000E2D664EF71E080E090E0D0D282E2F9D0BB
:102A200069EE70E082E2D7D66AEF70E080E090E075
:102A3000C5D282E2EED066E071E082E2CCD66AEFE7
:102A400070E080E090E0BAD282E2E3D066E271E02A
:102A500082E2C1D664EF71E080E090E0AFD282E222
:102A6000D8D0219791F6DF91CF910895CF92DF9240
:102A7000EF92FF920F931F93CF93DF936C017A0134
:102A80008B01C0E0D0E0CE15DF0589F0D8016D9153
:102A90008D01D601ED91FC910190F081E02DC601F0
:102AA0001995892B11F47E0102C02196ECCFC70144
:102AB000DF91CF911F910F91FF90EF90DF90CF901A
:102AC00008953FB7F8948091D0189091D118A091B3
:102AD000D218B091D31826B5A89B05C02F3F19F086
:102AE0000196A11DB11D3FBFBA2FA92F982F88278E
:102AF000820F911DA11DB11DBC01CD0142E0660FE9
:102B0000771F881F991F4A95D1F70895089580E08F
:102B100090E008950E94C736362F90E0FC01E25AFB
:102B2000FE4F4491FC01EC55FE4F2491FC01EC5FFB
:102B3000FD4F9491992309F46BC0442309F455C0C7
:102B400050E0FA013197E231F10508F04EC08827D4
:102B5000E057FF4F8F4F0C94BF36809180008F77E6
:102B600007C0809180008F7D03C080918000877FA7
:102B7000809380003AC084B58F7702C084B58F7D82
:102B800084BD33C08091B0008F7703C08091B000C6
:102B90008F7D8093B00029C0809190008F7707C00F
:102BA000809190008F7D03C080919000877F8093FB
:102BB00090001BC08091A0008F7707C08091A0007B
:102BC0008F7D03C08091A000877F8093A0000DC0FF
:102BD000809120018F7707C0809120018F7D03C0F5
:102BE00080912001877F80932001E92FF0E0EE0F94
:102BF000FF1FE651FE4FA591B4918FB7F894EC9169
:102C0000311103C020952E2301C02E2B2C938FBF92
:102C100008959091620298133DC0EAE4F2E0E491D5
:102C20009FEF90936202E230C9F050F4EE2399F0E6
:102C3000E13081F590916F009D7F90936F002AC0E5
:102C4000E43019F1E0F0E53029F5909173009D7FB3
:102C5000909373001FC010926E001CC09091700082
:102C60009D7F9093700091E09093B0009091B1009F
:102C7000987F94609093B1001092B3000BC0909134
:102C800071009D7F9093710005C0909172009D7FAF
:102C90009093720060E040CF1F920F920FB60F9298
:102CA00011240BB60F922F933F934F935F936F9323
:102CB0007F938F939F93AF93BF93EF93FF938091F5
:102CC000D7189091D818A091D918B091DA18892BFB
:102CD0008A2B8B2B51F18091D418E091D518F0916B
:102CE000D6189081892780838091D7189091D81821
:102CF000A091D918B091DA18181619061A061B06F1
:102D0000BCF48091D7189091D818A091D918B0919F
:102D1000DA180197A109B1098093D7189093D818B0
:102D2000A093D918B093DA1803C08091620271DFC2
:102D3000FF91EF91BF91AF919F918F917F916F9193
:102D40005F914F913F912F910F900BBE0F900FBE4F
:102D50000F901F901895CF93DF93EC0160E08E8168
:102D6000DBDE61E08E81D8DE60E08E81D5DE8BE82F
:102D700091E00197F1F7DF91CF910895CF92DF9223
:102D8000EF92FF920F931F93CF93DF936C018B0110
:102D90007A01EC01CA5CD74E888187FF04C0FB0131
:102DA0001182108224C08CE08C9D90018D9D300D8D
:102DB00011248881A901480F511D87FD5A958091E2
:102DC0003A1890E04817590794F48881A901480FF0
:102DD000511D87FD5A95CA01FA01EE0FFF1F8E0F94
:102DE0009F1FFC01E55CF74E808186FD19C088813C
:102DF0008F5F88838CE08C9D90018D9D300D112418
:102E00008881A901480F511D87FD5A9580913A1874
:102E100090E048175907B4F488818C303CF112C017
:102E20008881280F311D87FD3A95F901EE0FFF1FAC
:102E30002E0F3F1FF901E55CF74E808160E08F7334
:102E40006BDED5CFF80180819181049680349C4956
:102E500018F480E49CE904C0F80180819181049613
:102E6000F701918380838FEF888344C0F80140810C
:102E700051818881B901680F711D87FD7A95CB0159
:102E8000FB01EE0FFF1F8E0F9F1FFC01E55CF74E4D
:102E900081819281840F951FF701918380838881BE
:102EA000A901480F511D87FD5A95CA01FA01EE0F7D
:102EB000FF1F8E0F9F1FFC01E55CF74E808186FF90
:102EC00019C08881280F311D87FD3A95F901EE0F51
:102ED000FF1F2E0F3F1FF901E55CF74E808161E077
:102EE0008F73DF91CF911F910F91FF90EF90DF9043
:102EF000CF9012CEDF91CF911F910F91FF90EF9065
:102F0000DF90CF900895CF93DF9390E0FC01EC55D4
:102F1000FE4F2491FC01EC5FFD4F8491882361F109
:102F200090E0880F991FFC01EC5BFE4FC591D49196
:102F3000FC01E651FE4FA591B491611109C09FB704
:102F4000F8948881209582238883EC912E230BC0EE
:102F5000623061F49FB7F8943881822F8095832383
:102F60008883EC912E2B2C939FBF06C08FB7F894CB
:102F7000E8812E2B28838FBFDF91CF910895863370
:102F800008F0865390917B00282F2870977F922B12
:102F900090937B008770806480937C0080917A009E
:102FA000806480937A0080917A0086FDFCCF8091C6
:102FB00078002091790090E0922B08958F929F9253
:102FC000AF92BF92CF92DF92EF92FF926B017C01A2
:102FD00078DD4B015C01C114D104E104F104E9F096
:102FE00070DDDC01CB0188199909AA09BB09883E6B
:102FF0009340A105B10578F321E0C21AD108E10898
:10300000F10888EE880E83E0981EA11CB11CC11443
:10301000D104E104F10421F7DECFFF90EF90DF90BF
:10302000CF90BF90AF909F908F9008951F920F9276
:103030000FB60F9211242F933F938F939F93AF93CB
:10304000BF938091CC189091CD18A091CE18B091DB
:10305000CF183091CB1823E0230F2D3720F40196A1
:10306000A11DB11D05C026E8230F0296A11DB11DAB
:103070002093CB188093CC189093CD18A093CE18A2
:10308000B093CF188091D0189091D118A091D218F8
:10309000B091D3180196A11DB11D8093D0189093C3
:1030A000D118A093D218B093D318BF91AF919F912C
:1030B0008F913F912F910F900FBE0F901F901895F9
:1030C000CF92DF92EF92FF920F931F93CF93DF93F4
:1030D0007C016C0187E0C80ED11CC0E0D0E0062F57
:1030E00010E0B8010C2E02C0759567950A94E2F7BE
:1030F0006170F60181916F010FDD2196C430D10519
:1031000081F7C701DF91CF911F910F91FF90EF9051
:10311000DF90CF9020CECF92DF92EF92FF920F936D
:103120001F93CF93DF93EC01F62E642F8C81F4DC98
:103130008D818F3F11F060E0EFDC8F850F2D10E067
:1031400084FF23C06E0187E0C80ED11CE12CF12C56
:10315000B8010E2C02C0759567950A94E2F761706C
:10316000F60181916F01D8DCFFEFEF1AFF0A88E0CA
:10317000E816F10469F7CE01DF91CF911F910F910D
:10318000FF90EF90DF90CF90E6CDB80184E0759589
:1031900067958A95E1F7CE0193DF6F2DCE01DF9120
:1031A000CF911F910F91FF90EF90DF90CF9088CF3C
:1031B00041E0B1DF81E090E0089540E0ACCF61E014
:1031C000FCDF8BE39FE10197F1F70895CF92DF9247
:1031D000EF92FF92CF93DF93EC01603282E07807A9
:1031E0000CF03DC077FD06C0653B71052CF064EB2B
:1031F00070E002C060E070E0898128E830E0690199
:10320000C81AD10887FDD394CC0CDD1CCC0CDD1C76
:103210000D2C000CEE08FF088A8128E532E0281BFF
:10322000310987FD3395220F331F220F331FC90148
:10323000330FAA0BBB0B9C01AD012C193D094E09A4
:103240005F09DB010E94463524EB30E040E050E0AE
:103250000E942035C20ED31EE41EF51EB6018881E1
:10326000803380F5998148E850E0491B510997FD6A
:103270005395440F551F440F551F6417750784F06D
:103280009A8128E532E0291B310997FD3395220FF9
:10329000331F220F331FAB01261737070CF4A90188
:1032A00042505109440F551F2FB7F89490E0FC018C
:1032B000EE0FFF1F8E0F9F1FFC01E55CF74E528340
:1032C00041832FBFDF91CF91FF90EF90DF90CF90A0
:1032D00008951F93CF93DF93EC01162F88818033DD
:1032E00008F04DC061E0812F0EDE8881E82FF0E00C
:1032F0009F01220F331FE20FF31FE55CF74E1F7390
:103300009081907C192B108319821A826CE00E94A4
:103310009F369CE0899FB001112440E050E09A0163
:10332000260F371FF901EE0FFF1F2E0F3F1FF90168
:10333000E55CF74E908196FD16C04F5F5F4F4C30B5
:10334000510569F7813001F51092800082E0809389
:1033500081001092850010928400B19A80916F00D4
:10336000826080936F00E881F0E0CF01880F991FA1
:10337000E80FF91FE55CF74E8081806480838881C7
:10338000DF91CF911F910895823061F410929000E7
:1033900080939100109295001092940088BB8093C6
:1033A0007100E1CF833069F41092A00082E0809335
:1033B000A1001092A5001092A40089BB8093720016
:1033C000D2CF8111D0CF1092200182E080932101D1
:1033D00010922501109224018ABB80937300C3CF01
:1033E000FC0190913A189033A0F481E0890F80930A
:1033F0003A189083892F90E0FC01EE0FFF1F8E0F8B
:103400009F1FFC01E55CF74E88EB9BE09283818374
:1034100008958FEF808308951F920F920FB60F9239
:1034200011240BB60F922F933F934F935F936F939B
:103430007F938F939F93AF93BF93EF93FF9348E254
:1034400051E064E271E080E090E098DCFF91EF9160
:10345000BF91AF919F918F917F916F915F914F91AC
:103460003F912F910F900BBE0F900FBE0F901F90AA
:1034700018951F920F920FB60F9211240BB60F9250
:103480002F933F934F935F936F937F938F939F936C
:10349000AF93BF93EF93FF9348EA50E064EA70E084
:1034A00083E090E06BDCFF91EF91BF91AF919F9132
:1034B0008F917F916F915F914F913F912F910F90DD
:1034C0000BBE0F900FBE0F901F9018951F920F927A
:1034D0000FB60F9211240BB60F922F933F934F9379
:1034E0005F936F937F938F939F93AF93BF93EF936C
:1034F000FF9348E950E064E970E082E090E03EDC50
:10350000FF91EF91BF91AF919F918F917F916F91BB
:103510005F914F913F912F910F900BBE0F900FBE77
:103520000F901F9018951F920F920FB60F921124B3
:103530000BB60F922F933F934F935F936F937F93AD
:103540008F939F93AF93BF93EF93FF9348E850E01F
:1035500064E870E081E090E011DCFF91EF91BF91B1
:10356000AF919F918F917F916F915F914F913F911B
:103570002F910F900BBE0F900FBE0F901F901895BC
:10358000009761F0FC0101900020E9F73197AF014D
:10359000481B590BBC018BED98E168CA80E090E0B4
:1035A00008958F929F92AF92BF920F931F93CF93E4
:1035B000DF93CDB7DEB7A1970FB6F894DEBF0FBE8D
:1035C000CDBF19A2423008F44AE08E010F5D1F4FB3
:1035D000842E912CA12CB12CA50194010E944C3574
:1035E000E62FB901CA0101501109EA3014F4E05D77
:1035F00001C0E95CD801EC93232B242B252B61F728
:10360000C801BEDFA1960FB6F894DEBF0FBECDBFD6
:10361000DF91CF911F910F91BF90AF909F908F90AE
:103620000895EF92FF920F931F93CF93DF93EC01D6
:10363000623018F08F8588608F876B8B1C8A80E4DE
:103640008D8B80E18E8B80E58F8B61E08C815BDCE4
:103650008D818F3F11F061E056DC61E08E8153DC9B
:103660007E0187E0E80EF11C00E010E08F8584FD0C
:1036700003C084E090E002C088E090E008171907DA
:1036800044F461E0F70181917F013DDC0F5F1F4F42
:10369000EDCF8BE39DE00197F1F760E08C813CDAA0
:1036A00060E08E8139DA8D818F3F11F060E034DA8D
:1036B0006F8564FD19C063E0CE0102DD0BE416E402
:1036C000C8010197F1F763E0CE01FADCC801019768
:1036D000F1F763E0CE01F4DC83E592E00197F1F7C6
:1036E00062E0CE01EDDC13C06062CE0166DD8BE4EA
:1036F00096E40197F1F76F856062CE015EDD83E5A8
:1037000092E00197F1F76F856062CE0156DD6F851B
:103710006062CE0152DD84E0888B6CE0CE014DDD2D
:10372000CE014DDD82E0898B66E0CE01DF91CF9145
:103730001F910F91FF90EF9040CDCF92DF92EF92CB
:10374000FF92CF93DF936C01990FEE08FF08F7FE0D
:103750001EC0E091DB18F091DC180190F081E02DA3
:103760006DE28BED98E11995EC0166277727CB0187
:103770006C197D098E099F094AE013DF8C0F9D1F8C
:10378000DF91CF91FF90EF90DF90CF9008954AE0C6
:10379000C701B601DF91CF91FF90EF90DF90CF90FE
:1037A00000CFEECE643008F063E09091EE18691718
:1037B00010F06FEF690FE62FF0E0E552F74E9489B5
:1037C000682F690F60688BED98E1F7CCBC0180E051
:1037D00090E04AE0E6CE8F929F92AF92BF92CF9256
:1037E000DF92EF92FF92CF9390916202981721F0AF
:1037F0009F3F09F0CEC204C0EAE4F2E0C491FEC0EB
:1038000080936202EAE4F2E0C491CF3F09F4C1C2BE
:10381000C23009F47EC06CF5CC2309F459C0C13024
:1038200009F0ECC01092800010928100909181000C
:1038300098609093810090918100916090938100B5
:10384000282F30E0F901EC5FFD4FE491F0E0EE0F3E
:10385000FF1FE651FE4F459154915093FE1840933F
:10386000FD18F901EC55FE4FE491E093FC18C1E01E
:10387000C7C0C43009F49BC00CF472C0C53009F055
:10388000BDC01092200110922101909121019860F9
:103890009093210190912101916090932101282F13
:1038A00030E0F901EC5FFD4FE491F0E0EE0FFF1F17
:1038B000E651FE4F459154915093F5184093F418FA
:1038C000F901EC55FE4FE491E093F318C5E098C080
:1038D00014BC15BC94B5926094BD95B5916095BD2E
:1038E000282F30E0F901EC5FFD4FE491F0E0EE0F9E
:1038F000FF1FE651FE4F459154915093011940939B
:103900000019F901EC55FE4FE491E093FF18C0E077
:1039100077C01092B0001092B1009091B000926008
:103920009093B0009091B10091609093B100282FD6
:1039300030E0F901EC5FFD4FE491F0E0EE0FFF1F86
:10394000E651FE4F459154915093D6184093D518A7
:10395000F901EC55FE4FE491E093D418C2E050C059
:103960001092900010929100909191009860909325
:10397000910090919100916090939100282F30E0F8
:10398000F901EC5FFD4FE491F0E0EE0FFF1FE6510F
:10399000FE4F459154915093FB184093FA18F9014A
:1039A000EC55FE4FE491E093F918C3E029C0109262
:1039B000A0001092A1009091A10098609093A100A6
:1039C0009091A10091609093A100282F30E0F9011F
:1039D000EC5FFD4FE491F0E0EE0FFF1FE651FE4F6C
:1039E000459154915093F8184093F718F901EC550C
:1039F000FE4FE491E093F618C4E002C0C7FDC9C1D0
:103A00006B0161E080DAE12CF12C8C2F8D7F09F0C5
:103A1000A0C060E072E18AE790E0A70196010E94F1
:103A2000203549015A01DA01C9010197A109B109FB
:103A30008F3F9105A105B10509F008F442C060E48B
:103A400072E48FE090E0A70196010E942035DA0130
:103A5000C9010197A109B109C230E1F48F3F910575
:103A6000A105B10509F008F492C160E970ED83E0A9
:103A700090E0A70196010E942035DA01C901019763
:103A8000A109B1098F3F9105A105B10509F088F59C
:103A900023E058C08F3F9105A105B105A1F098F032
:103AA00068E478EE81E090E0A70196010E9420355D
:103AB000DA01C9010197A109B109CC2309F41BC19D
:103AC0005EC121E001C022E0CC2371F03BC0D501F2
:103AD000C4012AE0B595A795979587952A95D1F7C2
:103AE0000197A109B10925E035B5387F232B25BD04
:103AF00087C068E478EE81E090E0A70196010E941B
:103B00002035DA01C9010197A109B1098F3F91055B
:103B1000A105B10509F008F4ECC064E274EF80E09F
:103B200090E0A70196010E942035DA01C9010197B2
:103B3000A109B1098F3F9105A105B10511F008F068
:103B4000F8C025E03091B100387F232B2093B100DD
:103B500046C060E072E18AE790E0A70196010E940A
:103B60002035DA01C9010197A109B109009721E0C7
:103B7000A207B10578F068E478EE81E090E0A70153
:103B800096010E942035DA01C9010197A109B10906
:103B900023E001C021E0C13039F430918100387F49
:103BA000232B209381003EC0C33039F43091910023
:103BB000387F232B209391005DC0C43039F43091BD
:103BC000A100387F232B2093A10069C0C53039F4B0
:103BD00030912101387F232B2093210175C0C23001
:103BE000B1F134F4CC2361F0C13009F0D2C01AC075
:103BF000C43009F454C0F4F1C53009F465C0C9C03B
:103C000087BD8FEF9FEFDC018093121990931319FA
:103C1000A0931419B093151980916E00826080935F
:103C20006E00B7C090938900809388008FEF9FEF5C
:103C3000DC0180930E1990930F19A0931019B09383
:103C4000111980916F00826080936F00A2C08093F1
:103C5000B3008FEF9FEFDC018093D7189093D818B3
:103C6000A093D918B093DA18809170008260809385
:103C700070008FC090939900809398008FEF9FEF12
:103C8000DC0180930A1990930B19A0930C19B0933F
:103C90000D19809171008260809371007AC09093B9
:103CA000A9008093A8008FEF9FEFDC018093061995
:103CB00090930719A0930819B09309198091720085
:103CC00082608093720065C09093290180932801DF
:103CD0008FEF9FEFDC018093021990930319A0935B
:103CE0000419B0930519809173008260809373006A
:103CF00050C024E027CF8F3F9105A105B105B9F051
:103D0000B0F062E17AE780E090E0A70196010E94BE
:103D10002035DA01C9010197A109B1098F3F910549
:103D2000A105B10511F008F0D2CE24E0DDCE23E0EC
:103D3000DBCE62E17AE780E090E0A70196010E9485
:103D40002035DA01C9010197A109B1098F3F910519
:103D5000A105B10591F088F0D501C4013AE0B5950F
:103D6000A795979587953A95D1F70197A109B1093C
:103D7000CC2309F4B8CE27E0E5CE26E0A5CE8F3FD0
:103D80009105A105B10509F0A0F624E09DCE22E041
:103D9000D9CECF91FF90EF90DF90CF90BF90AF90B2
:103DA0009F908F900895CF93DF9300D000D0CDB730
:103DB000DEB7789484B5826084BD84B5816084BDAB
:103DC00085B5826085BD85B5816085BD80916E00B9
:103DD000816080936E0010928100809181008260EA
:103DE0008093810080918100816080938100809127
:103DF00080008160809380008091B1008460809316
:103E0000B1008091B00081608093B00080919100FA
:103E100082608093910080919100816080939100F5
:103E2000809190008160809390008091A1008260D9
:103E30008093A1008091A10081608093A100809176
:103E4000A00081608093A000809121018260809316
:103E500021018091210181608093210180912001C5
:103E600081608093200180917A00846080937A0041
:103E700080917A00826080937A0080917A008160DC
:103E800080937A0080917A00806880937A00109203
:103E9000C10081B18F6081B982B1807F82B9809188
:103EA0000A01886180930A0180910B0188618093E7
:103EB0000B01109221018FEF8093250191E09093E7
:103EC0002401109229018093280110922B018093E4
:103ED0002A0110922D0180932C0189EA8093200100
:103EE0008BE0809321011092C1001092C00086E007
:103EF0008093C2008FE58093C4001092C50088E9CA
:103F00008093C1008AB18E6F8AB9589A0E94510D70
:103F10006C98749A6D98759AF89480916A00826092
:103F200080936A00EC9A7894F89480916A00886093
:103F300080936A00ED9A78948AB18E6F8AB9589A04
:103F40000E94510D61E082E20E94831760E08CE3E1
:103F50000E94831760E08EE30E94831761E086E091
:103F60000E94831760E086E00E948C1561E084E285
:103F70000E94831760E084E20E948C1562E08BED62
:103F800098E14FDB61E087E20E94831760E087E2FF
:103F90000E948C1561E082E20E94831760E087E353
:103FA0000E94831760E088E30E94831760E089E342
:103FB0000E94831761E081E30E94831761E08FE232
:103FC0000E94831761E080E30E9483176BE070E03A
:103FD0008CED92E07ED96CE070E08FED92E079D9C3
:103FE0006DE070E082EE92E074D924EA222E332450
:103FF0003394412C512CAA24A394B12C6AE070E094
:1040000082EE92E0E3D866E470E08FED92E0DED8D5
:1040100060EA70E08CED92E0D9D864EF71E080E066
:1040200090E00E94DE1780918E0210928E02109214
:10403000F9028091F9028A3088F4E091F902F0E007
:10404000EE0FFF1FEB51FD4F83E690E091838083DD
:104050008091F9028F5F8093F902EBCFA3E0B0E08B
:10406000B093CC02A093CB0267E481E30E94880363
:104070009093D2028093D1028091D1029091D2028A
:104080009093790380937803E1E0F0E0F093D40219
:10409000E093D3028091F6049091F704892B09F004
:1040A000CFC58091DA029091DB029A838983892BB4
:1040B00009F01AC10E94E103019709F015C180912E
:1040C0008A0290918B02C09719F40FE210E002C0AF
:1040D00003E610E080918A0290918B02069741F4EA
:1040E0008091780390917903059711F406E010E030
:1040F0008091880290918902069741F4809178031B
:1041000090917903059711F406E010E0609178032F
:1041100070917903B9E2CB2ED12C8BE1E82EF12CF2
:1041200023E630E04DE050E08CE694E00E9446113A
:1041300080916E0490916F0490937703809376033F
:1041400080918A0290918B02069751F480917603B8
:1041500090917703059721F4A3E68A2E912C03C052
:10416000FDE08F2E912C8091880290918902069714
:1041700029F4A5E0B0E0BC83AB8304C0E3E6F0E043
:10418000FC83EB83209176033091770360918A0260
:1041900070918B02E9E2CE2ED12C74010B811C812F
:1041A0004BE150E08AE793E00E944611612C712CAC
:1041B000C30101969E838D83880F991F8C0104593A
:1041C0001B4FD8012D913C912D30310551F0FC0150
:1041D000E658FC4F208131812B31310511F00C94D0
:1041E000A32D8091880290918902449711F00C943C
:1041F000782E80916E0490916F04439711F00C9487
:10420000782E13E6612E712C80918802909189029C
:10421000449711F00C947D2E80917C0390917D0346
:10422000439711F00C947D2EA3E68A2E912C809159
:10423000880290918902069711F40C94822E809145
:10424000880290918902449711F40C948F2E8091EA
:10425000880290918902449711F40C94A72E8091C2
:104260008802909189020D9711F40C94BC2E009154
:104270007C0310917D0320916E0430916F04609156
:104280008802709189026301740149E250E084EF71
:1042900093E00E94461189819A8101969C838B83C9
:1042A000880F991FFC01E459FB4F208131812D308B
:1042B000310511F00C94C92EFC01E658FC4F208109
:1042C00031812B31310511F00C94D32E0E94D8038B
:1042D0008091DA029091DB0201969093DB02809349
:1042E000DA028FEF8093D9028091DA029091DB029B
:1042F000019709F045C11092CE021092CD0264E6FA
:1043000070E080E090E00E94DE1710928E02E09153
:10431000CD02F091CE02EE0FFF1FE658FC4F8081D8
:1043200091819093F3038093F20310928D02109287
:104330008C028091F2039091F30367E070E00E9499
:10434000AB3683309105B1F130F481309105A1F0A5
:10435000029709F108C08530910509F449C0C8F1F8
:10436000069709F454C080918E02886080938E0273
:10437000B0928D02A0928C0280918C0290918D025D
:10438000892B49F480918E02806180938E02B092D5
:104390008D02A0928C0280918C0290918D02892BCB
:1043A00049F480918E02886180938E02B0928D02D2
:1043B000A0928C0280918C0290918D02892B49F4FD
:1043C00080918E02806280938E02B0928D02A092C4
:1043D0008C0280918C0290918D02892B49F48091FE
:1043E0008E02886280938E02B0928D02A0928C021F
:1043F00080918C0290918D02892B49F480918E02DC
:10440000806380938E02B0928D02A0928C02809184
:104410008C0290918D02892B49F480918E028863E1
:1044200080938E02B0928D02A0928C0210928D0227
:1044300010928C028091F2039091F30367E070E098
:104440000E94AB366730710508F06AC0FB0188270F
:10445000EE58FF4F8F4F0C94BF3680918E028160D3
:1044600080938E02B0928D02A0928C0280918C0279
:1044700090918D02892B49F480918E028260809305
:104480008E02B0928D02A0928C0280918C0290914B
:104490008D02892B49F480918E02836080938E0275
:1044A000B0928D02A0928C0280918C0290918D022C
:1044B000892B49F480918E02846080938E02B092A1
:1044C0008D02A0928C0280918C0290918D02892B9A
:1044D00049F480918E02856080938E02B0928D02A5
:1044E000A0928C0280918C0290918D02892B49F4CC
:1044F00080918E02866080938E02B0928D02A0928F
:104500008C0280918C0290918D02892B49F48091CC
:104510008E02876080938E02B0928D02A0928C02F0
:1045200010928D0210928C028091CD029091CE0259
:1045300001969093CE028093CD0280918E0280648A
:1045400080938E0280918E028093C600E091CD020E
:10455000F091CE02EE0FFF1FE858FC4F8081918151
:104560004B9709F0CCCE1092CE021092CD028091E2
:10457000DA029091DB0201969093DB028093DA02DB
:104580008091DA029091DB02029709F047C1109204
:104590008E021092CE021092CD0264E670E080E0AE
:1045A00090E00E94DE1710928E02E091CD02F09111
:1045B000CE02EE0FFF1FEC50FC4F80819181909353
:1045C000F3038093F20310928D0210928C0280917B
:1045D000F2039091F30367E070E00E94AB36833002
:1045E0009105B1F130F481309105A1F0029709F104
:1045F00008C08530910509F449C0C8F1069709F44F
:1046000054C080918E02886080938E02B0928D0299
:10461000A0928C0280918C0290918D02892B49F49A
:1046200080918E02806180938E02B0928D02A09262
:104630008C0280918C0290918D02892B49F480919B
:104640008E02886180938E02B0928D02A0928C02BD
:1046500080918C0290918D02892B49F480918E0279
:10466000806280938E02B0928D02A0928C02809123
:104670008C0290918D02892B49F480918E02886280
:1046800080938E02B0928D02A0928C0280918C0257
:1046900090918D02892B49F480918E0280638093E2
:1046A0008E02B0928D02A0928C0280918C02909129
:1046B0008D02892B49F480918E02886380938E024B
:1046C000B0928D02A0928C0210928D0210928C02F8
:1046D0008091F2039091F30367E070E00E94AB36A3
:1046E0006730710508F06AC0FB018827E758FF4F63
:1046F0008F4F0C94BF3680918E02816080938E0222
:10470000B0928D02A0928C0280918C0290918D02C9
:10471000892B49F480918E02826080938E02B09240
:104720008D02A0928C0280918C0290918D02892B37
:1047300049F480918E02836080938E02B0928D0244
:10474000A0928C0280918C0290918D02892B49F469
:1047500080918E02846080938E02B0928D02A0922E
:104760008C0280918C0290918D02892B49F480916A
:104770008E02856080938E02B0928D02A0928C0290
:1047800080918C0290918D02892B49F480918E0248
:10479000866080938E02B0928D02A0928C028091EE
:1047A0008C0290918D02892B49F480918E02876052
:1047B00080938E02B0928D02A0928C0210928D0294
:1047C00010928C028091CD029091CE02019690932E
:1047D000CE028093CD0280918E02806880938E02FB
:1047E00080918E028093C600E091CD02F091CE02BE
:1047F000EE0FFF1FEE50FC4F80819181899709F0E9
:10480000CCCE1092CE021092CD028091DA0290911D
:10481000DB0201969093DB028093DA028091DA0248
:104820009091DB02039779F48091DA029091DB0298
:1048300001969093DB028093DA021092C600B09248
:10484000D402A092D3028091DA029091DB02049705
:1048500079F40E94E103019759F40E94D8038091F2
:10486000DA029091DB0201969093DB028093DA02E8
:104870008091DA029091DB02059709F0C2C1809124
:10488000CB029091CC02892B31F480916C049091F1
:104890006D04079626C08091CB029091CC020197BF
:1048A00031F480916C0490916D0401971AC080914D
:1048B000CB029091CC02029731F480916C049091DC
:1048C0006D0407970EC08091CB029091CC020397A4
:1048D00031F480916C0490916D04019602C080E0E7
:1048E00090E020E030E0A9014F5F5F4FFA01EE0F4A
:1048F000FF1FE459FB4F608171816F3F7F4F11F0C3
:104900009A01F1CF2E5F3F4FA90141505109FA01A1
:10491000EE0FFF1FE459FB4F60817181220F331F9F
:10492000F901E459FB4F718360839A01452B61F7CC
:1049300090936D0480936C049093D2028093D10283
:1049400060906C0470906D0480906E0490906F0481
:10495000E0907004F090710401E010E06801CC0C6C
:10496000DD1CC60184599B4F9A838983A981BA8132
:104970008D919C91019609F42DC189E30E94BF1786
:10498000092E000CAA0BBB0B9C01AD012E51310965
:1049900041095109A6E9B0E00E943C35A20191010C
:1049A0000E94203530939A022093990288E30E9456
:1049B000BF17092E000CAA0BBB0B9C01AD012E5199
:1049C000310941095109A6E9B0E00E943C35A20134
:1049D00091010E942035309398022093970287E33B
:1049E0000E94BF17092E000CAA0BBB0B9C01AD0146
:1049F0002E51310941095109A6E9B0E00E943C3528
:104A0000A20191010E9420353093960220939502D5
:104A1000109294021092930261E081E00E94D21BF6
:104A2000C3010E949D1B80E792E00E94D11BC4013C
:104A30000E949D1B80E792E00E94D11BC7010E944B
:104A40009D1B8091990290919A02059744F4809160
:104A5000950290919602059714F40C94DA308091A7
:104A6000990290919A020B9774F08091990290911B
:104A70009A024E9744F48091930290919402892B6C
:104A800011F40C94EC308091990290919A024F9716
:104A900074F08091990290919A02C29744F48091A7
:104AA000930290919402892B11F40C94FB30809125
:104AB000990290919A02C3977CF08091990290910B
:104AC0009A028634910544F4809193029091940265
:104AD000892B11F40C9405318091950290919602E6
:104AE0000B9774F080919502909196024E9744F442
:104AF0008091930290919402892B11F40C940F31C0
:104B000080919502909196024F9774F08091950252
:104B100090919602C29744F48091930290919402EE
:104B2000892B11F40C941E3180919502909196027C
:104B3000C3977CF0809195029091960286349105FE
:104B400044F48091930290919402892B11F40C9477
:104B500028318091970290919802873491050CF446
:104B600005CF8091990290919A02873491050CF4B7
:104B7000FDCE8091950290919602873491050CF4B8
:104B8000F5CE0E94FB030E94D3070E940A0360E057
:104B900080E00E94D21B8091D1029091D2020E94AB
:104BA000E61B8FE692E00E94D11B8091CB02909190
:104BB000CC020E94E61BFFEF23EC69E0F15020409D
:104BC0006040E1F700C000008FEFE816F80611F032
:104BD0000C9432318091DA029091DB02019690932D
:104BE000DB028093DA021092C600B092D402A09247
:104BF000D30286E490E00E943C0583E090E00E94AE
:104C000024058091DA029091DB02069709F042CAEE
:104C10000E94E103019709F03DCA0E94D803109257
:104C2000DB021092DA028091F6049091F70401966B
:104C30009093F7048093F60481E08093D9022ACA06
:104C40008091F6049091F704019709F0A8C3809130
:104C5000DA029091DB02892B09F0FBC08091D1022E
:104C60009091D2020D9741F08091D1029091D202A1
:104C7000079711F00C940C328EE30E94BF179093AB
:104C8000F5048093F40480E590E00E943C050E94C6
:104C9000FB0364E670E080E090E00E94DE17009184
:104CA000F4041091F5048EE30E94BF17045111091A
:104CB0008017910714F00C9455325C9A5D9AE3E6E4
:104CC000F0E0F093F304E093F2045E985F981092A2
:104CD0008F02109290021092910210929202FFEFB6
:104CE00021EE64E0F15020406040E1F700C0000098
:104CF00080918F0290919002A0919102B0919202C6
:104D00008093EC049093ED04A093EE04B093EF0431
:104D100064EF71E080E090E00E94DE175E9A5F9A97
:104D200010928F02109290021092910210929202B1
:104D30008FEF91EEA4E081509040A040E1F700C0D9
:104D4000000080918F0290919002A0919102B09109
:104D500092028093E4049093E504A093E604B09358
:104D6000E70464EF71E080E090E00E94DE175E9857
:104D70005F9A10928F0210929002109291021092FC
:104D80009202BFEFE1EEF4E0B150E040F040E1F715
:104D900000C0000080918F0290919002A09191023A
:104DA000B09192028093E8049093E904A093EA04FE
:104DB000B093EB0464EF71E080E090E00E94DE17B6
:104DC0004091EC045091ED046091EE047091EF0479
:104DD0008091E8049091E904A091EA04B091EB0479
:104DE00084179507A607B70710F40C94103240916A
:104DF000E4045091E5046091E6047091E704809129
:104E0000E8049091E904A091EA04B091EB048417BE
:104E10009507A607B70710F40C9427324091E804D1
:104E20005091E9046091EA047091EB048091EC04E4
:104E30009091ED04A091EE04B091EF0484179507D2
:104E4000A607B70710F40C943E32B092DB02A09292
:104E5000DA028091DA029091DB02019709F072C0C8
:104E60008091F2049091F3040197C1F461E080E332
:104E70000E948C1564EF71E080E090E00E94DE17E4
:104E80000E94020760E080E30E948C150E943A05B0
:104E900096E99093280190932A0147C08091F204EB
:104EA0009091F304892BF1F461E081E30E948C1569
:104EB00064EF71E080E090E00E94DE178091D10203
:104EC0009091D20261E070E00E945F0160E081E3B6
:104ED0000E948C150E943A05A6E9A0932801A09390
:104EE0002A0123C08091F2049091F304029719F5EE
:104EF00061E08FE20E948C1564EF71E080E090E049
:104F00000E94DE178091D1029091D20262E070E09F
:104F10000E945F0160E08FE20E948C150E943A05BA
:104F2000B6E9B0932801B0932A0164E670E080E00E
:104F300090E00E94DE17E2E0F0E0F093DB02E09305
:104F4000DA02A8C88091DA029091DB02029709F098
:104F5000F4C089E30E94BF17092E000CAA0BBB0BFB
:104F60009C01AD012E51310941095109A6E9B0E07A
:104F70000E943C35A20191010E94203530939A0293
:104F80002093990288E30E94BF17092E000CAA0BF8
:104F9000BB0B9C01AD012E51310941095109A6E914
:104FA000B0E00E943C35A20191010E94203530936F
:104FB00098022093970287E30E94BF17092E000CE6
:104FC000AA0BBB0B9C01AD012E51310941095109BE
:104FD000A6E9B0E00E943C35A20191010E94203573
:104FE00030939602209395021092940210929302AD
:104FF0008091990290919A02059744F480919502CC
:1050000090919602059714F40C9471328091990254
:1050100090919A020B9774F08091990290919A0264
:105020004E9744F48091930290919402892B11F44D
:105030000C9481328091990290919A024F9774F06A
:105040008091990290919A02C29744F480919302C0
:1050500090919402892B11F40C948E3280919902D4
:1050600090919A02C3977CF08091990290919A0254
:105070008634910544F48091930290919402892B97
:1050800011F40C94963280919502909196020B97B0
:1050900074F080919502909196024E9744F480911D
:1050A000930290919402892B11F40C949E3280917A
:1050B0009502909196024F9774F08091950290918D
:1050C0009602C29744F48091930290919402892BA6
:1050D00011F40C94AB328091950290919602C39793
:1050E0007CF080919502909196028634910544F46B
:1050F0008091930290919402892B11F40C94B33215
:1051000080919702909198028734910514F40C9441
:105110004A208091990290919A028734910514F463
:105120000C944A20809195029091960287349105C3
:1051300014F00C94BB320C944A208091DA029091C6
:10514000DB02039711F00C944A2081E08093D9028E
:1051500082E390E09093D0028093CF020E94E1031B
:10516000019711F00C944A208FEF8093D902A2E0AE
:10517000B0E0B093F704A093F6041092DB02109213
:10518000DA020E94D8038091D1029091D2024B970B
:1051900009F4F1C089E30E94BF17092E000CAA0B85
:1051A000BB0B9C01AD012E51310941095109A6E902
:1051B000B0E00E943C35A20191010E94203530935D
:1051C0009A022093990288E30E94BF17092E000CCF
:1051D000AA0BBB0B9C01AD012E51310941095109AC
:1051E000A6E9B0E00E943C35A20191010E94203561
:1051F000309398022093970287E30E94BF17092EED
:10520000000CAA0BBB0B9C01AD012E5131094109C9
:105210005109A6E9B0E00E943C35A20191010E942B
:1052200020353093960220939502109294021092AA
:1052300093028091990290919A02059744F480918B
:10524000950290919602059714F40C942D33809159
:10525000990290919A020B9774F080919902909123
:105260009A024E9744F48091930290919402892B74
:1052700011F40C943F338091990290919A024F97C8
:1052800074F08091990290919A02C29744F48091AF
:10529000930290919402892B11F40C944E338091D7
:1052A000990290919A02C3977CF080919902909113
:1052B0009A028634910544F480919302909194026D
:1052C000892B11F40C945833809195029091960299
:1052D0000B9774F080919502909196024E9744F44A
:1052E0008091930290919402892B11F40C94623373
:1052F00080919502909196024F9774F0809195025B
:1053000090919602C29744F48091930290919402F6
:10531000892B11F40C94713380919502909196022F
:10532000C3977CF080919502909196028634910506
:1053300044F48091930290919402892B11F40C947F
:105340007B338091970290919802873491050CF4F9
:105350001ACF8091990290919A02873491050CF4AA
:1053600012CF8091950290919602873491050CF4AA
:105370000ACF0C9485330E94FB031092C600B092B2
:10538000D402A092D3021092CE021092CD020E94BB
:10539000E103892BE1F30E94D8030C944A20809109
:1053A000F6049091F704029709F0DDC18091DA02CA
:1053B0009091DB02892B09F05FC08BED98E10E9490
:1053C000DF1860E080E00E94D21B8091D1029091B2
:1053D000D2020E94E61B8FE692E00E94D11B8091D0
:1053E000CB029091CC020E94E61B8FE692E00E94D5
:1053F000D11BE091CD02F091CE02EE0FFF1FEF53D3
:10540000FD4F808191810E949D1B8091CF029091E0
:10541000D002892BB9F48091BF029091C002892BF0
:1054200019F485E190E00AC0E091CD02F091CE023E
:10543000EE0FFF1FEF53FD4F808191810E944F0BB4
:105440000C944A208091CF029091D002C29711F023
:105450000C944A208091BD029091BE02892B19F4D0
:105460008BE190E0EBCFE091CD02F091CE02EE0F18
:10547000FF1FED54FD4FE0CF8091DA029091DB02E7
:105480000197E9F561E080E30E948C150E94020714
:1054900060E080E30E948C150E943A0566E9609303
:1054A000280160932A0164E670E080E090E00E94A9
:1054B000DE171092DB021092DA028091CF029091F7
:1054C000D002892B51F48091BF029091C0020197C4
:1054D0009093C0028093BF02CDC18091CF02909182
:1054E000D002C29711F00C944A208091BD02909195
:1054F000BE0201979093BE028093BD02BBC1809112
:10550000DA029091DB02029711F00C944A200E947B
:10551000E103019711F00C944A200E94D8031FEF79
:105520008091D1029091D202899709F4F1C089E368
:105530000E94BF17092E000CAA0BBB0B9C01AD01EA
:105540002E51310941095109A6E9B0E00E943C35CC
:10555000A20191010E94203530939A022093990272
:1055600088E30E94BF17092E000CAA0BBB0B9C01FD
:10557000AD012E51310941095109A6E9B0E00E945F
:105580003C35A20191010E9420353093980220936E
:10559000970287E30E94BF17092E000CAA0BBB0BD2
:1055A0009C01AD012E51310941095109A6E9B0E034
:1055B0000E943C35A20191010E9420353093960251
:1055C0002093950210929402109293028091990276
:1055D00090919A02059744F48091950290919602D9
:1055E000059714F40C94CC338091990290919A020F
:1055F0000B9774F08091990290919A024E9744F41F
:105600008091930290919402892B11F40C94DE33D3
:105610008091990290919A024F9774F0809199022B
:1056200090919A02C29744F48091930290919402CF
:10563000892B11F40C94ED338091990290919A0288
:10564000C3977CF08091990290919A0286349105DB
:1056500044F48091930290919402892B11F40C945C
:10566000F73380919502909196020B9774F0809198
:105670009502909196024E9744F4809193029091F6
:105680009402892B11F40C9401348091950290912D
:1056900096024F9774F08091950290919602C2976E
:1056A00044F48091930290919402892B11F40C940C
:1056B00010348091950290919602C3977CF080916E
:1056C0009502909196028634910544F4809193025C
:1056D00090919402892B11F40C941A3480919702C2
:1056E00090919802873491050CF41ACF8091990219
:1056F00090919A02873491050CF412CF8091950213
:1057000090919602873491050CF40ACF0C942434BE
:105710008091F0049091F10401969093F1048093AC
:10572000F0041092D0021092CF021092CE0210928A
:10573000CD021092DB021092DA028091F604909171
:10574000F70401969093F7048093F6040E94FB03FC
:105750001092C600B092D402A092D3020E94E1033C
:10576000892BE1F318CE8091F6049091F70403970A
:1057700009F0BAC08091DA029091DB02892BB9F569
:105780008091CF029091D002892B91F48091B10247
:105790009091B202892B19F483E290E024C0E09149
:1057A000CD02F091CE02EE0FFF1FE955FD4F19C05B
:1057B0008091CF029091D002C29711F00C944A20B0
:1057C0008091A5029091A602892B19F489E290E0BC
:1057D0000AC0E091CD02F091CE02EE0FFF1FE55618
:1057E000FD4F808191810E940D090C944A20809187
:1057F000DA029091DB02019709F047C061E080E393
:105800000E948C150E94020760E080E30E948C15C4
:105810000E943A05B6E9B0932801B0932A0164E6E4
:1058200070E080E090E00E94DE171092DB021092A0
:10583000DA028091CF029091D002892B51F48091AD
:10584000B1029091B20201979093B2028093B1029B
:1058500011C08091CF029091D002C29711F00C94A8
:105860004A208091A5029091A60201979093A602EA
:105870008093A5028091CD029091CE0201969093E3
:10588000CE028093CD020C944A208091DA0290914E
:10589000DB02029711F00C944A200E94E103019769
:1058A00011F00C944A200E94D8038091F00490914A
:1058B000F10401969093F1048093F0041092D002C9
:1058C0001092CF021092CE021092CD021092DB0203
:1058D0001092DA020E943A05E6E9E0932801E0938B
:1058E0002A0184E090E0FCC08091F6049091F704D6
:1058F000049709F0FBC08091D1029091D202C49725
:1059000009F4E9C089E30E94BF17092E000CAA0B15
:10591000BB0B9C01AD012E51310941095109A6E98A
:10592000B0E00E943C35A20191010E9420353093E5
:105930009A022093990288E30E94BF17092E000C57
:10594000AA0BBB0B9C01AD012E5131094109510934
:10595000A6E9B0E00E943C35A20191010E942035E9
:10596000309398022093970287E30E94BF17092E75
:10597000000CAA0BBB0B9C01AD012E513109410952
:105980005109A6E9B0E00E943C35A20191010E94B4
:105990002035309396022093950210929402109233
:1059A00093028091990290919A0205973CF480911C
:1059B00095029091960205970CF48EC780919902FA
:1059C00090919A020B976CF08091990290919A02B3
:1059D0004E973CF48091930290919402892B09F4A4
:1059E0008CC78091990290919A024F976CF08091A8
:1059F000990290919A02C2973CF4809193029091FF
:105A00009402892B09F487C78091990290919A0298
:105A1000C39774F08091990290919A02863491050F
:105A20003CF48091930290919402892B09F47CC7F5
:105A300080919502909196020B976CF0809195025F
:105A4000909196024E973CF480919302909194022B
:105A5000892B09F472C780919502909196024F9715
:105A60006CF08091950290919602C2973CF48091DF
:105A7000930290919402892B09F46DC7809195024D
:105A800090919602C39774F080919502909196023E
:105A9000863491053CF48091930290919402892B75
:105AA00009F462C78091970290919802873491051A
:105AB0000CF421CF8091990290919A02873491053C
:105AC0000CF419CF8091950290919602873491053C
:105AD0000CF411CF52C78091F6049091F70401960F
